:100000000C94ED000C9415010C9415010C94150141
:100010000C9415010C9415010C9415010C94150108
:100020000C9415010C9415010C9400030C947203AC
:100030000C9415010C9415010C9415010C941501E8
:100040000C9415010C9415010C9415010C941501D8
:100050000C9415010C9415010C9415010C947E0759
:100060000C9415010C9415010C9415010C941501B8
:100070000C9415010C9415010C9415010C941501A8
:100080000C9415010C9415010C9415010C94150198
:100090000C9415010C9415010C9415010C94150188
:1000A0000C9415010C9415010C94150134023702BF
:1000B00026022A0230025802580258023B023F022E
:1000C000430249024D02580253020000000024007E
:1000D00027002A002D003000000000002500280025
:1000E0002B002E0031000000000023002600290014
:1000F0002C002F000404040404030405020202027D
:1001000004030202020206060606060604040202B0
:100110000204040408020110408040102040804086
:10012000800802040180402010020110801020404D
:1001300040200000000200090F0000030401000C31
:1001400000000000000000000000000000000000AF
:1001500000080B0002020201000904000001020273
:1001600000000524001001052401010104240206F9
:100170000524060001070581031000400904010061
:10018000020A000000070502024000000705830282
:100190004000000403090441726475696E6F204CCD
:1001A0004C430041726475696E6F204D6963726FD4
:1001B00000120100020000004041233780000101CD
:1001C00002030112010002EF0201404123378000C7
:1001D000010102030100AA0D960D11241FBECFEFED
:1001E000DAE0DEBFCDBF12E0A0E0B1E0E0EBF7E285
:1001F00002C005900D92AC34B107D9F723E0ACE40E
:10020000B2E001C01D92A835B207E1F710E0CCEED4
:10021000D0E004C02197FE010E941D0FCB3ED10704
:10022000C9F70E94100A0C94CB130C940000409163
:1002300060025091610220915E0230915F0242178C
:100240005307B4F49091E8009570E1F39091E800C1
:1002500092FD19C08093F10080916002909161023B
:1002600001968F739927892B19F48EEF8093E800FC
:100270008091600290916102019690936102809357
:10028000600281E0089580E00895CF92DF92EF92BE
:10029000FF920F931F93CF93DF931F92CDB7DEB7DB
:1002A000182F062FE42E862F880F8E5F99830E94C9
:1002B000170183E00E941701F12EC12E9981D92EDA
:1002C0008C2D8F19801798F4F601E7FE02C08491F7
:1002D00001C080810E941701182F80E00E94170141
:1002E0008123FFEFCF1ADF0A8111EACF01C081E03D
:1002F0000F90DF91CF911F910F91FF90EF90DF90C2
:10030000CF900895DF92EF92FF920F931F93CF93B8
:10031000DF93D82E8A017B01E40EF51EEB01CE158A
:10032000DF0571F0D7FE03C0FE01849101C0888112
:100330000E94170121968111F2CF8FEF9FEF01C02C
:10034000C801DF91CF911F910F91FF90EF90DF9047
:100350000895615030F02091F100FC012083019656
:10036000F8CF289A84E6809366020895CF92DF92B0
:10037000EF92FF920F931F93CF93DF936C017A015B
:100380008B01C0E0D0E0CE15DF0589F0D8016D917A
:100390008D01D601ED91FC910190F081E02DC60117
:1003A0000995892B11F47E0102C02196ECCFC7017B
:1003B000DF91CF911F910F91FF90EF90DF90CF9041
:1003C0000895CF93DF931F92CDB7DEB76983DC0129
:1003D000ED91FC910280F381E02D41E050E0BE01FF
:1003E0006F5F7F4F09950F90DF91CF91089583E064
:1003F0008093E9008091F200882319F08AE38093CA
:10040000E8000895FC018485958597FD0BC09FB792
:10041000F89482E08093E9008091F2009FBF90E021
:10042000019608959FB7F89482E08093E900809147
:10043000F2009FBF90E0089590E0FC013197EF300B
:10044000F105B0F5EA5AFF4F0C941D0F8091800022
:100450008F7703C0809180008F7D80938000089506
:1004600080918000877FF9CF84B58F7702C084B5F3
:100470008F7D84BD0895809190008F7707C0809113
:1004800090008F7D03C080919000877F80939000C3
:1004900008958091C0008F7703C08091C0008F7D48
:1004A0008093C00008958091C200877F8093C2002E
:1004B00008953FB7F8948091510290915202A09113
:1004C0005302B091540226B5A89B05C02F3F19F0E6
:1004D0000196A11DB11D3FBFBA2FA92F982F8827C4
:1004E000820F911DA11DB11DBC01CD0142E0660F1F
:1004F000771F881F991F4A95D1F708952FB7F89451
:1005000060914D0270914E0280914F029091500285
:100510002FBF08950F931F93CF93DF931F92CDB7F3
:10052000DEB782E0898342E450E061E571E080E873
:100530000E9482010E94FC09DC0112960D911C911F
:1005400013970115110569F0D801ED91FC91028016
:10055000F381E02DBE016F5F7F4FC801099597FFC2
:1005600007C089810F90DF91CF911F910F9108955E
:10057000F80100851185E5CF0F931F93CF93DF938B
:100580001F92CDB7DEB78C01FC018485958597FF5E
:100590000EC0CE0101960E94D209019719F429815B
:1005A00030E002C02FEF3FEFF80135872487F801D4
:1005B000848595850F90DF91CF911F910F910895BC
:1005C000CF93DF931F92CDB7DEB7FC01848595856D
:1005D00097FD05C02FEF3FEF358724870BC0CE0175
:1005E00001960E94D209019719F4898190E002C016
:1005F0008FEF9FEF0F90DF91CF9108950C94D7105C
:100600001F920F920FB60F9211248F939F93809198
:10061000E1009091E100937F9093E10083FF0FC090
:100620001092E90091E09093EB001092EC0092E3BD
:100630009093ED001092670298E09093F00082FF93
:1006400020C093E09093E9009091F200992319F073
:100650009AE39093E80090916502992339F0909184
:100660006502915090936502992389F190916602F9
:10067000992339F0909166029150909366029923E4
:1006800041F184FF10C08091E2008E7E81608093F2
:10069000E2008091E1008F7E8093E100809164020E
:1006A0008E7E806111C080FF16C08091E2008E7E38
:1006B00080618093E2008091E1008E7E8093E10072
:1006C000809164028E7E81608093640204C05D9894
:1006D000CDCF2898D6CF9F918F910F900FBE0F90BE
:1006E0001F9018951F920F920FB60F921124CF9260
:1006F000DF92EF92FF920F931F932F933F934F93AD
:100700005F936F937F938F939F93AF93BF93EF9379
:10071000FF93CF93DF93CDB7DEB76C97DEBFCDBF2E
:100720001092E9008091E80083FFFAC168E0CE01F1
:1007300045960E94A90182EF8093E8008D8987FF8A
:1007400005C09091E80090FFFCCF03C09EEF90930E
:10075000E800982F907609F0C6C09E892F89188DE1
:1007600091110CC0803829F4809163028093F100CC
:1007700002C01092F1001092F10047C1422F50E0E8
:10078000512B913051F4811140C14130510509F094
:100790003CC1809163028D7F0BC0933061F4811165
:1007A00034C14130510509F030C18091630282604B
:1007B000809363022AC1953041F48091E80080FF64
:1007C000FCCF20682093E30020C1963009F05FC081
:1007D000EB8CFC8C1092E900109261021092600286
:1007E000123091F510925F0210925E020E948A020E
:1007F00099E0BE016F5F7F4FDB01E92F1D92EA9503
:10080000E9F799831A8391E09E8390EA98879AEF9B
:1008100099872091600230916102275F3F4F3C83AE
:100820002B838D831092E900109261021092600276
:10083000F0925F02E0925E0249E050E080E00E94A8
:1008400082010E948A02E1C0F0925F02E0925E02A1
:100850000E94FC09DC011296ED90FC901397E114C4
:10086000F10409F4C0C0D701ED91FC910480F58139
:10087000E02DBE016B5E7F4FC7010995009719F00F
:100880000CF0C3C0C6C0F701E084F184E8CF973014
:1008900009F4BFC0983021F481E08093F100B5C025
:1008A000993009F0B2C0837009F0B3C0E3E1F1E020
:1008B00081E021E036E39081992361F08093E900A3
:1008C0002093EB0091919093EC003093ED008F5FBB
:1008D000873089F78EE78093EA001092EA008F89CB
:1008E0008093670292C08B8D9C8D1092E9001092CC
:1008F00061021092600290935F0280935E02898D84
:10090000811156C08E899D89913A59F4813209F03E
:1009100080C047E050E064E071E080E00E94820126
:1009200074C0913209F075C0833289F4888D90E0EB
:10093000982F88272F89822BA0E0B0E080930001B8
:1009400090930101A0930201B09303015EC0803235
:1009500069F48091E80082FFFCCF67E084E091E0D9
:100960000E94A9018BEF8093E80006C0823209F053
:100970004CC08F8980930B0180916202882319F00B
:10098000EEEFFAE002C0E0E0F8E08091040190911F
:100990000501A0910601B0910701803B9440A1059B
:1009A000B10509F088C080910B0180FFA0C083C011
:1009B0000E94FC09DC0112960D911C911397011500
:1009C000110539F1D801ED91FC910190F081E02DF4
:1009D000BE016B5E7F4FC8010995811116C0F801F9
:1009E00000851185ECCF1130C1F0133091F48F895F
:1009F000882309F455C08230E9F440E86DE083EAC9
:100A000091E00E944501882321F08EEF8093E80059
:100A100087C081E28093EB0083C08B8D9C8D08970B
:100A200011F410935D0280915D02811136C061EB7B
:100A300071E038C0813029F440E86BE087E991E04B
:100A4000E0CF833031F70E94FC09DC011296ED9073
:100A5000FC9013978E010F5F1F4F6801E114F104A2
:100A600079F0D701ED91FC910680F781E02DB80176
:100A7000C7010995080F111DF701E084F184EECF3D
:100A8000D8011C92F60101900020E9F73197BF01CF
:100A90006C197D0940E0C601B4CF63EC71E002C07F
:100AA00063E971E06115710509F4B3CFFB0144916D
:100AB00050E080E833CF0FB6F894A895809160009D
:100AC000886180936000109260000FBEA895EE3F91
:100AD0002AE0F20739F08091FE0A9091FF0A918393
:100AE000808393CF1092FF0A1092FE0A8ECFEE3FC2
:100AF0008AE0F80731F0808191819093FF0A80931A
:100B0000FE0A87E797E7918380839BE088E10FB631
:100B1000F894A895809360000FBE9093600075CF05
:100B20006C960FB6F894DEBF0FBECDBFDF91CF91AC
:100B3000FF91EF91BF91AF919F918F917F916F91B5
:100B40005F914F913F912F911F910F91FF90EF90E7
:100B5000DF90CF900F900FBE0F901F9018956115EA
:100B6000710579F0FB0101900020E9F73197AF01A1
:100B7000461B570BDC01ED91FC910280F381E02DC7
:100B8000099480E090E008954F925F926F927F9277
:100B9000EF92FF920F931F93CF93DF93CDB7DEB702
:100BA000A1970FB6F894DEBF0FBECDBF7C01FA014E
:100BB000CB0119A2223008F42AE08E010F5D1F4FED
:100BC000422E512C612C712CBF01A30192010E9475
:100BD0007213F901CA01015011096A3014F4605D01
:100BE00001C0695CD8016C93232B242B252B61F762
:100BF000B801C7010E94AF05A1960FB6F894DEBFF9
:100C00000FBECDBFDF91CF911F910F91FF90EF905D
:100C10007F906F905F904F9008950F931F93CF93A5
:100C2000DF93EC010E94AF058C0160E471E0CE011E
:100C30000E94AF05800F911FDF91CF911F910F91FF
:100C400008950C94AF05CF93DF93282F30E0F9017E
:100C5000EE5CFE4F8491F901ED5EFE4FD491F901F7
:100C6000EC50FF4FC491CC2391F081110E941C02E3
:100C7000EC2FF0E0EE0FFF1FEA51FF4FA591B4916A
:100C8000EC91ED2381E090E021F480E002C080E06F
:100C900090E0DF91CF9108951F93CF93DF93282F9A
:100CA00030E0F901EE5CFE4F8491F901ED5EFE4FFC
:100CB000D491F901EC50FF4FC491CC23C9F0162F09
:100CC00081110E941C02EC2FF0E0EE0FFF1FE85292
:100CD000FF4FA591B4918FB7F894111105C09C9165
:100CE000ED2FE095E92302C0EC91ED2BEC938FBF43
:100CF000DF91CF911F910895CF93DF9390E0FC0196
:100D0000ED5EFE4F2491FC01EC50FF4F849188234F
:100D100061F190E0880F991FFC01E653FF4FC591E8
:100D2000D491FC01E852FF4FA591B491611109C023
:100D30009FB7F8948881209582238883EC912E2395
:100D40000BC0623061F49FB7F8943881822F809590
:100D500083238883EC912E2B2C939FBF06C08FB7E3
:100D6000F894E8812E2B28838FBFDF91CF910895CF
:100D70008F929F92AF92BF92CF92DF92EF92FF92AB
:100D80006B017C010E9459024B015C01C114D1042A
:100D9000E104F104F1F00E945902DC01CB01881951
:100DA0009909AA09BB09883E9340A105B10570F3D2
:100DB00021E0C21AD108E108F10888EE880E83E02C
:100DC000981EA11CB11CC114D104E104F10419F74F
:100DD000DDCFFF90EF90DF90CF90BF90AF909F90CE
:100DE0008F9008958F929F92AF92BF92CF92DF9291
:100DF000EF92FF920F931F93CF93DF935C016B01F0
:100E00008A0180910B01882309F45EC080916702FA
:100E1000882309F459C08091640280FF05C0809145
:100E2000E00082608093E000E8018AEFF82E93E012
:100E3000E92E2FE3822E3AE3932E209709F43DC04A
:100E40008FB7F894E092E9009091E80095FF06C012
:100E50009091F200282D291B922F01C090E08FBFA6
:100E600091110AC0FA94FF2079F161E070E080E00E
:100E700090E00E94B806E1CF292F30E0C217D307D7
:100E80000CF49C2F8FB7F894E092E9002091E800D1
:100E900025FF11C0292F30E0C21BD30BF601915062
:100EA00020F041914093F100FACFC20ED31E9091F1
:100EB000E80095FF13C08FBFC0CF5D9A84E6809392
:100EC00065021016110644F081E090E0F50193836D
:100ED000828380E090E005C0C80103C09092E800E2
:100EE000EACFDF91CF911F910F91FF90EF90DF90AC
:100EF000CF90BF90AF909F908F9008951F920F92C8
:100F00000FB60F9211242F933F938F939F93AF931C
:100F1000BF9380914D0290914E02A0914F02B091EB
:100F2000500230914C0223E0230F2D3720F401961C
:100F3000A11DB11D05C026E8230F0296A11DB11DFC
:100F400020934C0280934D0290934E02A0934F0247
:100F5000B09350028091510290915202A09153029D
:100F6000B09154020196A11DB11D8093510290933E
:100F70005202A0935302B0935402BF91AF919F913C
:100F80008F913F912F910F900FBE0F901F9018954A
:100F9000DF92EF92FF920F931F93CF93DF93EC01B9
:100FA0008B810E942306892BD9F76A818B810E944D
:100FB0006C08082F6A818B810E946C08182F6A8147
:100FC0008B810E946C08D82EE12CF12C2C8130E012
:100FD000E216F30660F461E08A810E944C0660E04C
:100FE0008A810E944C062FEFE21AF20AEFCF812F7E
:100FF00090E0A0E0B0E0BA2FA92F982F8827A02B6F
:10100000AC01BD014D29802F880F880B90E0A0E036
:10101000B0E0B82FAA27992788278A019B01082BBF
:10102000192B2A2B3B2BC901B801DF91CF911F91BE
:101030000F91FF90EF90DF90089508950E9439126C
:10104000EF92FF920F931F93CF93DF93EC011982DE
:1010500018821B821A821D821C8261157105A9F1FA
:101060007B01FB0101900020E9F731978F01061BFE
:10107000170BB8016F5F7F4F80E090E00E946F1107
:10108000009759F0998388831B830A832C813D81C3
:10109000232B81F4FC0110820DC088819981009777
:1010A00011F00E94D710198218821D821C821B82A7
:1010B0001A820BC01D830C83B701DF91CF911F9162
:1010C0000F91FF90EF900C944712DF91CF911F91F9
:1010D0000F91FF90EF900895FF920F931F93CF937E
:1010E000DF93F82E062FC7E0D0E010E061E0802FFC
:1010F0000E944C068F2D0E9423060C2E01C0880FE3
:101100000A94EAF7182B60E0802F0E944C06219782
:1011100068F7812FDF91CF911F910F91FF90089574
:10112000CF92DF92EF92FF9260E0809149030E949C
:101130004C0661E0809149030E944C0660910003D7
:1011400070910103072E000C880B990B0E94B806C2
:1011500060E0809149030E944C0687E493E00E947E
:10116000C807C0904C03D0904D03E0904E03F09020
:101170004F036C197D098E099F090E945512209119
:1011800050033091510340915203509153030E94F8
:10119000900F2DEC3CEC4CEC5DE30E94B4126B0123
:1011A0007C012AE037ED43E25CE30E944E1287FFA8
:1011B0000DC02AE037ED43E25CEBC701B6010E94A7
:1011C000381018161CF4C12CD12C7601C701B601B9
:1011D000FF90EF90DF90CF9008954F925F926F92C3
:1011E0007F928F929F92AF92BF92CF92DF92EF92B7
:1011F000FF926B017C01B42E9B01AC010E943D105B
:10120000882319F06DE372E027C026013701E894C6
:1012100077F82FEF3FEF4FE75FE7C301B2010E947E
:101220003D1081110DC02FEF3FEF4FE75FE7C30186
:10123000B2010E944E1218161CF461E472E00CC058
:101240002FEF3FEF4FE75FE4C701B6010E94381070
:10125000181694F465E472E088E692E0FF90EF904F
:10126000DF90CF90BF90AF909F908F907F906F90C6
:101270005F904F900C94AF052FEF3FEF4FE75FEC7F
:10128000C701B6010E944E1287FDE4CF20E030E096
:10129000A901C701B6010E944E1287FF11C0E0915B
:1012A0006802F09169020190F081E02D6DE288E61C
:1012B00092E009954C01F7FAF094F7F8F09402C027
:1012C000812C912CA12C60E070E080E09FE3AB14B6
:1012D00041F020E030E040E251E40E94900FA394FE
:1012E000F6CF9B01AC01C701B6010E94240F2B0170
:1012F0003C010E9409106B017C010E9453129B016A
:10130000AC01C301B2010E94230F2B013C012AE072
:10131000B701A60188E692E00E94C4057C01E80CB2
:10132000F91CBB2041F069E472E088E692E00E947B
:10133000AF05E80EF91EDB2CDD2031F120E030E0B6
:1013400040E251E4C301B2010E94B4122B013C01FE
:101350000E9409104B01A12CB12C2AE0B501A40177
:1013600088E692E00E94C405E80EF91EC501B401AA
:101370000E9453129B01AC01C301B2010E94230FD2
:101380002B013C01DA94D8CFC701FF90EF90DF909A
:10139000CF90BF90AF909F908F907F906F905F9015
:1013A0004F900895FC0180916702811103C08FEF77
:1013B0009FEF08959FB7F89482E08093E900209111
:1013C000F20030E01216130614F421E030E021158B
:1013D000310559F0289A84E6809366028091F100E5
:1013E00080838091F200882319F09FBFC90108957E
:1013F0008BE68093E800F9CF80913F0381110DC007
:1014000082E080933B0384E080933C0310923E0390
:1014100010923D0381E080933F038BE393E00895B6
:10142000789484B5826084BD84B5816084BD85B5BF
:10143000826085BD85B5816085BD80916E008160CB
:1014400080936E0010928100809181008260809371
:101450008100809181008160809381008091800073
:1014600081608093800080919100826080939100E0
:1014700080919100816080939100809190008160C3
:10148000809390008091C10084608093C10080911E
:10149000C10082608093C1008091C100816080930F
:1014A000C1008091C30081608093C3008091C0001F
:1014B00082608093C0008091C20081608093C200EE
:1014C00080917A00846080937A0080917A008260B3
:1014D00080937A0080917A00816080937A00809175
:1014E0007A00806880937A001092670210926302FB
:1014F000109264028091D70081608093D70080EAC7
:101500008093D80089B5806189BD89B5826089BD25
:1015100009B400FEFDCF61E070E080E090E00E9441
:10152000B8068091D8008F7C80618093D80080912C
:10153000E000807F8093E0008091E1008E7E8093C8
:10154000E1008DE08093E200559A209A5D982898FA
:10155000EEEFFFE7859194918B3F9C4D19F481E06C
:10156000809362021092FC021092FD021092FE0221
:101570001092FF021092BA021092BB021092BC02AB
:101580001092BD0260ED77E080E090E00E94B80626
:1015900088E692E09093FB028093FA02CBE1D0E0E0
:1015A00010910B016AE070E080E090E00E94B806C4
:1015B000111109C0219739F064E670E080E090E0F5
:1015C0000E94B806EDCFE091FA02F091FB02CFEF56
:1015D000DFEFD587C4870E947E026093BA027093C2
:1015E000BB028093BC029093BD0261E371E08091E5
:1015F000FA029091FB020E9421066AE070E080E00E
:1016000090E00E94B80681E08093CE02D0937502EC
:10161000C093740216E0C0E0D0E00E947E02672B07
:10162000682B692B41F40E947E02623071058105AE
:10163000910508F409C10E947E02609359027093DB
:101640005A0280935B0290935C02C0905502D09046
:101650005602E0905702F09058026C157D058E05F9
:101660009F0540F460935502709356028093570291
:1016700090935802C0905502D0905602E0905702C5
:10168000F09058029B01AC012C193D094E095F09ED
:1016900069017A013AEFC316D104E104F10408F4B8
:1016A000D3C0609355027093560280935702909373
:1016B000580284EF91E0A0E0B0E08093C6029093DE
:1016C000C702A093C802B093C9021092CA02109236
:1016D000CB021092CC021092CD028091BE0290916A
:1016E000BF02A091C002B091C1028093C202909348
:1016F000C302A093C402B093C5020E947E0260930D
:10170000BE027093BF028093C0029093C1020E94F8
:101710007E026093BA027093BB028093BC029093E6
:10172000BD020E947E026B017C0163E471E0809146
:10173000FA029091FB020E9421062AE041E050E06B
:1017400060E070E08091FA029091FB020E94C40573
:101750006AE471E08091FA029091FB020E942106F6
:101760002AE0B701A6018091FA029091FB020E9443
:10177000C4056CE471E08091FA029091FB020E9432
:1017800021068091BE029091BF02A091C002B0914B
:10179000C102B701A601481B590B6A0B7B0B2AE05B
:1017A0008091FA029091FB020E94C4056CE471E002
:1017B0008091FA029091FB020E9421064091BE02A4
:1017C0005091BF026091C0027091C1028091C2022B
:1017D0009091C302A091C402B091C502481B590B5D
:1017E0006A0B7B0B2AE08091FA029091FB020E9427
:1017F000C4056EE471E08091FA029091FB020E94B0
:1018000021060E947E02AB01BC012AE08091FA020F
:101810009091FB020E94C40560E571E08091FA029C
:101820009091FB020E940D0665E070E080E090E080
:101830000E94B8060E947E026093BE027093BF02AF
:101840008093C0029093C10267E571E088E692E060
:101850000E942106609102037091030380910403AA
:101860009091050342E00E94ED086FE671E088E682
:1018700092E00E940D0662E771E088E692E00E9425
:1018800021066091060370910703809108039091EF
:10189000090342E00E94ED086FE671E088E692E0FD
:1018A0000E940D066AE871E088E692E00E94210637
:1018B0000E94900842E00E94ED086FE671E088E621
:1018C00092E00E940D0662EA71E088E692E00E94D2
:1018D00021060E9490082B013C0180900203909009
:1018E0000303A0900403B0900503A5019401609147
:1018F00006037091070380910803909109030E94E9
:10190000230F6B017C016093120370931303809388
:10191000140390931503A5019401C301B2010E9421
:10192000230FA70196010E94900F60930A03709302
:101930000B0380930C0390930D0320911E033091B1
:101940001F0340912003509121030E94B4126B01A8
:101950007C0120E030E0A9010E944E1287FD09C001
:10196000C0920E03D0920F03E0921003F092110385
:1019700008C010920E0310920F03109210031092E1
:10198000110320E030E048EC52E460910E037091C6
:101990000F0380911003909111030E94B41242E052
:1019A0000E94ED0862EC71E088E692E00E940D066C
:1019B00060E471E088E692E00E94AF0564EC71E0BB
:1019C00088E692E00E942106809116030E94230679
:1019D0006C01809118030E9423067C0180912203F0
:1019E00090E0C816D90651F40E9490086093020353
:1019F00070930303809304039093050320912203C3
:101A000030E0E216F30651F40E949008609306035A
:101A10007093070380930803909309030E94900832
:101A20002B013C018090020390900303A0900403DB
:101A3000B0900503A501940160910603709107031E
:101A400080910803909109030E94230F6B017C0190
:101A50006093120370931303809314039093150300
:101A6000A5019401C301B2010E94230FA7019601B1
:101A70000E94900F6B017C0160930A0370930B032B
:101A800080930C0390930D0320E030E0A9010E94A5
:101A90004E1287FD1BC020911A0330911B03409109
:101AA0001C0350911D03C701B6010E944E1287FD11
:101AB00010C020E030E040E85FE3C701B6010E94BB
:101AC0004E1218164CF481E090E008C080E090E0DF
:101AD00005C082E090E002C083E090E0189FF00132
:101AE000199FF00D1124ED5DFC4FA0916802B0919B
:101AF000690244815581608171811296ED91FC915A
:101B0000139788E692E0099560E471E088E692E038
:101B10000E94AF056AED71E088E692E00E940D0632
:101B2000209709F47ACD0E94000077CDCF93DF9300
:101B300083E293E0892B59F0C5E3D3E08881998152
:101B40000E94D710269783E0CD31D807B9F7DF91EF
:101B5000CF910895CF92DF92EF92FF921F93CF9390
:101B6000DF93CDB7DEB72D970FB6F894DEBF0FBE6B
:101B7000CDBF10926B0210926A0288EE93E0A0E053
:101B8000B0E080936C0290936D02A0936E02B093CC
:101B90006F028DE191E090936902809368028FEF6C
:101BA0009FEF9093750280937402C12CD12C80E832
:101BB000E82E8FE3F82EC0920203D0920303E09246
:101BC0000403F092050380E090E0A0E4B0E4809389
:101BD000060390930703A0930803B09309031092A0
:101BE0000A0310920B0310920C0310920D03109233
:101BF0000E0310920F03109210031092110380E055
:101C000090E0A0E0B0E48093120390931303A093BC
:101C10001403B093150384E090E09093170380932E
:101C2000160385E090E090931903809318038AE9E6
:101C300099E9A9E9BEE380931A0390931B03A0934B
:101C40001C03B0931D03C0921E03D0921F03E092A9
:101C50002003F09221031092220362E072E083E2FB
:101C600093E00E94200862E172E089E293E00E9422
:101C7000200866E272E08FE293E00E94200864E3AD
:101C800072E085E393E00E94200862E080911603F1
:101C90000E947C0662E0809118030E947C068DE21F
:101CA00091E0909348038093470310924C03109265
:101CB0004D0310924E0310924F03C0925003D092E6
:101CC0005103E0925203F09253039A8389831E8258
:101CD0001F8218861986CA86DB86EC86FD8683E01D
:101CE0008B8382E08C8361E083E00E947C0660E06D
:101CF0008C810E947C0681E08D8360E08B810E9454
:101D00004C06CE0101960E94C8078B81809349033F
:101D10008C8180934A038D8180934B038E819F81B8
:101D2000A885B98580934C0390934D03A0934E03EF
:101D3000B0934F0380E090E1ABE0B7E480935003B1
:101D400090935103A0935203B09353031AE0C12C14
:101D5000D12C760187E493E00E94C807C60ED71EF7
:101D6000E81EF91E1150B1F7C701B6012AE030E0B4
:101D700040E050E00E94FE0ECA01B9010E945512D7
:101D80000E94021060934C0370934D0380934E03A6
:101D900090934F0384EF91E09093010380930003AD
:101DA0001092BE021092BF021092C0021092C102A5
:101DB0001092C2021092C3021092C4021092C50285
:101DC0001092C6021092C7021092C8021092C90265
:101DD0001092CA021092CB021092CC021092CD0245
:101DE0002D960FB6F894DEBF0FBECDBFDF91CF9119
:101DF0001F91FF90EF90DF90CF900895052E97FBF5
:101E00001EF400940E94150F57FD07D00E94721314
:101E100007FC03D04EF40C94150F50954095309567
:101E200021953F4F4F4F5F4F089590958095709546
:101E300061957F4F8F4F9F4F0895EE0FFF1F0590C5
:101E4000F491E02D09945058BB27AA270E943B0F1C
:101E50000C9438130E942A1338F00E94311320F09A
:101E600039F49F3F19F426F40C9427130EF4E095EF
:101E7000E7FB0C942113E92F0E94491358F3BA177A
:101E8000620773078407950720F079F4A6F50C9490
:101E90006B130EF4E0950B2EBA2FA02D0B01B90198
:101EA00090010C01CA01A0011124FF27591B99F0D0
:101EB000593F50F4503E68F11A16F040A22F232FDC
:101EC000342F4427585FF3CF469537952795A7952C
:101ED000F0405395C9F77EF41F16BA0B620B730BD3
:101EE000840BBAF09150A1F0FF0FBB1F661F771F44
:101EF000881FC2F70EC0BA0F621F731F841F48F4F9
:101F0000879577956795B795F7959E3F08F0B0CF81
:101F10009395880F08F09927EE0F97958795089568
:101F20000E94A40F0C9438130E94311358F00E94A1
:101F30002A1340F029F45F3F29F00C94211351112A
:101F40000C946C130C9427130E94491368F3992383
:101F5000B1F3552391F3951B550BBB27AA276217A5
:101F60007307840738F09F5F5F4F220F331F441FB2
:101F7000AA1FA9F335D00E2E3AF0E0E832D09150E6
:101F80005040E695001CCAF72BD0FE2F29D0660FD3
:101F9000771F881FBB1F261737074807AB07B0E816
:101FA00009F0BB0B802DBF01FF2793585F4F3AF01C
:101FB0009E3F510578F00C9421130C946C135F3FF5
:101FC000E4F3983ED4F3869577956795B795F795A2
:101FD0009F5FC9F7880F911D9695879597F908958A
:101FE000E1E0660F771F881FBB1F62177307840726
:101FF000BA0720F0621B730B840BBA0BEE1F88F735
:10200000E09508950E9409106894B1110C946C1326
:1020100008950E94511388F09F5798F0B92F99277F
:10202000B751B0F0E1F0660F771F881F991F1AF0C3
:10203000BA95C9F714C0B13091F00E946B13B1E0AA
:1020400008950C946B13672F782F8827B85F39F0A9
:10205000B93FCCF3869577956795B395D9F73EF45C
:1020600090958095709561957F4F8F4F9F4F089504
:102070000E94901208F48FEF08950E949012880B2E
:10208000990B0895CF93DF938230910510F482E08D
:1020900090E0E0915603F091570320E030E0C0E07B
:1020A000D0E0309711F14081518148175907C0F0B5
:1020B0004817590761F482819381209719F09B8317
:1020C0008A832BC0909357038093560326C0211513
:1020D000310519F04217530718F49A01BE01DF01C8
:1020E000EF010280F381E02DDCCF2115310509F1EC
:1020F000281B390B2430310590F412968D919C9158
:1021000013976115710521F0FB019383828304C04D
:102110009093570380935603FD01329644C0FD010E
:10212000E20FF31F81939193225031092D933C9339
:102130003AC02091540330915503232B41F4209150
:102140000E0130910F0130935503209354032091D9
:102150000C0130910D012115310541F42DB73EB729
:102160004091100150911101241B350BE091540353
:10217000F0915503E217F307A0F42E1B3F0B28172D
:10218000390778F0AC014E5F5F4F2417350748F0F0
:102190004E0F5F1F509355034093540381939193C7
:1021A00002C0E0E0F0E0CF01DF91CF9108950F93FE
:1021B0001F93CF93DF93009709F48CC0FC013297F3
:1021C00013821282009156031091570301151105D5
:1021D00081F420813181820F931F2091540330912B
:1021E00055032817390779F5F0935503E093540305
:1021F00071C0D80140E050E0AE17BF0750F412960E
:102200002D913C911397AD012115310509F1D901AB
:10221000F3CF9D01DA013383228360817181860FC0
:10222000971F8217930769F4EC0128813981260FE3
:10223000371F2E5F3F4F318320838A819B81938399
:102240008283452B29F4F0935703E093560342C051
:102250001396FC93EE931297ED01499159919E01CB
:10226000240F351FE217F30771F480819181840FE9
:10227000951F029611969C938E938281938113965B
:102280009C938E931297E0E0F0E0D80112968D9126
:102290009C911397009719F0F8018C01F6CF8D915E
:1022A0009C9198012E5F3F4F820F931F2091540302
:1022B000309155032817390769F4309729F41092A3
:1022C00057031092560302C01382128210935503D3
:1022D00000935403DF91CF911F910F910895A0E0D7
:1022E000B0E0E5E7F1E10C949813EC01009721F4DC
:1022F000CB010E944210B8C0FC01E60FF71F9C0101
:1023000022503109E217F30708F4ACC0D9010D914E
:102310001C91119706171707B0F00530110508F446
:102320009FC0C80104978617970708F499C0025008
:102330001109061B170B019311936D937C93CF0129
:102340000E94D7108DC05B01A01AB10A4C01800E0B
:10235000911EA0915603B091570340E050E0E12C4C
:10236000F12C109709F44AC0A815B905D1F56D9064
:102370007C901197630182E0C80ED11CCA14DB0463
:1023800080F1A3014A195B096A0182E0C80ED11CE1
:102390001296BC9012971396AC91B5E0CB16D1046F
:1023A00040F0B282A38351834083D9016D937C9323
:1023B0000AC00E5F1F4FC301800F911FF901918367
:1023C0008083EB2DFA2FE114F10431F0D70113963D
:1023D000FC93EE93129744C0F0935703E093560397
:1023E0003FC08D919C9111974817590708F4AC0193
:1023F0007D0112960D90BC91A02DB3CF8091540316
:102400009091550388159905E1F446175707C8F4CC
:1024100080910C0190910D01009741F48DB79EB70A
:102420004091100150911101841B950BE817F90799
:10243000C8F4F0935503E0935403F901718360836A
:102440000FC0CB010E9442107C01009759F0A801F7
:10245000BE010E943E12CE010E94D710C70104C0E7
:10246000CE0102C080E090E0CDB7DEB7EEE00C9484
:10247000B41381E090E0F8940C94CB13FB01DC01E1
:1024800002C001900D9241505040D8F70895FB01D1
:10249000DC0101900D920020E1F708950E94901256
:1024A00008F481E00895E89409C097FB3EF4909504
:1024B0008095709561957F4F8F4F9F4F9923A9F01D
:1024C000F92F96E9BB279395F695879577956795AC
:1024D000B795F111F8CFFAF4BB0F11F460FF1BC0F0
:1024E0006F5F7F4F8F4F9F4F16C0882311F096E983
:1024F00011C0772321F09EE8872F762F05C0662331
:1025000071F096E8862F70E060E02AF09A95660FE9
:10251000771F881FDAF7880F9695879597F90895A2
:10252000990F0008550FAA0BE0E8FEEF16161706E4
:10253000E807F907C0F012161306E407F50798F04C
:10254000621B730B840B950B39F40A2661F0232B65
:10255000242B252B21F408950A2609F4A140A695E1
:102560008FEF811D811D08950E94C7120C943813AE
:102570000E942A1338F00E94311320F0952311F0A5
:102580000C9421130C94271311240C946C130E94A7
:10259000491370F3959FC1F3950F50E0551F629F4B
:1025A000F001729FBB27F00DB11D639FAA27F00DAC
:1025B000B11DAA1F649F6627B00DA11D661F829FD3
:1025C0002227B00DA11D621F739FB00DA11D621FB8
:1025D000839FA00D611D221F749F3327A00D611DD5
:1025E000231F849F600D211D822F762F6A2F1124B7
:1025F0009F5750409AF0F1F088234AF0EE0FFF1FEA
:10260000BB1F661F771F881F91505040A9F79E3F40
:10261000510580F00C9421130C946C135F3FE4F38C
:10262000983ED4F3869577956795B795F795E79596
:102630009F5FC1F7FE2B880F911D9695879597F99F
:10264000089597F99F6780E870E060E008959FEF34
:1026500080EC089500240A94161617061806090639
:10266000089500240A941216130614060506089508
:10267000092E0394000C11F4882352F0BB0F40F490
:10268000BF2B11F460FF04C06F5F7F4F8F4F9F4FD0
:10269000089557FD9058440F551F59F05F3F71F052
:1026A0004795880F97FB991F61F09F3F79F08795B9
:1026B0000895121613061406551FF2CF4695F1DF42
:1026C00008C0161617061806991FF1CF86957105D2
:1026D000610508940895E894BB2766277727CB0106
:1026E00097F90895A1E21A2EAA1BBB1BFD010DC08C
:1026F000AA1FBB1FEE1FFF1FA217B307E407F507B2
:1027000020F0A21BB30BE40BF50B661F771F881F8D
:10271000991F1A9469F760957095809590959B0123
:10272000AC01BD01CF0108952F923F924F925F926D
:102730006F927F928F929F92AF92BF92CF92DF92D1
:10274000EF92FF920F931F93CF93DF93CDB7DEB736
:10275000CA1BDB0B0FB6F894DEBF0FBECDBF0994CA
:102760002A88398848885F846E847D848C849B8421
:10277000AA84B984C884DF80EE80FD800C811B812F
:10278000AA81B981CE0FD11D0FB6F894DEBF0FBE5E
:10279000CDBFED01089510E0CCEED0E004C0FE0105
:1027A0000E941D0F2196CD3ED107C9F7F894FFCFA7
:1027B000FFFFFFFF00E100000000000000005803E1
:1027C000800000C1808100000000000000E101F2F3
:1027D000060202E002BC02F701000000001D08FE34
:1027E00002564D4450565F317C315F564D44505631
:1027F0000D0A00564D4450455F003A323A007C00C5
:102800005F564D445045005065736F2064612067EA
:102810006172726166612076617A69613A20006B4B
:1028200067005065736F2064612067617272616632
:10283000612063686569613A20005065736F2061AB
:102840007475616C206E612062616C616E63613AC7
:1028500020005175616E746964616465206465204F
:1028600063616665206E6120676172726166613ABC
:1028700020002500536974756163616F20646120D5
:10288000676172726166613A20002D2D2D2D2D2D0C
:102890002D2D2D2D2D2D2D2D2D2D2D2D2D2D2D2D68
:1028A0002D2D2D2D2D2D2D2D2D2D2D2D2D2D2D2D58
:1028B0002D00466F72612064612062616C616E63FD
:1028C0006100416C6775656D20706567616E646F4E
:1028D00020636166650043616665206163616261D2
:1028E0006E646F0054656D2063616665006E616E95
:0C28F00000696E66006F7666002E000026
:00000001FF
