:100000000C9463000C948B000C948B000C948B006C
:100010000C948B000C948B000C948B000C948B0034
:100020000C948B000C948B000C948B000C948B0024
:100030000C948B000C948B000C948B000C948B0014
:100040000C9489030C948B000C94AC020C948602E3
:100050000C948B000C948B000C948B000C948B00F4
:100060000C948B000C948B000000000024002700EF
:100070002A0000000000250028002B0000000000DE
:1000800023002600290004040404040404040202DA
:100090000202020203030303030301020408102007
:1000A0004080010204081020010204081020000012
:1000B0000008000201000003040700000000000027
:1000C0000000E50AD50A11241FBECFEFD8E0DEBF3D
:1000D000CDBF12E0A0E0B1E0E0E6F3E202C005909F
:1000E0000D92AA36B107D9F723E0AAE6B2E001C023
:1000F0001D92A63CB207E1F710E0C2E6D0E004C0D2
:100100002197FE010E94B10CC136D107C9F70E94A8
:1001100013080C94A3110C940000DC01ED91FC91E8
:100120000190F081E02D0994CF92DF92EF92FF923F
:100130000F931F93CF93DF936C017A018B01C0E083
:10014000D0E0CE15DF0589F0D8016D918D01D60183
:10015000ED91FC910190F081E02DC6010995892B6C
:1001600011F47E0102C02196ECCFC701DF91CF913F
:100170001F910F91FF90EF90DF90CF900895FC01B9
:10018000918D828D981761F0828DDF01A80FB11DCE
:100190005D968C91928D9F5F9F73928F90E00895F2
:1001A0008FEF9FEF0895FC01918D828D981731F0AC
:1001B000828DE80FF11D858D90E008958FEF9FEF00
:1001C0000895FC01918D228D892F90E0805C9F4FD6
:1001D000821B91098F739927089583E792E00E940B
:1001E000E10021E0892B09F420E0822F0895FC0131
:1001F000848DDF01A80FB11DA35ABF4F2C91848DB0
:1002000090E001968F739927848FA689B7892C93E4
:10021000A089B1898C9180648C93938D848D98137F
:1002200006C00288F389E02D80818F7D8083089548
:10023000EF92FF920F931F93CF93DF93EC0181E036
:10024000888F9B8D8C8D981305C0E889F9898081F2
:1002500085FD24C0F62E0B8D10E00F5F1F4F0F732E
:100260001127E02E8C8DE8120CC00FB607FCFACFD8
:10027000E889F989808185FFF5CFCE010E94F700DA
:10028000F1CF8B8DFE01E80FF11DE35AFF4FF08295
:100290000B8FEA89FB898081806207C0EE89FF8924
:1002A0006083E889F98980818064808381E090E0BF
:1002B000DF91CF911F910F91FF90EF900895CF9311
:1002C000DF93EC01888D8823C9F0EA89FB8980815E
:1002D00085FD05C0A889B9898C9186FD0FC00FB630
:1002E00007FCF5CF808185FFF2CFA889B9898C9171
:1002F00085FFEDCFCE010E94F700E7CFDF91CF91D0
:10030000089580E090E0892B29F00E94ED00811192
:100310000C9400000895833081F028F4813099F026
:100320008230A1F008958730A9F08830B9F0843088
:10033000D1F4809180008F7D03C0809180008F7701
:1003400080938000089584B58F7702C084B58F7D37
:1003500084BD08958091B0008F7703C08091B00074
:100360008F7D8093B00008953FB7F89480916B0221
:1003700090916C02A0916D02B0916E0226B5A89B7F
:1003800005C02F3F19F00196A11DB11D3FBFBA2F27
:10039000A92F982F8827820F911DA11DB11DBC0187
:1003A000CD0142E0660F771F881F991F4A95D1F74C
:1003B00008958F929F92AF92BF92CF92DF92EF9269
:1003C000FF926B017C010E94B4014B015C01C114DE
:1003D000D104E104F104F1F00E94B401DC01CB018D
:1003E00088199909AA09BB09883E9340A105B1055E
:1003F00070F321E0C21AD108E108F10888EE880EF6
:1004000083E0981EA11CB11CC114D104E104F104C5
:1004100019F7DDCFFF90EF90DF90CF90BF90AF90B6
:100420009F908F9008950E94CD0F0C946B0EEF92C9
:10043000FF920F931F93CF93DF93EC017B018A010F
:1004400088819981009729F02A813B8124173507FB
:10045000F8F4B8016F5F7F4F0E94030F009759F0C7
:10046000998388831B830A832C813D81232B81F40C
:10047000FC0110820DC088819981009711F00E94C3
:100480006B0E198218821D821C821B821A8207C081
:100490001D830C83B701888199810E94DB0FCE01F7
:1004A000DF91CF911F910F91FF90EF900895FB0185
:1004B000DC0111961C921E9213961C921E921297AA
:1004C00015961C921E9214978617970749F0608123
:1004D00071816115710521F0448155810C941702D9
:1004E0000895FC01118210821382128215821482F7
:1004F0006115710551F0FB0101900020E9F731977A
:10050000AF01461B570B0C94170208951F920F92D0
:100510000FB60F9211242F933F934F935F936F93D6
:100520007F938F939F93AF93BF93EF93FF9383E753
:1005300092E00E94F700FF91EF91BF91AF919F91E0
:100540008F917F916F915F914F913F912F910F907C
:100550000FBE0F901F9018951F920F920FB60F921B
:1005600011242F938F939F93EF93FF93E091830236
:10057000F09184028081E0918902F0918A0282FDEB
:1005800012C0908180918C028F5F8F7320918D02B9
:10059000821751F0E0918C02F0E0ED58FD4F958FFD
:1005A00080938C0201C08081FF91EF919F918F9188
:1005B0002F910F900FBE0F901F901895CF93DF9340
:1005C000282F30E0F901E255FF4F8491F901E656FA
:1005D000FF4FD491F901EA57FF4FC491CC2391F01A
:1005E00081110E948B01EC2FF0E0EE0FFF1FE45809
:1005F000FF4FA591B491EC91ED2381E090E021F4BF
:1006000080E002C080E090E0DF91CF9108951F93D9
:10061000CF93DF93282F30E0F901E255FF4F84910B
:10062000F901E656FF4FD491F901EA57FF4FC49103
:10063000CC23C9F0162F81110E948B01EC2FF0E022
:10064000EE0FFF1FEE58FF4FA591B4918FB7F894AE
:10065000111105C09C91ED2FE095E92302C0EC91AA
:10066000ED2BEC938FBFDF91CF911F910895CF9326
:10067000DF93EC0160E08E810E94070361E08E81D0
:100680000E94070360E08E810E9407038BE891E0DF
:100690000197F1F7DF91CF910895CF93DF9390E029
:1006A000FC01E656FF4F2491FC01EA57FF4F84916D
:1006B000882361F190E0880F991FFC01E859FF4FF2
:1006C000C591D491FC01EE58FF4FA591B4916111F1
:1006D00009C09FB7F8948881209582238883EC9184
:1006E0002E230BC0623061F49FB7F8943881822FBB
:1006F000809583238883EC912E2B2C939FBF06C07B
:100700008FB7F894E8812E2B28838FBFDF91CF918C
:1007100008951F920F920FB60F9211242F933F93BB
:100720008F939F93AF93BF9380916F0290917002CC
:10073000A0917102B091720230916A0223E0230FFE
:100740002D3720F40196A11DB11D05C026E8230F09
:100750000296A11DB11D20936A0280936F029093AF
:100760007002A0937102B093720280916B0290911B
:100770006C02A0916D02B0916E020196A11DB11D97
:1007800080936B0290936C02A0936D02B0936E0203
:10079000BF91AF919F918F913F912F910F900FBE7D
:1007A0000F901F9018956115710579F0FB0101906C
:1007B0000020E9F73197AF01461B570BDC01ED91A3
:1007C000FC910280F381E02D099480E090E008958F
:1007D0004F925F926F927F92EF92FF920F931F93CF
:1007E000CF93DF93CDB7DEB7A1970FB6F894DEBFF6
:1007F0000FBECDBF7C01FA01CB0119A2223008F453
:100800002AE08E010F5D1F4F422E512C612C712C5E
:10081000BF01A30192010E941C11F901CA010150FC
:1008200011096A3014F4605D01C0695CD8016C93F1
:10083000232B242B252B61F7B801C7010E94D3037A
:10084000A1960FB6F894DEBF0FBECDBFDF91CF915A
:100850001F910F91FF90EF907F906F905F904F905E
:1008600008954F925F926F927F928F929F92AF9274
:10087000BF92CF92DF92EF92FF92CF93DF93EC0182
:100880006A017B01B22E9A01AB01C701B6010E9439
:10089000D10D882319F062E571E027C026013701E8
:1008A000E89477F82FEF3FEF4FE75FE7C301B2011E
:1008B0000E94D10D81110DC02FEF3FEF4FE75FE791
:1008C000C301B2010E94E20F18161CF466E571E044
:1008D0000CC02FEF3FEF4FE75FE4C701B6010E9466
:1008E000CC0D18169CF46AE571E0CE01DF91CF9132
:1008F000FF90EF90DF90CF90BF90AF909F908F9040
:100900007F906F905F904F900C94D3032FEF3FEF49
:100910004FE75FECC701B6010E94E20F87FDE3CF0E
:1009200020E030E0A901C701B6010E94E20F87FF75
:100930000AC06DE2CE010E948D004C01F7FAF094DE
:10094000F7F8F09402C0812C912CA12C60E070E0AB
:1009500080E09FE3AB1441F020E030E040E251E45E
:100960000E94240DA394F6CF9B01AC01C701B601F0
:100970000E94B80C2B013C010E949D0D6B017C0173
:100980000E94E70F9B01AC01C301B2010E94B70CAA
:100990002B013C012AE0B701A601CE010E94E80329
:1009A0007C01E80CF91CBB2031F06EE2CE010E9404
:1009B0008D00E80EF91EDB2CDD2029F120E030E06F
:1009C00040E251E4C301B2010E9448102B013C01F6
:1009D0000E949D0D4B01A12CB12C2AE0B501A40170
:1009E000CE010E94E803E80EF91EC501B4010E9481
:1009F000E70F9B01AC01C301B2010E94B70C2B01B0
:100A00003C01DA94D9CFC701DF91CF91FF90EF90ED
:100A1000DF90CF90BF90AF909F908F907F906F901E
:100A20005F904F9008950C94D303CF92DF92EF9292
:100A3000FF92CF937C010E940611C82FC701019637
:100A40000E9406116C2F70E0782B072E000C880B8B
:100A5000990B0E94E90F20E030E048EC52E40E943C
:100A6000240D6B017C016EE571E083E792E00E944A
:100A70001305C701B6010E94DA07C701B601CF917D
:100A8000FF90EF90DF90CF900895CF92DF92EF929A
:100A9000FF92CF93DF93EC01CB01BA0120E030E06D
:100AA00048EC52E40E9448100E94960D6B017C01B4
:100AB000CE010E940E116D2DCE0101960E940E11E5
:100AC0006CE671E083E792E00E9413050D2C000CA8
:100AD000EE08FF08F7FE0EC06DE283E792E00E9489
:100AE0008D0044275527BA014C195D096E097F090D
:100AF0002AE003C02AE0B701A60183E792E00E9442
:100B0000E8036CE871E083E792E00E94D30381E0A0
:100B1000DF91CF91FF90EF90DF90CF900895DF921B
:100B2000EF92FF920F931F93CF93DF93EC018B8192
:100B30000E94DE02892BD9F76A818B810E94EF0720
:100B4000082F6A818B810E94EF07182F6A818B81A1
:100B50000E94EF07D82EE12CF12C2C8130E0E21618
:100B6000F30660F461E08A810E94070360E08A81F5
:100B70000E9407032FEFE21AF20AEFCF812F90E0D5
:100B8000A0E0B0E0BA2FA92F982F8827A02BAC01A6
:100B9000BD014D29802F880F880B90E0A0E0B0E0C8
:100BA000B82FAA27992788278A019B01082B192B80
:100BB0002A2B3B2BC901B801DF91CF911F910F91D7
:100BC000FF90EF90DF900895CF92DF92EF92FF9227
:100BD00060E0809199030E94070361E0809199038E
:100BE0000E9407036091950370919603072E000CF5
:100BF000880B990B0E94D90160E0809199030E94B3
:100C0000070387E993E00E948F05C0909C03D09072
:100C10009D03E0909E03F0909F036C197D098E095F
:100C20009F090E94E90F2091A0033091A1034091F8
:100C3000A2035091A3030E94240D2DEC3CEC4CEC3C
:100C40005DE30E9448106B017C012AE037ED43E22E
:100C50005CE30E94E20F87FF0DC02AE037ED43E21C
:100C60005CEBC701B6010E94CC0D18161CF4C12C18
:100C7000D12C7601C701B601FF90EF90DF90CF90A5
:100C800008950895CF92DF92EF92FF920F931F93F2
:100C9000CF93DF937C016C0187E0C80ED11CC0E0CC
:100CA000D0E0062F10E0B8010C2E02C075956795B4
:100CB0000A94E2F76170F60181916F010E940703C7
:100CC0002196C430D10579F7C701DF91CF911F91EB
:100CD0000F91FF90EF90DF90CF900C943703CF925D
:100CE000DF92EF92FF920F931F93CF93DF93EC016C
:100CF000F62E642F8C810E9407038D818F3F19F09F
:100D000060E00E9407038F850F2D10E084FF25C04F
:100D10006E0187E0C80ED11CE12CF12CB8010E2C1D
:100D200002C0759567950A94E2F76170F6018191AA
:100D30006F010E940703FFEFEF1AFF0A88E0E81631
:100D4000F10461F7CE01DF91CF911F910F91FF90D8
:100D5000EF90DF90CF900C943703B80184E0759545
:100D600067958A95E1F7CE010E9442066F2DCE016C
:100D7000DF91CF911F910F91FF90EF90DF90CF9077
:100D80000C94420641E00E946F0681E090E00895D5
:100D900040E00C946F06E3E7F2E0A089B18982E0BD
:100DA0008C93A485B5851C92A685B78580E18C932C
:100DB000108EA489B58986E08C93A289B3898C9121
:100DC00080618C93A289B3898C9188608C93A2896D
:100DD000B3898C9180688C930288F389E02D80819F
:100DE0008F7D80830895643008F063E09091230341
:100DF000691710F06FEF690FE62FF0E0E05FFC4F2E
:100E00009489682F690F606880E193E00C94C806AC
:100E1000EF92FF920F931F93CF93DF93EC01423039
:100E200018F08F8588608F874B8B1C8A80E48D8BB0
:100E30006E8B70E0605C7F4F6F8B61E08C810E94F5
:100E40004D038D818F3F19F061E00E944D0361E0F9
:100E50008E810E944D037E0187E0E80EF11C00E0C8
:100E600010E08F8584FD03C084E090E002C088E03C
:100E700090E0081719074CF461E0F70181917F01B8
:100E80000E944D030F5F1F4FECCF8BE39DE0019756
:100E9000F1F760E08C810E94070360E08E810E9480
:100EA00007038D818F3F19F060E00E9407036F8573
:100EB00064FD1DC063E0CE010E9442060BE416E40F
:100EC000C8010197F1F763E0CE010E944206C80114
:100ED0000197F1F763E0CE010E94420683E592E0BC
:100EE0000197F1F762E0CE010E94420616C06062EF
:100EF000CE010E94C8068BE496E40197F1F76F8556
:100F00006062CE010E94C80683E592E00197F1F786
:100F10006F856062CE010E94C8066F856062CE0157
:100F20000E94C80684E0888B6CE0CE010E94C8064F
:100F300061E0CE010E94C8068BE39FE10197F1F7C3
:100F400082E0898B66E0CE01DF91CF911F910F91F6
:100F5000FF90EF900C94C806EF92FF920F931F93AF
:100F6000CF93DF931F92CDB7DEB7162F877028E09F
:100F7000829FC0011124682F606480E193E079832F
:100F80000E94C806E12E7981F72E8701085F1F4F66
:100F9000F70161917F0180E193E00E94C206E016B3
:100FA000F106B1F70F90DF91CF911F910F91FF9054
:100FB000EF900895CF93DF93AB01BC0122E083E76C
:100FC00092E00E943104EC016CE871E083E792E06A
:100FD0000E94D3038C0F9D1FDF91CF910895FF9244
:100FE0000F931F93CF93DF93F82E062FC7E0D0E027
:100FF00010E061E0802F0E9407038F2D0E94DE0227
:101000000C2E01C0880F0A94EAF7182B60E0802F9D
:101010000E940703219768F7812FDF91CF911F91DD
:101020000F91FF900895CF93DF93CDB7DEB72C9744
:101030000FB6F894DEBF0FBECDBF789484B5826042
:1010400084BD84B5816084BD85B5826085BD85B56C
:10105000816085BD80916E00816080936E001092EA
:101060008100809181008260809381008091810065
:1010700081608093810080918000816080938000F6
:101080008091B10084608093B1008091B000816054
:101090008093B00080917A00846080937A00809180
:1010A0007A00826080937A0080917A0081608093D8
:1010B0007A0080917A00806880937A001092C10053
:1010C0001092910310929203109293031092940342
:1010D00010924F031092500310925103109252033A
:1010E00060ED77E080E090E00E94D90183E792E034
:1010F0009093900380938F030E94CB062FB7F894B0
:1011000080916F0290917002A0917102B091720271
:101110002FBF80934F0390935003A0935103B0933C
:1011200052036DE771E080918F03909190030E94CC
:1011300013056AE070E080E090E00E94D90181E050
:10114000809363030E94CB066FE871E083E792E02F
:101150000E94D3036CE871E083E792E00E94D3031E
:1011600044E064E180E193E00E94080760E080E0F1
:101170000E94F3066AE971E080E193E00E94D303E4
:1011800094E6492E512C612C712C809134030E94DD
:10119000DE027C01809136030E94DE028C01809188
:1011A000480390E0E816F90621F50E94E405AB013A
:1011B000BC0180E090E00E94450580E090E00E9444
:1011C0001505609328037093290380932A03909355
:1011D0002B0367EA71E083E792E00E9413056091B8
:1011E00028037091290380912A0390912B030E9478
:1011F000DA078091480390E00817190721F50E944B
:10120000E405AB01BC0182E090E00E94450582E06C
:1012100090E00E94150560932C0370932D0380933A
:101220002E0390932F0367EB71E083E792E00E9417
:10123000130560912C0370912D0380912E039091E2
:101240002F030E94DA070E94E405209128033091C1
:10125000290340912A0350912B030E94B70C20913F
:1012600030033091310340913203509133030E9497
:10127000240D6B017C016093490370934A038093B2
:101280004B0390934C038090440390904503A090AF
:101290004603B0904703A501940160E070E0CB01E4
:1012A0000E94B70C9B01AC01C701B6010E94E20F7E
:1012B00018167CF5209138033091390340913A0398
:1012C00050913B03C701B6010E94E20F87FD24C085
:1012D00020913C0330913D0340913E0350913F03E8
:1012E000C701B6010E94E20F87FD19C020E030E07F
:1012F00040E85FE3C501B4010E94B80C9B01AC015A
:10130000C701B6010E94E20F181664F401E010E074
:101310000BC000E010E008C002E010E005C003E0F0
:1013200010E002C004E010E026E0209FC001219FF1
:10133000900D1124BC016C557C4F1B01CE0107960A
:101340000E9457020E94E40520912803309129034E
:1013500040912A0350912B030E94B70C2091300337
:101360003091310340913203509133030E94240D98
:101370006B017C016093490370934A0380934B0394
:1013800090934C03209140033091410340914203DC
:10139000509143030E9448104B015C0120E030E073
:1013A000A9010E94E20F87FF03C0812C912C5401F8
:1013B00067EC71E083E792E00E941305C501B40178
:1013C0000E94DA076EED71E083E792E00E94130558
:1013D0004B855C856F81788583E792E00E9494005D
:1013E0006CE871E083E792E00E94D30364EF71E060
:1013F00083E792E00E94D3036CE871E083E792E018
:101400000E94D30320E030E040E85FE3C701B6016B
:101410000E94CC0D18166CF020E030E0A901C70145
:10142000B6010E94E20F87FF0AC0C12CD12C7601C1
:1014300006C0C12CD12C80E8E82E8FE3F82E61E0A5
:1014400080E193E00E94C8068BE39FE10197F1F7EA
:1014500060E080E00E94F306B101CE0101960E9497
:10146000570269817A8180E193E00E94130502307E
:10147000110508F48FC062E080E00E94F30622E0CC
:10148000B501A40180E193E00E9431046CE172E0B7
:1014900080E193E00E94130564E272E080E193E052
:1014A0000E94130520E030E048EC52E4C701B60189
:1014B0000E9448106B017C0120E0AB01BC0180E17F
:1014C00093E00E94310467E272E080E193E00E94C1
:1014D000130560E271E081E00E94AC0768E171E011
:1014E00082E00E94AC0760E171E083E00E94AC07FB
:1014F00068E071E084E00E94AC0760E071E085E0A4
:101500000E94AC07C701B6010E94960D4B015C0119
:10151000DB0124E130E00E94AA0CA30192010E94A9
:101520003E1169017A011901D40120E530E00E94E1
:10153000AA0CA30192010E943E111BEFB6011603F3
:101540005001179FB00C1124A20EB31E1C141D04D1
:101550001E041F046CF063E08C2D0E94F3061A1425
:101560001B04C4F46A2D80E193E00E94C20612C0FD
:10157000812C912C63E0882D0E94F30665E080E1C8
:1015800093E00E94C2062FEF821A920A82149304FB
:101590008CF3E1CF89819A810E946B0E8F819885AF
:1015A0000E946B0E0E948101F0CDCF93DF93C2ECBD
:1015B000D3E02697888199810E946B0E83E0C43A1C
:1015C000D807B9F7DF91CF910895CF92DF92EF92CC
:1015D000FF921F93CF93DF93CDB7DEB72D970FB652
:1015E000F894DEBF0FBECDBF109276021092750246
:1015F00088EE93E0A0E0B0E08093770290937802C9
:10160000A0937902B0937A0286E391E090937402FA
:101610008093730285EC90E09093800280937F0228
:1016200084EC90E0909382028093810280EC90E0C1
:10163000909384028093830281EC90E090938602E1
:101640008093850282EC90E09093880280938702D9
:1016500086EC90E090938A028093890210928C022B
:1016600010928D0210928E0210928F026BE272E045
:1016700084EA93E00E94710267E372E08AEA93E0F1
:101680000E94710264E472E080EB93E00E947102B8
:1016900062E572E086EB93E00E94710260E672E020
:1016A0008CEB93E00E9471021092130310921203CC
:1016B00086E491E090931103809310038CE0809373
:1016C00014038FEF809315038BE08093160385E05E
:1016D0008093170384E08093180383E080931903B9
:1016E00082E080931A0310921B0310921C03109245
:1016F0001D0310921E0310921F0341E060E180E180
:1017000093E00E94080789E090E09093350380936E
:1017100034038AE090E090933703809336038DEC96
:101720009CECACECBDE38093380390933903A09319
:101730003A03B0933B034AE959E969E97EE34093F0
:101740003C0350933D0360933E0370933F03C12CD1
:10175000D12C20E8E22E2FE3F22EC0924003D0924B
:101760004103E0924203F092430380934403909339
:101770004503A0934603B09347031092480380E0CB
:1017800090E00E94150560932803709329038093CD
:101790002A0390932B0382E090E00E94150560934A
:1017A0002C0370932D0380932E0390932F0320918D
:1017B00028033091290340912A0350912B030E9462
:1017C000B70C60933003709331038093320390938E
:1017D0003303C0924903D0924A03E0924B03F09244
:1017E0004C0362E0809134030E944D0362E08091DB
:1017F00036030E944D038EE491E09093980380930A
:10180000970310929C0310929D0310929E031092D6
:101810009F03C092A003D092A103E092A203F09292
:10182000A3039A8389831E821F8218861986CA861B
:10183000DB86EC86FD8688E08B8387E08C8361E025
:1018400088E00E944D0360E08C810E944D0381E09E
:101850008D8360E08B810E940703CE0101960E9478
:101860008F058B81809399038C8180939A038D815E
:1018700080939B038E819F81A885B98580939C036B
:1018800090939D03A0939E03B0939F0380E090EFFD
:10189000A2EDB6E48093A0039093A103A093A203CA
:1018A000B093A3031AE0C12CD12C760187E993E011
:1018B0000E948F05C60ED71EE81EF91E1150B1F703
:1018C000C701B6012AE030E040E050E00E943E113E
:1018D000CA01B9010E94E90F0E94960D60939C0312
:1018E00070939D0380939E0390939F0384EF91E0F8
:1018F0009093960380939503109253031092540390
:1019000010925503109256031092570310925803E9
:101910001092590310925A0310925B0310925C03C9
:1019200010925D0310925E0310925F0310926003A9
:1019300010926103109262032D960FB6F894DEBFE9
:101940000FBECDBFDF91CF911F91FF90EF90DF9041
:10195000CF9008950E949411B7FF0895821B930BB6
:101960000895EE0FFF1F0590F491E02D0994505853
:10197000BB27AA270E94CF0C0C94CC100E94BE104B
:1019800038F00E94C51020F039F49F3F19F426F476
:101990000C94BB100EF4E095E7FB0C94B510E92F06
:1019A0000E94DD1058F3BA17620773078407950782
:1019B00020F079F4A6F50C94FF100EF4E0950B2EB0
:1019C000BA2FA02D0B01B90190010C01CA01A00191
:1019D0001124FF27591B99F0593F50F4503E68F1EC
:1019E0001A16F040A22F232F342F4427585FF3CF2D
:1019F000469537952795A795F0405395C9F77EF4FE
:101A00001F16BA0B620B730B840BBAF09150A1F046
:101A1000FF0FBB1F661F771F881FC2F70EC0BA0FCC
:101A2000621F731F841F48F4879577956795B79554
:101A3000F7959E3F08F0B0CF9395880F08F099274F
:101A4000EE0F9795879508950E94380D0C94CC1051
:101A50000E94C51058F00E94BE1040F029F45F3F6C
:101A600029F00C94B51051110C9400110C94BB107A
:101A70000E94DD1068F39923B1F3552391F3951B70
:101A8000550BBB27AA2762177307840738F09F5F9F
:101A90005F4F220F331F441FAA1FA9F335D00E2E0C
:101AA0003AF0E0E832D091505040E695001CCAF779
:101AB0002BD0FE2F29D0660F771F881FBB1F26173C
:101AC00037074807AB07B0E809F0BB0B802DBF0113
:101AD000FF2793585F4F3AF09E3F510578F00C94E2
:101AE000B5100C9400115F3FE4F3983ED4F3869553
:101AF00077956795B795F7959F5FC9F7880F911D03
:101B00009695879597F90895E1E0660F771F881FEE
:101B1000BB1F621773078407BA0720F0621B730BA1
:101B2000840BBA0BEE1F88F7E09508950E949D0D77
:101B30006894B1110C94001108950E94E51088F08A
:101B40009F5798F0B92F9927B751B0F0E1F0660F81
:101B5000771F881F991F1AF0BA95C9F714C0B130C2
:101B600091F00E94FF10B1E008950C94FF10672FD0
:101B7000782F8827B85F39F0B93FCCF386957795F1
:101B80006795B395D9F73EF49095809570956195DA
:101B90007F4F8F4F9F4F08950E94241008F48FEFBE
:101BA00008950E942410880B990B0895CF93DF931A
:101BB0008230910510F482E090E0E091C403F0914E
:101BC000C50320E030E0C0E0D0E0309711F1408163
:101BD000518148175907C0F04817590761F48281AD
:101BE0009381209719F09B838A832BC09093C50320
:101BF0008093C40326C02115310519F042175307FD
:101C000018F49A01BE01DF01EF010280F381E02D9B
:101C1000DCCF2115310509F1281B390B24303105A2
:101C200090F412968D919C9113976115710521F096
:101C3000FB019383828304C09093C5038093C40304
:101C4000FD01329644C0FD01E20FF31F8193919391
:101C5000225031092D933C933AC02091C203309118
:101C6000C303232B41F420912A0130912B0130939F
:101C7000C3032093C203209128013091290121152B
:101C8000310541F42DB73EB740912C0150912D0103
:101C9000241B350BE091C203F091C303E217F30755
:101CA000A0F42E1B3F0B2817390778F0AC014E5FCC
:101CB0005F4F2417350748F04E0F5F1F5093C30343
:101CC0004093C2038193919302C0E0E0F0E0CF0122
:101CD000DF91CF9108950F931F93CF93DF930097D8
:101CE00009F48CC0FC013297138212820091C40364
:101CF0001091C5030115110581F420813181820FF6
:101D0000931F2091C2033091C3032817390779F537
:101D1000F093C303E093C20371C0D80140E050E0E8
:101D2000AE17BF0750F412962D913C911397AD0159
:101D30002115310509F1D901F3CF9D01DA01338372
:101D4000228360817181860F971F8217930769F440
:101D5000EC0128813981260F371F2E5F3F4F3183D9
:101D600020838A819B8193838283452B29F4F0937E
:101D7000C503E093C40342C01396FC93EE931297FD
:101D8000ED01499159919E01240F351FE217F30788
:101D900071F480819181840F951F029611969C9316
:101DA0008E938281938113969C938E931297E0E099
:101DB000F0E0D80112968D919C911397009719F03D
:101DC000F8018C01F6CF8D919C9198012E5F3F4FC9
:101DD000820F931F2091C2033091C3032817390744
:101DE00069F4309729F41092C5031092C40302C01D
:101DF000138212821093C3030093C203DF91CF9129
:101E00001F910F910895A0E0B0E0E9E0FFE00C948D
:101E10006111EC01009721F4CB010E94D60DB8C0EE
:101E2000FC01E60FF71F9C0122503109E217F3076E
:101E300008F4ACC0D9010D911C9111970617170732
:101E4000B0F00530110508F49FC0C801049786174B
:101E5000970708F499C002501109061B170B01934C
:101E600011936D937C93CF010E946B0E8DC05B012B
:101E7000A01AB10A4C01800E911EA091C403B0912A
:101E8000C50340E050E0E12CF12C109709F44AC062
:101E9000A815B905D1F56D907C901197630182E08A
:101EA000C80ED11CCA14DB0480F1A3014A195B09D6
:101EB0006A0182E0C80ED11C1296BC90129713964C
:101EC000AC91B5E0CB16D10440F0B282A38351832C
:101ED0004083D9016D937C930AC00E5F1F4FC301ED
:101EE000800F911FF90191838083EB2DFA2FE1146C
:101EF000F10431F0D7011396FC93EE93129744C08E
:101F0000F093C503E093C4033FC08D919C9111975A
:101F10004817590708F4AC017D0112960D90BC9149
:101F2000A02DB3CF8091C2039091C303881599056A
:101F3000E1F446175707C8F48091280190912901D0
:101F4000009741F48DB79EB740912C0150912D011F
:101F5000841B950BE817F907C8F4F093C303E093CB
:101F6000C203F901718360830FC0CB010E94D60DBB
:101F70007C01009759F0A801BE010E94D20FCE014A
:101F80000E946B0EC70104C0CE0102C080E090E049
:101F9000CDB7DEB7EEE00C947D1181E090E0F894CF
:101FA0000C94A311FB01DC0102C001900D92415081
:101FB0005040D8F70895FB01DC0101900D920020FC
:101FC000E1F708950E94241008F481E00895E89450
:101FD00009C097FB3EF490958095709561957F4F71
:101FE0008F4F9F4F9923A9F0F92F96E9BB2793951F
:101FF000F695879577956795B795F111F8CFFAF42F
:10200000BB0F11F460FF1BC06F5F7F4F8F4F9F4F5F
:1020100016C0882311F096E911C0772321F09EE8BD
:10202000872F762F05C0662371F096E8862F70E023
:1020300060E02AF09A95660F771F881FDAF7880FFD
:102040009695879597F90895990F0008550FAA0B53
:10205000E0E8FEEF16161706E807F907C0F01216BB
:102060001306E407F50798F0621B730B840B950BBE
:1020700039F40A2661F0232B242B252B21F4089513
:102080000A2609F4A140A6958FEF811D811D0895B0
:102090000E945B100C94CC100E94BE1038F00E947D
:1020A000C51020F0952311F00C94B5100C94BB10C2
:1020B00011240C9400110E94DD1070F3959FC1F360
:1020C000950F50E0551F629FF001729FBB27F00DE6
:1020D000B11D639FAA27F00DB11DAA1F649F66273B
:1020E000B00DA11D661F829F2227B00DA11D621F8A
:1020F000739FB00DA11D621F839FA00D611D221F44
:10210000749F3327A00D611D231F849F600D211D27
:10211000822F762F6A2F11249F5750409AF0F1F0AA
:1021200088234AF0EE0FFF1FBB1F661F771F881F13
:1021300091505040A9F79E3F510580F00C94B51086
:102140000C9400115F3FE4F3983ED4F386957795A5
:102150006795B795F795E7959F5FC1F7FE2B880FB9
:10216000911D9695879597F9089597F99F6780E84F
:1021700070E060E008959FEF80EC089500240A94D9
:102180001616170618060906089500240A94121652
:102190001306140605060895092E0394000C11F485
:1021A000882352F0BB0F40F4BF2B11F460FF04C032
:1021B0006F5F7F4F8F4F9F4F089557FD9058440F8B
:1021C000551F59F05F3F71F04795880F97FB991F96
:1021D00061F09F3F79F08795089512161306140653
:1021E000551FF2CF4695F1DF08C0161617061806E0
:1021F000991FF1CF86957105610508940895E894BB
:10220000BB2766277727CB0197F90895F999FECF69
:1022100092BD81BDF89A992780B50895262FF99926
:10222000FECF1FBA92BD81BD20BD0FB6F894FA9AB9
:10223000F99A0FBE01960895A1E21A2EAA1BBB1BA4
:10224000FD010DC0AA1FBB1FEE1FFF1FA217B30782
:10225000E407F50720F0A21BB30BE40BF50B661F98
:10226000771F881F991F1A9469F76095709580955C
:1022700090959B01AC01BD01CF010895052E97FB00
:102280001EF400940E94551157FD07D00E941C11A6
:1022900007FC03D04EF40C945511509540953095A1
:1022A00021953F4F4F4F5F4F0895909580957095C2
:1022B00061957F4F8F4F9F4F08952F923F924F927E
:1022C0005F926F927F928F929F92AF92BF92CF92C6
:1022D000DF92EF92FF920F931F93CF93DF93CDB7CF
:1022E000DEB7CA1BDB0B0FB6F894DEBF0FBECDBF47
:1022F00009942A88398848885F846E847D848C8418
:102300009B84AA84B984C884DF80EE80FD800C8120
:102310001B81AA81B981CE0FD11D0FB6F894DEBF03
:102320000FBECDBFED010895A29FB001B39FC001C4
:10233000A39F700D811D1124911DB29F700D811DF1
:102340001124911D089510E0C2E6D0E004C0FE0102
:102350000E94B10C2196C336D107C9F7F894FFCF7C
:102360001F1F1F1F1F1F1F1F1E1E1E1E1E1E1E1E85
:102370001C1C1C1C1C1C1C1C1818181818181818BD
:1023800010101010101010100000C6038000010083
:1023900000000000000018019400E100BF00D3001D
:1023A0005F0100000000C20694000000000041062A
:1023B00015026E616E00696E66006F7666004545B7
:1023C00050524F4D206C69646F3A20004545505281
:1023D0004F4D204772617661646F3A2000564D443C
:1023E00050565F317C315F564D4450560D0A0053B4
:1023F000657269616C204F4B2100496E69636961A8
:102400006E646F2E2E2E00476172726166612076B7
:10241000617A69613A200047617272616661206386
:10242000686569613A20005175616E746964616420
:1024300065206361666520286C74293A2000536921
:1024400074756163616F2064612067617272616697
:10245000613A20002D2D2D2D2D2D2D2D2D2D2D2DA5
:102460002D2D2D2D2D2D2D2D2D2D2D2D2D2D2D2D9C
:102470002D2D2D2D2D2D2D2D2D2D2D00206C697404
:10248000726F73002028002025290053656D2047B6
:1024900061727261666100506567616E646F20638E
:1024A000616665004E6976656C2043726974696384
:1024B0006F00436166652061636162616E646F00F5
:0A24C00054656D206361666500003D
:00000001FF
