:100000000C94E0000C9408010C9408010C94080175
:100010000C9408010C9408010C9408010C9408013C
:100020000C9408010C9408010C9408010C9408012C
:100030000C9408010C9408010C9408010C9408011C
:100040000C94AA030C9408010C9493020C946D0276
:100050000C9408010C9408010C9408010C940801FC
:100060000C9408010C9408010000000024002700F3
:100070002A0000000000250028002B0000000000DE
:1000800023002600290004040404040404040202DA
:100090000202020203030303030301020408102007
:1000A0004080010204081020010204081020000012
:1000B0000008000201000003040700000000000027
:1000C000000000407A10F35A00A0724E1809001088
:1000D000A5D4E80000E87648170000E40B540200BD
:1000E00000CA9A3B000000E1F505000080969800E8
:1000F000000040420F000000A08601000000102711
:1001000000000000E80300000000640000000000A0
:100110000A00000000000100000000002C76D888D2
:10012000DC674F0823DFC1DFAE59E1B1B796E5E3E5
:10013000E453C63AE651997696E8E6C28426EB89FE
:100140008C9B62ED407C6FFCEFBC9C9F40F2BAA59B
:100150006FA5F490055A2AF75C936B6CF9676DC133
:100160001BFCE0E40D47FEF520E6B500D0ED902E37
:100170000300943577050080841E080000204E0A95
:10018000000000C80C333333330F986E12831141D3
:10019000EF8D2114893BE65516CFFEE6DB18D1849E
:1001A0004B381BF77C1D901DA4BBE42420328472C5
:1001B0005E228100C9F124ECA1E53D27730E640E97
:1001C00011241FBECFEFD8E0DEBFCDBF15E0A0E009
:1001D000B1E0EEE6FFE202C005900D92A631B10754
:1001E000D9F726E0A6E1B5E001C01D92AF37B2070E
:1001F000E1F710E0CFEDD0E004C02197FE010E94AE
:10020000FD0FCE3DD107C9F70E941E0A0C94AA1714
:100210000C940000CF92DF92EF92FF920F931F9306
:10022000CF93DF936C017A018B01C0E0D0E0CE1553
:10023000DF0589F0D8016D918D01D601ED91FC911A
:100240000190F081E02DC6010995892B11F47E0102
:1002500002C02196ECCFC701DF91CF911F910F9182
:10026000FF90EF90DF90CF900895FC01918D828DEB
:10027000981761F0828DDF01A80FB11D5D968C91FA
:10028000928D9F5F9F73928F90E008958FEF9FEF05
:100290000895FC01918D828D981731F0828DE80FC1
:1002A000F11D858D90E008958FEF9FEF0895FC017B
:1002B000918D228D892F90E0805C9F4F821B910948
:1002C0008F739927089583E695E00E94570121E0F6
:1002D000892B09F420E0822F0895FC01848DDF0131
:1002E000A80FB11DA35ABF4F2C91848D90E00196A9
:1002F0008F739927848FA689B7892C93A089B18998
:100300008C9180648C93938D848D981306C00288A1
:10031000F389E02D80818F7D80830895EF92FF9295
:100320000F931F93CF93DF93EC0181E0888F9B8D18
:100330008C8D981305C0E889F989808185FD24C0DA
:10034000F62E0B8D10E00F5F1F4F0F731127E02E5D
:100350008C8DE8120CC00FB607FCFACFE889F9893A
:10036000808185FFF5CFCE010E946D01F1CF8B8D8D
:10037000FE01E80FF11DE35AFF4FF0820B8FEA896F
:10038000FB898081806207C0EE89FF896083E889EC
:10039000F98980818064808381E090E0DF91CF9152
:1003A0001F910F91FF90EF900895CF93DF93EC0191
:1003B000888D8823C9F0EA89FB89808185FD05C085
:1003C000A889B9898C9186FD0FC00FB607FCF5CFBF
:1003D000808185FFF2CFA889B9898C9185FFEDCF07
:1003E000CE010E946D01E7CFDF91CF91089580E0AB
:1003F00090E0892B29F00E94630181110C94000088
:100400000895833081F028F4813099F08230A1F092
:1004100008958730A9F08830B9F08430D1F4809104
:1004200080008F7D03C0809180008F778093800053
:10043000089584B58F7702C084B58F7D84BD0895FB
:100440008091B0008F7703C08091B0008F7D809342
:10045000B00008953FB7F894809117059091180562
:10046000A0911905B0911A0526B5A89B05C02F3F8C
:1004700019F00196A11DB11D3FBFBA2FA92F982FCA
:100480008827820F911DA11DB11DBC01CD0142E045
:10049000660F771F881F991F4A95D1F708950C940E
:1004A000B711FC011182108213821282158214820C
:1004B0006115710551F0FB0101900020E9F73197BA
:1004C000AF01461B570B0C9476090895DC01ED91A2
:1004D000FC910190F081E02D09941F920F920FB6CC
:1004E0000F9211242F933F934F935F936F937F93BA
:1004F0008F939F93AF93BF93EF93FF9383E695E022
:100500000E946D01FF91EF91BF91AF919F918F91EB
:100510007F916F915F914F913F912F910F900FBEFF
:100520000F901F9018951F920F920FB60F921124E3
:100530002F938F939F93EF93FF93E0917305F09127
:1005400074058081E0917905F0917A0582FD12C0F1
:10055000908180917C058F5F8F7320917D0582173C
:1005600051F0E0917C05F0E0ED59FA4F958F8093C2
:100570007C0501C08081FF91EF919F918F912F9118
:100580000F900FBE0F901F901895CF93DF93282FD9
:1005900030E0F901E255FF4F8491F901E656FF4F33
:1005A000D491F901EA57FF4FC491CC2391F0811106
:1005B0000E940102EC2FF0E0EE0FFF1FE458FF4F06
:1005C000A591B491EC91ED2381E090E021F480E0DD
:1005D00002C080E090E0DF91CF9108951F93CF9308
:1005E000DF93282F30E0F901E255FF4F8491F901A4
:1005F000E656FF4FD491F901EA57FF4FC491CC233F
:10060000C9F0162F81110E940102EC2FF0E0EE0FCD
:10061000FF1FEE58FF4FA591B4918FB7F8941111B9
:1006200005C09C91ED2FE095E92302C0EC91ED2BE4
:10063000EC938FBFDF91CF911F910895CF93DF93FC
:10064000EC0160E08E810E94EE0261E08E810E94EA
:10065000EE0260E08E810E94EE028BE891E001974D
:10066000F1F7DF91CF910895CF93DF9390E0FC01F4
:10067000E656FF4F2491FC01EA57FF4F84918823EF
:1006800061F190E0880F991FFC01E859FF4FC59177
:10069000D491FC01EE58FF4FA591B491611109C0AE
:1006A0009FB7F8948881209582238883EC912E232C
:1006B0000BC0623061F49FB7F8943881822F809527
:1006C00083238883EC912E2B2C939FBF06C08FB77A
:1006D000F894E8812E2B28838FBFDF91CF91089566
:1006E0008F929F92AF92BF92CF92DF92EF92FF9242
:1006F0006B017C010E942A024B015C01C114D104F0
:10070000E104F104F1F00E942A02DC01CB01881916
:100710009909AA09BB09883E9340A105B10570F368
:1007200021E0C21AD108E108F10888EE880E83E0C2
:10073000981EA11CB11CC114D104E104F10419F7E5
:10074000DDCFFF90EF90DF90CF90BF90AF909F9064
:100750008F9008951F920F920FB60F9211242F932E
:100760003F938F939F93AF93BF9380911B0590917D
:100770001C05A0911D05B0911E053091160523E0C2
:10078000230F2D3720F40196A11DB11D05C026E8C9
:10079000230F0296A11DB11D2093160580931B0502
:1007A00090931C05A0931D05B0931E05809117051D
:1007B00090911805A0911905B0911A050196A11DF7
:1007C000B11D8093170590931805A0931905B09358
:1007D0001A05BF91AF919F918F913F912F910F90EB
:1007E0000FBE0F901F9018956115710579F0FB01F0
:1007F00001900020E9F73197AF01461B570BDC0150
:10080000ED91FC910280F381E02D099480E090E06D
:1008100008954F925F926F927F92EF92FF920F93A3
:100820001F93CF93DF93CDB7DEB7A1970FB6F894A0
:10083000DEBF0FBECDBF7C01FA01CB0119A2223071
:1008400008F42AE08E010F5D1F4F422E512C612CBF
:10085000712CBF01A30192010E941817F901CA016E
:10086000015011096A3014F4605D01C0695CD8015F
:100870006C93232B242B252B61F7B801C7010E9411
:10088000F403A1960FB6F894DEBF0FBECDBFDF9183
:10089000CF911F910F91FF90EF907F906F905F909D
:1008A0004F9008954F925F926F927F928F929F9296
:1008B000AF92BF92CF92DF92EF92FF92CF93DF93EE
:1008C000EC016A017B01B22E9A01AB01C701B601AE
:1008D0000E941D11882319F06AE673E027C02601E3
:1008E0003701E89477F82FEF3FEF4FE75FE7C30159
:1008F000B2010E941D1181110DC02FEF3FEF4FE794
:100900005FE7C301B2010E94B41518161CF46EE62D
:1009100073E00CC02FEF3FEF4FE75FE4C701B60174
:100920000E94181118169CF462E773E0CE01DF9163
:10093000CF91FF90EF90DF90CF90BF90AF909F90BE
:100940008F907F906F905F904F900C94F4032FEFF7
:100950003FEF4FE75FECC701B6010E94B41587FD7A
:10096000E3CF20E030E0A901C701B6010E94B41531
:1009700087FF0AC06DE2CE010E9466024C01F7FAC1
:10098000F094F7F8F09402C0812C912CA12C60E037
:1009900070E080E09FE3AB1441F020E030E040E203
:1009A00051E40E947010A394F6CF9B01AC01C701E3
:1009B000B6010E9404102B013C010E94E9106B015A
:1009C0007C010E94B9159B01AC01C301B2010E94D8
:1009D00003102B013C012AE0B701A601CE010E94C1
:1009E00009047C01E80CF91CBB2031F06EE2CE0159
:1009F0000E946602E80EF91EDB2CDD2029F120E0C2
:100A000030E040E251E4C301B2010E941A162B010A
:100A10003C010E94E9104B01A12CB12C2AE0B50148
:100A2000A401CE010E940904E80EF91EC501B4011B
:100A30000E94B9159B01AC01C301B2010E940310D1
:100A40002B013C01DA94D9CFC701DF91CF91FF9000
:100A5000EF90DF90CF90BF90AF909F908F907F905E
:100A60006F905F904F9008950C94F4030F931F9331
:100A7000CF93DF938C01CB01BA0120E030E04AE74D
:100A800054E40E941A160E94E210D62FC72FC80104
:100A90000E94FA166C2FC80101960E94FA1666E7AA
:100AA00073E083E695E00E9434058D2F9C2F0E9411
:100AB000E20881E0DF91CF911F910F910895CF92CD
:100AC000DF92EF92FF92CF937C010E94E816C82F2D
:100AD000C70101960E94E8166C2F70E0782B072E54
:100AE000000C880B990B0E94BB1520E030E04AE710
:100AF00054E40E9470106B017C0167E873E083E6A8
:100B000095E00E943405C701B6010E944408C70160
:100B1000B601CF91FF90EF90DF90CF9008954F9264
:100B20005F926F927F928F929F92AF92BF92CF927D
:100B3000DF92EF92FF920F931F93CF93DF9300D03A
:100B4000CDB7DEB77B01690149835A830E942D0826
:100B500065E973E083E695E00E943405C6010E94D2
:100B6000E2084981842E5A81952E8701E12CF12CCF
:100B700088EEA82E83E0B82EEC14FD04A4F5F40151
:100B8000619171914F01C5010E94CE0F2B01770F2A
:100B900066087708F801619171918F01072E000CAA
:100BA000880B990BA30192010E941B09C301B2019A
:100BB0000E94BB1526E636E646EA5FE30E941A1657
:100BC0000E94E210072E000C880B990B0E94700304
:100BD000A301920160E070E0CB010E941B09FFEFCE
:100BE000EF1AFF0AC9CF0F900F90DF91CF911F919D
:100BF0000F91FF90EF90DF90CF90BF90AF909F90BC
:100C00008F907F906F905F904F900895DF92EF925A
:100C1000FF920F931F93CF93DF93EC018B810E9480
:100C2000C502892BD9F76A818B810E945908082F48
:100C30006A818B810E945908182F6A818B810E94DA
:100C40005908D82EE12CF12C2C8130E0E216F30665
:100C500060F461E08A810E94EE0260E08A810E9475
:100C6000EE022FEFE21AF20AEFCF812F90E0A0E020
:100C7000B0E0BA2FA92F982F8827A02BAC01BD0177
:100C80004D29802F880F880B90E0A0E0B0E0B82FAE
:100C9000AA27992788278A019B01082B192B2A2B21
:100CA0003B2BC901B801DF91CF911F910F91FF90AC
:100CB000EF90DF9008950895CF92DF92EF92FF9228
:100CC0000F931F93CF93DF937C016C0187E0C80ED5
:100CD000D11CC0E0D0E0062F10E0B8010C2E02C0FD
:100CE000759567950A94E2F76170F60181916F013D
:100CF0000E94EE022196C430D10579F7C701DF9139
:100D0000CF911F910F91FF90EF90DF90CF900C94B7
:100D10001E03CF92DF92EF92FF920F931F93CF9318
:100D2000DF93EC01F62E642F8C810E94EE028D8100
:100D30008F3F19F060E00E94EE028F850F2D10E0CA
:100D400084FF25C06E0187E0C80ED11CE12CF12C78
:100D5000B8010E2C02C0759567950A94E2F7617090
:100D6000F60181916F010E94EE02FFEFEF1AFF0A78
:100D700088E0E816F10461F7CE01DF91CF911F9171
:100D80000F91FF90EF90DF90CF900C941E03B8016D
:100D900084E0759567958A95E1F7CE010E945C061F
:100DA0006F2DCE01DF91CF911F910F91FF90EF90AA
:100DB000DF90CF900C945C0641E00E94890681E0B0
:100DC00090E0089540E00C94890661E00E94E206FC
:100DD0008BE39FE10197F1F708950F931F93CF9352
:100DE000DF931F92CDB7DEB78C01442331F08FE142
:100DF00095E069830E94E506698180E00E943807DA
:100E0000F80144815581608171818FE195E00F90F7
:100E1000DF91CF911F910F910C940A010E94191339
:100E2000E3E6F5E0A089B18982E08C93A485B585DD
:100E30001C92A685B78580E18C93108EA489B58914
:100E400086E08C93A289B3898C9180618C93A2896E
:100E5000B3898C9188608C93A289B3898C918068C6
:100E60008C930288F389E02D80818F7D80830895A3
:100E7000643008F063E090913205691710F06FEF6D
:100E8000690FE62FF0E0E15EFA4F9489682F690F51
:100E900060688FE195E00C94E206EF92FF920F9369
:100EA0001F93CF93DF93EC01423018F08F85886059
:100EB0008F874B8B1C8A80E48D8B6E8B70E0605C1F
:100EC0007F4F6F8B61E08C810E9434038D818F3F57
:100ED00019F061E00E94340361E08E810E943403C6
:100EE0007E0187E0E80EF11C00E010E08F8584FDB4
:100EF00003C084E090E002C088E090E00817190782
:100F00004CF461E0F70181917F010E9434030F5F8F
:100F10001F4FECCF8BE39DE00197F1F760E08C81F0
:100F20000E94EE0260E08E810E94EE028D818F3F72
:100F300019F060E00E94EE026F8564FD1DC063E061
:100F4000CE010E945C060BE416E4C8010197F1F79C
:100F500063E0CE010E945C06C8010197F1F763E0EF
:100F6000CE010E945C0683E592E00197F1F762E012
:100F7000CE010E945C0616C06062CE010E94E206AD
:100F80008BE496E40197F1F76F856062CE010E94D1
:100F9000E20683E592E00197F1F76F856062CE018A
:100FA0000E94E2066F856062CE010E94E20684E044
:100FB000888B6CE0CE010E94E206CE010E94E5061D
:100FC00082E0898B66E0CE01DF91CF911F910F9176
:100FD000FF90EF900C94E206CF93DF93BC0183E681
:100FE00095E00E94F403EC0164EB73E083E695E086
:100FF0000E94F4038C0F9D1FDF91CF910895EF9213
:10100000FF920F931F93CF93DF931F92CDB7DEB75D
:10101000162F877028E0829FC0011124682F60641A
:101020008FE195E079830E94E206E12E7981F72E27
:101030008701085F1F4FF70161917F018FE195E004
:101040000E94DC06E016F106B1F70F90DF91CF9118
:101050001F910F91FF90EF900895CF93DF93FC01C4
:10106000448155816081718183E695E00E940A0187
:10107000EC0164EB73E083E695E00E94F4038C0FCF
:101080009D1FDF91CF910895CF93DF93AB01BC01FA
:1010900022E083E695E00E945204EC0164EB73E0E9
:1010A00083E695E00E94F4038C0F9D1FDF91CF91A2
:1010B0000895FF920F931F93CF93DF93F82E062F7F
:1010C000C7E0D0E010E061E0802F0E94EE028F2D9B
:1010D0000E94C5020C2E01C0880F0A94EAF7182B53
:1010E00060E0802F0E94EE02219768F7812FDF9148
:1010F000CF911F910F91FF900895CF92DF92EF92C1
:10110000FF9260E0809152060E94EE0261E08091C1
:1011100052060E94EE0260914A0670914B06072E1D
:10112000000C880B990B0E94700360E080915206BE
:101130000E94EE0280E596E00E940606C0905506E9
:10114000D0905606E0905706F09058066C197D092D
:101150008E099F090E94BB152091590630915A06AD
:1011600040915B0650915C060E9470102DEC3CECA7
:101170004CEC5DE30E941A166B017C012AE037ED0E
:1011800043E25CE30E94B41587FF0DC02AE037ED0F
:1011900043E25CEBC701B6010E94181118161CF45B
:1011A000C12CD12C7601C0924C06D0924D06E09213
:1011B0004E06F0924F06C701B601FF90EF90DF9008
:1011C000CF900895CF92DF92EF92FF92CF93DF936B
:1011D0006C01990FEE08FF08F7FE16C06DE283E67A
:1011E00095E00E946602EC0144275527BA014C198C
:1011F0005D096E097F092AE083E695E00E940904F3
:101200007C01EC0EFD1E08C02AE0B701A60183E6B2
:1012100095E00E9409047C0164EB73E083E695E0AD
:101220000E94F4038E0D9F1DDF91CF91FF90EF90F0
:10123000DF90CF9008958F929F92AF92BF92CF92FE
:10124000DF92EF92FF920F931F93CF93DF934B01A7
:101250005C01CA01B901A50194010E94081728EE9A
:1012600033E040E050E00E943A1769017A0160E201
:1012700071EA87E090E0A50194010E943A17890184
:10128000C901880F991F880F991FEC012597812CA0
:10129000912C54018C149D04AE04BF04D4F461E07D
:1012A00083E10E94EE020230110518F0CE01019791
:1012B000F1F760E083E10E94EE020230110518F0C0
:1012C000CE010197F1F78FEF881A980AA80AB80A99
:1012D000E1CFDF91CF911F910F91FF90EF90DF90C1
:1012E000CF90BF90AF909F908F900895EF92FF9214
:1012F0000F931F93CF93DF93EC017B018A018881C9
:101300009981009729F02A813B8124173507F8F449
:10131000B8016F5F7F4F0E944F12009759F0998379
:1013200088831B830A832C813D81232B81F4FC015C
:1013300010820DC088819981009711F00E94B71129
:10134000198218821D821C821B821A8207C01D838B
:101350000C83B701888199810E942713CE01DF9108
:10136000CF911F910F91FF90EF900895FC01808124
:1013700091810C94B711EF92FF920F931F93CF932B
:10138000DF93CDB7DEB7A1970FB6F894DEBF0FBEDF
:10139000CDBF7C01CB01BA01F7011182108213820B
:1013A00012821582148242E0420F8E010F5F1F4F9E
:1013B0000E942E13009769F0FC0101900020E9F7CC
:1013C0003197AF01481B590BBC01C7010E94760938
:1013D0000EC0F70180819181009711F00E94B71132
:1013E000F701118210821582148213821282A19653
:1013F0000FB6F894DEBF0FBECDBFDF91CF911F9126
:101400000F91FF90EF900895FB01DC0111961C9263
:101410001E9213961C921E92129715961C921E9263
:1014200014978617970749F06081718161157105DE
:1014300021F0448155810C9476090895CF93DF9370
:10144000CDB7DEB72C970FB6F894DEBF0FBECDBF79
:10145000789484B5826084BD84B5816084BD85B58F
:10146000826085BD85B5816085BD80916E0081609B
:1014700080936E0010928100809181008260809341
:101480008100809181008160809381008091800043
:101490008160809380008091B10084608093B1006E
:1014A0008091B00081608093B00080917A00846068
:1014B00080937A0080917A00826080937A00809194
:1014C0007A00816080937A0080917A0080688093AE
:1014D0007A001092C10010924406109245061092B4
:1014E00046061092470610920206109203061092CA
:1014F00004061092050660ED77E080E090E00E941F
:10150000700383E695E090934306809342060E9421
:1015100010072FB7F89480911B0590911C05A0919E
:101520001D05B0911E052FBF809302069093030600
:10153000A0930406B093050665EA73E08091420625
:10154000909143060E9434056AE070E080E090E0EC
:101550000E94700381E0809316060E94100787EBBB
:1015600093E00E94EC0744E064E18FE195E00E9483
:101570004D0760E080E00E94380761E082E10E9450
:10158000340362EC73E08FE195E00E94F40324E6FB
:10159000422E512C612C712C809140050E94C50275
:1015A0008C01809142050E94C5026C018091440526
:1015B0000E94C5027C012091560530E0C216D30678
:1015C00059F58C159D0541F56FEC73E0CE01019640
:1015D0000E9451022EE430E040EE51E06CE772E0F0
:1015E000CE0101960E948F05CE0101960E94B60998
:1015F00067EE73E0CE0101960E94510228E330E0CD
:1016000040E051E060E771E0CE0101960E948F0555
:10161000CE0101960E94B60980913F05882309F406
:1016200026C160E074E0CE0101960E94510241E0C3
:1016300060E070E0CE0101960E94ED06CE010196B9
:101640000E94B60980913F05882309F41CC180914E
:1016500040050E94C5026C01809142050E94C502AE
:101660008C01809144050E94C5027C018091560541
:1016700090E0C816D90609F04DC09AE0D92E812C09
:10168000912C540180E596E00E940606860E971E76
:10169000A81EB91EDA94D110F5CFC501B4012AE015
:1016A00030E040E050E00E943A17CA01B9010E94C0
:1016B000BB154B015C0169837A838B839C8344E077
:1016C00050E064E070E0CE0101960E94F016C50182
:1016D000B4010E94E2106093550670935606809301
:1016E00057069093580660E174E0CE0101960E947F
:1016F000510241E060E070E0CE0101960E94ED06EB
:10170000CE0101960E94B60980E194E00E94EC07A8
:1017100010923F058091560590E00817190709F0CF
:101720004FC00E947D08AB01BC0180E090E00E94A8
:10173000360580E090E00E945F0560935F0570933E
:101740006005809361059093620562E274E0CE01CA
:1017500001960E94510241E060E070E0CE010196E6
:101760000E94ED06CE0101960E94B60940915F05E8
:1017700050916005609161057091620522E0CE0193
:1017800001960E94BB0940E061E070E0CE01019645
:101790000E94ED06CE0101960E94B60960E374E056
:1017A00083E695E00E94340560915F0570916005C5
:1017B00080916105909162050E94440810923F0556
:1017C0008091560590E0E816F90609F03BCF0E949B
:1017D0007D08AB01BC0182E090E00E94360582E00A
:1017E00090E00E945F056093370570933805809301
:1017F000390590933A0560E474E0CE0101960E94A9
:10180000510241E060E070E0CE0101960E94ED06D9
:10181000CE0101960E94B6094091370550913805D6
:101820006091390570913A0522E0CE0101960E943F
:10183000BB0940E061E070E0CE0101960E94ED0638
:10184000CE0101960E94B6096EE474E083E695E04D
:101850000E943405609137057091380580913905F3
:1018600090913A050E94440810923F05EBCE80917A
:10187000560590E00817190731F4E016F10619F43F
:1018800081E080933F0520915F0530916005409194
:10189000610550916205609137057091380580911E
:1018A000390590913A050E94031060933B057093AF
:1018B0003C0580933D0590933E050E947D08209154
:1018C0005F053091600540916105509162050E946D
:1018D000031060935B0570935C0580935D059093A6
:1018E0005E0520913B0530913C0540913D055091AE
:1018F0003E050E9470106B017C0160935705709348
:1019000058058093590590935A0580905205909000
:101910005305A0905405B0905505A501940160E0D1
:1019200070E0CB010E9403109B01AC01C701B6011E
:101930000E94B41518167CF5209146053091470594
:101940004091480550914905C701B6010E94B41560
:1019500087FD24C020914A0530914B0540914C05EC
:1019600050914D05C701B6010E94B41587FD19C0FD
:1019700020E030E040E85FE3C501B4010E940410BC
:101980009B01AC01C701B6010E94B415181664F49E
:1019900001E010E00BC000E010E008C002E010E041
:1019A00005C003E010E002C004E010E026E0209F44
:1019B000C001219F900D11249C01235A394F190118
:1019C000B901CE0107960E94040A20915F0530916B
:1019D00060054091610550916205609137057091F5
:1019E00038058091390590913A050E940310609363
:1019F0003B0570933C0580933D0590933E050E9406
:101A00007D0820915F0530916005409161055091FE
:101A100062050E9403104B015C0160935B057093AB
:101A20005C0580935D0590935E0520913B053091A8
:101A30003C0540913D0550913E050E9470106B01A0
:101A40007C016093570570935805809359059093D6
:101A50005A0520914E0530914F0540915005509107
:101A60005105C501B4010E941A164B015C0120E02A
:101A700030E0A9010E94B41587FF03C0812C912C8E
:101A8000540160E374E083E695E00E9434056091C0
:101A90005F057091600580916105909162050E94DB
:101AA00044086EE574E083E695E00E943405609199
:101AB0004C0670914D0680914E0690914F060E9403
:101AC000440860E774E083E695E00E943405C501B0
:101AD000B4010E94440867E874E083E695E00E9440
:101AE0003405CE0107960E942D088DE994E00E94EE
:101AF000EC0720E030E040E85FE3C701B6010E9458
:101B0000181118166CF020E030E0A901C701B601E9
:101B10000E94B41587FF0AC0C12CD12C760106C0E3
:101B2000C12CD12C80E8E82E8FE3F82E8FE195E0D0
:101B30000E94E50660E080E00E943807B101CE0116
:101B400001960E94040A69817A818FE195E00E94E2
:101B500034050230110508F4ACC062E080E00E9458
:101B6000380720E030E040E85FE3C501B4010E949F
:101B7000181187FD0AC022E0B501A4018FE195E0AC
:101B80000E94520465EC74E011C020E030E04AE7A6
:101B900054E4C501B4010E941A16AB01BC0120E057
:101BA0008FE195E00E9452046DEC74E08FE195E0C6
:101BB0000E94340561ED74E08FE195E00E943405E8
:101BC00020E030E048EC52E4C701B6010E941A164A
:101BD0006B017C0120E0AB01BC018FE195E00E942C
:101BE000520464ED74E08FE195E00E94340568E3EF
:101BF00073E081E00E94FF0760E373E082E00E94EF
:101C0000FF0768E273E083E00E94FF0760E273E091
:101C100084E00E94FF0768E173E085E00E94FF070F
:101C2000C701B6010E94E2104B015C01DB0124E117
:101C300030E00E94E20FA30192010E943A1769016D
:101C40007A011901D40120E530E00E94E20FA301DE
:101C500092010E943A178BEF182FB601160350011C
:101C6000179FB00C1124A20EB31E1C141D041E04D9
:101C70001F046CF063E08C2D0E9438071A141B04BB
:101C8000C4F46A2D8FE195E00E94DC0612C0812C1D
:101C9000912C63E0882D0E94380765E08FE195E084
:101CA0000E94DC062FEF821A920A821493048CF3AE
:101CB000E1CFCE0101960E94B609CE0107960E949F
:101CC000B6090E94F70168CCCF93DF93CBE7D6E04B
:101CD0002697CE010E94B60986E0CD35D807C1F718
:101CE000DF91CF910895CF92DF92EF92FF920F9301
:101CF0001F93CF93DF93CDB7DEB761970FB6F894FC
:101D0000DEBF0FBECDBFE3E6F5E01382128288EEA0
:101D100093E0A0E0B0E084839583A683B7838EE44C
:101D200093E09183808385EC90E09587848784ECB1
:101D300090E09787868780EC90E0918B808B81EC98
:101D400090E0938B828B82EC90E0958B848B86EC79
:101D500090E0978B868B118E128E138E148E68ED09
:101D600074E08DE596E00E94510264EE74E083E633
:101D700096E00E94510261EF74E089E696E00E94CD
:101D800051026FEF74E08FE696E00E9451026DE021
:101D900075E085E796E00E945102EFE1F5E01382DD
:101DA00012828EE593E0918380838CE084838FEFB1
:101DB00085838BE0868385E0878384E0808783E06A
:101DC000818782E082871386148615861686178699
:101DD00041E060E1CF010E944D0707E315E0F80103
:101DE000108686E090E0928781878AE090E0948771
:101DF000838789E090E0968785878DEC9CECACEC3E
:101E0000BDE38787908BA18BB28B4AE959E969E9D9
:101E10007EE3438B548B658B768BC12CD12C20E8D1
:101E2000E22E2FE3F22EC78AD08EE18EF28E838FC0
:101E3000948FA58FB68F178E80E090E00E945F058B
:101E4000F80160A771A782A793A782E090E00E94A3
:101E50005F05F8016083718382839383C0A2D1A25E
:101E6000E2A2F3A262E081850E94340362E0F801FD
:101E700083850E94340362E0F80185850E94340363
:101E800061E083E10E94340300E516E086E693E01A
:101E9000F801918380831582168217821086C1868D
:101EA000D286E386F4869A8389831E821F821886EF
:101EB0001986CA86DB86EC86FD8688E08B8387E000
:101EC0008C8361E088E00E94340360E08C810E9492
:101ED000340381E08D8360E08B810E94EE02CE01AD
:101EE00001960E94060644E050E064E070E0CE01F6
:101EF0000E960E94D816CE84DF84E888F98867E8B9
:101F000073E083E695E00E943405C701B6010E94A4
:101F100044088B81F80182838C8183838D81848343
:101F2000C701B6010E94E210F801658376838783BA
:101F3000908780E090EFA2EDB6E481879287A38737
:101F4000B48784EF91E090934B0680934A06E0E0DB
:101F5000F6E0168217821086118612861386148682
:101F6000158616861786108A118A128A138A148A91
:101F7000158A84E690E0909349068093480661961E
:101F80000FB6F894DEBF0FBECDBFDF91CF911F918A
:101F90000F91FF90EF90DF90CF90089597FB072E61
:101FA00016F4009407D077FD09D00E94E90F07FCD2
:101FB00005D03EF4909581959F4F08957095619559
:101FC0007F4F08950E949B17B7FF0895821B930BC4
:101FD0000895AA1BBB1B51E107C0AA1FBB1FA61770
:101FE000B70710F0A61BB70B881F991F5A95A9F7C2
:101FF00080959095BC01CD010895EE0FFF1F0590CF
:10200000F491E02D09945058BB27AA270E941B1079
:102010000C949E160E94901638F00E94971620F09D
:1020200039F49F3F19F426F40C948D160EF4E095C4
:10203000E7FB0C948716E92F0E94AF1658F3BA17E6
:10204000620773078407950720F079F4A6F50C94CE
:10205000D1160EF4E0950B2EBA2FA02D0B01B9016D
:1020600090010C01CA01A0011124FF27591B99F00E
:10207000593F50F4503E68F11A16F040A22F232F1A
:10208000342F4427585FF3CF469537952795A7956A
:10209000F0405395C9F77EF41F16BA0B620B730B11
:1020A000840BBAF09150A1F0FF0FBB1F661F771F82
:1020B000881FC2F70EC0BA0F621F731F841F48F437
:1020C000879577956795B795F7959E3F08F0B0CFC0
:1020D0009395880F08F09927EE0F979587950895A7
:1020E0000E9484100C949E160E94971658F00E942D
:1020F000901640F029F45F3F29F00C948716511197
:102100000C94D2160C948D160E94AF1668F3992386
:10211000B1F3552391F3951B550BBB27AA276217E3
:102120007307840738F09F5F5F4F220F331F441FF0
:10213000AA1FA9F335D00E2E3AF0E0E832D0915024
:102140005040E695001CCAF72BD0FE2F29D0660F11
:10215000771F881FBB1F261737074807AB07B0E854
:1021600009F0BB0B802DBF01FF2793585F4F3AF05A
:102170009E3F510578F00C9487160C94D2165F3F61
:10218000E4F3983ED4F3869577956795B795F795E0
:102190009F5FC9F7880F911D9695879597F90895C8
:1021A000E1E0660F771F881FBB1F62177307840764
:1021B000BA0720F0621B730B840BBA0BEE1F88F773
:1021C000E09508950E94E9106894B1110C94D2161C
:1021D00008950E94B71688F09F5798F0B92F992755
:1021E000B751B0F0E1F0660F771F881F991F1AF002
:1021F000BA95C9F714C0B13091F00E94D116B1E080
:1022000008950C94D116672F782F8827B85F39F07E
:10221000B93FCCF3869577956795B395D9F73EF49A
:1022200090958095709561957F4F8F4F9F4F089542
:102230000E94F61508F48FEF08950E94F615880B9A
:10224000990B0895CF93DF938230910510F482E0CB
:1022500090E0E0917D06F0917E0620E030E0C0E065
:10226000D0E0309711F14081518148175907C0F0F3
:102270004817590761F482819381209719F09B8355
:102280008A832BC090937E0680937D0626C02115FD
:10229000310519F04217530718F49A01BE01DF0106
:1022A000EF010280F381E02DDCCF2115310509F12A
:1022B000281B390B2430310590F412968D919C9196
:1022C00013976115710521F0FB019383828304C08C
:1022D00090937E0680937D06FD01329644C0FD01F9
:1022E000E20FF31F81939193225031092D933C9378
:1022F0003AC020917B0630917C06232B41F420913B
:1023000042033091430330937C0620937B06209157
:102310004003309141032115310541F42DB73EB7FB
:102320004091440350914503241B350BE0917B06FB
:10233000F0917C06E217F307A0F42E1B3F0B281741
:10234000390778F0AC014E5F5F4F2417350748F02E
:102350004E0F5F1F50937C0640937B0681939193B1
:1023600002C0E0E0F0E0CF01DF91CF9108950F933C
:102370001F93CF93DF93009709F48CC0FC01329731
:102380001382128200917D0610917E0601151105BF
:1023900081F420813181820F931F20917B0630913F
:1023A0007C062817390779F5F0937C06E0937B06C5
:1023B00071C0D80140E050E0AE17BF0750F412964C
:1023C0002D913C911397AD012115310509F1D901EA
:1023D000F3CF9D01DA013383228360817181860FFF
:1023E000971F8217930769F4EC0128813981260F22
:1023F000371F2E5F3F4F318320838A819B819383D8
:102400008283452B29F4F0937E06E0937D0642C03B
:102410001396FC93EE931297ED01499159919E0109
:10242000240F351FE217F30771F480819181840F27
:10243000951F029611969C938E9382819381139699
:102440009C938E931297E0E0F0E0D80112968D9164
:102450009C911397009719F0F8018C01F6CF8D919C
:102460009C9198012E5F3F4F820F931F20917B0616
:1024700030917C062817390769F4309729F41092B7
:102480007E0610927D0602C01382128210937C0693
:1024900000937B06DF91CF911F910F910895A0E0EB
:1024A000B0E0E5E5F2E10C946817EC01009721F447
:1024B000CB010E942211B8C0FC01E60FF71F9C015E
:1024C00022503109E217F30708F4ACC0D9010D918D
:1024D0001C91119706171707B0F00530110508F485
:1024E0009FC0C80104978617970708F499C0025047
:1024F0001109061B170B019311936D937C93CF0168
:102500000E94B7118DC05B01A01AB10A4C01800E68
:10251000911EA0917D06B0917E0640E050E0E12C36
:10252000F12C109709F44AC0A815B905D1F56D90A2
:102530007C901197630182E0C80ED11CCA14DB04A1
:1025400080F1A3014A195B096A0182E0C80ED11C1F
:102550001296BC9012971396AC91B5E0CB16D104AD
:1025600040F0B282A38351834083D9016D937C9361
:102570000AC00E5F1F4FC301800F911FF9019183A5
:102580008083EB2DFA2FE114F10431F0D70113967B
:10259000FC93EE93129744C0F0937E06E0937D0681
:1025A0003FC08D919C9111974817590708F4AC01D1
:1025B0007D0112960D90BC91A02DB3CF80917B062A
:1025C00090917C0688159905E1F446175707C8F4E1
:1025D0008091400390914103009741F48DB79EB7DD
:1025E0004091440350914503841B950BE817F9076C
:1025F000C8F4F0937C06E0937B06F9017183608355
:102600000FC0CB010E9422117C01009759F0A80154
:10261000BE010E941E13CE010E94B711C70104C063
:10262000CE0102C080E090E0CDB7DEB7EEE00C94C2
:10263000841781E090E0F8940C94AA17FB01DC0168
:1026400002C001900D9241505040D8F70895FB010F
:10265000DC0101900D920020E1F70895EF920F93B5
:102660001F93CF93DF93E80147FD02C034E001C020
:1026700034E1E42F440FFF0BF7FF03C0F195E19520
:10268000F109E32E022F2E2FAE010E944E13CE0130
:10269000DF91CF911F910F91EF9008954F925F922C
:1026A0006F927F929F92AF92BF92CF92DF92EF9202
:1026B000FF920F931F93CF93DF93CDB7DEB7299788
:1026C0000FB6F894DEBF0FBECDBF6A01122FB02E39
:1026D0002BE3201720F0FF24F394F00E02C0BCE39C
:1026E000FB2E0F2D27E0AE014F5F5F4F0E94DC14E1
:1026F000AC018981982F9970913031F0E1FC06C0CE
:10270000E0FE06C090E205C09DE203C09BE201C06E
:1027100090E0EE2DE07183FF3CC0911102C083E098
:1027200001C084E0811718F4212F281B01C020E08C
:10273000E1110BC0F601822F30E2882319F03193AA
:102740008150FBCFC20ED11C20E0992329F0D60185
:102750009C93F60131966F01C6010396E2FE0AC012
:102760003EE4D6013C9341E411964C9311971296A6
:102770003C9306C03EE6F601308341E64183328356
:10278000FC01322F40E2332309F442C0419331501F
:10279000FACF82FF44C0911102C083E001C084E0FF
:1027A000811718F4212F281B01C020E0E1110BC074
:1027B000F601822F30E2882319F031938150FBCF4C
:1027C000C20ED11C20E0992329F0D6019C93F6017A
:1027D00031966F01C6010396E2FE0BC039E4D601C3
:1027E0003C933EE411963C93119736E412963C9349
:1027F00007C039E6F60130833EE6318336E63283A0
:10280000FC01322F40E2332319F041933150FBCFCA
:10281000FC01E20FF11D10828EEF9FEFB7C0F1E0D7
:10282000911101C0F0E06F2F70E01416150624F42A
:102830009A012F5F3F4F02C021E030E0260F371F83
:10284000BB2029F06B2D70E06F5F7F4F02C060E00E
:1028500070E0260F371F612F70E0261737071CF432
:10286000121B212F01C020E03E2D387159F4D601F2
:10287000322F60E2332319F06D933150FBCFC20E3B
:10288000D11C20E0FF2331F0D6019C93B6016F5F8D
:102890007F4F6B01E1110BC0F601922F30E39923BA
:1028A00019F031939150FBCFC20ED11C20E09F2D27
:1028B000940F3A81782F7071A72E84FF03C03133B3
:1028C00009F49150191624F4993018F098E001C0D9
:1028D00091E0E42F852F57FF02C0E0E080E06E2FEB
:1028E000782FE0E0F0E0AEE29A2E3A01691A710822
:1028F0002A01461A570A0B2D10E01195019511096E
:102900006F3F8FEF780729F4D6019C92C60101969C
:102910006C014617570784F0661677066CF47F0142
:10292000E40CF51CA1E0B0E0AC0FBD1FEA0EFB1EED
:10293000D7011196BC9002C090E3B92E6150710985
:102940003196C60101967C016017710724F0D6010B
:10295000BC926C01D5CF6417750741F4363320F46F
:10296000353321F4A11002C081E3B82EF601B08204
:10297000F701822F90E2882319F091938150FBCFC9
:10298000F701E20FF11D108280E090E029960FB66A
:10299000F894DEBF0FBECDBFDF91CF911F910F9195
:1029A000FF90EF90DF90CF90BF90AF909F907F907F
:1029B0006F905F904F900895283008F027E03327FC
:1029C000DA01990F311D87FD91600096610571054F
:1029D00039F432602E5F3D9330E32A95E1F7089594
:1029E0009F3F30F080387105610509F03C5F3C5F26
:1029F0003D93913008F08068911DDF93CF931F9332
:102A00000F93FF92EF92192F987F9695E92F969545
:102A10009695E90FFF27E45EFE4F99273327EE24B2
:102A2000FF24A701E70105900894079428F4360FC6
:102A3000E71EF81E491F511D660F771F881F991F3B
:102A40000694A1F70590079428F4E70EF81E491F95
:102A5000561FC11D770F881F991F661F0694A1F787
:102A60000590079428F4F80E491F561FC71FD11D63
:102A7000880F991F661F771F0694A1F7059007948A
:102A800020F4490F561FC71FD81F990F661F771FC5
:102A9000881F0694A9F784911095177041F0D69578
:102AA000C79557954795F794E7941A95C1F7E2ECC7
:102AB000F0E0689415901591359165919591059088
:102AC0007FE27395E118F10A430B560BC90BD0094D
:102AD000C0F7E10CF11E431F561FC91FD01D7EF425
:102AE000703311F48A95E6CFE894015030F0080F66
:102AF0000AF40027021708F4202F2395022F7A33B7
:102B000028F079E37D932A95E9F710C07D932A9503
:102B100089F6069497956795379517951794E11858
:102B2000F10A430B560BC90BD00998F023957E91FF
:102B300073957A3308F070E37C932013B8F77E9195
:102B400070617D9330F0839571E37D9370E32A95F6
:102B5000E1F71124EF90FF900F911F91CF91DF913A
:102B6000992787FD909508950E94F61508F481E055
:102B70000895E89409C097FB3EF490958095709570
:102B800061957F4F8F4F9F4F9923A9F0F92F96E9B9
:102B9000BB279395F695879577956795B795F1112E
:102BA000F8CFFAF4BB0F11F460FF1BC06F5F7F4FCB
:102BB0008F4F9F4F16C0882311F096E911C07723DD
:102BC00021F09EE8872F762F05C0662371F096E8E6
:102BD000862F70E060E02AF09A95660F771F881FB5
:102BE000DAF7880F9695879597F90895990F000859
:102BF000550FAA0BE0E8FEEF16161706E807F907CF
:102C0000C0F012161306E407F50798F0621B730B69
:102C1000840B950B39F40A2661F0232B242B252BEA
:102C200021F408950A2609F4A140A6958FEF811D8D
:102C3000811D08950E942D160C949E160E949016D8
:102C400038F00E94971620F0952311F00C94871607
:102C50000C948D1611240C94D2160E94AF1670F3AA
:102C6000959FC1F3950F50E0551F629FF001729F31
:102C7000BB27F00DB11D639FAA27F00DB11DAA1F40
:102C8000649F6627B00DA11D661F829F2227B00D8D
:102C9000A11D621F739FB00DA11D621F839FA00D18
:102CA000611D221F749F3327A00D611D231F849F68
:102CB000600D211D822F762F6A2F11249F575040BF
:102CC0009AF0F1F088234AF0EE0FFF1FBB1F661F3A
:102CD000771F881F91505040A9F79E3F510580F003
:102CE0000C9487160C94D2165F3FE4F3983ED4F30D
:102CF000869577956795B795F795E7959F5FC1F7A7
:102D0000FE2B880F911D9695879597F9089597F951
:102D10009F6780E870E060E008959FEF80EC089581
:102D200000240A94161617061806090608950024AA
:102D30000A9412161306140605060895092E039424
:102D4000000C11F4882352F0BB0F40F4BF2B11F498
:102D500060FF04C06F5F7F4F8F4F9F4F089557FDF7
:102D60009058440F551F59F05F3F71F04795880FF9
:102D700097FB991F61F09F3F79F087950895121690
:102D800013061406551FF2CF4695F1DF08C016163C
:102D900017061806991FF1CF8695710561050894ED
:102DA0000895E894BB2766277727CB0197F9089504
:102DB000DC01CB01FC01F999FECF06C0F2BDE1BDFB
:102DC000F89A319600B40D9241505040B8F70895EA
:102DD000F999FECF92BD81BDF89A992780B50895E3
:102DE000DC01CB0103C02D910E94FB1641505040E5
:102DF000D0F70895262FF999FECF1FBA92BD81BD55
:102E000020BD0FB6F894FA9AF99A0FBE019608956C
:102E1000DB018F939F930E945917BF91AF91A29F9F
:102E2000800D911DA39F900DB29F900D11240895C8
:102E3000A1E21A2EAA1BBB1BFD010DC0AA1FBB1FBE
:102E4000EE1FFF1FA217B307E407F50720F0A21B30
:102E5000B30BE40BF50B661F771F881F991F1A949D
:102E600069F760957095809590959B01AC01BD01C7
:102E7000CF010895052E97FB1EF400940E94511770
:102E800057FD07D00E94181707FC03D04EF40C948E
:102E9000511750954095309521953F4F4F4F5F4FBB
:102EA000089590958095709561957F4F8F4F9F4FB6
:102EB00008950E949B17A59F900DB49F900DA49F0D
:102EC000800D911D112408952F923F924F925F9291
:102ED0006F927F928F929F92AF92BF92CF92DF922A
:102EE000EF92FF920F931F93CF93DF93CDB7DEB78F
:102EF000CA1BDB0B0FB6F894DEBF0FBECDBF099423
:102F00002A88398848885F846E847D848C849B8479
:102F1000AA84B984C884DF80EE80FD800C811B8187
:102F2000AA81B981CE0FD11D0FB6F894DEBF0FBEB6
:102F3000CDBFED010895A29FB001B39FC001A39F33
:102F4000700D811D1124911DB29F700D811D1124E2
:102F5000911D089510E0CFEDD0E004C0FE010E9465
:0E2F6000FD0F2196C03ED107C9F7F894FFCFB0
:102F6E000C000C000C000C000C000C000600030002
:102F7E000C000C000C000C000C000C0006000300F2
:102F8E000C000C000C000C000C000C0006000300E2
:102F9E000C000C000C000C000C000C0006000600CF
:102FAE0012001200120006000600060006000600BF
:102FBE0006001200120012001200120012000A0087
:102FCE000A000A000A000A000A00030003000300B8
:102FDE0006010B02DC00B801E900D201000000007E
:102FEE0006010B02DC00B801E900D201000000006E
:102FFE00AF005D01930026019C0037010000000028
:10300E00AF005D01930026019C0037010000000017
:10301E00370115012601150137013701D000C40013
:10302E001501060172015D01A500D201B8019F01D3
:10303E003701F700E900DC00D000000000000000BE
:10304E000C000C000C000C000C000C000C000C0012
:10305E000C000C000C000C000C000C000C000C0002
:10306E000C000C000C000C000C000C000C000C00F2
:10307E000C000C000C000C000C000C000C000C00E2
:10308E000900090009000C000C000C000C000C00DB
:10309E000C000C000C000C000C000C000C000C00C2
:1030AE000C000C000C000C000C000C000C000C00B2
:1030BE000C000C000C000C000C000C000C000900A5
:1030CE00090009000C000C000C000C000C000C0098
:1030DE000C000C000C000C000C000C004D0A4D0AEC
:1030EE0000004D0A00002D084D0A0000400C0000A3
:1030FE000000000020060000000000002D08000067
:10310E000000200600000000270500000000E00679
:10311E000000B80700004907E006000020064D0A2F
:10312E00400CC00D0000EA0A400C00004D0A0000E1
:10313E002D082D09B807000000002D080000000022
:10314E00200600000000270500000000E006000039
:10315E00B80700004907E006000020064D0A400CA3
:10316E00C00D0000EA0A400C00004D0A00002D08B8
:10317E002D09B807000000001F1F1F1F1F1F1F1F54
:10318E001E1E1E1E1E1E1E1E1C1C1C1C1C1C1C1C61
:10319E0018181818181818181010101010101010E1
:1031AE0000007F06800001000000000000008E017C
:1031BE000A01570135014901D50100000000DC0666
:1031CE000A01000000005B064F026E616E00696E20
:1031DE0066006F766600454550524F4D204772612E
:1031EE007661646F3A2000454550524F4D206C6910
:1031FE00646F3A200054616D616E686F206D757357
:10320E006963613A00564D4450565F317C315F56CA
:10321E004D4450560D0A0053657269616C204F4B38
:10322E002100496E696369616E646F2E2E2E002037
:10323E002754656D61205072696E636970616C20F0
:10324E004D6172696F2700202754656D61204D61B5
:10325E0072696F20556E646572776F726C642700A9
:10326E004D4F444F2043414C4942524143414F0040
:10327E0042414C414E43412043414C49425241440C
:10328E004100474152524146412056415A49410060
:10329E00476172726166612076617A69613A2000D7
:1032AE0047415252414641204348454941004761FA
:1032BE0072726166612063686569613A20005065CB
:1032CE00736F206E612062616C616E63613A2000E3
:1032DE005175616E74696461646520636166652011
:1032EE00286C74293A2000536974756163616F20EC
:1032FE00646120676172726166613A20002D2D2D26
:10330E002D2D2D2D2D2D2D2D2D2D2D2D2D2D2D2DDF
:10331E002D2D2D2D2D2D2D2D2D2D2D2D2D2D2D2DCF
:10332E002D2D2D2D00206C6974726F7300206D4C45
:10333E00002028002025290053656D2047617272F8
:10334E0061666100506567616E646F2063616665DA
:10335E00004E6976656C204372697469636F004331
:10336E006166652061636162616E646F0054656DB4
:06337E002063616665009A
:107E0000112484B714BE81FFF0D085E080938100F7
:107E100082E08093C00088E18093C10086E0809377
:107E2000C20080E18093C4008EE0C9D0259A86E02C
:107E300020E33CEF91E0309385002093840096BBD3
:107E4000B09BFECF1D9AA8958150A9F7CC24DD24C4
:107E500088248394B5E0AB2EA1E19A2EF3E0BF2EE7
:107E6000A2D0813461F49FD0082FAFD0023811F036
:107E7000013811F484E001C083E08DD089C08234E0
:107E800011F484E103C0853419F485E0A6D080C0E4
:107E9000853579F488D0E82EFF2485D0082F10E0AE
:107EA000102F00270E291F29000F111F8ED06801E7
:107EB0006FC0863521F484E090D080E0DECF843638
:107EC00009F040C070D06FD0082F6DD080E0C81688
:107ED00080E7D80618F4F601B7BEE895C0E0D1E017
:107EE00062D089930C17E1F7F0E0CF16F0E7DF06D8
:107EF00018F0F601B7BEE89568D007B600FCFDCFD4
:107F0000A601A0E0B1E02C9130E011968C91119780
:107F100090E0982F8827822B932B1296FA010C0160
:107F200087BEE89511244E5F5F4FF1E0A038BF0790
:107F300051F7F601A7BEE89507B600FCFDCF97BE46
:107F4000E89526C08437B1F42ED02DD0F82E2BD052
:107F50003CD0F601EF2C8F010F5F1F4F84911BD097
:107F6000EA94F801C1F70894C11CD11CFA94CF0C13
:107F7000D11C0EC0853739F428D08EE10CD085E9AC
:107F80000AD08FE07ACF813511F488E018D01DD067
:107F900080E101D065CF982F8091C00085FFFCCF94
:107FA0009093C60008958091C00087FFFCCF809118
:107FB000C00084FD01C0A8958091C6000895E0E648
:107FC000F0E098E1908380830895EDDF803219F02E
:107FD00088E0F5DFFFCF84E1DECF1F93182FE3DFCA
:107FE0001150E9F7F2DF1F91089580E0E8DFEE27F6
:047FF000FF270994CA
:027FFE00040479
:0400000300007E007B
:00000001FF