:100000000C94ED000C9415010C9415010C94150141
:100010000C9415010C9415010C9415010C94150108
:100020000C9415010C9415010C94BE070C94240437
:100030000C9415010C9415010C9415010C941501E8
:100040000C9415010C9415010C9415010C941501D8
:100050000C9415010C9415010C9415010C94BA061E
:100060000C9415010C9415010C9415010C941501B8
:100070000C9415010C9415010C9415010C941501A8
:100080000C9415010C9415010C9415010C94150198
:100090000C9415010C9415010C9415010C94150188
:1000A0000C9415010C9415010C94150134023702BF
:1000B00026022A0230025802580258023B023F022E
:1000C000430249024D02580253020000000023007F
:1000D000260029002C002F000000000200090F005C
:1000E00000030401000C00000000000000000000FC
:1000F00000000000000000080B00020202010009DD
:100100000400000102020000052400100105240182
:1001100001010424020605240600010705810310DD
:10012000004009040100020A000000070502024025
:1001300000000705830240000004030904417264C3
:1001400075696E6F204C4C430041726475696E6F27
:10015000204D6963726F00120100020000004041EF
:1001600023378000010102030112010002EF0201A6
:1001700040412337800001010203010000000025F7
:100180000028002B002E0031000000000024002772
:10019000002A002D003000040404040403040502B6
:1001A0000202020403020202020606060606060412
:1001B00004020202040404080201104080401020DE
:1001C000408040800802040180402010020110801D
:1001D000102040402000900B8F0B11241FBECFEF4A
:1001E000DAE0DEBFCDBF11E0A0E0B1E0EAE0F0E28E
:1001F00002C005900D92A037B107D9F722E0A0E721
:10020000B1E001C01D92A134B207E1F710E0CCEEDD
:10021000D0E004C02197FE010E945B0CCB3ED107C9
:10022000C9F70E9430080C94F80F0C94000040911C
:100230008401509185012091820130918301421700
:100240005307B4F49091E8009570E1F39091E800C1
:1002500092FD19C08093F1008091840190918501F5
:1002600001968F739927892B19F48EEF8093E800FC
:1002700080918401909185010196909385018093EE
:10028000840181E0089580E00895CF92DF92EF929B
:10029000FF920F931F93CF93DF931F92CDB7DEB7DB
:1002A000182F062FE42E862F880F8E5F99830E94C9
:1002B000170183E00E941701F12EC12E9981D92EDA
:1002C0008C2D8F19801798F4F601E7FE02C08491F7
:1002D00001C080810E941701182F80E00E94170141
:1002E0008123FFEFCF1ADF0A8111EACF01C081E03D
:1002F0000F90DF91CF911F910F91FF90EF90DF90C2
:10030000CF900895DF92EF92FF920F931F93CF93B8
:10031000DF93D82E8A017B01E40EF51EEB01CE158A
:10032000DF0571F0D7FE03C0FE01849101C0888112
:100330000E94170121968111F2CF8FEF9FEF01C02C
:10034000C801DF91CF911F910F91FF90EF90DF9047
:100350000895615030F02091F100FC012083019656
:10036000F8CF289A84E680938A010895CF92DF928D
:10037000EF92FF920F931F93CF93DF936C017A015B
:100380008B01C0E0D0E0CE15DF0589F0D8016D917A
:100390008D01D601ED91FC910190F081E02DC60117
:1003A0000995892B11F47E0102C02196ECCFC7017B
:1003B000DF91CF911F910F91FF90EF90DF90CF9041
:1003C0000895CF93DF931F92CDB7DEB76983DC0129
:1003D000ED91FC910280F381E02D41E050E0BE01FF
:1003E0006F5F7F4F09950F90DF91CF91089583E064
:1003F0008093E9008091F200882319F08AE38093CA
:10040000E8000895FC018485958597FD0BC09FB792
:10041000F89482E08093E9008091F2009FBF90E021
:10042000019608959FB7F89482E08093E900809147
:10043000F2009FBF90E0089590E0FC013197EF300B
:10044000F105B0F5EA5AFF4F0C945B0C80918000E7
:100450008F7703C0809180008F7D80938000089506
:1004600080918000877FF9CF84B58F7702C084B5F3
:100470008F7D84BD0895809190008F7707C0809113
:1004800090008F7D03C080919000877F80939000C3
:1004900008958091C0008F7703C08091C0008F7D48
:1004A0008093C00008958091C200877F8093C2002E
:1004B00008953FB7F8948091750190917601A091CD
:1004C0007701B091780126B5A89B05C02F3F19F0A0
:1004D0000196A11DB11D3FBFBA2FA92F982F8827C4
:1004E000820F911DA11DB11DBC01CD0142E0660F1F
:1004F000771F881F991F4A95D1F708958F929F9271
:10050000AF92BF92CF92DF92EF92FF926B017C018C
:100510000E9459024B015C01C114D104E104F104B1
:10052000F1F00E945902DC01CB0188199909AA094E
:10053000BB09883E9340A105B10570F321E0C21AC2
:10054000D108E108F10888EE880E83E0981EA11C0E
:10055000B11CC114D104E104F10419F7DDCFFF90FF
:10056000EF90DF90CF90BF90AF909F908F900895C5
:100570008F929F92AF92BF92CF92DF92EF92FF92B3
:100580000F931F93CF93DF935C016B018A018091DE
:100590000B01882309F45EC080918B01882309F444
:1005A00059C08091880180FF05C08091E000826081
:1005B0008093E000E8018AEFF82E93E0E92E2FE324
:1005C000822E3AE3932E209709F43DC08FB7F8941A
:1005D000E092E9009091E80095FF06C09091F2004A
:1005E000282D291B922F01C090E08FBF91110AC0C6
:1005F000FA94FF2079F161E070E080E090E00E94E1
:100600007E02E1CF292F30E0C217D3070CF49C2FD4
:100610008FB7F894E092E9002091E80025FF11C01F
:10062000292F30E0C21BD30BF601915020F04191ED
:100630004093F100FACFC20ED31E9091E80095FFCF
:1006400013C08FBFC0CF5D9A84E6809389011016D6
:10065000110644F081E090E0F5019383828380E00D
:1006600090E005C0C80103C09092E800EACFDF9196
:10067000CF911F910F91FF90EF90DF90CF90BF909F
:10068000AF909F908F9008952FB7F894609171016B
:100690007091720180917301909174012FBF089540
:1006A0000F931F93CF93DF931F92CDB7DEB782E0F6
:1006B000898342E450E067EF70E080E80E948201A5
:1006C0000E94AA07DC0112960D911C911397011547
:1006D000110569F0D801ED91FC910280F381E02DC4
:1006E000BE016F5F7F4FC801099597FF07C08981E1
:1006F0000F90DF91CF911F910F910895F801008520
:100700001185E5CF6115710579F0FB01019000209D
:10071000E9F73197AF01461B570BDC01ED91FC91D6
:100720000280F381E02D099480E090E008954F92DB
:100730005F926F927F92EF92FF920F931F93CF93EE
:10074000DF93CDB7DEB7A1970FB6F894DEBF0FBE2B
:10075000CDBF7C01FA01CB0119A2223008F42AE0B6
:100760008E010F5D1F4F422E512C612C712CBF0149
:10077000A30192010E94D60FF901CA01015011098B
:100780006A3014F4605D01C0695CD8016C93232B5E
:10079000242B252B61F7B801C7010E948203A19683
:1007A0000FB6F894DEBF0FBECDBFDF91CF911F9182
:1007B0000F91FF90EF907F906F905F904F90089512
:1007C000CF93DF931F92CDB7DEB7FC01848595856B
:1007D00097FD05C02FEF3FEF358724870BC0CE0173
:1007E00001960E948007019719F4898190E002C068
:1007F0008FEF9FEF0F90DF91CF9108950F931F938D
:10080000CF93DF931F92CDB7DEB78C01FC018485B7
:10081000958597FF0EC0CE0101960E948007019733
:1008200019F4298130E002C02FEF3FEFF80135873E
:100830002487F801848595850F90DF91CF911F91D2
:100840000F9108950C94150E1F920F920FB60F92F0
:100850001124CF92DF92EF92FF920F931F932F9369
:100860003F934F935F936F937F938F939F93AF9338
:10087000BF93EF93FF93CF93DF93CDB7DEB76C9722
:10088000DEBFCDBF1092E9008091E80083FFFAC17E
:1008900068E0CE0145960E94A90182EF8093E800AE
:1008A0008D8987FF05C09091E80090FFFCCF03C0C1
:1008B0009EEF9093E800982F907609F0C6C09E892D
:1008C0002F89188D91110CC0803829F480918701EF
:1008D0008093F10002C01092F1001092F10047C124
:1008E000422F50E0512B913051F4811140C14130E1
:1008F000510509F03CC1809187018D7F0BC0933079
:1009000061F4811134C14130510509F030C1809149
:1009100087018260809387012AC1953041F48091DC
:10092000E80080FFFCCF20682093E30020C19630D0
:1009300009F05FC0EB8CFC8C1092E90010928501ED
:1009400010928401123091F510928301109282016D
:100950000E94500399E0BE016F5F7F4FDB01E92FDA
:100960001D92EA95E9F799831A8391E09E8390EAB4
:1009700098879AEF99872091840130918501275FAC
:100980003F4F3C832B838D831092E90010928501A9
:1009900010928401F0928301E092820149E050E0DC
:1009A00080E00E9482010E945003E1C0F092830126
:1009B000E09282010E94AA07DC011296ED90FC9061
:1009C0001397E114F10409F4C0C0D701ED91FC9133
:1009D0000480F581E02DBE016B5E7F4FC701099554
:1009E000009719F00CF0C3C0C6C0F701E084F18491
:1009F000E8CF973009F4BFC0983021F481E08093AC
:100A0000F100B5C0993009F0B2C0837009F0B3C0ED
:100A1000E3E1F1E081E021E036E39081992361F0A8
:100A20008093E9002093EB0091919093EC00309338
:100A3000ED008F5F873089F78EE78093EA00109290
:100A4000EA008F8980938B0192C08B8D9C8D1092D0
:100A5000E9001092850110928401909383018093A4
:100A60008201898D811156C08E899D89913A59F4F0
:100A7000813209F080C047E050E064E071E080E03E
:100A80000E94820174C0913209F075C0833289F4EA
:100A9000888D90E0982F88272F89822BA0E0B0E0E6
:100AA0008093000190930101A0930201B093030190
:100AB0005EC0803269F48091E80082FFFCCF67E07D
:100AC00084E091E00E94A9018BEF8093E80006C0CA
:100AD000823209F04CC08F8980930B01809186018E
:100AE000882319F0EEEFFAE002C0E0E0F8E0809130
:100AF000040190910501A0910601B0910701803B8E
:100B00009440A105B10509F088C080910B0180FFD8
:100B1000A0C083C00E94AA07DC0112960D911C910F
:100B200013970115110539F1D801ED91FC91019050
:100B3000F081E02DBE016B5E7F4FC80109958111E8
:100B400016C0F80100851185ECCF1130C1F01330CB
:100B500091F48F89882309F455C08230E9F440E884
:100B60006DE089E491E00E944501882321F08EEF39
:100B70008093E80087C081E28093EB0083C08B8D77
:100B80009C8D089711F4109381018091810181114E
:100B900036C067E571E038C0813029F440E86BE089
:100BA0008DE391E0E0CF833031F70E94AA07DC01AA
:100BB0001296ED90FC9013978E010F5F1F4F680106
:100BC000E114F10479F0D701ED91FC910680F781F1
:100BD000E02DB801C7010995080F111DF701E08448
:100BE000F184EECFD8011C92F60101900020E9F7C4
:100BF0003197BF016C197D0940E0C601B4CF69E6A9
:100C000071E002C069E371E06115710509F4B3CFC9
:100C1000FB01449150E080E833CF0FB6F894A895DB
:100C200080916000886180936000109260000FBE28
:100C3000A895EE3F2AE0F20739F08091FE0A9091E4
:100C4000FF0A9183808393CF1092FF0A1092FE0ACD
:100C50008ECFEE3F8AE0F80731F08081918190934A
:100C6000FF0A8093FE0A87E797E7918380839BE0E2
:100C700088E10FB6F894A895809360000FBE90931A
:100C8000600075CF6C960FB6F894DEBF0FBECDBF77
:100C9000DF91CF91FF91EF91BF91AF919F918F9194
:100CA0007F916F915F914F913F912F911F910F9184
:100CB000FF90EF90DF90CF900F900FBE0F901F909E
:100CC0001895CF93DF93282F30E0F901E852FF4FBA
:100CD0008491F901EA54FE4FD491F901E956FE4F8F
:100CE000C491CC2391F081110E941C02EC2FF0E002
:100CF000EE0FFF1FE653FF4FA591B491EC91ED234A
:100D000081E090E021F480E002C080E090E0DF919B
:100D1000CF9108951F93CF93DF93282F30E0F901EF
:100D2000E852FF4F8491F901EA54FE4FD491F90142
:100D3000E956FE4FC491CC23C9F0162F81110E94B1
:100D40001C02EC2FF0E0EE0FFF1FE558FE4FA591BF
:100D5000B4918FB7F894111105C09C91ED2FE095D7
:100D6000E92302C0EC91ED2BEC938FBFDF91CF9183
:100D70001F9108951F920F920FB60F9211242F9377
:100D80003F938F939F93AF93BF9380917101909105
:100D90007201A0917301B09174013091700123E050
:100DA000230F2D3720F40196A11DB11D05C026E8A3
:100DB000230F0296A11DB11D209370018093710134
:100DC00090937201A0937301B093740180917501A7
:100DD00090917601A0917701B09178010196A11DC3
:100DE000B11D8093750190937601A0937701B09324
:100DF0007801BF91AF919F918F913F912F910F906B
:100E00000FBE0F901F901895DF92EF92FF920F93F5
:100E10001F93CF93DF93EC018B810E946106892B96
:100E2000D9F76A818B810E945C07082F6A818B81C8
:100E30000E945C07182F6A818B810E945C07D82E64
:100E4000E12CF12C2C8130E0E216F30660F461E035
:100E50008A810E948A0660E08A810E948A062FEFBA
:100E6000E21AF20AEFCF812F90E0A0E0B0E0BA2FB3
:100E7000A92F982F8827A02BAC01BD014D29802FC9
:100E8000880F880B90E0A0E0B0E0B82FAA27992740
:100E900088278A019B01082B192B2A2B3B2BC90180
:100EA000B801DF91CF911F910F91FF90EF90DF90EC
:100EB000089508950E94AD0EFF920F931F93CF9354
:100EC000DF93F82E062FC7E0D0E010E061E0802F1E
:100ED0000E948A068F2D0E9461060C2E01C0880F89
:100EE0000A94EAF7182B60E0802F0E948A06219767
:100EF00068F7812FDF91CF911F910F91FF90089597
:100F0000FC0180918B01811103C08FEF9FEF089549
:100F10009FB7F89482E08093E9002091F20030E0DE
:100F20001216130614F421E030E02115310559F0B2
:100F3000289A84E680938A018091F10080838091D1
:100F4000F200882319F09FBFC90108958BE68093B2
:100F5000E800F9CF8091350281110DC082E08093C5
:100F6000310284E0809332021092340210923302F4
:100F700081E08093350281E392E008951F920F9201
:100F80000FB60F9211248F939F938091E10090915F
:100F9000E100937F9093E10083FF0FC01092E9007E
:100FA00091E09093EB001092EC0092E39093ED00AF
:100FB00010928B0198E09093F00082FF20C093E0A4
:100FC0009093E9009091F200992319F09AE390939D
:100FD000E80090918901992339F09091890191500D
:100FE00090938901992389F190918A01992339F08D
:100FF00090918A01915090938A01992341F184FF45
:1010000010C08091E2008E7E81608093E20080912A
:10101000E1008F7E8093E100809188018E7E806167
:1010200011C080FF16C08091E2008E7E80618093A7
:10103000E2008091E1008E7E8093E1008091880142
:101040008E7E81608093880104C05D98CDCF289802
:10105000D6CF9F918F910F900FBE0F901F90189534
:10106000789484B5826084BD84B5816084BD85B583
:10107000826085BD85B5816085BD80916E0081608F
:1010800080936E0010928100809181008260809335
:101090008100809181008160809381008091800037
:1010A00081608093800080919100826080939100A4
:1010B0008091910081608093910080919000816087
:1010C000809390008091C10084608093C1008091E2
:1010D000C10082608093C1008091C10081608093D3
:1010E000C1008091C30081608093C3008091C000E3
:1010F00082608093C0008091C20081608093C200B2
:1011000080917A00846080937A0080917A00826076
:1011100080937A0080917A00816080937A00809138
:101120007A00806880937A0010928B011092870178
:10113000109288018091D70081608093D70080EA67
:101140008093D80089B5806189BD89B5826089BDE9
:1011500009B400FEFDCF61E070E080E090E00E9405
:101160007E028091D8008F7C80618093D80080912E
:10117000E000807F8093E0008091E1008E7E80938C
:10118000E1008DE08093E200559A209A5D982898BE
:10119000EEEFFFE7859194918B3F9C4D19F481E030
:1011A0008093860110922002109221021092220256
:1011B000109223021092DE011092DF011092E001E2
:1011C0001092E10160ED77E080E090E00E947E0205
:1011D0008CE891E090931F0280931E02CBE1D0E057
:1011E000F0900B016AE070E080E090E00E947E02E7
:1011F000F11009C0219739F064E670E080E090E0DA
:101200000E947E02EDCFE0911E02F0911F02CFEF0F
:10121000DFEFD587C4870E9444036093DE0170939B
:10122000DF018093E0019093E10161E371E080913F
:101230001E0290911F020E9482036AE070E080E02B
:1012400090E00E947E0281E08093F201D0939901A8
:10125000C093980180E090E1ABE0B7E480932D0269
:1012600090932E02A0932F02B0933002CAE0C12CBB
:10127000D12C760184E292E00E940407C60ED71EAC
:10128000E81EF91EC150B1F7C701B6012AE030E0EF
:1012900040E050E00E943C0CCA01B9010E94B90E26
:1012A0000E94400D6093290270932A0280932B02C2
:1012B00090932C02C0E0D0E084EF882E9924939480
:1012C000A12CB12C0E944403672B682B692B41F49D
:1012D0000E944403623071058105910508F40BC139
:1012E0000E94440360937D0170937E0180937F018F
:1012F00090938001C0907901D0907A01E0907B01B9
:10130000F0907C016C157D058E059F0540F460937F
:10131000790170937A0180937B0190937C01C09056
:101320007901D0907A01E0907B01F0907C019B01E3
:10133000AC012C193D094E095F0969017A013AEFA8
:10134000C316D104E104F10408F4D5C06093790117
:1013500070937A0180937B0190937C018092EA01E3
:101360009092EB01A092EC01B092ED011092EE018F
:101370001092EF011092F0011092F1018091E201C0
:101380009091E301A091E401B091E5018093E60121
:101390009093E701A093E801B093E9010E94440310
:1013A0006093E2017093E3018093E4019093E5017F
:1013B0000E9444036093DE017093DF018093E0019B
:1013C0009093E1010E9444036B017C0163E471E0AE
:1013D00080911E0290911F020E9482032AE041E048
:1013E00050E060E070E080911E0290911F020E9428
:1013F00097036AE471E080911E0290911F020E949F
:1014000082032AE0B701A60180911E0290911F027B
:101410000E9497036CE471E080911E0290911F027C
:101420000E9482038091E2019091E301A091E40186
:10143000B091E501B701A601481B590B6A0B7B0B64
:101440002AE080911E0290911F020E9497036CE493
:1014500071E080911E0290911F020E9482034091D0
:10146000E2015091E3016091E4017091E501809106
:10147000E6019091E701A091E801B091E901481BD4
:10148000590B6A0B7B0B2AE080911E0290911F0280
:101490000E9497036EE471E080911E0290911F02FA
:1014A0000E9482030E944403AB01BC012AE08091A8
:1014B0001E0290911F020E949703E0901E02F0907E
:1014C0001F0260E571E0C7010E94820360E471E0E1
:1014D000C7010E94820365E070E080E090E00E9416
:1014E0007E020E9444036093E2017093E3018093C3
:1014F000E4019093E50160E0809126020E948A0653
:1015000061E0809126020E948A0668EB7BE080E021
:1015100090E00E947E0260E0809126020E948A068E
:1015200084E292E00E940407C0902902D0902A022F
:10153000E0902B02F0902C026C197D098E099F0916
:101540000E94B90E20912D0230912E0240912F025F
:10155000509130020E94CE0C2DEC3CEC4CEC5DE343
:101560000E94180F6B017C012AE037ED43E25CE337
:101570000E94B20E87FF0DC02AE037ED43E25CEB1C
:10158000C701B6010E94760D18161CF4C12CD12C8F
:10159000760167E571E08CE891E00E948203A70183
:1015A0009601C701B6010E947B0D882319F06EE5F4
:1015B00071E01AC026013701E89477F82FEF3FEF6A
:1015C0004FE75FE7C301B2010E947B0D811111C09B
:1015D0002FEF3FEF4FE75FE7C301B2010E94B20E6A
:1015E00018163CF462E671E08CE891E00E948203F8
:1015F00084C02FEF3FEF4FE75FE4C701B6010E94C1
:10160000760D18161CF466E671E0EECF2FEF3FEF73
:101610004FE75FECC701B6010E94B20E87FDF3CF22
:1016200020E030E0A901C701B6010E94B20E87FF99
:101630000FC0E0918C01F0918D010190F081E02DBF
:101640006DE28CE891E00995F7FAF094F7F8F094E0
:101650002AE037ED43EA5BE3C701B6010E94620C62
:101660002B013C010E94470D6B017C010E94B70ECB
:101670009B01AC01C301B2010E94610C2B013C0132
:101680002AE0B701A6018CE891E00E9497036AE680
:1016900071E08CE891E00E94820320E030E040E2BB
:1016A00051E4C301B2010E94180F2B013C010E94BA
:1016B000470D6B01E12CF12C2AE0B701A6018CE863
:1016C00091E00E949703C701B6010E94B70E9B01EB
:1016D000AC01C301B2010E94610C20E030E040E2A5
:1016E00051E40E94180F0E94470DAB0160E070E0CA
:1016F0002AE08CE891E00E9497036CE671E08CE8A8
:1017000091E00E94820360E471E08CE891E00E9425
:101710008203209709F4D6CD0E940000D3CD08950E
:10172000CF93DF9310928F0110928E0188EE93E099
:10173000A0E0B0E08093900190939101A09392017A
:10174000B09393018DE191E090938D0180938C0192
:101750008FEF9FEF90939901809398011092E2018F
:101760001092E3011092E4011092E5011092E6015B
:101770001092E7011092E8011092E9011092EA013B
:101780001092EB011092EC011092ED011092EE011B
:101790001092EF011092F0011092F1018DE291E0B0
:1017A00090932502809324021092290210922A021B
:1017B00010922B0210922C0280E090E0A0E8BFE390
:1017C00080932D0290932E02A0932F02B0933002AB
:1017D00083E08093260282E080932702E9EBF1E028
:1017E0002491EAE9F1E08491882399F090E0880F50
:1017F000991FFC01E757FE4FA591B491FC01E558F4
:10180000FE4F859194918FB7F894EC91E22BEC9375
:101810008FBF8091270290E0FC01EA54FE4F249193
:10182000FC01E956FE4F84918823C1F090E0880FB7
:10183000991FFC01E757FE4FC591D491FC01E55873
:10184000FE4FA591B4919FB7F8948881E22FE0955F
:101850008E2388838C91E823EC939FBF81E0809353
:10186000280260E0809126020E948A0684E292E0CB
:10187000DF91CF910C940407052E97FB1EF4009482
:101880000E94530C57FD07D00E94D60F07FC03D0CF
:101890004EF40C94530C50954095309521953F4F44
:1018A0004F4F5F4F089590958095709561957F4F4C
:1018B0008F4F9F4F0895EE0FFF1F0590F491E02D7D
:1018C00009945058BB27AA270E94790C0C949C0FAE
:1018D0000E948E0F38F00E94950F20F039F49F3F40
:1018E00019F426F40C948B0F0EF4E095E7FB0C949E
:1018F000850FE92F0E94AD0F58F3BA1762077307DF
:101900008407950720F079F4A6F50C94CF0F0EF418
:10191000E0950B2EBA2FA02D0B01B90190010C01FF
:10192000CA01A0011124FF27591B99F0593F50F417
:10193000503E68F11A16F040A22F232F342F44276F
:10194000585FF3CF469537952795A795F040539567
:10195000C9F77EF41F16BA0B620B730B840BBAF037
:101960009150A1F0FF0FBB1F661F771F881FC2F7A2
:101970000EC0BA0F621F731F841F48F487957795B6
:101980006795B795F7959E3F08F0B0CF9395880F70
:1019900008F09927EE0F9795879508950E94E20C1D
:1019A0000C949C0F0E94950F58F00E948E0F40F0EF
:1019B00029F45F3F29F00C94850F51110C94D00F3E
:1019C0000C948B0F0E94AD0F68F39923B1F355234C
:1019D00091F3951B550BBB27AA2762177307840742
:1019E00038F09F5F5F4F220F331F441FAA1FA9F3D8
:1019F00035D00E2E3AF0E0E832D091505040E695C6
:101A0000001CCAF72BD0FE2F29D0660F771F881F26
:101A1000BB1F261737074807AB07B0E809F0BB0B19
:101A2000802DBF01FF2793585F4F3AF09E3F51052D
:101A300078F00C94850F0C94D00F5F3FE4F3983E40
:101A4000D4F3869577956795B795F7959F5FC9F716
:101A5000880F911D9695879597F90895E1E0660F97
:101A6000771F881FBB1F621773078407BA0720F010
:101A7000621B730B840BBA0BEE1F88F7E095089579
:101A80000E94470D6894B1110C94D00F08950E94E4
:101A9000B50F88F09F5798F0B92F9927B751B0F03C
:101AA000E1F0660F771F881F991F1AF0BA95C9F7E2
:101AB00014C0B13091F00E94CF0FB1E008950C94A2
:101AC000CF0F672F782F8827B85F39F0B93FCCF355
:101AD000869577956795B395D9F73EF4909580955F
:101AE000709561957F4F8F4F9F4F08950E94F40E20
:101AF00008F48FEF08950E94F40E880B990B089557
:101B0000CF93DF938230910510F482E090E0E09172
:101B10003F02F091400220E030E0C0E0D0E030979A
:101B200011F14081518148175907C0F048175907F2
:101B300061F482819381209719F09B838A832BC063
:101B40009093400280933F0226C02115310519F081
:101B50004217530718F49A01BE01DF01EF0102801A
:101B6000F381E02DDCCF2115310509F1281B390B5C
:101B70002430310590F412968D919C911397611544
:101B8000710521F0FB019383828304C0909340028E
:101B900080933F02FD01329644C0FD01E20FF31F26
:101BA00081939193225031092D933C933AC0209117
:101BB0003D0230913E02232B41F420910E013091E1
:101BC0000F0130933E0220933D0220910C01309191
:101BD0000D012115310541F42DB73EB7409110019B
:101BE00050911101241B350BE0913D02F0913E0212
:101BF000E217F307A0F42E1B3F0B2817390778F0E4
:101C0000AC014E5F5F4F2417350748F04E0F5F1F42
:101C100050933E0240933D028193919302C0E0E0D5
:101C2000F0E0CF01DF91CF9108950F931F93CF93F1
:101C3000DF93009709F48CC0FC0132971382128263
:101C400000913F02109140020115110581F420819D
:101C50003181820F931F20913D0230913E0228175F
:101C6000390779F5F0933E02E0933D0271C0D80147
:101C700040E050E0AE17BF0750F412962D913C9112
:101C80001397AD012115310509F1D901F3CF9D015C
:101C9000DA013383228360817181860F971F821757
:101CA000930769F4EC0128813981260F371F2E5FD5
:101CB0003F4F318320838A819B8193838283452B8D
:101CC00029F4F0934002E0933F0242C01396FC9344
:101CD000EE931297ED01499159919E01240F351F02
:101CE000E217F30771F480819181840F951F0296AA
:101CF00011969C938E938281938113969C938E93DD
:101D00001297E0E0F0E0D80112968D919C91139724
:101D1000009719F0F8018C01F6CF8D919C919801F4
:101D20002E5F3F4F820F931F20913D0230913E0264
:101D30002817390769F4309729F41092400210925D
:101D40003F0202C01382128210933E0200933D02B2
:101D5000DF91CF911F910F91089581E090E0F89469
:101D60000C94F80F0E94F40E08F481E00895E894B2
:101D700009C097FB3EF490958095709561957F4FD3
:101D80008F4F9F4F9923A9F0F92F96E9BB27939581
:101D9000F695879577956795B795F111F8CFFAF491
:101DA000BB0F11F460FF1BC06F5F7F4F8F4F9F4FC2
:101DB00016C0882311F096E911C0772321F09EE820
:101DC000872F762F05C0662371F096E8862F70E086
:101DD00060E02AF09A95660F771F881FDAF7880F60
:101DE0009695879597F90895990F0008550FAA0BB6
:101DF000E0E8FEEF16161706E807F907C0F012161E
:101E00001306E407F50798F0621B730B840B950B20
:101E100039F40A2661F0232B242B252B21F4089575
:101E20000A2609F4A140A6958FEF811D811D089512
:101E30000E942B0F0C949C0F0E948E0F38F00E9472
:101E4000950F20F0952311F00C94850F0C948B0FB7
:101E500011240C94D00F0E94AD0F70F3959FC1F325
:101E6000950F50E0551F629FF001729FBB27F00D48
:101E7000B11D639FAA27F00DB11DAA1F649F66279D
:101E8000B00DA11D661F829F2227B00DA11D621FEC
:101E9000739FB00DA11D621F839FA00D611D221FA6
:101EA000749F3327A00D611D231F849F600D211D8A
:101EB000822F762F6A2F11249F5750409AF0F1F00D
:101EC00088234AF0EE0FFF1FBB1F661F771F881F76
:101ED00091505040A9F79E3F510580F00C94850F1A
:101EE0000C94D00F5F3FE4F3983ED4F3869577953A
:101EF0006795B795F795E7959F5FC1F7FE2B880F1C
:101F0000911D9695879597F9089597F99F6780E8B1
:101F100070E060E008959FEF80EC089500240A943B
:101F20001616170618060906089500240A941216B4
:101F30001306140605060895092E0394000C11F4E7
:101F4000882352F0BB0F40F4BF2B11F460FF04C094
:101F50006F5F7F4F8F4F9F4F089557FD9058440FED
:101F6000551F59F05F3F71F04795880F97FB991FF8
:101F700061F09F3F79F087950895121613061406B5
:101F8000551FF2CF4695F1DF08C016161706180642
:101F9000991FF1CF86957105610508940895E8941D
:101FA000BB2766277727CB0197F90895A1E21A2E60
:101FB000AA1BBB1BFD010DC0AA1FBB1FEE1FFF1FED
:101FC000A217B307E407F50720F0A21BB30BE40B3D
:101FD000F50B661F771F881F991F1A9469F7609584
:101FE0007095809590959B01AC01BD01CF0108953E
:101FF00010E0CCEED0E004C0FE010E945B0C219604
:0A200000CD3ED107C9F7F894FFCFD9
:10200A00FFFFFFFF00E100000000000000004102A6
:10201A00800000C1808100000000000000E101B8DA
:10202A00020202E003FE03F7010000000059072242
:10203A0004564D4450565F317C315F564D445056DC
:10204A000D0A00564D4450455F003A323A007C0072
:10205A005F564D445045005065736F3A20006E61DB
:10206A006E00696E66006F7666002E006B67000070
:00000001FF
