:100000000C94ED000C9415010C9415010C94150141
:100010000C9415010C9415010C9415010C94150108
:100020000C9415010C9415010C9423050C94950562
:100030000C9415010C9415010C9415010C941501E8
:100040000C9415010C9415010C9415010C941501D8
:100050000C9415010C9415010C9415010C94790362
:100060000C9415010C9415010C9415010C941501B8
:100070000C9415010C9415010C9415010C941501A8
:100080000C9415010C9415010C9415010C94150198
:100090000C9415010C9415010C9415010C94150188
:1000A0000C9415010C9415010C9415016A016D0155
:1000B0005C01600166018E018E018E017101750186
:1000C00079017F0183018E01890100000000230076
:1000D000260029002C002F000000000200090F005C
:1000E00000030401000C00000000000000000000FC
:1000F0000000000000000000000000250028002B88
:10010000002E00310000000000240027002A002DEE
:100110000030000404040404030405020202020483
:100120000302020202060606060606040402020292
:1001300004040408020110408040102040804080E8
:10014000080204018040201002011080102040406D
:1001500020080B0002020201000904000001020253
:1001600000000524001001052401010104240206F9
:100170000524060001070581031000400904010061
:10018000020A000000070502024000000705830282
:100190004000000403090441726475696E6F204CCD
:1001A0004C430041726475696E6F204D6963726FD4
:1001B00000120100020000004041233780000101CD
:1001C00002030112010002EF0201404123378000C7
:1001D000010102030100310C300C11241FBECFEFCE
:1001E000DAE0DEBFCDBF11E0A0E0B1E0E6E6F0E28C
:1001F00002C005900D92A037B107D9F722E0A0E721
:10020000B1E001C01D92A934B207E1F710E0CCEED5
:10021000D0E004C02197FE010E94890CCB3ED1079B
:10022000C9F70E9430080C9426100C940000CF935C
:10023000DF931F92CDB7DEB76983DC01ED91FC91AE
:100240000280F381E02D41E050E0BE016F5F7F4FFF
:1002500009950F90DF91CF91089583E08093E90095
:100260008091F200882319F08AE38093E8000895D2
:10027000FC018485958597FD0BC09FB7F89482E0BB
:100280008093E9008091F2009FBF90E0019608956D
:100290009FB7F89482E08093E9008091F2009FBFBD
:1002A00090E0089590E0FC013197EF30F105B0F552
:1002B000EA5AFF4F0C94890C809180008F7703C01D
:1002C000809180008F7D80938000089580918000D0
:1002D000877FF9CF84B58F7702C084B58F7D84BDC9
:1002E0000895809190008F7707C0809190008F7D56
:1002F00003C080919000877F809390000895809143
:10030000C0008F7703C08091C0008F7D8093C000B4
:1003100008958091C200877F8093C20008953FB7FF
:10032000F8948091750190917601A0917701B09138
:10033000780126B5A89B05C02F3F19F00196A11D95
:10034000B11D3FBFBA2FA92F982F8827820F911D6B
:10035000A11DB11DBC01CD0142E0660F771F881FB2
:10036000991F4A95D1F708958F929F92AF92BF92AD
:10037000CF92DF92EF92FF926B017C010E948F017E
:100380004B015C01C114D104E104F104F1F00E94BD
:100390008F01DC01CB0188199909AA09BB09883EA4
:1003A0009340A105B10570F321E0C21AD108E1081C
:1003B000F10888EE880E83E0981EA11CB11CC114C0
:1003C000D104E104F10419F7DDCFFF90EF90DF9045
:1003D000CF90BF90AF909F908F9008958F929F92F3
:1003E000AF92BF92CF92DF92EF92FF920F931F9343
:1003F000CF93DF935C016B018A0180910B0188230D
:1004000009F45EC080918D01882309F459C0809160
:100410008B0180FF05C08091E00082608093E00046
:10042000E8018AEFF82E93E0E92E2FE3822E3AE3DB
:10043000932E209709F43DC08FB7F894E092E9001D
:100440009091E80095FF06C09091F200282D291B9D
:10045000922F01C090E08FBF91110AC0FA94FF2043
:1004600079F161E070E080E090E00E94B401E1CFBA
:10047000292F30E0C217D3070CF49C2F8FB7F894C4
:10048000E092E9002091E80025FF11C0292F30E01B
:10049000C21BD30BF601915020F041914093F10023
:1004A000FACFC20ED31E9091E80095FF13C08FBF04
:1004B000C0CF5D9A84E680938C011016110644F03B
:1004C00081E090E0F5019383828380E090E005C0B5
:1004D000C80103C09092E800EACFDF91CF911F914D
:1004E0000F91FF90EF90DF90CF90BF90AF909F90D3
:1004F0008F9008952FB7F8946091710170917201F7
:1005000080917301909174012FBF0895CF93DF9371
:100510001F92CDB7DEB7FC018485958597FD05C098
:100520002FEF3FEF358724870BC0CE0101960E9445
:10053000F904019719F4898190E002C08FEF9FEFD1
:100540000F90DF91CF9108950F931F93CF93DF9377
:100550001F92CDB7DEB78C01FC018485958597FF8E
:100560000EC0CE0101960E94F904019719F4298169
:1005700030E002C02FEF3FEFF80135872487F80104
:10058000848595850F90DF91CF911F910F910895EC
:100590000C94430E0895CF93DF93282F30E0F90198
:1005A000E852FF4F8491F901EE5CFE4FD491F901BE
:1005B000ED5EFE4FC491CC2391F081110E94520157
:1005C000EC2FF0E0EE0FFF1FE653FF4FA591B49123
:1005D000EC91ED2381E090E021F480E002C080E026
:1005E00090E0DF91CF9108951F93CF93DF93282F51
:1005F00030E0F901E852FF4F8491F901EE5CFE4FC3
:10060000D491F901ED5EFE4FC491CC23C9F0162FB1
:1006100081110E945201EC2FF0E0EE0FFF1FE95014
:10062000FF4FA591B4918FB7F894111105C09C911B
:10063000ED2FE095E92302C0EC91ED2BEC938FBFF9
:10064000DF91CF911F910895DF92EF92FF920F9368
:100650001F93CF93DF93EC018B810E94CB02892BF8
:10066000D9F76A818B810E94D504082F6A818B811A
:100670000E94D504182F6A818B810E94D504D82E40
:10068000E12CF12C2C8130E0E216F30660F461E0FD
:100690008A810E94F40260E08A810E94F4022FEFB6
:1006A000E21AF20AEFCF812F90E0A0E0B0E0BA2F7B
:1006B000A92F982F8827A02BAC01BD014D29802F91
:1006C000880F880B90E0A0E0B0E0B82FAA27992708
:1006D00088278A019B01082B192B2A2B3B2BC90148
:1006E000B801DF91CF911F910F91FF90EF90DF90B4
:1006F00008951F920F920FB60F9211242F933F93DC
:100700008F939F93AF93BF938091710190917201EA
:10071000A0917301B09174013091700123E0230F17
:100720002D3720F40196A11DB11D05C026E8230F29
:100730000296A11DB11D20937001809371019093C9
:100740007201A0937301B09374018091750190912F
:100750007601A0917701B09178010196A11DB11D9C
:100760008093750190937601A0937701B0937801FF
:10077000BF91AF919F918F913F912F910F900FBE9D
:100780000F901F90189580913C0281110DC082E05E
:100790008093380284E08093390210923B021092D9
:1007A0003A0281E080933C0288E392E00895409110
:1007B00036025091370220913402309135024217AF
:1007C0005307B4F49091E8009570E1F39091E8003C
:1007D00092FD19C08093F10080913602909137020A
:1007E00001968F739927892B19F48EEF8093E80077
:1007F0008091360290913702019690933702809350
:10080000360281E0089580E00895CF92DF92EF9262
:10081000FF920F931F93CF93DF931F92CDB7DEB755
:10082000182F062FE42E862F880F8E5F99830E9443
:10083000D70383E00E94D703F12EC12E9981D92ED0
:100840008C2D8F19801798F4F601E7FE02C0849171
:1008500001C080810E94D703182F80E00E94D70337
:100860008123FFEFCF1ADF0A8111EACF01C081E0B7
:100870000F90DF91CF911F910F91FF90EF90DF903C
:10088000CF900895DF92EF92FF920F931F93CF9333
:10089000DF93D82E8A017B01E40EF51EEB01CE1505
:1008A000DF0571F0D7FE03C0FE01849101C088818D
:1008B0000E94D70321968111F2CF8FEF9FEF01C0E5
:1008C000C801DF91CF911F910F91FF90EF90DF90C2
:1008D00008950F931F93CF93DF931F92CDB7DEB789
:1008E00082E0898342E450E061E571E080E80E94A3
:1008F00042040E94C303DC0112960D911C911397D0
:100900000115110569F0D801ED91FC910280F38188
:10091000E02DBE016F5F7F4FC801099597FF07C0AB
:1009200089810F90DF91CF911F910F910895F80168
:1009300000851185E5CF615030F02091F100FC0178
:1009400020830196F8CF289A84E680934402089584
:10095000CF92DF92EF92FF920F931F93CF93DF938B
:100960006C017A018B01C0E0D0E0CE15DF0589F083
:10097000D8016D918D01D601ED91FC910190F0812E
:10098000E02DC6010995892B11F47E0102C0219644
:10099000ECCFC701DF91CF911F910F91FF90EF90A6
:1009A000DF90CF9008950E94DB0EFF920F931F936C
:1009B000CF93DF93F82E062FC7E0D0E010E061E080
:1009C000802F0E94F4028F2D0E94CB020C2E01C0BA
:1009D000880F0A94EAF7182B60E0802F0E94F40237
:1009E000219768F7812FDF91CF911F910F91FF9091
:1009F0000895FC0180918D01811103C08FEF9FEF5D
:100A000008959FB7F89482E08093E9002091F20066
:100A100030E01216130614F421E030E02115310500
:100A200059F0289A84E6809344028091F1008083F3
:100A30008091F200882319F09FBFC90108958BE6C9
:100A40008093E800F9CF1F920F920FB60F921124F6
:100A50008F939F938091E1009091E100937F909319
:100A6000E10083FF0FC01092E90091E09093EB004A
:100A70001092EC0092E39093ED0010928D0198E0BB
:100A80009093F00082FF20C093E09093E900909152
:100A9000F200992319F09AE39093E80090918C0169
:100AA000992339F090918C01915090938C01992366
:100AB00089F190914402992339F090914402915028
:100AC00090934402992341F184FF10C08091E20089
:100AD0008E7E81608093E2008091E1008F7E809322
:100AE000E10080918B018E7E806111C080FF16C075
:100AF0008091E2008E7E80618093E2008091E1002F
:100B00008E7E8093E10080918B018E7E8160809348
:100B10008B0104C05D98CDCF2898D6CF9F918F913F
:100B20000F900FBE0F901F9018951F920F920FB647
:100B30000F921124CF92DF92EF92FF920F931F93A7
:100B40002F933F934F935F936F937F938F939F93D5
:100B5000AF93BF93EF93FF93CF93DF93CDB7DEB700
:100B60006C97DEBFCDBF1092E9008091E80083FF53
:100B7000FAC168E0CE0145960E949B0482EF809303
:100B8000E8008D8987FF05C09091E80090FFFCCFB9
:100B900003C09EEF9093E800982F907609F0C6C0AE
:100BA0009E892F89188D91110CC0803829F480916D
:100BB0008A018093F10002C01092F1001092F100BE
:100BC00047C1422F50E0512B913051F4811140C167
:100BD0004130510509F03CC180918A018D7F0BC0E5
:100BE000933061F4811134C14130510509F030C1B5
:100BF00080918A01826080938A012AC1953041F4F4
:100C00008091E80080FFFCCF20682093E30020C1A2
:100C1000963009F05FC0EB8CFC8C1092E9001092CA
:100C2000370210923602123091F51092350210926E
:100C300034020E94690499E0BE016F5F7F4FDB01BF
:100C4000E92F1D92EA95E9F799831A8391E09E8333
:100C500090EA98879AEF998720913602309137026F
:100C6000275F3F4F3C832B838D831092E9001092C6
:100C7000370210923602F0923502E092340249E0D7
:100C800050E080E00E9442040E946904E1C0F092BA
:100C90003502E09234020E94C303DC011296ED900B
:100CA000FC901397E114F10409F4C0C0D701ED9151
:100CB000FC910480F581E02DBE016B5E7F4FC70182
:100CC0000995009719F00CF0C3C0C6C0F701E08485
:100CD000F184E8CF973009F4BFC0983021F481E067
:100CE0008093F100B5C0993009F0B2C0837009F06B
:100CF000B3C0E3E1F1E081E021E036E390819923A4
:100D000061F08093E9002093EB0091919093EC00C7
:100D10003093ED008F5F873089F78EE78093EA008C
:100D20001092EA008F8980938D0192C08B8D9C8DEB
:100D30001092E90010923702109236029093350219
:100D400080933402898D811156C08E899D89913A94
:100D500059F4813209F080C047E050E064E071E06E
:100D600080E00E94420474C0913209F075C0833261
:100D700089F4888D90E0982F88272F89822BA0E016
:100D8000B0E08093000190930101A0930201B09321
:100D900003015EC0803269F48091E80082FFFCCFDD
:100DA00067E084E091E00E949B048BEF8093E80071
:100DB00006C0823209F04CC08F8980930B0180916C
:100DC0008901882319F0EEEFFAE002C0E0E0F8E0D4
:100DD0008091040190910501A0910601B091070155
:100DE000803B9440A105B10509F088C080910B01BA
:100DF00080FFA0C083C00E94C303DC0112960D9146
:100E00001C9113970115110539F1D801ED91FC9151
:100E10000190F081E02DBE016B5E7F4FC801099506
:100E2000811116C0F80100851185ECCF1130C1F099
:100E3000133091F48F89882309F455C08230E9F486
:100E400040E86DE083EA91E00E940504882321F0E8
:100E50008EEF8093E80087C081E28093EB0083C02F
:100E60008B8D9C8D089711F410933302809133027F
:100E7000811136C061EB71E038C0813029F440E85F
:100E80006BE087E991E0E0CF833031F70E94C30344
:100E9000DC011296ED90FC9013978E010F5F1F4FAF
:100EA0006801E114F10479F0D701ED91FC9106801D
:100EB000F781E02DB801C7010995080F111DF70151
:100EC000E084F184EECFD8011C92F601019000205D
:100ED000E9F73197BF016C197D0940E0C601B4CF35
:100EE00063EC71E002C063E971E06115710509F41A
:100EF000B3CFFB01449150E080E833CF0FB6F894B4
:100F0000A8958091600088618093600010926000D5
:100F10000FBEA895EE3F2AE0F20739F08091FE0A55
:100F20009091FF0A9183808393CF1092FF0A1092D1
:100F3000FE0A8ECFEE3F8AE0F80731F08081918182
:100F40009093FF0A8093FE0A87E797E79183808357
:100F50009BE088E10FB6F894A895809360000FBEDF
:100F60009093600075CF6C960FB6F894DEBF0FBEFD
:100F7000CDBFDF91CF91FF91EF91BF91AF919F9145
:100F80008F917F916F915F914F913F912F911F9121
:100F90000F91FF90EF90DF90CF900F900FBE0F90CA
:100FA0001F9018956115710579F0FB0101900020E3
:100FB000E9F73197AF01461B570BDC01ED91FC912E
:100FC0000280F381E02D099480E090E008954F9233
:100FD0005F926F927F92EF92FF920F931F93CF9346
:100FE000DF93CDB7DEB7A1970FB6F894DEBF0FBE83
:100FF000CDBF7C01FA01CB0119A2223008F42AE00E
:101000008E010F5D1F4F422E512C612C712CBF01A0
:10101000A30192010E940410F901CA0101501109B3
:101020006A3014F4605D01C0695CD8016C93232BB5
:10103000242B252B61F7B801C7010E94D207A19686
:101040000FB6F894DEBF0FBECDBFDF91CF911F91D9
:101050000F91FF90EF907F906F905F904F90089569
:10106000CF93DF93CDB7DEB72D970FB6F894DEBFE1
:101070000FBECDBF789484B5826084BD84B5816095
:1010800084BD85B5826085BD85B5816085BD809153
:101090006E00816080936E001092810080918100CB
:1010A00082608093810080918100816080938100C3
:1010B00080918000816080938000809191008260A7
:1010C0008093910080919100816080939100809144
:1010D00090008160809390008091C1008460809333
:1010E000C1008091C10082608093C1008091C100E5
:1010F00081608093C1008091C30081608093C300B0
:101100008091C00082608093C0008091C2008160A5
:101110008093C20080917A00846080937A008091ED
:101120007A00826080937A0080917A008160809357
:101130007A0080917A00806880937A0010928D0105
:1011400010928A0110928B018091D7008160809368
:10115000D70080EA8093D80089B5806189BD89B5C0
:10116000826089BD09B400FEFDCF61E070E080E0DF
:1011700090E00E94B4018091D8008F7C80618093C0
:10118000D8008091E000807F8093E0008091E100B2
:101190008E7E8093E1008DE08093E200559A209A44
:1011A0005D982898EEEFFFE7859194918B3F9C4DD9
:1011B00019F481E08093890110922F02109230027D
:1011C00010923102109232021092ED011092EE0153
:1011D0001092EF011092F00160ED77E080E090E076
:1011E0000E94B4018EE891E090932E0280932D022C
:1011F0000BE110E0F0900B016AE070E080E090E01D
:101200000E94B401F1100AC00150110939F064E6DE
:1012100070E080E090E00E94B401ECCFE0912D02FC
:10122000F0912E020FEF1FEF158704870E947A02BC
:101230006093ED017093EE018093EF019093F001C4
:1012400061E371E080912D0290912E020E94D207FD
:101250006AE070E080E090E00E94B40181E0809359
:10126000010210939B0100939A0182E090E0909319
:101270007A018093790183E090E090937C018093E0
:101280007B018FEF9FE790937E0180937D0188EE35
:1012900093E09093800180937F018DE291E09A83A7
:1012A00089831E821F821886198680E090E0A0E85C
:1012B000BFE38A879B87AC87BD8783E08B8382E00F
:1012C0008C83E5E3F1E02491E6E1F1E08491882369
:1012D00099F090E0880F991FFC01EB5FFE4FA591FC
:1012E000B491FC01E950FF4F859194918FB7F89428
:1012F000EC91E22BEC938FBF8C8190E0FC01EE5CD3
:10130000FE4F2491FC01ED5EFE4F84918823C9F0CD
:1013100090E0880F991FFC01EB5FFE4F45915491BF
:10132000FC01E950FF4FA591B4919FB7F894FA01E1
:1013300080812095822380838C91E22FE823EC9397
:101340009FBF81E08D8360E08B810E94F402CE011B
:1013500001960E9424038B818093E0018C8180930D
:10136000E1018D818093E2018E819F81A885B985FD
:101370008093E3019093E401A093E501B093E6012B
:1013800060917D0170917E01072E000C880B990BF6
:101390000E94E70E6093E7017093E8018093E901F2
:1013A0009093EA011AE0C12CD12C76018EED91E0E8
:1013B0000E942403C60ED71EE81EF91E1150B1F775
:1013C000C701B6012AE030E040E050E00E946A0C1C
:1013D000CA01B9010E94E70E0E946E0D6093E301FD
:1013E0007093E4018093E5019093E60100E010E042
:1013F00084EF882E99249394A12CB12C0E947A0218
:10140000672B682B692B41F40E947A0262307105C8
:101410008105910508F40BC10E947A026093850151
:10142000709386018093870190938801C090810119
:10143000D0908201E0908301F09084016C157D05CD
:101440008E059F0540F46093810170938201809323
:10145000830190938401C0908101D0908201E0903B
:101460008301F09084019B01AC012C193D094E09C8
:101470005F0969017A013AEFC316D104E104F1046E
:1014800008F4D5C060938101709382018093830139
:10149000909384018092F9019092FA01A092FB014D
:1014A000B092FC011092FD011092FE011092FF011A
:1014B000109200028091F1019091F201A091F3014C
:1014C000B091F4018093F5019093F601A093F70198
:1014D000B093F8010E947A026093F1017093F201D7
:1014E0008093F3019093F4010E947A026093ED01DE
:1014F0007093EE018093EF019093F0010E947A02C5
:101500006B017C0163E471E080912D0290912E02C9
:101510000E94D2072AE041E050E060E070E0809154
:101520002D0290912E020E94E7076AE471E08091FB
:101530002D0290912E020E94D2072AE0B701A60147
:1015400080912D0290912E020E94E7076CE471E0D9
:1015500080912D0290912E020E94D2078091F1017C
:101560009091F201A091F301B091F401B701A601AD
:10157000481B590B6A0B7B0B2AE080912D0290913E
:101580002E020E94E7076CE471E080912D02909199
:101590002E020E94D2074091F1015091F201609118
:1015A000F3017091F4018091F5019091F601A09101
:1015B000F701B091F801481B590B6A0B7B0B2AE02D
:1015C00080912D0290912E020E94E7076EE471E057
:1015D00080912D0290912E020E94D2070E947A02E1
:1015E000AB01BC012AE080912D0290912E020E9455
:1015F000E707E0902D02F0902E0260E571E0C70150
:101600000E94D20760E471E0C7010E94D20765E042
:1016100070E080E090E00E94B4010E947A02609342
:10162000F1017093F2018093F3019093F40160E073
:101630008091E0010E94F40261E08091E0010E944B
:10164000F40260917F0170918001072E000C880BDD
:10165000990B0E94B40160E08091E0010E94F402C5
:101660008EED91E00E942403C090E301D090E4014C
:10167000E090E501F090E6016C197D098E099F0963
:101680000E94E70E2091E7013091E8014091E901C5
:101690005091EA010E94FC0C2DEC3CEC4CEC5DE31B
:1016A0000E94460F6B017C012AE037ED43E25CE3C8
:1016B0000E94E00E87FF0DC02AE037ED43E25CEBAD
:1016C000C701B6010E94A40D18161CF4C12CD12C20
:1016D000760167E571E08EE891E00E94D207A701EC
:1016E0009601C701B6010E94A90D882319F06EE585
:1016F00071E01AC026013701E89477F82FEF3FEF29
:101700004FE75FE7C301B2010E94A90D811111C02B
:101710002FEF3FEF4FE75FE7C301B2010E94E00EFA
:1017200018163CF462E671E08EE891E00E94D20760
:1017300084C02FEF3FEF4FE75FE4C701B6010E947F
:10174000A40D18161CF466E671E0EECF2FEF3FEF04
:101750004FE75FECC701B6010E94E00E87FDF3CFB3
:1017600020E030E0A901C701B6010E94E00E87FF2A
:101770000FC0E0918E01F0918F010190F081E02D7A
:101780006DE28EE891E00995F7FAF094F7F8F0949D
:101790002AE037ED43EA5BE3C701B6010E94900CF3
:1017A0002B013C010E94750D6B017C010E94E50E2E
:1017B0009B01AC01C301B2010E948F0C2B013C01C3
:1017C0002AE0B701A6018EE891E00E94E7076AE6E9
:1017D00071E08EE891E00E94D20720E030E040E224
:1017E00051E4C301B2010E94460F2B013C010E944B
:1017F000750D6B01E12CF12C2AE0B701A6018EE8F2
:1018000091E00E94E707C701B6010E94E50E9B0127
:10181000AC01C301B2010E948F0C20E030E040E235
:1018200051E40E94460F0E94750DAB0160E070E02C
:101830002AE08EE891E00E94E7076CE671E08EE80E
:1018400091E00E94D20760E471E08EE891E00E948E
:10185000D2070115110509F4D1CD0E940000CECDAB
:101860000895EEE8F1E01382128288EE93E0A0E0A2
:10187000B0E084839583A683B7838DE191E0918363
:1018800080838FEF9FEF95878487EEEDF1E08DE207
:1018900091E091838083158216821782108680E002
:1018A00090E0A0E8BFE381879287A387B487EBEE3F
:1018B000F1E016821782108611861286138614862E
:1018C000158616861786108A118A128A138A148A38
:1018D000158A0895052E97FB1EF400940E94810C32
:1018E00057FD07D00E94041007FC03D04EF40C945F
:1018F000810C50954095309521953F4F4F4F5F4F4C
:10190000089590958095709561957F4F8F4F9F4F6B
:101910000895EE0FFF1F0590F491E02D09945058A3
:10192000BB27AA270E94A70C0C94CA0F0E94BC0FC9
:1019300038F00E94C30F20F039F49F3F19F426F4C9
:101940000C94B90F0EF4E095E7FB0C94B30FE92F5C
:101950000E94DB0F58F3BA176207730784079507D5
:1019600020F079F4A6F50C94FD0F0EF4E0950B2E03
:10197000BA2FA02D0B01B90190010C01CA01A001E1
:101980001124FF27591B99F0593F50F4503E68F13C
:101990001A16F040A22F232F342F4427585FF3CF7D
:1019A000469537952795A795F0405395C9F77EF44E
:1019B0001F16BA0B620B730B840BBAF09150A1F097
:1019C000FF0FBB1F661F771F881FC2F70EC0BA0F1D
:1019D000621F731F841F48F4879577956795B795A5
:1019E000F7959E3F08F0B0CF9395880F08F09927A0
:1019F000EE0F9795879508950E94100D0C94CA0FCD
:101A00000E94C30F58F00E94BC0F40F029F45F3FC2
:101A100029F00C94B30F51110C94FE0F0C94B90FD4
:101A20000E94DB0F68F39923B1F3552391F3951BC3
:101A3000550BBB27AA2762177307840738F09F5FEF
:101A40005F4F220F331F441FAA1FA9F335D00E2E5C
:101A50003AF0E0E832D091505040E695001CCAF7C9
:101A60002BD0FE2F29D0660F771F881FBB1F26178C
:101A700037074807AB07B0E809F0BB0B802DBF0163
:101A8000FF2793585F4F3AF09E3F510578F00C9432
:101A9000B30F0C94FE0F5F3FE4F3983ED4F38695AA
:101AA00077956795B795F7959F5FC9F7880F911D53
:101AB0009695879597F90895E1E0660F771F881F3F
:101AC000BB1F621773078407BA0720F0621B730BF2
:101AD000840BBA0BEE1F88F7E09508950E94750DF0
:101AE0006894B1110C94FE0F08950E94E30F88F0E2
:101AF0009F5798F0B92F9927B751B0F0E1F0660FD2
:101B0000771F881F991F1AF0BA95C9F714C0B13012
:101B100091F00E94FD0FB1E008950C94FD0F672F26
:101B2000782F8827B85F39F0B93FCCF38695779541
:101B30006795B395D9F73EF490958095709561952A
:101B40007F4F8F4F9F4F08950E94220F08F48FEF11
:101B500008950E94220F880B990B0895CF93DF936D
:101B60008230910510F482E090E0E0914702F0911C
:101B7000480220E030E0C0E0D0E0309711F1408131
:101B8000518148175907C0F04817590761F48281FD
:101B90009381209719F09B838A832BC090934802EE
:101BA0008093470226C02115310519F042175307CB
:101BB00018F49A01BE01DF01EF010280F381E02DEC
:101BC000DCCF2115310509F1281B390B24303105F3
:101BD00090F412968D919C9113976115710521F0E7
:101BE000FB019383828304C0909348028093470251
:101BF000FD01329644C0FD01E20FF31F81939193E2
:101C0000225031092D933C933AC0209145023091E6
:101C10004602232B41F420910E0130910F013093A5
:101C200046022093450220910C0130910D012115AF
:101C3000310541F42DB73EB740911001509111018B
:101C4000241B350BE0914502F0914602E217F307A1
:101C5000A0F42E1B3F0B2817390778F0AC014E5F1C
:101C60005F4F2417350748F04E0F5F1F5093460211
:101C7000409345028193919302C0E0E0F0E0CF01F0
:101C8000DF91CF9108950F931F93CF93DF93009728
:101C900009F48CC0FC013297138212820091470232
:101CA000109148020115110581F420813181820FC4
:101CB000931F20914502309146022817390779F584
:101CC000F0934602E093450271C0D80140E050E035
:101CD000AE17BF0750F412962D913C911397AD01AA
:101CE0002115310509F1D901F3CF9D01DA013383C3
:101CF000228360817181860F971F8217930769F491
:101D0000EC0128813981260F371F2E5F3F4F318329
:101D100020838A819B8193838283452B29F4F093CE
:101D20004802E093470242C01396FC93EE93129749
:101D3000ED01499159919E01240F351FE217F307D8
:101D400071F480819181840F951F029611969C9366
:101D50008E938281938113969C938E931297E0E0E9
:101D6000F0E0D80112968D919C911397009719F08D
:101D7000F8018C01F6CF8D919C9198012E5F3F4F19
:101D8000820F931F20914502309146022817390790
:101D900069F4309729F4109248021092470202C069
:101DA000138212821093460200934502DF91CF9175
:101DB0001F910F91089581E090E0F8940C94261003
:101DC0000E94220F08F481E00895E89409C097FB6F
:101DD0003EF490958095709561957F4F8F4F9F4F02
:101DE0009923A9F0F92F96E9BB279395F695879546
:101DF00077956795B795F111F8CFFAF4BB0F11F409
:101E000060FF1BC06F5F7F4F8F4F9F4F16C08823AF
:101E100011F096E911C0772321F09EE8872F762FE5
:101E200005C0662371F096E8862F70E060E02AF026
:101E30009A95660F771F881FDAF7880F9695879512
:101E400097F90895990F0008550FAA0BE0E8FEEFE7
:101E500016161706E807F907C0F012161306E4076E
:101E6000F50798F0621B730B840B950B39F40A2667
:101E700061F0232B242B252B21F408950A2609F445
:101E8000A140A6958FEF811D811D08950E94590FD5
:101E90000C94CA0F0E94BC0F38F00E94C30F20F0B0
:101EA000952311F00C94B30F0C94B90F11240C94DA
:101EB000FE0F0E94DB0F70F3959FC1F3950F50E06A
:101EC000551F629FF001729FBB27F00DB11D639FEC
:101ED000AA27F00DB11DAA1F649F6627B00DA11D92
:101EE000661F829F2227B00DA11D621F739FB00D38
:101EF000A11D621F839FA00D611D221F749F3327A8
:101F0000A00D611D231F849F600D211D822F762F40
:101F10006A2F11249F5750409AF0F1F088234AF01D
:101F2000EE0FFF1FBB1F661F771F881F9150504089
:101F3000A9F79E3F510580F00C94B30F0C94FE0F4F
:101F40005F3FE4F3983ED4F3869577956795B79510
:101F5000F795E7959F5FC1F7FE2B880F911D96952A
:101F6000879597F9089597F99F6780E870E060E09A
:101F700008959FEF80EC089500240A941616170622
:101F800018060906089500240A941216130614066A
:101F900005060895092E0394000C11F4882352F0CD
:101FA000BB0F40F4BF2B11F460FF04C06F5F7F4F85
:101FB0008F4F9F4F089557FD9058440F551F59F06C
:101FC0005F3F71F04795880F97FB991F61F09F3F26
:101FD00079F087950895121613061406551FF2CF4F
:101FE0004695F1DF08C0161617061806991FF1CF9F
:101FF00086957105610508940895E894BB276627C6
:102000007727CB0197F90895A1E21A2EAA1BBB1BD3
:10201000FD010DC0AA1FBB1FEE1FFF1FA217B307B4
:10202000E407F50720F0A21BB30BE40BF50B661FCA
:10203000771F881F991F1A9469F76095709580958E
:1020400090959B01AC01BD01CF01089510E0CCEE4D
:10205000D0E004C0FE010E94890C2196CD3ED1073C
:06206000C9F7F894FFCF60
:10206600FFFFFFFF00E10000000000000000490242
:10207600800000C18081000000000000001701EE12
:102086000138018602A4022D0100000000CA02C820
:1020960002564D4450565F317C315F564D44505682
:1020A6000D0A00564D4450455F003A323A007C0016
:1020B6005F564D445045005065736F3A20006E617F
:1020C6006E00696E66006F7666002E006B67000014
:00000001FF
