:100000000C94E0000C9408010C9408010C94080175
:100010000C9408010C9408010C9408010C9408013C
:100020000C9408010C9408010C9408010C9408012C
:100030000C9408010C9408010C9408010C9408011C
:100040000C9408080C9408010C945B060C949D0217
:100050000C9408010C9408010C9408010C940801FC
:100060000C9408010C9408010000000024002700F3
:100070002A0000000000250028002B0000000000DE
:1000800023002600290004040404040404040202DA
:100090000202020203030303030301020408102007
:1000A0004080010204081020010204081020000012
:1000B0000008000201000003040700000000000027
:1000C000000000407A10F35A00A0724E1809001088
:1000D000A5D4E80000E87648170000E40B540200BD
:1000E00000CA9A3B000000E1F505000080969800E8
:1000F000000040420F000000A08601000000102711
:1001000000000000E80300000000640000000000A0
:100110000A00000000000100000000002C76D888D2
:10012000DC674F0823DFC1DFAE59E1B1B796E5E3E5
:10013000E453C63AE651997696E8E6C28426EB89FE
:100140008C9B62ED407C6FFCEFBC9C9F40F2BAA59B
:100150006FA5F490055A2AF75C936B6CF9676DC133
:100160001BFCE0E40D47FEF520E6B500D0ED902E37
:100170000300943577050080841E080000204E0A95
:10018000000000C80C333333330F986E12831141D3
:10019000EF8D2114893BE65516CFFEE6DB18D1849E
:1001A0004B381BF77C1D901DA4BBE42420328472C5
:1001B0005E228100C9F124ECA1E53D27A40F950F33
:1001C00011241FBECFEFD8E0DEBFCDBF15E0A0E009
:1001D000B1E0E2EBF1E302C005900D92A034B1076B
:1001E000D9F726E0A0E4B5E001C01D92A83AB20715
:1001F000E1F710E0CFEDD0E004C02197FE010E94AE
:100200001F11CE3DD107C9F70E94420A0C94CC18A9
:100210000C940000CF92DF92EF92FF920F931F9306
:10022000CF93DF936C017A018B01C0E0D0E0CE1553
:10023000DF0589F0D8016D918D01D601ED91FC911A
:100240000190F081E02DC6010995892B11F47E0102
:1002500002C02196ECCFC701DF91CF911F910F9182
:10026000FF90EF90DF90CF90089583E895E00E9493
:10027000F50521E0892B09F420E0822F0895FC0187
:100280001182108213821282158214826115710507
:1002900051F0FB0101900020E9F73197AF01461BB7
:1002A000570B0C942B050895DC01ED91FC91019006
:1002B000F081E02D09946115710579F0FB01019041
:1002C0000020E9F73197AF01461B570BDC01ED9198
:1002D000FC910280F381E02D099480E090E0089584
:1002E0004F925F926F927F92EF92FF920F931F93C4
:1002F000CF93DF93CDB7DEB7A1970FB6F894DEBFEB
:100300000FBECDBF7C01FA01CB0119A2223008F447
:100310002AE08E010F5D1F4F422E512C612C712C53
:10032000BF01A30192010E943A18F901CA010150CC
:1003300011096A3014F4605D01C0695CD8016C93E6
:10034000232B242B252B61F7B801C7010E945B01E9
:10035000A1960FB6F894DEBF0FBECDBFDF91CF914F
:100360001F910F91FF90EF907F906F905F904F9053
:1003700008954F925F926F927F928F929F92AF9269
:10038000BF92CF92DF92EF92FF92CF93DF93EC0177
:100390006A017B01B22E9A01AB01C701B6010E942E
:1003A0003F12882319F06BE673E027C0260137015E
:1003B000E89477F82FEF3FEF4FE75FE7C301B20113
:1003C0000E943F1281110DC02FEF3FEF4FE75FE713
:1003D000C301B2010E94D61618161CF46FE673E032
:1003E0000CC02FEF3FEF4FE75FE4C701B6010E945B
:1003F0003A1218169CF463E773E0CE01DF91CF91B7
:10040000FF90EF90DF90CF90BF90AF909F908F9034
:100410007F906F905F904F900C945B012FEF3FEFB8
:100420004FE75FECC701B6010E94D61687FDE3CF08
:1004300020E030E0A901C701B6010E94D61687FF6F
:100440000AC06DE2CE010E9454014C01F7FAF0940B
:10045000F7F8F09402C0812C912CA12C60E070E0A0
:1004600080E09FE3AB1441F020E030E040E251E453
:100470000E949211A394F6CF9B01AC01C701B60173
:100480000E9426112B013C010E940B126B017C0182
:100490000E94DB169B01AC01C301B2010E94251131
:1004A0002B013C012AE0B701A601CE010E94700198
:1004B0007C01E80CF91CBB2031F06EE2CE010E94F9
:1004C0005401E80EF91EDB2CDD2029F120E030E09C
:1004D00040E251E4C301B2010E943C172B013C01F0
:1004E0000E940B124B01A12CB12C2AE0B501A401F2
:1004F000CE010E947001E80EF91EC501B4010E94F0
:10050000DB169B01AC01C301B2010E9425112B0136
:100510003C01DA94D9CFC701DF91CF91FF90EF90E2
:10052000DF90CF90BF90AF909F908F907F906F9013
:100530005F904F9008950C945B011F920F920FB63D
:100540000F9211242F933F934F935F936F937F9359
:100550008F939F93AF93BF93EF93FF9383E895E0BF
:100560000E948D06FF91EF91BF91AF919F918F9166
:100570007F916F915F914F913F912F910F900FBE9F
:100580000F901F9018950E943B14E3E8F5E0A089B6
:10059000B18982E08C93A485B5851C92A685B78528
:1005A00080E18C93108EA489B58986E08C93A28912
:1005B000B3898C9180618C93A289B3898C91886076
:1005C0008C93A289B3898C9180688C930288F3897B
:1005D000E02D80818F7D80830895643008F063E092
:1005E00090915905691710F06FEF690FE62FF0E051
:1005F000EA5BFA4F9489682F690F606886E495E09A
:100600000C94160AEF92FF920F931F93CF93DF93F0
:10061000EC01423018F08F8588608F874B8B1C8AE5
:1006200080E48D8B6E8B70E0605C7F4F6F8B61E040
:100630008C810E9486078D818F3F19F061E00E94B6
:10064000860761E08E810E9486077E0187E0E80EC2
:10065000F11C00E010E08F8584FD03C084E090E091
:1006600002C088E090E0081719074CF461E0F70138
:1006700081917F010E9486070F5F1F4FECCF8BE3B4
:100680009DE00197F1F760E08C810E94400760E0F7
:100690008E810E9440078D818F3F19F060E00E949B
:1006A00040076F8564FD1DC063E0CE010E94900984
:1006B0000BE416E4C8010197F1F763E0CE010E9454
:1006C0009009C8010197F1F763E0CE010E949009FB
:1006D00083E592E00197F1F762E0CE010E94900974
:1006E00016C06062CE010E94160A8BE496E4019760
:1006F000F1F76F856062CE010E94160A83E592E0F1
:100700000197F1F76F856062CE010E94160A6F852E
:100710006062CE010E94160A84E0888B6CE0CE01F4
:100720000E94160ACE010E94190A82E0898B66E0B7
:10073000CE01DF91CF911F910F91FF90EF900C941C
:10074000160ACF93DF93BC0183E895E00E945B011A
:10075000EC0166E873E083E895E00E945B018C0F92
:100760009D1FDF91CF910895EF92FF920F931F93FA
:10077000CF93DF931F92CDB7DEB7162F877028E097
:10078000829FC0011124682F606486E495E079831C
:100790000E94160AE12E7981F72E8701085F1F4F0C
:1007A000F70161917F0186E495E00E94100AE0164E
:1007B000F106B1F70F90DF91CF911F910F91FF904C
:1007C000EF900895CF93DF93FC01448155816081C0
:1007D000718183E895E00E940A01EC0166E873E00C
:1007E00083E895E00E945B018C0F9D1FDF91CF9104
:1007F0000895CF93DF93AB01BC0122E083E895E03D
:100800000E94B901EC0166E873E083E895E00E947C
:100810005B018C0F9D1FDF91CF910895FF920F9385
:100820001F93CF93DF93F82E062FC7E0D0E010E0A0
:1008300061E0802F0E9440078F2D0E9417070C2E29
:1008400001C0880F0A94EAF7182B60E0802F0E94FD
:100850004007219768F7812FDF91CF911F910F916A
:10086000FF900895CF92DF92EF92FF9260E0809127
:1008700072060E94400761E0809172060E94400764
:1008800060916A0670916B06072E000C880B990B1D
:100890000E94C20760E0809172060E94400780E7D4
:1008A00096E00E94AB08C0907506D0907606E09066
:1008B0007706F09078066C197D098E099F090E94D1
:1008C000DD162091790630917A0640917B06509191
:1008D0007C060E9492112DEC3CEC4CEC5DE30E94F6
:1008E0003C176B017C012AE037ED43E25CE30E9498
:1008F000D61687FF0DC02AE037ED43E25CEBC70157
:10090000B6010E943A1218161CF4C12CD12C7601A3
:10091000C0926C06D0926D06E0926E06F0926F0661
:10092000C701B601FF90EF90DF90CF900895CF926E
:10093000DF92EF92FF92CF93DF936C01990FEE0855
:10094000FF08F7FE16C06DE283E895E00E945401AF
:10095000EC0144275527BA014C195D096E097F093E
:100960002AE083E895E00E9470017C01EC0EFD1EF8
:1009700008C02AE0B701A60183E895E00E94700153
:100980007C0166E873E083E895E00E945B018E0DD0
:100990009F1DDF91CF91FF90EF90DF90CF90089552
:1009A0008F929F92AF92BF92CF92DF92EF92FF927F
:1009B0000F931F93CF93DF934B015C01CA01B901E1
:1009C000A50194010E942A1828EE33E040E050E08F
:1009D0000E945C1869017A0160E271EA87E090E0A8
:1009E000A50194010E945C188901C901880F991F13
:1009F000880F991FEC012597812C912C54018C14A0
:100A00009D04AE04BF04D4F461E083E10E9440077A
:100A10000230110518F0CE010197F1F760E083E193
:100A20000E9440070230110518F0CE010197F1F73E
:100A30008FEF881A980AA80AB80AE1CFDF91CF9100
:100A40001F910F91FF90EF90DF90CF90BF90AF90EC
:100A50009F908F900895EF92FF920F931F93CF93E3
:100A6000DF93EC017B018A0188819981009729F04D
:100A70002A813B8124173507F8F4B8016F5F7F4F57
:100A80000E947113009759F0998388831B830A830E
:100A90002C813D81232B81F4FC0110820DC08881C3
:100AA0009981009711F00E94D912198218821D8233
:100AB0001C821B821A8207C01D830C83B7018881A8
:100AC00099810E944914CE01DF91CF911F910F911E
:100AD000FF90EF900895FC01808191810C94D912D0
:100AE000EF92FF920F931F93CF93DF93CDB7DEB7B3
:100AF000A1970FB6F894DEBF0FBECDBF7C01CB012E
:100B0000BA01F701118210821382128215821482B7
:100B100042E0420F8E010F5F1F4F0E94501400975A
:100B200069F0FC0101900020E9F73197AF01481B03
:100B3000590BBC01C7010E942B050EC0F701808133
:100B40009181009711F00E94D912F7011182108251
:100B50001582148213821282A1960FB6F894DEBF1A
:100B60000FBECDBFDF91CF911F910F91FF90EF90FE
:100B70000895FB01DC0111961C921E9213961C92A3
:100B80001E92129715961C921E921497861797071D
:100B900049F0608171816115710521F044815581B1
:100BA0000C942B050895FC01918D828D981761F0AE
:100BB000828DDF01A80FB11D5D968C91928D9F5F94
:100BC0009F73928F90E008958FEF9FEF0895FC013F
:100BD000918D828D981731F0828DE80FF11D858DF2
:100BE00090E008958FEF9FEF0895FC01918D228D85
:100BF000892F90E0805C9F4F821B91098F7399270A
:100C0000089580E090E0892B29F00E943501811140
:100C10000C9400000895833081F028F4813099F01D
:100C20008230A1F008958730A9F08830B9F084307F
:100C3000D1F4809180008F7D03C0809180008F77F8
:100C400080938000089584B58F7702C084B58F7D2E
:100C500084BD08958091B0008F7703C08091B0006B
:100C60008F7D8093B00008953FB7F8948091A006DF
:100C70009091A106A091A206B091A30626B5A89BCB
:100C800005C02F3F19F00196A11DB11D3FBFBA2F1E
:100C9000A92F982F8827820F911DA11DB11DBC017E
:100CA000CD0142E0660F771F881F991F4A95D1F743
:100CB00008950C94D9121F920F920FB60F9211241F
:100CC0002F938F939F93EF93FF93E0919305F09170
:100CD00094058081E0919905F0919A0582FD12C0FA
:100CE000908180919C058F5F8F7320919D05821765
:100CF00051F0E0919C05F0E0ED57FA4F958F80930D
:100D00009C0501C08081FF91EF919F918F912F9160
:100D10000F900FBE0F901F901895FC01848DDF017E
:100D2000A80FB11DA35ABF4F2C91848D90E001965E
:100D30008F739927848FA689B7892C93A089B1894D
:100D40008C9180648C93938D848D981306C0028857
:100D5000F389E02D80818F7D80830895EF92FF924B
:100D60000F931F93CF93DF93EC0181E0888F9B8DCE
:100D70008C8D981305C0E889F989808185FD24C090
:100D8000F62E0B8D10E00F5F1F4F0F731127E02E13
:100D90008C8DE8120CC00FB607FCFACFE889F989F0
:100DA000808185FFF5CFCE010E948D06F1CF8B8D1E
:100DB000FE01E80FF11DE35AFF4FF0820B8FEA8925
:100DC000FB898081806207C0EE89FF896083E889A2
:100DD000F98980818064808381E090E0DF91CF9108
:100DE0001F910F91FF90EF900895CF93DF93EC0147
:100DF000888D8823C9F0EA89FB89808185FD05C03B
:100E0000A889B9898C9186FD0FC00FB607FCF5CF74
:100E1000808185FFF2CFA889B9898C9185FFEDCFBC
:100E2000CE010E948D06E7CFDF91CF910895CF9339
:100E3000DF93282F30E0F901E255FF4F8491F9014B
:100E4000E656FF4FD491F901EA57FF4FC491CC23E6
:100E500091F081110E940B06EC2FF0E0EE0FFF1FC6
:100E6000E458FF4FA591B491EC91ED2381E090E01F
:100E700021F480E002C080E090E0DF91CF910895FE
:100E80001F93CF93DF93282F30E0F901E255FF4FF6
:100E90008491F901E656FF4FD491F901EA57FF4FCB
:100EA000C491CC23C9F0162F81110E940B06EC2FA0
:100EB000F0E0EE0FFF1FEE58FF4FA591B4918FB7F2
:100EC000F894111105C09C91ED2FE095E92302C023
:100ED000EC91ED2BEC938FBFDF91CF911F91089593
:100EE000CF93DF93EC0160E08E810E94400761E0C8
:100EF0008E810E94400760E08E810E9440078BE84F
:100F000091E00197F1F7DF91CF910895CF93DF93AF
:100F100090E0FC01E656FF4F2491FC01EA57FF4F99
:100F20008491882361F190E0880F991FFC01E859B2
:100F3000FF4FC591D491FC01EE58FF4FA591B4919C
:100F4000611109C09FB7F894888120958223888316
:100F5000EC912E230BC0623061F49FB7F894388176
:100F6000822F809583238883EC912E2B2C939FBF17
:100F700006C08FB7F894E8812E2B28838FBFDF91AE
:100F8000CF9108958F929F92AF92BF92CF92DF92AE
:100F9000EF92FF926B017C010E9434064B015C01D1
:100FA000C114D104E104F104F1F00E943406DC0123
:100FB000CB0188199909AA09BB09883E9340A1056C
:100FC000B10570F321E0C21AD108E108F10888EEFA
:100FD000880E83E0981EA11CB11CC114D104E10449
:100FE000F10419F7DDCFFF90EF90DF90CF90BF9025
:100FF000AF909F908F9008952FB7F89460919C06C2
:1010000070919D0680919E0690919F062FBF089536
:101010001F920F920FB60F9211242F933F938F932D
:101020009F93AF93BF9380919C0690919D06A09152
:101030009E06B0919F0630919B0623E0230F2D372B
:1010400020F40196A11DB11D05C026E8230F0296CC
:10105000A11DB11D20939B0680939C0690939D0635
:10106000A0939E06B0939F068091A0069091A10642
:10107000A091A206B091A3060196A11DB11D809377
:10108000A0069093A106A093A206B093A306BF91D9
:10109000AF919F918F913F912F910F900FBE0F9025
:1010A0001F9018950F931F93CF93DF938C01CB0163
:1010B000BA0120E030E04AE754E40E943C170E9465
:1010C0000412D62FC72FC8010E941C186C2FC8010C
:1010D00001960E941C186FE175E083E895E00E947C
:1010E0009B028D2F9C2F0E94970481E0DF91CF916E
:1010F0001F910F910895CF92DF92EF92FF92CF93BD
:101100007C010E940A18C82FC70101960E940A1884
:101110006C2F70E0782B072E000C880B990B0E9427
:10112000DD1620E030E04AE754E40E9492116B01A2
:101130007C0161E175E083E895E00E949B02C701B4
:10114000B6010E94F903C701B601CF91FF90EF905D
:10115000DF90CF900895DF92EF92FF920F931F934D
:10116000CF93DF93EC018B810E941707892BD9F76E
:101170006A818B810E940E04082F6A818B810E94F4
:101180000E04182F6A818B810E940E04D82EE12C48
:10119000F12C2C8130E0E216F30660F461E08A81E4
:1011A0000E94400760E08A810E9440072FEFE21A08
:1011B000F20AEFCF812F90E0A0E0B0E0BA2FA92F84
:1011C000982F8827A02BAC01BD014D29802F880FB7
:1011D000880B90E0A0E0B0E0B82FAA2799278827D5
:1011E0008A019B01082B192B2A2B3B2BC901B80123
:1011F000DF91CF911F910F91FF90EF90DF900895B5
:1012000008954F925F926F927F928F929F92AF92CA
:10121000BF92CF92DF92EF92FF920F931F93CF93E3
:10122000DF9300D0CDB7DEB7B62EA72E6901498374
:101230005A830E94E20360E375E083E895E00E9430
:101240009B02C6010E9497044981E42E5A81F52E23
:101250000B2D1A2D812C912C88EEA82E83E0B82E10
:101260008C149D040CF049C087E0881691048CF022
:1012700086E00E9417072C018AE00E9417073C01B4
:1012800089E00E9417074528C1F16728B1F1892B31
:10129000A1F1F701619171917F01C5010E94F010E8
:1012A0002B01770F66087708F801619171918F0122
:1012B000072E000C880B990BA30192010E94D00409
:1012C000C301B2010E94DD1626E636E646EA5FE378
:1012D0000E943C170E940412072E000C880B990BE9
:1012E0000E94C207A301920160E070E0CB010E945E
:1012F000D004FFEF8F1A9F0AB3CF0F900F90DF91AA
:10130000CF911F910F91FF90EF90DF90CF90BF9002
:10131000AF909F908F907F906F905F904F900895C7
:10132000CF92DF92EF92FF920F931F93CF93DF93B1
:101330007C016C0187E0C80ED11CC0E0D0E0062F14
:1013400010E0B8010C2E02C0759567950A94E2F77B
:101350006170F60181916F010E9440072196C430AF
:10136000D10579F7C701DF91CF911F910F91FF90C0
:10137000EF90DF90CF900C947007CF92DF92EF92B6
:10138000FF920F931F93CF93DF93EC01F62E642F00
:101390008C810E9440078D818F3F19F060E00E9490
:1013A00040078F850F2D10E084FF25C06E0187E078
:1013B000C80ED11CE12CF12CB8010E2C02C0759581
:1013C00067950A94E2F76170F60181916F010E94BE
:1013D0004007FFEFEF1AFF0A88E0E816F10461F713
:1013E000CE01DF91CF911F910F91FF90EF90DF9091
:1013F000CF900C947007B80184E0759567958A9535
:10140000E1F7CE010E9490096F2DCE01DF91CF91BF
:101410001F910F91FF90EF90DF90CF900C94900967
:1014200041E00E94BD0981E090E0089540E00C9405
:10143000BD0961E00E94160A8BE39FE10197F1F775
:1014400008950F931F93CF93DF931F92CDB7DEB70D
:101450008C01442331F086E495E069830E94190AE7
:10146000698180E00E94ED02F8014481558160812C
:10147000718186E495E00F90DF91CF911F910F91DC
:101480000C940A01CF93DF93CDB7DEB72C970FB63C
:10149000F894DEBF0FBECDBF789484B5826084BD62
:1014A00084B5816084BD85B5826085BD85B5816068
:1014B00085BD80916E00816080936E0010928100E6
:1014C00080918100826080938100809181008160A1
:1014D0008093810080918000816080938000809162
:1014E000B10084608093B1008091B00081608093EE
:1014F000B00080917A00846080937A0080917A00B5
:10150000826080937A0080917A00816080937A0073
:1015100080917A00806880937A001092C1001092C6
:101520006406109265061092660610926706109285
:10153000220610922306109224061092250660EDD2
:1015400077E080E090E00E94C20783E895E0909306
:101550006306809362060E94C5020E94FC076093A6
:10156000220670932306809324069093250667E74E
:1015700073E080916206909163060E949B026AE08C
:1015800070E080E090E00E94C20781E08093360620
:101590000E94C50289E893E00E94A10344E064E14F
:1015A00086E495E00E94020360E080E00E94ED0284
:1015B00061E082E10E94860764E973E086E495E0D9
:1015C0000E949B020BE010E064E670E080E090E097
:1015D0000E94C2076EE973E086E495E00E949B02D8
:1015E0000150110989F79924939486E00E94170706
:1015F0007C018AE00E9417076C0189E00E941707AE
:101600008C01CD2851F5892B41F560EA73E0CE01BC
:1016100001960E943F012EE430E040EE51E06CE77D
:1016200072E0CE0101960E940109CE0101960E944E
:101630006B0568EB73E0CE0101960E943F0128E341
:1016400030E040E051E060E771E0CE0101960E9499
:101650000109CE0101960E946B05809162058823E5
:1016600009F417C161ED73E0CE0101960E943F01BC
:1016700041E060E070E0CE0101960E94210ACE01B7
:1016800001960E946B0580916205882309F407C1C9
:1016900086E00E9417076C018AE00E9417077C0110
:1016A00089E00E9417078C01CD2809F04DC09AE00F
:1016B000D92E412C512C320180E796E00E94AB08D4
:1016C000460E571E681E791EDA94D110F5CFC3015D
:1016D000B2012AE030E040E050E00E945C18CA010C
:1016E000B9010E94DD162B013C0169837A838B834B
:1016F0009C8344E050E064E070E0CE0101960E94DB
:101700001218C301B2010E9404126093750670930F
:101710007606809377069093780661EE73E0CE01AB
:1017200001960E943F0141E060E070E0CE01019629
:101730000E94210ACE0101960E946B0581EE93E082
:101740000E94A10310926205EF2809F04FC00E9489
:101750003204AB01BC0180E090E00E94520880E0BE
:1017600090E00E947B0860937B0570937C058093DA
:101770007D0590937E0563EF73E0CE0101960E9494
:101780003F0141E060E070E0CE0101960E94210A35
:10179000CE0101960E946B0540917B0550917C051E
:1017A00060917D0570917E0522E0CE0101960E9438
:1017B000700540E061E070E0CE0101960E94210AD0
:1017C000CE0101960E946B0561E074E083E895E02C
:1017D0000E949B0260917B0570917C0580917D0544
:1017E00090917E050E94F90310926205012B09F089
:1017F0004ACF0E943204AB01BC0182E090E00E941B
:10180000520882E090E00E947B0860937F0570930D
:101810008005809381059093820561E174E0CE019B
:1018200001960E943F0141E060E070E0CE01019628
:101830000E94210ACE0101960E946B0540917F050E
:1018400050918005609181057091820522E0CE0162
:1018500001960E94700540E061E070E0CE010196C3
:101860000E94210ACE0101960E946B056FE174E08F
:1018700083E895E00E949B0260917F05709180054E
:1018800080918105909182050E94F9031092620572
:10189000FACEEF2821F4012B11F4909262052091E9
:1018A0007B0530917C0540917D0550917E056091CE
:1018B0007F057091800580918105909182050E943D
:1018C000251160935E0570935F058093600590938A
:1018D00061050E94320420917B0530917C05409186
:1018E0007D0550917E050E942511609377057093C8
:1018F00078058093790590937A0520915E05309163
:101900005F0540916005509161050E9492116B0145
:101910007C016093730570937405809375059093B3
:10192000760540906F05509070056090710570903D
:101930007205A301920160E070E0CB010E942511C5
:101940009B01AC01C701B6010E94D61618167CF5A2
:1019500020916305309164054091650550916605BD
:10196000C701B6010E94D61687FD24C020916705E5
:10197000309168054091690550916A05C701B6012B
:101980000E94D61687FD19C020E030E040E85FE3F2
:10199000C301B2010E9426119B01AC01C701B6012F
:1019A0000E94D616181664F404E010E00BC000E0A4
:1019B00010E008C001E010E005C002E010E002C045
:1019C00003E010E026E0209FC001219F900D11242C
:1019D0009C012358394F5901B901CE0107960E9445
:1019E000B90520917B0530917C0540917D05509192
:1019F0007E0560917F0570918005809181059091B1
:101A000082050E94251160935E0570935F058093A7
:101A10006005909361050E94320420917B0530910E
:101A20007C0540917D0550917E050E9425112B017A
:101A30003C016093770570937805809379059093C6
:101A40007A0520915E0530915F05409160055091C7
:101A500061050E9492116B017C0160937305709384
:101A60007405809375059093760520916B053091F0
:101A70006C0540916D0550916E05C301B2010E9445
:101A80003C172B013C0120E030E0A9010E94D61652
:101A900087FF03C0412C512C32016FE274E083E8D0
:101AA00095E00E949B0260916C0670916D0680919A
:101AB0006E0690916F060E94F90361E074E083E87E
:101AC00095E00E949B0260917B0570917C0580915E
:101AD0007D0590917E050E94F9036FE174E083E833
:101AE00095E00E949B0260917F0570918005809136
:101AF0008105909182050E94F90361E474E083E816
:101B000095E00E949B02C301B2010E94F90368E5BF
:101B100074E083E895E00E949B02CE0107960E9444
:101B2000E2038EE694E00E94A10320E030E040E86A
:101B30005FE3C701B6010E943A1218166CF020E06C
:101B400030E0A901C701B6010E94D61687FF0AC07E
:101B5000C12CD12C760106C0C12CD12C80E8E82EF6
:101B60008FE3F82E86E495E00E94190A60E080E099
:101B70000E94ED02B501CE0101960E94B90569816E
:101B80007A8186E495E00E949B020230110551F4AF
:101B9000BB24B3948091440590914505059771F05D
:101BA000B12C0CC00130110599F48091440590913D
:101BB000450562E070E00E94F010B82E6B2D82E1C6
:101BC0000E94400780914003811117C06B2D12C005
:101BD0000115110551F461E082E10E9440078091F6
:101BE000400381110AC061E005C060E082E10E940B
:101BF000400760E083E10E94400780914003882312
:101C000009F447C060E083E10E94400762E080E0A1
:101C10000E94ED02C0904005D0904105E090420541
:101C2000F09043050E94FC07A7019601261B370B85
:101C3000480B590B12161306140615069CF40E9445
:101C4000FC07A7019601261B370B480B590BCA014D
:101C5000B90128EE33E040E050E00E943A186901F3
:101C60007A0103C0C12CD12C760166E974E086E4C8
:101C700095E00E949B022AE0B701A60186E495E068
:101C80000E9470016CEA74E086E495E00E949B0279
:101C9000B3C00B7F012B09F4AFC062E080E00E946B
:101CA000ED0220E030E040E85FE3C301B2010E94B2
:101CB0003A1287FD0AC022E0B301A20186E495E052
:101CC0000E94B90163EA74E011C020E030E04AE705
:101CD00054E4C301B2010E943C17AB01BC0120E0F7
:101CE00086E495E00E94B90166EA74E086E495E036
:101CF0000E949B0260EA74E086E495E00E949B02E9
:101D000020E030E048EC52E4C701B6010E943C17E5
:101D10006B017C0120E0AB01BC0186E495E00E94F0
:101D2000B9016AEA74E086E495E00E949B0268E3E8
:101D300073E081E00E94B40360E373E082E00E94FC
:101D4000B40368E273E083E00E94B40360E273E0EE
:101D500084E00E94B40368E173E085E00E94B4036C
:101D6000C701B6010E9404122B013C01DB0124E1F2
:101D700030E00E94041124E630E040E050E00E9490
:101D80005C1869017A011901D20120E530E00E9456
:101D9000041124E630E040E050E00E945C181BEFA4
:101DA000B60116035001179FB00C1124A20EB31EEA
:101DB0001C141D041E041F046CF063E08C2D0E9493
:101DC000ED021A141B04C4F46A2D86E495E00E9407
:101DD000100A12C0612C712C63E0862D0E94ED0266
:101DE00065E086E495E00E94100A2FEF621A720AFD
:101DF000621473048CF3E1CF809144059091450502
:101E0000873091052CF0109245051092440505C0CD
:101E10000196909345058093440586E00E9417073C
:101E20007C018AE00E9417078C0189E00E94170755
:101E3000EF2809F44EC0012B09F44BC0892B09F49B
:101E400048C00E94FC070091400510914105209177
:101E5000420530914305061717072807390710F484
:101E60001092400380914003882341F16EEA74E0B0
:101E700083E895E00E949B020E94FC07AB01BC0135
:101E80002AE083E895E00E94700167EB74E083E844
:101E900095E00E949B024091400550914105609160
:101EA0004205709143052AE083E895E00E947001A5
:101EB00066E873E083E895E00E945B01CE0101963D
:101EC0000E946B05CE0107960E946B050E940106D9
:101ED0008CCB0E94FC07DC01CB01805D9A48AF4FA0
:101EE000BF4F8093400590934105A0934205B09366
:101EF0004305909240036BEB74E083E895E00E9409
:101F00009B024091400550914105609142057091BE
:101F100043052AE083E895E00E94700166E873E0DB
:101F200083E895E00E945B018CCFCF93DF93CBE9F0
:101F3000D6E02697CE010E946B0586E0CD37D80704
:101F4000C1F7DF91CF910895CF92DF92EF92FF9288
:101F50000F931F93CF93DF93CDB7DEB761970FB683
:101F6000F894DEBF0FBECDBFE3E8F5E01382128226
:101F700088EE93E0A0E0B0E084839583A683B783E6
:101F80008FE493E09183808385EC90E0958784874C
:101F900084EC90E09787868780EC90E0918B808B33
:101FA00081EC90E0938B828B82EC90E0958B848B1C
:101FB00086EC90E0978B868B118E128E138E148E8A
:101FC00063ED74E08DE796E00E943F016FED74E0F1
:101FD00083E896E00E943F016DEE74E089E896E0A8
:101FE0000E943F016BEF74E08FE896E00E943F0192
:101FF00064E075E085E996E00E943F01E6E4F5E0E3
:10200000138212828FE593E0918380838CE0848336
:102010008FEF85838BE0868385E0878384E08087EC
:1020200083E0818782E08287138614861586168670
:10203000178641E060E1CF010E9402030EE515E042
:10204000F80114828DEC9CECACECBDE385839683A7
:10205000A783B0874AE959E969E97EE34187528756
:1020600063877487C12CD12C20E8E22E2FE3F22E57
:10207000C586D686E786F08A818B928BA38BB48B3C
:1020800080E090E00E947B08F801658F768F878F53
:1020900090A382E090E00E947B08F80161A372A304
:1020A00083A394A3C58AD68AE78AF08E62E086E08D
:1020B0000E94860762E08AE00E94860762E089E06B
:1020C0000E94860761E083E10E94860700E716E030
:1020D00087E693E0F8019183808315821682178248
:1020E0001086C186D286E386F4869A8389831E820F
:1020F0001F8218861986CA86DB86EC86FD8688E0F4
:102100008B8387E08C8361E088E00E94860760E033
:102110008C810E94860781E08D8360E08B810E9424
:102120004007CE0101960E94AB0844E050E064E015
:1021300070E0CE010E960E94FA17CE84DF84E88804
:10214000F98861E175E083E895E00E949B02C70190
:10215000B6010E94F9038B81F80182838C8183830D
:102160008D818483C701B6010E940412F801658342
:1021700076838783908780E090EFA2EDB6E4818735
:102180009287A387B48782E390E090936B06809355
:102190006A06E0E2F6E01682178210861186128641
:1021A00013861486158616861786108A118A128A57
:1021B000138A148A158A84E690E0909369068093C6
:1021C000680661960FB6F894DEBF0FBECDBFDF91F3
:1021D000CF911F910F91FF90EF90DF90CF900895D6
:1021E00097FB072E16F4009407D077FD09D00E94C4
:1021F0000B1107FC05D03EF4909581959F4F0895F3
:10220000709561957F4F08950E94BD18B7FF08959E
:10221000821B930B0895AA1BBB1B51E107C0AA1F89
:10222000BB1FA617B70710F0A61BB70B881F991F77
:102230005A95A9F780959095BC01CD010895EE0FB0
:10224000FF1F0590F491E02D09945058BB27AA2751
:102250000E943D110C94C0170E94B21738F00E94E2
:10226000B91720F039F49F3F19F426F40C94AF17F6
:102270000EF4E095E7FB0C94A917E92F0E94D11703
:1022800058F3BA17620773078407950720F079F4AB
:10229000A6F50C94F3170EF4E0950B2EBA2FA02D93
:1022A0000B01B90190010C01CA01A0011124FF2703
:1022B000591B99F0593F50F4503E68F11A16F040FE
:1022C000A22F232F342F4427585FF3CF46953795FD
:1022D0002795A795F0405395C9F77EF41F16BA0BC2
:1022E000620B730B840BBAF09150A1F0FF0FBB1F70
:1022F000661F771F881FC2F70EC0BA0F621F731FB9
:10230000841F48F4879577956795B795F7959E3F15
:1023100008F0B0CF9395880F08F09927EE0F9795A6
:10232000879508950E94A6110C94C0170E94B917B2
:1023300058F00E94B21740F029F45F3F29F00C9446
:10234000A91751110C94F4170C94AF170E94D117D0
:1023500068F39923B1F3552391F3951B550BBB27D4
:10236000AA2762177307840738F09F5F5F4F220F19
:10237000331F441FAA1FA9F335D00E2E3AF0E0E810
:1023800032D091505040E695001CCAF72BD0FE2F5A
:1023900029D0660F771F881FBB1F261737074807EE
:1023A000AB07B0E809F0BB0B802DBF01FF279358A6
:1023B0005F4F3AF09E3F510578F00C94A9170C94AA
:1023C000F4175F3FE4F3983ED4F3869577956795CD
:1023D000B795F7959F5FC9F7880F911D96958795DB
:1023E00097F90895E1E0660F771F881FBB1F6217FA
:1023F00073078407BA0720F0621B730B840BBA0BB8
:10240000EE1F88F7E09508950E940B126894B111B1
:102410000C94F41708950E94D91788F09F5798F0EC
:10242000B92F9927B751B0F0E1F0660F771F881FD9
:10243000991F1AF0BA95C9F714C0B13091F00E94F3
:10244000F317B1E008950C94F317672F782F8827BE
:10245000B85F39F0B93FCCF3869577956795B3951A
:10246000D9F73EF490958095709561957F4F8F4F89
:102470009F4F08950E94181708F48FEF08950E9447
:102480001817880B990B0895CF93DF93823091052D
:1024900010F482E090E0E091A606F091A70620E01B
:1024A00030E0C0E0D0E0309711F140815181481711
:1024B0005907C0F04817590761F48281938120972A
:1024C00019F09B838A832BC09093A7068093A6065E
:1024D00026C02115310519F04217530718F49A0147
:1024E000BE01DF01EF010280F381E02DDCCF211579
:1024F000310509F1281B390B2430310590F412966F
:102500008D919C9113976115710521F0FB019383C7
:10251000828304C09093A7068093A606FD0132969D
:1025200044C0FD01E20FF31F8193919322503109C2
:102530002D933C933AC02091A4063091A506232BFD
:1025400041F420914303309144033093A506209336
:10255000A40620914103309142032115310541F435
:102560002DB73EB74091450350914603241B350BD0
:10257000E091A406F091A506E217F307A0F42E1B44
:102580003F0B2817390778F0AC014E5F5F4F2417D7
:10259000350748F04E0F5F1F5093A5064093A406E1
:1025A0008193919302C0E0E0F0E0CF01DF91CF9101
:1025B00008950F931F93CF93DF93009709F48CC076
:1025C000FC013297138212820091A6061091A70691
:1025D0000115110581F420813181820F931F209113
:1025E000A4063091A5062817390779F5F093A506BA
:1025F000E093A40671C0D80140E050E0AE17BF07D9
:1026000050F412962D913C911397AD01211531058F
:1026100009F1D901F3CF9D01DA013383228360816F
:102620007181860F971F8217930769F4EC01288147
:102630003981260F371F2E5F3F4F318320838A81D8
:102640009B8193838283452B29F4F093A706E09323
:10265000A60642C01396FC93EE931297ED014991A2
:1026600059919E01240F351FE217F30771F4808101
:102670009181840F951F029611969C938E9382816F
:10268000938113969C938E931297E0E0F0E0D8012B
:1026900012968D919C911397009719F0F8018C0177
:1026A000F6CF8D919C9198012E5F3F4F820F931F23
:1026B0002091A4063091A5062817390769F43097B0
:1026C00029F41092A7061092A60602C01382128265
:1026D0001093A5060093A406DF91CF911F910F914F
:1026E0000895A0E0B0E0E7E7F3E10C948A18EC016C
:1026F000009721F4CB010E944412B8C0FC01E60F00
:10270000F71F9C0122503109E217F30708F4ACC00F
:10271000D9010D911C91119706171707B0F00530DC
:10272000110508F49FC0C80104978617970708F49D
:1027300099C002501109061B170B019311936D9359
:102740007C93CF010E94D9128DC05B01A01AB10AFF
:102750004C01800E911EA091A606B091A70640E004
:1027600050E0E12CF12C109709F44AC0A815B905E6
:10277000D1F56D907C901197630182E0C80ED11C59
:10278000CA14DB0480F1A3014A195B096A0182E0E3
:10279000C80ED11C1296BC9012971396AC91B5E05E
:1027A000CB16D10440F0B282A38351834083D90178
:1027B0006D937C930AC00E5F1F4FC301800F911F62
:1027C000F90191838083EB2DFA2FE114F10431F0AC
:1027D000D7011396FC93EE93129744C0F093A7068B
:1027E000E093A6063FC08D919C9111974817590719
:1027F00008F4AC017D0112960D90BC91A02DB3CFD1
:102800008091A4069091A50688159905E1F44617D4
:102810005707C8F48091410390914203009741F417
:102820008DB79EB74091450350914603841B950B8D
:10283000E817F907C8F4F093A506E093A406F90198
:10284000718360830FC0CB010E9444127C0100970A
:1028500059F0A801BE010E944014CE010E94D91275
:10286000C70104C0CE0102C080E090E0CDB7DEB762
:10287000EEE00C94A61881E090E0F8940C94CC184B
:10288000FB01DC0102C001900D9241505040D8F78D
:102890000895FB01DC0101900D920020E1F70895FD
:1028A000EF920F931F93CF93DF93E80147FD02C090
:1028B00034E001C034E1E42F440FFF0BF7FF03C005
:1028C000F195E195F109E32E022F2E2FAE010E9422
:1028D0007014CE01DF91CF911F910F91EF90089569
:1028E0004F925F926F927F929F92AF92BF92CF92E0
:1028F000DF92EF92FF920F931F93CF93DF93CDB7A9
:10290000DEB729970FB6F894DEBF0FBECDBF6A01C0
:10291000122FB02E2BE3201720F0FF24F394F00E9B
:1029200002C0BCE3FB2E0F2D27E0AE014F5F5F4FCF
:102930000E94FE15AC018981982F9970913031F079
:10294000E1FC06C0E0FE06C090E205C09DE203C0C7
:102950009BE201C090E0EE2DE07183FF3CC091113D
:1029600002C083E001C084E0811718F4212F281BE6
:1029700001C020E0E1110BC0F601822F30E2882374
:1029800019F031938150FBCFC20ED11C20E0992366
:1029900029F0D6019C93F60131966F01C60103968A
:1029A000E2FE0AC03EE4D6013C9341E411964C930A
:1029B000119712963C9306C03EE6F601308341E63D
:1029C00041833283FC01322F40E2332309F442C0B9
:1029D00041933150FACF82FF44C0911102C083E08D
:1029E00001C084E0811718F4212F281B01C020E0CA
:1029F000E1110BC0F601822F30E2882319F03193E8
:102A00008150FBCFC20ED11C20E0992329F0D601C2
:102A10009C93F60131966F01C6010396E2FE0BC04E
:102A200039E4D6013C933EE411963C93119736E489
:102A300012963C9307C039E6F60130833EE63183B7
:102A400036E63283FC01322F40E2332319F0419302
:102A50003150FBCFFC01E20FF11D10828EEF9FEF92
:102A6000B7C0F1E0911101C0F0E06F2F70E01416D3
:102A7000150624F49A012F5F3F4F02C021E030E099
:102A8000260F371FBB2029F06B2D70E06F5F7F4F43
:102A900002C060E070E0260F371F612F70E026173C
:102AA00037071CF4121B212F01C020E03E2D387186
:102AB00059F4D601322F60E2332319F06D9331506F
:102AC000FBCFC20ED11C20E0FF2331F0D6019C9336
:102AD000B6016F5F7F4F6B01E1110BC0F601922FC2
:102AE00030E3992319F031939150FBCFC20ED11CE2
:102AF00020E09F2D940F3A81782F7071A72E84FFCC
:102B000003C0313309F49150191624F4993018F0A8
:102B100098E001C091E0E42F852F57FF02C0E0E06C
:102B200080E06E2F782FE0E0F0E0AEE29A2E3A01DE
:102B3000691A71082A01461A570A0B2D10E01195DF
:102B4000019511096F3F8FEF780729F4D6019C9208
:102B5000C60101966C014617570784F06616770682
:102B60006CF47F01E40CF51CA1E0B0E0AC0FBD1FDC
:102B7000EA0EFB1ED7011196BC9002C090E3B92E5D
:102B8000615071093196C60101967C016017710789
:102B900024F0D601BC926C01D5CF6417750741F4BF
:102BA000363320F4353321F4A11002C081E3B82E6E
:102BB000F601B082F701822F90E2882319F09193F9
:102BC0008150FBCFF701E20FF11D108280E090E011
:102BD00029960FB6F894DEBF0FBECDBFDF91CF911F
:102BE0001F910F91FF90EF90DF90CF90BF90AF902B
:102BF0009F907F906F905F904F900895283008F0DD
:102C000027E03327DA01990F311D87FD9160009687
:102C10006105710539F432602E5F3D9330E32A95EA
:102C2000E1F708959F3F30F080387105610509F0A4
:102C30003C5F3C5F3D93913008F08068911DDF93CD
:102C4000CF931F930F93FF92EF92192F987F969532
:102C5000E92F96959695E90FFF27E45EFE4F992799
:102C60003327EE24FF24A701E70105900894079479
:102C700028F4360FE71EF81E491F511D660F771FF7
:102C8000881F991F0694A1F70590079428F4E70E72
:102C9000F81E491F561FC11D770F881F991F661FF9
:102CA0000694A1F70590079428F4F80E491F561FC3
:102CB000C71FD11D880F991F661F771F0694A1F7A4
:102CC0000590079420F4490F561FC71FD81F990F6E
:102CD000661F771F881F0694A9F7849110951770B7
:102CE00041F0D695C79557954795F794E7941A956F
:102CF000C1F7E2ECF0E0689415901591359165917B
:102D0000959105907FE27395E118F10A430B560BFC
:102D1000C90BD009C0F7E10CF11E431F561FC91F94
:102D2000D01D7EF4703311F48A95E6CFE8940150FB
:102D300030F0080F0AF40027021708F4202F23951B
:102D4000022F7A3328F079E37D932A95E9F710C0B2
:102D50007D932A9589F606949795679537951795EB
:102D60001794E118F10A430B560BC90BD00998F0E0
:102D700023957E9173957A3308F070E37C9320134A
:102D8000B8F77E9170617D9330F0839571E37D9308
:102D900070E32A95E1F71124EF90FF900F911F91B6
:102DA000CF91DF91992787FD909508950E9418177C
:102DB00008F481E00895E89409C097FB3EF49095EB
:102DC0008095709561957F4F8F4F9F4F9923A9F004
:102DD000F92F96E9BB279395F69587957795679593
:102DE000B795F111F8CFFAF4BB0F11F460FF1BC0D7
:102DF0006F5F7F4F8F4F9F4F16C0882311F096E96A
:102E000011C0772321F09EE8872F762F05C0662317
:102E100071F096E8862F70E060E02AF09A95660FD0
:102E2000771F881FDAF7880F9695879597F9089589
:102E3000990F0008550FAA0BE0E8FEEF16161706CB
:102E4000E807F907C0F012161306E407F50798F033
:102E5000621B730B840B950B39F40A2661F0232B4C
:102E6000242B252B21F408950A2609F4A140A695C8
:102E70008FEF811D811D08950E944F170C94C0177C
:102E80000E94B21738F00E94B91720F0952311F074
:102E90000C94A9170C94AF1711240C94F4170E94EA
:102EA000D11770F3959FC1F3950F50E0551F629FA6
:102EB000F001729FBB27F00DB11D639FAA27F00D93
:102EC000B11DAA1F649F6627B00DA11D661F829FBA
:102ED0002227B00DA11D621F739FB00DA11D621F9F
:102EE000839FA00D611D221F749F3327A00D611DBC
:102EF000231F849F600D211D822F762F6A2F11249E
:102F00009F5750409AF0F1F088234AF0EE0FFF1FD0
:102F1000BB1F661F771F881F91505040A9F79E3F27
:102F2000510580F00C94A9170C94F4175F3FE4F35B
:102F3000983ED4F3869577956795B795F795E7957D
:102F40009F5FC1F7FE2B880F911D9695879597F986
:102F5000089597F99F6780E870E060E008959FEF1B
:102F600080EC089500240A94161617061806090620
:102F7000089500240A9412161306140605060895EF
:102F8000092E0394000C11F4882352F0BB0F40F477
:102F9000BF2B11F460FF04C06F5F7F4F8F4F9F4FB7
:102FA000089557FD9058440F551F59F05F3F71F039
:102FB0004795880F97FB991F61F09F3F79F08795A0
:102FC0000895121613061406551FF2CF4695F1DF29
:102FD00008C0161617061806991FF1CF86957105B9
:102FE000610508940895E894BB2766277727CB01ED
:102FF00097F90895DC01CB01FC01F999FECF06C0D9
:10300000F2BDE1BDF89A319600B40D9241505040A6
:10301000B8F70895F999FECF92BD81BDF89A992726
:1030200080B50895DC01CB0103C02D910E941D18CD
:1030300041505040D0F70895262FF999FECF1FBA7E
:1030400092BD81BD20BD0FB6F894FA9AF99A0FBED1
:1030500001960895DB018F939F930E947B18BF9187
:10306000AF91A29F800D911DA39F900DB29F900DD7
:1030700011240895A1E21A2EAA1BBB1BFD010DC04D
:10308000AA1FBB1FEE1FFF1FA217B307E407F50718
:1030900020F0A21BB30BE40BF50B661F771F881FF4
:1030A000991F1A9469F760957095809590959B018A
:1030B000AC01BD01CF010895052E97FB1EF40094CD
:1030C0000E94731857FD07D00E943A1807FC03D0DE
:1030D0004EF40C94731850954095309521953F4FC0
:1030E0004F4F5F4F089590958095709561957F4FF4
:1030F0008F4F9F4F08950E94BD18A59F900DB49FBC
:10310000900DA49F800D911D112408952F923F9240
:103110004F925F926F927F928F929F92AF92BF92E7
:10312000CF92DF92EF92FF920F931F93CF93DF9393
:10313000CDB7DEB7CA1BDB0B0FB6F894DEBF0FBEF0
:10314000CDBF09942A88398848885F846E847D843D
:103150008C849B84AA84B984C884DF80EE80FD803F
:103160000C811B81AA81B981CE0FD11D0FB6F894B5
:10317000DEBF0FBECDBFED010895A29FB001B39F8A
:10318000C001A39F700D811D1124911DB29F700D70
:10319000811D1124911D089510E0CFEDD0E004C0F1
:1031A000FE010E941F112196C03ED107C9F7F89475
:0231B000FFCF4F
:1031B2000C000C000C000C000C000C0006000300BC
:1031C2000C000C000C000C000C000C0006000300AC
:1031D2000C000C000C000C000C000C00060003009C
:1031E2000C000C000C000C000C000C000600060089
:1031F2001200120012000600060006000600060079
:1032020006001200120012001200120012000A0040
:103212000A000A000A000A000A0003000300030071
:1032220006010B02DC00B801E900D2010000000037
:1032320006010B02DC00B801E900D2010000000027
:10324200AF005D01930026019C00370100000000E1
:10325200AF005D01930026019C00370100000000D1
:10326200370115012601150137013701D000C400CD
:103272001501060172015D01A500D201B8019F018D
:103282003701F700E900DC00D00000000000000078
:103292000C000C000C000C000C000C000C000C00CC
:1032A2000C000C000C000C000C000C000C000C00BC
:1032B2000C000C000C000C000C000C000C000C00AC
:1032C2000C000C000C000C000C000C000C000C009C
:1032D2000900090009000C000C000C000C000C0095
:1032E2000C000C000C000C000C000C000C000C007C
:1032F2000C000C000C000C000C000C000C000C006C
:103302000C000C000C000C000C000C000C0009005E
:10331200090009000C000C000C000C000C000C0051
:103322000C000C000C000C000C000C004D0A4D0AA5
:1033320000004D0A00002D084D0A0000400C00005C
:103342000000000020060000000000002D08000020
:103352000000200600000000270500000000E00633
:103362000000B80700004907E006000020064D0AE9
:10337200400CC00D0000EA0A400C00004D0A00009B
:103382002D082D09B807000000002D0800000000DC
:10339200200600000000270500000000E0060000F3
:1033A200B80700004907E006000020064D0A400C5D
:1033B200C00D0000EA0A400C00004D0A00002D0872
:1033C2002D09B807000000001F1F1F1F1F1F1F1F0E
:1033D2001E1E1E1E1E1E1E1E1C1C1C1C1C1C1C1C1B
:1033E200181818181818181810101010101010109B
:1033F200010000A80680000100000000000000AEED
:10340200060A01F505D305E705F5060000000010E0
:103412000A0A0100000000000959066E616E006987
:103422006E66006F766600564D4450565F317C31B1
:103432005F564D4450560D0A0053657269616C2007
:103442004F4B2100494E494349414E444F002E0003
:10345200202754656D61205072696E636970616CDA
:10346200204D6172696F2700202754656D61204DE0
:103472006172696F20556E646572776F726C642732
:10348200004D4F444F2043414C4942524143414F2A
:103492000042414C414E43412043414C494252413A
:1034A200444100474152524146412056415A494106
:1034B20000476172726166612076617A69613A20C1
:1034C2000047415252414641204348454941004745
:1034D2006172726166612063686569613A200050B9
:1034E20065736F206E612062616C616E63613A2068
:1034F200005175616E74696461646520636166651B
:1035020020286C74293A2000536974756163616FD5
:1035120020646120676172726166613A20002D2D1C
:103522002D2D2D2D2D2D2D2D2D2D2D2D2D2D2D2DC9
:103532002D2D2D2D2D2D2D2D2D2D2D2D2D2D2D2DB9
:103542002D2D2D2D2D0053494C454E434941444FBD
:10355200202800204C00206D4C00202529006D6998
:103562006C6C69733A2000202F2000416C61726DEF
:10357200652073696C656E636961646F206174654F
:103582003A200053454D2047415252414641004E98
:103592004956454C204352495449434F0043414602
:1035A200452041434142414E444F0054454D204342
:1035B20041464500504547414E444F204341464510
:1035C20000454550524F4D206C69646F3A200045CA
:1035D2004550524F4D204772617661646F3A200028
:1035E20054616D616E686F206D75736963613A0035
:00000001FF
