:100000000C94E0000C9408010C9408010C94080175
:100010000C9408010C9408010C9408010C9408013C
:100020000C9408010C9408010C9408010C9408012C
:100030000C9408010C9408010C9408010C9408011C
:100040000C9408080C9408010C94E5060C94BF0667
:100050000C9408010C9408010C9408010C940801FC
:100060000C9408010C9408010000000024002700F3
:100070002A0000000000250028002B0000000000DE
:1000800023002600290004040404040404040202DA
:100090000202020203030303030301020408102007
:1000A0004080010204081020010204081020000012
:1000B0000008000201000003040700000000000027
:1000C000000000407A10F35A00A0724E1809001088
:1000D000A5D4E80000E87648170000E40B540200BD
:1000E00000CA9A3B000000E1F505000080969800E8
:1000F000000040420F000000A08601000000102711
:1001000000000000E80300000000640000000000A0
:100110000A00000000000100000000002C76D888D2
:10012000DC674F0823DFC1DFAE59E1B1B796E5E3E5
:10013000E453C63AE651997696E8E6C28426EB89FE
:100140008C9B62ED407C6FFCEFBC9C9F40F2BAA59B
:100150006FA5F490055A2AF75C936B6CF9676DC133
:100160001BFCE0E40D47FEF520E6B500D0ED902E37
:100170000300943577050080841E080000204E0A95
:10018000000000C80C333333330F986E12831141D3
:10019000EF8D2114893BE65516CFFEE6DB18D1849E
:1001A0004B381BF77C1D901DA4BBE42420328472C5
:1001B0005E228100C9F124ECA1E53D27910F820F59
:1001C00011241FBECFEFD8E0DEBFCDBF15E0A0E009
:1001D000B1E0ECE8F1E302C005900D92A434B10760
:1001E000D9F726E0A4E4B5E001C01D92AD3AB2070C
:1001F000E1F710E0CFEDD0E004C02197FE010E94AE
:100200000C11CE3DD107C9F70E94420A0C94B918CF
:100210000C940000CF92DF92EF92FF920F931F9306
:10022000CF93DF936C017A018B01C0E0D0E0CE1553
:10023000DF0589F0D8016D918D01D601ED91FC911A
:100240000190F081E02DC6010995892B11F47E0102
:1002500002C02196ECCFC701DF91CF911F910F9182
:10026000FF90EF90DF90CF90089588E895E00E948E
:10027000CF0521E0892B09F420E0822F0895FC01AD
:100280001182108213821282158214826115710507
:1002900051F0FB0101900020E9F73197AF01461BB7
:1002A000570B0C9405050895DC01ED91FC9101902C
:1002B000F081E02D09946115710579F0FB01019041
:1002C0000020E9F73197AF01461B570BDC01ED9198
:1002D000FC910280F381E02D099480E090E0089584
:1002E0004F925F926F927F92EF92FF920F931F93C4
:1002F000CF93DF93CDB7DEB7A1970FB6F894DEBFEB
:100300000FBECDBF7C01FA01CB0119A2223008F447
:100310002AE08E010F5D1F4F422E512C612C712C53
:10032000BF01A30192010E942718F901CA010150DF
:1003300011096A3014F4605D01C0695CD8016C93E6
:10034000232B242B252B61F7B801C7010E945B01E9
:10035000A1960FB6F894DEBF0FBECDBFDF91CF914F
:100360001F910F91FF90EF907F906F905F904F9053
:1003700008954F925F926F927F928F929F92AF9269
:10038000BF92CF92DF92EF92FF92CF93DF93EC0177
:100390006A017B01B22E9A01AB01C701B6010E942E
:1003A0002C12882319F06AE673E027C02601370172
:1003B000E89477F82FEF3FEF4FE75FE7C301B20113
:1003C0000E942C1281110DC02FEF3FEF4FE75FE726
:1003D000C301B2010E94C31618161CF46EE673E046
:1003E0000CC02FEF3FEF4FE75FE4C701B6010E945B
:1003F000271218169CF462E773E0CE01DF91CF91CB
:10040000FF90EF90DF90CF90BF90AF909F908F9034
:100410007F906F905F904F900C945B012FEF3FEFB8
:100420004FE75FECC701B6010E94C31687FDE3CF1B
:1004300020E030E0A901C701B6010E94C31687FF82
:100440000AC06DE2CE010E9454014C01F7FAF0940B
:10045000F7F8F09402C0812C912CA12C60E070E0A0
:1004600080E09FE3AB1441F020E030E040E251E453
:100470000E947F11A394F6CF9B01AC01C701B60186
:100480000E9413112B013C010E94F8116B017C01A9
:100490000E94C8169B01AC01C301B2010E94121157
:1004A0002B013C012AE0B701A601CE010E94700198
:1004B0007C01E80CF91CBB2031F06EE2CE010E94F9
:1004C0005401E80EF91EDB2CDD2029F120E030E09C
:1004D00040E251E4C301B2010E9429172B013C0103
:1004E0000E94F8114B01A12CB12C2AE0B501A40106
:1004F000CE010E947001E80EF91EC501B4010E94F0
:10050000C8169B01AC01C301B2010E9412112B015C
:100510003C01DA94D9CFC701DF91CF91FF90EF90E2
:10052000DF90CF90BF90AF909F908F907F906F9013
:100530005F904F9008950C945B010E942814E8E8A6
:10054000F5E0A089B18982E08C93A485B5851C92E1
:10055000A685B78580E18C93108EA489B58986E045
:100560008C93A289B3898C9180618C93A289B38981
:100570008C9188608C93A289B3898C9180688C93CC
:100580000288F389E02D80818F7D80830895643017
:1005900008F063E090915E05691710F06FEF690F46
:1005A000E62FF0E0E55BFA4F9489682F690F6068E9
:1005B0008BE495E00C94160AEF92FF920F931F9331
:1005C000CF93DF93EC01423018F08F8588608F87DE
:1005D0004B8B1C8A80E48D8B6E8B70E0605C7F4F50
:1005E0006F8B61E08C810E9486078D818F3F19F0AF
:1005F00061E00E94860761E08E810E9486077E018D
:1006000087E0E80EF11C00E010E08F8584FD03C058
:1006100084E090E002C088E090E0081719074CF4ED
:1006200061E0F70181917F010E9486070F5F1F4FF4
:10063000ECCF8BE39DE00197F1F760E08C810E94A5
:10064000400760E08E810E9440078D818F3F19F046
:1006500060E00E9440076F8564FD1DC063E0CE012D
:100660000E9490090BE416E4C8010197F1F763E0DA
:10067000CE010E949009C8010197F1F763E0CE0115
:100680000E94900983E592E00197F1F762E0CE01C4
:100690000E94900916C06062CE010E94160A8BE487
:1006A00096E40197F1F76F856062CE010E94160A09
:1006B00083E592E00197F1F76F856062CE010E94B9
:1006C000160A6F856062CE010E94160A84E0888B4C
:1006D0006CE0CE010E94160ACE010E94190A82E047
:1006E000898B66E0CE01DF91CF911F910F91FF9032
:1006F000EF900C94160ACF93DF93BC0188E895E045
:100700000E945B01EC0165E873E088E895E00E94D7
:100710005B018C0F9D1FDF91CF910895EF92FF92A7
:100720000F931F93CF93DF931F92CDB7DEB7162F92
:10073000877028E0829FC0011124682F60648BE4D9
:1007400095E079830E94160AE12E7981F72E8701C0
:10075000085F1F4FF70161917F018BE495E00E94D4
:10076000100AE016F106B1F70F90DF91CF911F91BB
:100770000F91FF90EF900895CF93DF93FC01448198
:1007800055816081718188E895E00E940A01EC0141
:1007900065E873E088E895E00E945B018C0F9D1F7F
:1007A000DF91CF910895CF93DF93AB01BC0122E09D
:1007B00088E895E00E94B901EC0165E873E088E8FB
:1007C00095E00E945B018C0F9D1FDF91CF910895F2
:1007D000FF920F931F93CF93DF93F82E062FC7E05E
:1007E000D0E010E061E0802F0E9440078F2D0E9432
:1007F00017070C2E01C0880F0A94EAF7182B60E047
:10080000802F0E944007219768F7812FDF91CF91B9
:100810001F910F91FF900895CF92DF92EF92FF9278
:1008200060E0809177060E94400761E08091770642
:100830000E94400760916F0670917006072E000CB1
:10084000880B990B0E94C20760E0809177060E9496
:10085000400785E796E00E94AB08C0907A06D090EA
:100860007B06E0907C06F0907D066C197D098E0970
:100870009F090E94CA1620917E0630917F06409102
:100880008006509181060E947F112DEC3CEC4CECCF
:100890005DE30E9429176B017C012AE037ED43E2FA
:1008A0005CE30E94C31687FF0DC02AE037ED43E2E8
:1008B0005CEBC701B6010E94271218161CF4C12C6C
:1008C000D12C7601C0927106D0927206E092730626
:1008D000F0927406C701B601FF90EF90DF90CF90C1
:1008E0000895CF92DF92EF92FF92CF93DF936C0146
:1008F000990FEE08FF08F7FE16C06DE288E895E054
:100900000E945401EC0144275527BA014C195D0996
:100910006E097F092AE088E895E00E9470017C0159
:10092000EC0EFD1E08C02AE0B701A60188E895E09C
:100930000E9470017C0165E873E088E895E00E9400
:100940005B018E0D9F1DDF91CF91FF90EF90DF90A7
:10095000CF9008958F929F92AF92BF92CF92DF92E5
:10096000EF92FF920F931F93CF93DF934B015C01A4
:10097000CA01B901A50194010E94171828EE33E0BD
:1009800040E050E00E94491869017A0160E271EA92
:1009900087E090E0A50194010E9449188901C901EE
:1009A000880F991F880F991FEC012597812C912C96
:1009B00054018C149D04AE04BF04D4F461E083E1BF
:1009C0000E9440070230110518F0CE010197F1F79F
:1009D00060E083E10E9440070230110518F0CE016B
:1009E0000197F1F78FEF881A980AA80AB80AE1CFA1
:1009F000DF91CF911F910F91FF90EF90DF90CF90FB
:100A0000BF90AF909F908F900895EF92FF920F93B9
:100A10001F93CF93DF93EC017B018A018881998139
:100A2000009729F02A813B8124173507F8F4B80193
:100A30006F5F7F4F0E945E13009759F09983888300
:100A40001B830A832C813D81232B81F4FC011082BE
:100A50000DC088819981009711F00E94C6121982F9
:100A600018821D821C821B821A8207C01D830C8380
:100A7000B701888199810E943614CE01DF91CF9110
:100A80001F910F91FF90EF900895FC01808191815B
:100A90000C94C612EF92FF920F931F93CF93DF93A4
:100AA000CDB7DEB7A1970FB6F894DEBF0FBECDBFAE
:100AB0007C01CB01BA01F7011182108213821282EC
:100AC0001582148242E0420F8E010F5F1F4F0E9479
:100AD0003D14009769F0FC0101900020E9F731977F
:100AE000AF01481B590BBC01C7010E9405050EC090
:100AF000F70180819181009711F00E94C612F701E1
:100B0000118210821582148213821282A1960FB66E
:100B1000F894DEBF0FBECDBFDF91CF911F910F9133
:100B2000FF90EF900895FB01DC0111961C921E923C
:100B300013961C921E92129715961C921E92149751
:100B40008617970749F0608171816115710521F061
:100B5000448155810C9405050895FC01918D828D89
:100B6000981761F0828DDF01A80FB11D5D968C9101
:100B7000928D9F5F9F73928F90E008958FEF9FEF0C
:100B80000895FC01918D828D981731F0828DE80FC8
:100B9000F11D858D90E008958FEF9FEF0895FC0182
:100BA000918D228D892F90E0805C9F4F821B91094F
:100BB0008F7399270895FC01848DDF01A80FB11D63
:100BC000A35ABF4F2C91848D90E001968F73992783
:100BD000848FA689B7892C93A089B1898C91806470
:100BE0008C93938D848D981306C00288F389E02D31
:100BF00080818F7D80830895EF92FF920F931F93E2
:100C0000CF93DF93EC0181E0888F9B8D8C8D9813BF
:100C100005C0E889F989808185FD24C0F62E0B8DF9
:100C200010E00F5F1F4F0F731127E02E8C8DE8121D
:100C30000CC00FB607FCFACFE889F989808185FFDF
:100C4000F5CFCE010E94DB05F1CF8B8DFE01E80FC1
:100C5000F11DE35AFF4FF0820B8FEA89FB898081F7
:100C6000806207C0EE89FF896083E889F989808105
:100C70008064808381E090E0DF91CF911F910F919C
:100C8000FF90EF900895CF93DF93EC01888D882338
:100C9000C9F0EA89FB89808185FD05C0A889B989E9
:100CA0008C9186FD0FC00FB607FCF5CF808185FFC4
:100CB000F2CFA889B9898C9185FFEDCFCE010E9432
:100CC000DB05E7CFDF91CF91089580E090E0892B9D
:100CD00029F00E94350181110C94000008958330A1
:100CE00081F028F4813099F08230A1F008958730A6
:100CF000A9F08830B9F08430D1F4809180008F7DE4
:100D000003C0809180008F7780938000089584B520
:100D10008F7702C084B58F7D84BD08958091B00027
:100D20008F7703C08091B0008F7D8093B0000895CD
:100D30003FB7F8948091A5069091A606A091A706CA
:100D4000B091A80626B5A89B05C02F3F19F00196C3
:100D5000A11DB11D3FBFBA2FA92F982F8827820F41
:100D6000911DA11DB11DBC01CD0142E0660F771F91
:100D7000881F991F4A95D1F708950C94C6121F92A7
:100D80000F920FB60F9211242F933F934F935F93BF
:100D90006F937F938F939F93AF93BF93EF93FF9343
:100DA00088E895E00E94DB05FF91EF91BF91AF913C
:100DB0009F918F917F916F915F914F913F912F9173
:100DC0000F900FBE0F901F9018951F920F920FB6A5
:100DD0000F9211242F938F939F93EF93FF93E091A2
:100DE0009805F09199058081E0919E05F0919F050D
:100DF00082FD12C090818091A1058F5F8F73209139
:100E0000A205821751F0E091A105F0E0E857FA4FF2
:100E1000958F8093A10501C08081FF91EF919F91F3
:100E20008F912F910F900FBE0F901F901895CF9319
:100E3000DF93282F30E0F901E255FF4F8491F9014B
:100E4000E656FF4FD491F901EA57FF4FC491CC23E6
:100E500091F081110E946F06EC2FF0E0EE0FFF1F62
:100E6000E458FF4FA591B491EC91ED2381E090E01F
:100E700021F480E002C080E090E0DF91CF910895FE
:100E80001F93CF93DF93282F30E0F901E255FF4FF6
:100E90008491F901E656FF4FD491F901EA57FF4FCB
:100EA000C491CC23C9F0162F81110E946F06EC2F3C
:100EB000F0E0EE0FFF1FEE58FF4FA591B4918FB7F2
:100EC000F894111105C09C91ED2FE095E92302C023
:100ED000EC91ED2BEC938FBFDF91CF911F91089593
:100EE000CF93DF93EC0160E08E810E94400761E0C8
:100EF0008E810E94400760E08E810E9440078BE84F
:100F000091E00197F1F7DF91CF910895CF93DF93AF
:100F100090E0FC01E656FF4F2491FC01EA57FF4F99
:100F20008491882361F190E0880F991FFC01E859B2
:100F3000FF4FC591D491FC01EE58FF4FA591B4919C
:100F4000611109C09FB7F894888120958223888316
:100F5000EC912E230BC0623061F49FB7F894388176
:100F6000822F809583238883EC912E2B2C939FBF17
:100F700006C08FB7F894E8812E2B28838FBFDF91AE
:100F8000CF9108958F929F92AF92BF92CF92DF92AE
:100F9000EF92FF926B017C010E9498064B015C016D
:100FA000C114D104E104F104F1F00E949806DC01BF
:100FB000CB0188199909AA09BB09883E9340A1056C
:100FC000B10570F321E0C21AD108E108F10888EEFA
:100FD000880E83E0981EA11CB11CC114D104E10449
:100FE000F10419F7DDCFFF90EF90DF90CF90BF9025
:100FF000AF909F908F9008952FB7F8946091A106BD
:101000007091A2068091A3069091A4062FBF089527
:101010001F920F920FB60F9211242F933F938F932D
:101020009F93AF93BF938091A1069091A206A09148
:10103000A306B091A4063091A00623E0230F2D371C
:1010400020F40196A11DB11D05C026E8230F0296CC
:10105000A11DB11D2093A0068093A1069093A20626
:10106000A093A306B093A4068091A5069091A6062E
:10107000A091A706B091A8060196A11DB11D80936D
:10108000A5069093A606A093A706B093A806BF91C5
:10109000AF919F918F913F912F910F900FBE0F9025
:1010A0001F9018950F931F93CF93DF938C01CB0163
:1010B000BA0120E030E04AE754E40E9429170E9478
:1010C000F111D62FC72FC8010E9409186C2FC80133
:1010D00001960E94091863E275E088E895E00E9495
:1010E0009B028D2F9C2F0E94710481E0DF91CF9194
:1010F0001F910F910895CF92DF92EF92FF92CF93BD
:101100007C010E94F717C82FC70101960E94F717AC
:101110006C2F70E0782B072E000C880B990B0E9427
:10112000CA1620E030E04AE754E40E947F116B01C8
:101130007C0165E175E088E895E00E949B02C701AB
:10114000B6010E94D303C701B601CF91FF90EF9083
:10115000DF90CF900895DF92EF92FF920F931F934D
:10116000CF93DF93EC018B810E941707892BD9F76E
:101170006A818B810E94E803082F6A818B810E941B
:10118000E803182F6A818B810E94E803D82EE12C96
:10119000F12C2C8130E0E216F30660F461E08A81E4
:1011A0000E94400760E08A810E9440072FEFE21A08
:1011B000F20AEFCF812F90E0A0E0B0E0BA2FA92F84
:1011C000982F8827A02BAC01BD014D29802F880FB7
:1011D000880B90E0A0E0B0E0B82FAA2799278827D5
:1011E0008A019B01082B192B2A2B3B2BC901B80123
:1011F000DF91CF911F910F91FF90EF90DF900895B5
:1012000008954F925F926F927F928F929F92AF92CA
:10121000BF92CF92DF92EF92FF920F931F93CF93E3
:10122000DF9300D0CDB7DEB7B62EA72E6901498374
:101230005A830E94BC0364E375E088E895E00E944D
:101240009B02C6010E9471044981E42E5A81F52E49
:101250000B2D1A2D812C912C88EEA82E83E0B82E10
:101260008C149D040CF049C087E0881691048CF022
:1012700086E00E9417072C018AE00E9417073C01B4
:1012800089E00E9417074528C1F16728B1F1892B31
:10129000A1F1F701619171917F01C5010E94DD10FB
:1012A0002B01770F66087708F801619171918F0122
:1012B000072E000C880B990BA30192010E94AA042F
:1012C000C301B2010E94CA1626E636E646EA5FE38B
:1012D0000E9429170E94F111072E000C880B990B10
:1012E0000E94C207A301920160E070E0CB010E945E
:1012F000AA04FFEF8F1A9F0AB3CF0F900F90DF91D0
:10130000CF911F910F91FF90EF90DF90CF90BF9002
:10131000AF909F908F907F906F905F904F900895C7
:10132000CF92DF92EF92FF920F931F93CF93DF93B1
:101330007C016C0187E0C80ED11CC0E0D0E0062F14
:1013400010E0B8010C2E02C0759567950A94E2F77B
:101350006170F60181916F010E9440072196C430AF
:10136000D10579F7C701DF91CF911F910F91FF90C0
:10137000EF90DF90CF900C947007CF92DF92EF92B6
:10138000FF920F931F93CF93DF93EC01F62E642F00
:101390008C810E9440078D818F3F19F060E00E9490
:1013A00040078F850F2D10E084FF25C06E0187E078
:1013B000C80ED11CE12CF12CB8010E2C02C0759581
:1013C00067950A94E2F76170F60181916F010E94BE
:1013D0004007FFEFEF1AFF0A88E0E816F10461F713
:1013E000CE01DF91CF911F910F91FF90EF90DF9091
:1013F000CF900C947007B80184E0759567958A9535
:10140000E1F7CE010E9490096F2DCE01DF91CF91BF
:101410001F910F91FF90EF90DF90CF900C94900967
:1014200041E00E94BD0981E090E0089540E00C9405
:10143000BD0961E00E94160A8BE39FE10197F1F775
:1014400008950F931F93CF93DF931F92CDB7DEB70D
:101450008C01442331F08BE495E069830E94190AE2
:10146000698180E00E94C702F80144815581608152
:1014700071818BE495E00F90DF91CF911F910F91D7
:101480000C940A01CF93DF93CDB7DEB72C970FB63C
:10149000F894DEBF0FBECDBF789484B5826084BD62
:1014A00084B5816084BD85B5826085BD85B5816068
:1014B00085BD80916E00816080936E0010928100E6
:1014C00080918100826080938100809181008160A1
:1014D0008093810080918000816080938000809162
:1014E000B10084608093B1008091B00081608093EE
:1014F000B00080917A00846080937A0080917A00B5
:10150000826080937A0080917A00816080937A0073
:1015100080917A00806880937A001092C1001092C6
:10152000690610926A0610926B0610926C06109271
:101530002706109228061092290610922A0660EDBE
:1015400077E080E090E00E94C20788E895E0909301
:101550006806809367060E949F020E94FC076093C2
:101560002706709328068093290690932A0666E73B
:1015700073E080916706909168060E949B026AE082
:1015800070E080E090E00E94C20781E080933B061B
:101590000E949F0288E893E00E947B0344E064E19C
:1015A0008BE495E00E94DC0260E080E00E94C702CC
:1015B00061E082E10E94860763E973E08BE495E0D5
:1015C0000E949B020BE010E064E670E080E090E097
:1015D0000E94C2076DE973E08BE495E00E949B02D4
:1015E0000150110989F79924939486E00E94170706
:1015F0007C018AE00E9417076C0189E00E941707AE
:101600008C01CD2851F5892B41F56FE973E0CE01AE
:1016100001960E943F012EE430E040EE51E06CE77D
:1016200072E0CE0101960E940109CE0101960E944E
:10163000450567EB73E0CE0101960E943F0128E368
:1016400030E040E051E060E771E0CE0101960E9499
:101650000109CE0101960E94450580916B05882302
:1016600009F417C160ED73E0CE0101960E943F01BD
:1016700041E060E070E0CE0101960E94210ACE01B7
:1016800001960E94450580916B05882309F407C1E6
:1016900086E00E9417076C018AE00E9417077C0110
:1016A00089E00E9417078C01CD2809F04DC09AE00F
:1016B000D92E412C512C320185E796E00E94AB08CF
:1016C000460E571E681E791EDA94D110F5CFC3015D
:1016D000B2012AE030E040E050E00E944918CA011F
:1016E000B9010E94CA162B013C0169837A838B835E
:1016F0009C8344E050E064E070E0CE0101960E94DB
:10170000FF17C301B2010E94F11160937A06709332
:101710007B0680937C0690937D0660EE73E0CE019D
:1017200001960E943F0141E060E070E0CE01019629
:101730000E94210ACE0101960E94450580EE93E0A9
:101740000E947B0310926B05EF2809F04FC00E94A6
:101750000C04AB01BC0180E090E00E94520880E0E4
:1017600090E00E947B0860938405709385058093C8
:1017700086059093870562EF73E0CE0101960E9483
:101780003F0141E060E070E0CE0101960E94210A35
:10179000CE0101960E944505409184055091850532
:1017A000609186057091870522E0CE0101960E9426
:1017B0004A0540E061E070E0CE0101960E94210AF6
:1017C000CE0101960E94450560E074E088E895E04E
:1017D0000E949B0260918405709185058091860529
:1017E000909187050E94D30310926B05012B09F09D
:1017F0004ACF0E940C04AB01BC0182E090E00E9441
:10180000520882E090E00E947B0860936305709329
:101810006405809365059093660560E174E0CE01F0
:1018200001960E943F0141E060E070E0CE01019628
:101830000E94210ACE0101960E9445054091630550
:1018400050916405609165057091660522E0CE01B6
:1018500001960E944A0540E061E070E0CE010196E9
:101860000E94210ACE0101960E9445056EE174E0B6
:1018700088E895E00E949B02609163057091640581
:1018800080916505909166050E94D30310926B05C7
:10189000FACEEF2821F4012B11F490926B052091E0
:1018A00084053091850540918605509187056091AA
:1018B00063057091640580916505909166050E94AD
:1018C0001211609367057093680580936905909382
:1018D0006A050E940C042091840530918505409191
:1018E0008605509187050E941211609380057093C0
:1018F000810580938205909383052091670530913F
:1019000068054091690550916A050E947F116B013D
:101910007C0160937C0570937D0580937E05909398
:101920007F05409078055090790560907A05709019
:101930007B05A301920160E070E0CB010E941211CF
:101940009B01AC01C701B6010E94C31618167CF5B5
:1019500020916C0530916D0540916E0550916F0599
:10196000C701B6010E94C31687FD24C020917005EF
:10197000309171054091720550917305C701B60110
:101980000E94C31687FD19C020E030E040E85FE305
:10199000C301B2010E9413119B01AC01C701B60142
:1019A0000E94C316181664F404E010E00BC000E0B7
:1019B00010E008C001E010E005C002E010E002C045
:1019C00003E010E026E0209FC001219F900D11242C
:1019D0009C012E57394F5901B901CE0107960E943B
:1019E000930520918405309185054091860550919D
:1019F00087056091630570916405809165059091FC
:101A000066050E94121160936705709368058093C4
:101A1000690590936A050E940C0420918405309119
:101A2000850540918605509187050E9412112B0172
:101A30003C016093800570938105809382059093AB
:101A400083052091670530916805409169055091A3
:101A50006A050E947F116B017C0160937C05709385
:101A60007D0580937E0590937F05209174053091CC
:101A700075054091760550917705C301B2010E942A
:101A800029172B013C0120E030E0A9010E94C31678
:101A900087FF03C0412C512C320160E074E088E8DC
:101AA00095E00E949B02609184057091850580916C
:101AB0008605909187050E94D3036EE274E088E862
:101AC00095E00E949B026091710670917206809170
:101AD0007306909174060E94D30360E474E088E872
:101AE00095E00E949B02C301B2010E94D30367E507
:101AF00074E088E895E00E949B02CE0107960E9460
:101B0000BC038DE694E00E947B0320E030E040E8D7
:101B10005FE3C701B6010E94271218166CF020E09F
:101B200030E0A901C701B6010E94C31687FF0AC0B1
:101B3000C12CD12C760106C0C12CD12C80E8E82E16
:101B40008FE3F82E8BE495E00E94190A60E080E0B4
:101B50000E94C702B501CE0101960E9493056981DA
:101B60007A818BE495E00E949B020230110551F4CA
:101B7000BB24B3948091490590914A05059771F073
:101B8000B12C0CC00130110599F480914905909158
:101B90004A0562E070E00E94DD10B82E6B2D82E1F4
:101BA0000E94400780914805811114C06B2D0CC024
:101BB0000115110559F461E082E10E94400780910E
:101BC0004805811107C061E083E102C060E082E165
:101BD0000E94400780914805882309F447C060E0CF
:101BE00083E10E94400762E080E00E94C702C0904B
:101BF0004405D0904505E0904605F09047050E94C9
:101C0000FC07A7019601261B370B480B590B121630
:101C10001306140615069CF40E94FC07A701960102
:101C2000261B370B480B590BCA01B90128EE33E0CC
:101C300040E050E00E94271869017A0103C0C12CDE
:101C4000D12C760165E974E08BE495E00E949B025B
:101C50002AE0B701A6018BE495E00E94700160EBD9
:101C600074E08BE495E00E949B02B3C00B7F012BD4
:101C700009F4AFC062E080E00E94C70220E030E0DB
:101C800040E85FE3C301B2010E94271287FD0AC04A
:101C900022E0B301A2018BE495E00E94B90162EA5F
:101CA00074E011C020E030E04AE754E4C301B2011F
:101CB0000E942917AB01BC0120E08BE495E00E9453
:101CC000B9016AEA74E08BE495E00E949B026FE937
:101CD00074E08BE495E00E949B0220E030E048EC49
:101CE00052E4C701B6010E9429176B017C0120E074
:101CF000AB01BC018BE495E00E94B9016EEA74E08F
:101D00008BE495E00E949B0268E373E081E00E940F
:101D10008E0360E373E082E00E948E0368E273E06A
:101D200083E00E948E0360E273E084E00E948E03F1
:101D300068E173E085E00E948E03C701B6010E944E
:101D4000F1112B013C01DB0124E130E00E94F11094
:101D500024E630E040E050E00E94491869017A0131
:101D60001901D20120E530E00E94F11024E630E0B4
:101D700040E050E00E9449181BEFB60116035001E5
:101D8000179FB00C1124A20EB31E1C141D041E04B8
:101D90001F046CF063E08C2D0E94C7021A141B0410
:101DA000C4F46A2D8BE495E00E94100A12C0612CE5
:101DB000712C63E0862D0E94C70265E08BE495E0FC
:101DC0000E94100A2FEF621A720A621473048CF3D5
:101DD000E1CF8091490590914A05873091052CF01B
:101DE00010924A051092490505C0019690934A0544
:101DF0008093490586E00E9417077C018AE00E94D3
:101E000017078C0189E00E941707EF2809F44EC0DC
:101E1000012B09F44BC0892B09F448C00E94FC0730
:101E200000914405109145052091460530914705E4
:101E3000061717072807390710F4109248058091F4
:101E40004805882341F162EB74E088E895E00E9440
:101E50009B020E94FC07AB01BC012AE088E895E0E8
:101E60000E9470016BEB74E088E895E00E949B0291
:101E70004091440550914505609146057091470594
:101E80002AE088E895E00E94700165E873E088E840
:101E900095E00E945B01CE0101960E944505CE01AE
:101EA00007960E9445050E9465069FCB0E94FC078D
:101EB000DC01CB01805D9A48AF4FBF4F8093440552
:101EC00090934505A0934605B09347059092480529
:101ED0006FEB74E088E895E00E949B024091440516
:101EE0005091450560914605709147052AE088E8C4
:101EF00095E00E94700165E873E088E895E00E9433
:101F00005B018CCFCF93DF93C0EAD6E02697CE015A
:101F10000E94450586E0C238D807C1F7DF91CF910E
:101F20000895CF92DF92EF92FF920F931F93CF937A
:101F3000DF93CDB7DEB761970FB6F894DEBF0FBE63
:101F4000CDBFE8E8F5E01382128288EE93E0A0E0CE
:101F5000B0E084839583A683B7838EE493E0918376
:101F6000808385EC90E09587848784EC90E0978768
:101F7000868780EC90E0918B808B81EC90E0938B56
:101F8000828B82EC90E0958B848B86EC90E0978B33
:101F9000868B118E128E138E148E67ED74E082E89C
:101FA00096E00E943F0163EE74E088E896E00E94AC
:101FB0003F0161EF74E08EE896E00E943F016FEF11
:101FC00074E084E996E00E943F0168E075E08AE9E8
:101FD00096E00E943F01EBE4F5E0138212828EE569
:101FE00093E0918380838CE084838FEF85838BE003
:101FF000868385E0878384E0808783E0818782E031
:1020000082871386148615861686178641E060E15E
:10201000CF010E94DC0203E615E0F80110868DEC8A
:102020009CECACECBDE381879287A387B4874AE937
:1020300059E969E97EE3458756876787708BC12C2C
:10204000D12C20E8E22E2FE3F22EC18AD28AE38A35
:10205000F48A858B968BA78BB08F80E090E00E94EE
:102060007B08F80161A372A383A394A382E090E0AC
:102070000E947B08F8016083718382839383C18E01
:10208000D28EE38EF48E62E086E00E94860762E0E4
:102090008AE00E94860762E089E00E94860761E08C
:1020A00083E10E94860705E716E086E693E0F801E3
:1020B000918380831582168217821086C186D2860C
:1020C000E386F4869A8389831E821F821886198686
:1020D000CA86DB86EC86FD8688E08B8387E08C836E
:1020E00061E088E00E94860760E08C810E9486079C
:1020F00081E08D8360E08B810E944007CE010196D4
:102100000E94AB0844E050E064E070E0CE010E961F
:102110000E94E717CE84DF84E888F98865E175E0DE
:1021200088E895E00E949B02C701B6010E94D30394
:102130008B81F80182838C8183838D818483C701A5
:10214000B6010E94F111F801658376838783908739
:1021500080E090EFA2EDB6E481879287A387B487F1
:1021600082E390E09093700680936F06E5E2F6E0DC
:10217000168217821086118612861386148615869B
:1021800016861786108A118A128A138A148A158A6B
:1021900084E690E090936E0680936D0661960FB68C
:1021A000F894DEBF0FBECDBFDF91CF911F910F918D
:1021B000FF90EF90DF90CF90089597FB072E16F4D5
:1021C000009407D077FD09D00E94F81007FC05D0D5
:1021D0003EF4909581959F4F0895709561957F4F3E
:1021E00008950E94AA18B7FF0895821B930B0895C3
:1021F000AA1BBB1B51E107C0AA1FBB1FA617B7072D
:1022000010F0A61BB70B881F991F5A95A9F7809548
:102210009095BC01CD010895EE0FFF1F0590F4913C
:10222000E02D09945058BB27AA270E942A110C942C
:10223000AD170E949F1738F00E94A61720F039F4BE
:102240009F3F19F426F40C949C170EF4E095E7FBDD
:102250000C949617E92F0E94BE1758F3BA1762071D
:1022600073078407950720F079F4A6F50C94E0171E
:102270000EF4E0950B2EBA2FA02D0B01B9019001A1
:102280000C01CA01A0011124FF27591B99F0593FE5
:1022900050F4503E68F11A16F040A22F232F342F2D
:1022A0004427585FF3CF469537952795A795F0407B
:1022B0005395C9F77EF41F16BA0B620B730B840B90
:1022C000BAF09150A1F0FF0FBB1F661F771F881F48
:1022D000C2F70EC0BA0F621F731F841F48F48795A0
:1022E00077956795B795F7959E3F08F0B0CF939592
:1022F000880F08F09927EE0F9795879508950E940B
:1023000093110C94AD170E94A61758F00E949F17C6
:1023100040F029F45F3F29F00C94961751110C946A
:10232000E1170C949C170E94BE1768F39923B1F330
:10233000552391F3951B550BBB27AA2762177307EB
:10234000840738F09F5F5F4F220F331F441FAA1F7F
:10235000A9F335D00E2E3AF0E0E832D0915050403B
:10236000E695001CCAF72BD0FE2F29D0660F771FE9
:10237000881FBB1F261737074807AB07B0E809F0CF
:10238000BB0B802DBF01FF2793585F4F3AF09E3F54
:10239000510578F00C9496170C94E1175F3FE4F325
:1023A000983ED4F3869577956795B795F7959F5F97
:1023B000C9F7880F911D9695879597F90895E1E0E3
:1023C000660F771F881FBB1F621773078407BA0742
:1023D00020F0621B730B840BBA0BEE1F88F7E0959D
:1023E00008950E94F8116894B1110C94E1170895B2
:1023F0000E94C61788F09F5798F0B92F9927B751B8
:10240000B0F0E1F0660F771F881F991F1AF0BA9598
:10241000C9F714C0B13091F00E94E017B1E00895FF
:102420000C94E017672F782F8827B85F39F0B93FF1
:10243000CCF3869577956795B395D9F73EF490954B
:102440008095709561957F4F8F4F9F4F08950E94A3
:10245000051708F48FEF08950E940517880B990B54
:102460000895CF93DF938230910510F482E090E0DD
:10247000E091AB06F091AC0620E030E0C0E0D0E0A7
:10248000309711F14081518148175907C0F0481722
:10249000590761F482819381209719F09B838A8385
:1024A0002BC09093AC068093AB0626C02115310556
:1024B00019F04217530718F49A01BE01DF01EF012A
:1024C0000280F381E02DDCCF2115310509F1281BB5
:1024D000390B2430310590F412968D919C9113970D
:1024E0006115710521F0FB019383828304C09093F1
:1024F000AC068093AB06FD01329644C0FD01E20FAD
:10250000F31F81939193225031092D933C933AC04C
:102510002091A9063091AA06232B41F42091420371
:10252000309143033093AA062093A90620914003DB
:10253000309141032115310541F42DB73EB740914B
:10254000440350914503241B350BE091A906F091FB
:10255000AA06E217F307A0F42E1B3F0B2817390732
:1025600078F0AC014E5F5F4F2417350748F04E0FEF
:102570005F1F5093AA064093A9068193919302C0CE
:10258000E0E0F0E0CF01DF91CF9108950F931F932A
:10259000CF93DF93009709F48CC0FC01329713822C
:1025A00012820091AB061091AC060115110581F461
:1025B00020813181820F931F2091A9063091AA06B4
:1025C0002817390779F5F093AA06E093A90671C098
:1025D000D80140E050E0AE17BF0750F412962D919D
:1025E0003C911397AD012115310509F1D901F3CFC4
:1025F0009D01DA013383228360817181860F971FE9
:102600008217930769F4EC0128813981260F371F5F
:102610002E5F3F4F318320838A819B819383828306
:10262000452B29F4F093AC06E093AB0642C0139619
:10263000FC93EE931297ED01499159919E01240F5D
:10264000351FE217F30771F480819181840F951F84
:10265000029611969C938E938281938113969C93FC
:102660008E931297E0E0F0E0D80112968D919C9144
:102670001397009719F0F8018C01F6CF8D919C917A
:1026800098012E5F3F4F820F931F2091A906309132
:10269000AA062817390769F4309729F41092AC0676
:1026A0001092AB0602C0138212821093AA06009306
:1026B000A906DF91CF911F910F910895A0E0B0E09E
:1026C000E4E6F3E10C947718EC01009721F4CB01D8
:1026D0000E943112B8C0FC01E60FF71F9C01225086
:1026E0003109E217F30708F4ACC0D9010D911C9130
:1026F000119706171707B0F00530110508F49FC0B1
:10270000C80104978617970708F499C00250110969
:10271000061B170B019311936D937C93CF010E94BD
:10272000C6128DC05B01A01AB10A4C01800E911E29
:10273000A091AB06B091AC0640E050E0E12CF12C4A
:10274000109709F44AC0A815B905D1F56D907C9091
:102750001197630182E0C80ED11CCA14DB0480F11A
:10276000A3014A195B096A0182E0C80ED11C1296C6
:10277000BC9012971396AC91B5E0CB16D10440F003
:10278000B282A38351834083D9016D937C930AC0A5
:102790000E5F1F4FC301800F911FF901918380834A
:1027A000EB2DFA2FE114F10431F0D7011396FC93CD
:1027B000EE93129744C0F093AC06E093AB063FC093
:1027C0008D919C9111974817590708F4AC017D0130
:1027D00012960D90BC91A02DB3CF8091A906909137
:1027E000AA0688159905E1F446175707C8F48091A1
:1027F000400390914103009741F48DB79EB74091FB
:10280000440350914503841B950BE817F907C8F45E
:10281000F093AA06E093A906F901718360830FC0C3
:10282000CB010E9431127C01009759F0A801BE0132
:102830000E942D14CE010E94C612C70104C0CE0111
:1028400002C080E090E0CDB7DEB7EEE00C949318C4
:1028500081E090E0F8940C94B918FB01DC0102C00F
:1028600001900D9241505040D8F70895FB01DC01D2
:1028700001900D920020E1F70895EF920F931F93BE
:10288000CF93DF93E80147FD02C034E001C034E19B
:10289000E42F440FFF0BF7FF03C0F195E195F10919
:1028A000E32E022F2E2FAE010E945D14CE01DF9188
:1028B000CF911F910F91EF9008954F925F926F9279
:1028C0007F929F92AF92BF92CF92DF92EF92FF9250
:1028D0000F931F93CF93DF93CDB7DEB729970FB632
:1028E000F894DEBF0FBECDBF6A01122FB02E2BE3CE
:1028F000201720F0FF24F394F00E02C0BCE3FB2E5F
:102900000F2D27E0AE014F5F5F4F0E94EB15AC012A
:102910008981982F9970913031F0E1FC06C0E0FE7A
:1029200006C090E205C09DE203C09BE201C090E0BA
:10293000EE2DE07183FF3CC0911102C083E001C025
:1029400084E0811718F4212F281B01C020E0E11139
:102950000BC0F601822F30E2882319F031938150A9
:10296000FBCFC20ED11C20E0992329F0D6019C9305
:10297000F60131966F01C6010396E2FE0AC03EE4FD
:10298000D6013C9341E411964C93119712963C93D7
:1029900006C03EE6F601308341E641833283FC0106
:1029A000322F40E2332309F442C041933150FACF31
:1029B00082FF44C0911102C083E001C084E081170E
:1029C00018F4212F281B01C020E0E1110BC0F601F3
:1029D000822F30E2882319F031938150FBCFC20E51
:1029E000D11C20E0992329F0D6019C93F601319661
:1029F0006F01C6010396E2FE0BC039E4D6013C9399
:102A00003EE411963C93119736E412963C9307C02E
:102A100039E6F60130833EE6318336E63283FC0147
:102A2000322F40E2332319F041933150FBCFFC01A8
:102A3000E20FF11D10828EEF9FEFB7C0F1E0911110
:102A400001C0F0E06F2F70E01416150624F49A010F
:102A50002F5F3F4F02C021E030E0260F371FBB2021
:102A600029F06B2D70E06F5F7F4F02C060E070E077
:102A7000260F371F612F70E0261737071CF4121B33
:102A8000212F01C020E03E2D387159F4D601322F9C
:102A900060E2332319F06D933150FBCFC20ED11C8D
:102AA00020E0FF2331F0D6019C93B6016F5F7F4F8A
:102AB0006B01E1110BC0F601922F30E3992319F05D
:102AC00031939150FBCFC20ED11C20E09F2D940F6B
:102AD0003A81782F7071A72E84FF03C0313309F437
:102AE0009150191624F4993018F098E001C091E043
:102AF000E42F852F57FF02C0E0E080E06E2F782F93
:102B0000E0E0F0E0AEE29A2E3A01691A71082A017B
:102B1000461A570A0B2D10E01195019511096F3FC8
:102B20008FEF780729F4D6019C92C60101966C01BB
:102B30004617570784F0661677066CF47F01E40C9D
:102B4000F51CA1E0B0E0AC0FBD1FEA0EFB1ED701E3
:102B50001196BC9002C090E3B92E61507109319674
:102B6000C60101967C016017710724F0D601BC9262
:102B70006C01D5CF6417750741F4363320F4353333
:102B800021F4A11002C081E3B82EF601B082F70152
:102B9000822F90E2882319F091938150FBCFF701A7
:102BA000E20FF11D108280E090E029960FB6F894B4
:102BB000DEBF0FBECDBFDF91CF911F910F91FF9070
:102BC000EF90DF90CF90BF90AF909F907F906F90ED
:102BD0005F904F900895283008F027E03327DA01FE
:102BE000990F311D87FD916000966105710539F4DB
:102BF00032602E5F3D9330E32A95E1F708959F3FC1
:102C000030F080387105610509F03C5F3C5F3D9311
:102C1000913008F08068911DDF93CF931F930F933D
:102C2000FF92EF92192F987F9695E92F969596959A
:102C3000E90FFF27E45EFE4F99273327EE24FF2498
:102C4000A701E70105900894079428F4360FE71EC2
:102C5000F81E491F511D660F771F881F991F069484
:102C6000A1F70590079428F4E70EF81E491F561F98
:102C7000C11D770F881F991F661F0694A1F7059045
:102C8000079428F4F80E491F561FC71FD11D880F3F
:102C9000991F661F771F0694A1F70590079420F4EB
:102CA000490F561FC71FD81F990F661F771F881F10
:102CB0000694A9F784911095177041F0D695C795A1
:102CC00057954795F794E7941A95C1F7E2ECF0E031
:102CD00068941590159135916591959105907FE2D5
:102CE0007395E118F10A430B560BC90BD009C0F7D5
:102CF000E10CF11E431F561FC91FD01D7EF4703317
:102D000011F48A95E6CFE894015030F0080F0AF4E8
:102D10000027021708F4202F2395022F7A3328F07A
:102D200079E37D932A95E9F710C07D932A9589F67A
:102D3000069497956795379517951794E118F10ABA
:102D4000430B560BC90BD00998F023957E917395D0
:102D50007A3308F070E37C932013B8F77E917061AA
:102D60007D9330F0839571E37D9370E32A95E1F7CD
:102D70001124EF90FF900F911F91CF91DF91992730
:102D800087FD909508950E94051708F481E0089545
:102D9000E89409C097FB3EF49095809570956195F5
:102DA0007F4F8F4F9F4F9923A9F0F92F96E9BB27AB
:102DB0009395F695879577956795B795F111F8CF27
:102DC000FAF4BB0F11F460FF1BC06F5F7F4F8F4F92
:102DD0009F4F16C0882311F096E911C0772321F088
:102DE0009EE8872F762F05C0662371F096E8862F20
:102DF00070E060E02AF09A95660F771F881FDAF777
:102E0000880F9695879597F90895990F0008550FA3
:102E1000AA0BE0E8FEEF16161706E807F907C0F060
:102E200012161306E407F50798F0621B730B840B68
:102E3000950B39F40A2661F0232B242B252B21F442
:102E400008950A2609F4A140A6958FEF811D811DE2
:102E500008950E943C170C94AD170E949F1738F0FC
:102E60000E94A61720F0952311F00C9496170C944D
:102E70009C1711240C94E1170E94BE1770F3959FC4
:102E8000C1F3950F50E0551F629FF001729FBB2761
:102E9000F00DB11D639FAA27F00DB11DAA1F649FFD
:102EA0006627B00DA11D661F829F2227B00DA11DB0
:102EB000621F739FB00DA11D621F839FA00D611D36
:102EC000221F749F3327A00D611D231F849F600D57
:102ED000211D822F762F6A2F11249F5750409AF080
:102EE000F1F088234AF0EE0FFF1FBB1F661F771F0C
:102EF000881F91505040A9F79E3F510580F00C94D7
:102F000096170C94E1175F3FE4F3983ED4F386954F
:102F100077956795B795F795E7959F5FC1F7FE2B76
:102F2000880F911D9695879597F9089597F99F6752
:102F300080E870E060E008959FEF80EC0895002441
:102F40000A941616170618060906089500240A940E
:102F500012161306140605060895092E0394000C94
:102F600011F4882352F0BB0F40F4BF2B11F460FF23
:102F700004C06F5F7F4F8F4F9F4F089557FD90584C
:102F8000440F551F59F05F3F71F04795880F97FB2D
:102F9000991F61F09F3F79F08795089512161306E7
:102FA0001406551FF2CF4695F1DF08C01616170616
:102FB0001806991FF1CF869571056105089408954B
:102FC000E894BB2766277727CB0197F90895DC01A2
:102FD000CB01FC01F999FECF06C0F2BDE1BDF89A24
:102FE000319600B40D9241505040B8F70895F999C8
:102FF000FECF92BD81BDF89A992780B50895DC0176
:10300000CB0103C02D910E940A1841505040D0F7C7
:103010000895262FF999FECF1FBA92BD81BD20BD1C
:103020000FB6F894FA9AF99A0FBE01960895DB014B
:103030008F939F930E946818BF91AF91A29F800DBC
:10304000911DA39F900DB29F900D11240895A1E2B0
:103050001A2EAA1BBB1BFD010DC0AA1FBB1FEE1F12
:10306000FF1FA217B307E407F50720F0A21BB30B5D
:10307000E40BF50B661F771F881F991F1A9469F7D9
:1030800060957095809590959B01AC01BD01CF0135
:103090000895052E97FB1EF400940E94601857FDBA
:1030A00007D00E94271807FC03D04EF40C94601838
:1030B00050954095309521953F4F4F4F5F4F089564
:1030C00090958095709561957F4F8F4F9F4F089594
:1030D0000E94AA18A59F900DB49F900DA49F800DEB
:1030E000911D112408952F923F924F925F926F92FB
:1030F0007F928F929F92AF92BF92CF92DF92EF9288
:10310000FF920F931F93CF93DF93CDB7DEB7CA1B08
:10311000DB0B0FB6F894DEBF0FBECDBF09942A8833
:10312000398848885F846E847D848C849B84AA84DB
:10313000B984C884DF80EE80FD800C811B81AA8168
:10314000B981CE0FD11D0FB6F894DEBF0FBECDBF33
:10315000ED010895A29FB001B39FC001A39F700D20
:10316000811D1124911DB29F700D811D1124911D8F
:10317000089510E0CFEDD0E004C0FE010E940C11D4
:0C3180002196C03ED107C9F7F894FFCF9C
:10318C000C000C000C000C000C000C0006000300E2
:10319C000C000C000C000C000C000C0006000300D2
:1031AC000C000C000C000C000C000C0006000300C2
:1031BC000C000C000C000C000C000C0006000600AF
:1031CC00120012001200060006000600060006009F
:1031DC0006001200120012001200120012000A0067
:1031EC000A000A000A000A000A0003000300030098
:1031FC0006010B02DC00B801E900D201000000005E
:10320C0006010B02DC00B801E900D201000000004D
:10321C00AF005D01930026019C0037010000000007
:10322C00AF005D01930026019C00370100000000F7
:10323C00370115012601150137013701D000C400F3
:10324C001501060172015D01A500D201B8019F01B3
:10325C003701F700E900DC00D0000000000000009E
:10326C000C000C000C000C000C000C000C000C00F2
:10327C000C000C000C000C000C000C000C000C00E2
:10328C000C000C000C000C000C000C000C000C00D2
:10329C000C000C000C000C000C000C000C000C00C2
:1032AC000900090009000C000C000C000C000C00BB
:1032BC000C000C000C000C000C000C000C000C00A2
:1032CC000C000C000C000C000C000C000C000C0092
:1032DC000C000C000C000C000C000C000C00090085
:1032EC00090009000C000C000C000C000C000C0078
:1032FC000C000C000C000C000C000C004D0A4D0ACC
:10330C0000004D0A00002D084D0A0000400C000082
:10331C000000000020060000000000002D08000046
:10332C000000200600000000270500000000E00659
:10333C000000B80700004907E006000020064D0A0F
:10334C00400CC00D0000EA0A400C00004D0A0000C1
:10335C002D082D09B807000000002D080000000002
:10336C00200600000000270500000000E006000019
:10337C00B80700004907E006000020064D0A400C83
:10338C00C00D0000EA0A400C00004D0A00002D0898
:10339C002D09B807000000001F1F1F1F1F1F1F1F34
:1033AC001E1E1E1E1E1E1E1E1C1C1C1C1C1C1C1C41
:1033BC0018181818181818181010101010101010C1
:1033CC000000AD0680000100000000000000FC05BC
:1033DC000A01CF05AD05C105430600000000100A27
:1033EC000A01000000000009BD066E616E00696EE6
:1033FC0066006F766600564D4450565F317C315FE7
:10340C00564D4450560D0A0053657269616C204F3D
:10341C004B2100496E696369616E646F002E002058
:10342C002754656D61205072696E636970616C2000
:10343C004D6172696F2700202754656D61204D61C5
:10344C0072696F20556E646572776F726C642700B9
:10345C004D4F444F2043414C4942524143414F0050
:10346C0042414C414E43412043414C49425241441C
:10347C004100474152524146412056415A49410070
:10348C00476172726166612076617A69613A2000E7
:10349C00474152524146412043484549410047610A
:1034AC0072726166612063686569613A20005065DB
:1034BC00736F206E612062616C616E63613A2000F3
:1034CC005175616E74696461646520636166652021
:1034DC00286C74293A2000536974756163616F20FC
:1034EC00646120676172726166613A20002D2D2D36
:1034FC002D2D2D2D2D2D2D2D2D2D2D2D2D2D2D2DF0
:10350C002D2D2D2D2D2D2D2D2D2D2D2D2D2D2D2DDF
:10351C002D2D2D2D0053696C656E636961646F20D0
:10352C002800206C6974726F7300206D4C0020258C
:10353C0029006D696C6C69733A2000202F200041C2
:10354C006C61726D652073696C656E636961646F23
:10355C00206174653A200053656D20476172726179
:10356C006661004E6976656C204372697469636F9D
:10357C0000436166652061636162616E646F005433
:10358C00656D206361666500506567616E646F20D0
:10359C006361666500454550524F4D206C69646F00
:1035AC003A2000454550524F4D2047726176616478
:1035BC006F3A200054616D616E686F206D75736990
:0435CC0063613A00FD
:107E0000112484B714BE81FFF0D085E080938100F7
:107E100082E08093C00088E18093C10086E0809377
:107E2000C20080E18093C4008EE0C9D0259A86E02C
:107E300020E33CEF91E0309385002093840096BBD3
:107E4000B09BFECF1D9AA8958150A9F7CC24DD24C4
:107E500088248394B5E0AB2EA1E19A2EF3E0BF2EE7
:107E6000A2D0813461F49FD0082FAFD0023811F036
:107E7000013811F484E001C083E08DD089C08234E0
:107E800011F484E103C0853419F485E0A6D080C0E4
:107E9000853579F488D0E82EFF2485D0082F10E0AE
:107EA000102F00270E291F29000F111F8ED06801E7
:107EB0006FC0863521F484E090D080E0DECF843638
:107EC00009F040C070D06FD0082F6DD080E0C81688
:107ED00080E7D80618F4F601B7BEE895C0E0D1E017
:107EE00062D089930C17E1F7F0E0CF16F0E7DF06D8
:107EF00018F0F601B7BEE89568D007B600FCFDCFD4
:107F0000A601A0E0B1E02C9130E011968C91119780
:107F100090E0982F8827822B932B1296FA010C0160
:107F200087BEE89511244E5F5F4FF1E0A038BF0790
:107F300051F7F601A7BEE89507B600FCFDCF97BE46
:107F4000E89526C08437B1F42ED02DD0F82E2BD052
:107F50003CD0F601EF2C8F010F5F1F4F84911BD097
:107F6000EA94F801C1F70894C11CD11CFA94CF0C13
:107F7000D11C0EC0853739F428D08EE10CD085E9AC
:107F80000AD08FE07ACF813511F488E018D01DD067
:107F900080E101D065CF982F8091C00085FFFCCF94
:107FA0009093C60008958091C00087FFFCCF809118
:107FB000C00084FD01C0A8958091C6000895E0E648
:107FC000F0E098E1908380830895EDDF803219F02E
:107FD00088E0F5DFFFCF84E1DECF1F93182FE3DFCA
:107FE0001150E9F7F2DF1F91089580E0E8DFEE27F6
:047FF000FF270994CA
:027FFE00040479
:0400000300007E007B
:00000001FF