:100000000C94E0000C9408010C9408010C94080175
:100010000C9408010C9408010C9408010C9408013C
:100020000C9408010C9408010C9408010C9408012C
:100030000C9408010C9408010C9408010C9408011C
:100040000C9465060C9408010C9442050C941C0554
:100050000C9408010C9408010C9408010C940801FC
:100060000C9408010C9408010000000024002700F3
:100070002A0000000000250028002B0000000000DE
:1000800023002600290004040404040404040202DA
:100090000202020203030303030301020408102007
:1000A0004080010204081020010204081020000012
:1000B0000008000201000003040700000000000027
:1000C000000000407A10F35A00A0724E1809001088
:1000D000A5D4E80000E87648170000E40B540200BD
:1000E00000CA9A3B000000E1F505000080969800E8
:1000F000000040420F000000A08601000000102711
:1001000000000000E80300000000640000000000A0
:100110000A00000000000100000000002C76D888D2
:10012000DC674F0823DFC1DFAE59E1B1B796E5E3E5
:10013000E453C63AE651997696E8E6C28426EB89FE
:100140008C9B62ED407C6FFCEFBC9C9F40F2BAA59B
:100150006FA5F490055A2AF75C936B6CF9676DC133
:100160001BFCE0E40D47FEF520E6B500D0ED902E37
:100170000300943577050080841E080000204E0A95
:10018000000000C80C333333330F986E12831141D3
:10019000EF8D2114893BE65516CFFEE6DB18D1849E
:1001A0004B381BF77C1D901DA4BBE42420328472C5
:1001B0005E228100C9F124ECA1E53D27EB11DC11A1
:1001C00011241FBECFEFD8E0DEBFCDBF16E0A0E008
:1001D000B1E0E0E4F6E302C005900D92A034B1076F
:1001E000D9F727E0A0E4B6E001C01D92A03CB20719
:1001F000E1F710E0CFEDD0E004C02197FE010E94AE
:100200006613CE3DD107C9F70E94420A0C94131B16
:100210000C9400000E948216EBE9F6E0A089B189F7
:1002200082E08C93A485B5851C92A685B78580E174
:100230008C93108EA489B58986E08C93A289B389AA
:100240008C9180618C93A289B3898C9188608C9306
:10025000A289B3898C9180688C930288F389E02D00
:1002600080818F7D80830895643008F063E09091F1
:100270007106691710F06FEF690FE62FF0E0E25A90
:10028000F94F9489682F690F60688EE596E00C94A9
:100290007308EF92FF920F931F93CF93DF93EC01BC
:1002A000423018F08F8588608F874B8B1C8A80E4E2
:1002B0008D8B6E8B70E0605C7F4F6F8B61E08C810B
:1002C0000E94E3058D818F3F19F061E00E94E305F4
:1002D00061E08E810E94E3057E0187E0E80EF11C5B
:1002E00000E010E08F8584FD03C084E090E002C050
:1002F00088E090E0081719074CF461E0F70181915C
:100300007F010E94E3050F5F1F4FECCF8BE39DE061
:100310000197F1F760E08C810E949D0560E08E817D
:100320000E949D058D818F3F19F060E00E949D0520
:100330006F8564FD1DC063E0CE010E94ED070BE4F4
:1003400016E4C8010197F1F763E0CE010E94ED07C2
:10035000C8010197F1F763E0CE010E94ED0783E544
:1003600092E00197F1F762E0CE010E94ED0716C01E
:100370006062CE010E9473088BE496E40197F1F766
:100380006F856062CE010E94730883E592E0019759
:10039000F1F76F856062CE010E9473086F8560621D
:1003A000CE010E94730884E0888B6CE0CE010E942D
:1003B0007308CE010E94760882E0898B66E0CE0148
:1003C000DF91CF911F910F91FF90EF900C947308E4
:1003D000CF93DF93BC018BE996E00E940009EC010A
:1003E0006AE774E08BE996E00E9400098C0F9D1F7C
:1003F000DF91CF910895EF92FF920F931F93CF93C8
:10040000DF931F92CDB7DEB7162F877028E0829F4B
:10041000C0011124682F60648EE596E079830E9404
:100420007308E12E7981F72E8701085F1F4FF701CE
:1004300061917F018EE596E00E946D08E016F1065D
:10044000B1F70F90DF91CF911F910F91FF90EF9037
:100450000895CF93DF93FC014481558160817181C0
:100460008BE996E00E949F08EC016AE774E08BE953
:1004700096E00E9400098C0F9D1FDF91CF91089597
:10048000CF93DF93AB01BC0122E08BE996E00E94A1
:100490005E09EC016AE774E08BE996E00E940009CE
:1004A0008C0F9D1FDF91CF910895FF920F931F93A3
:1004B000CF93DF93F82E062FC7E0D0E010E061E085
:1004C000802F0E949D058F2D0E9474050C2E01C067
:1004D000880F0A94EAF7182B60E0802F0E949D0590
:1004E000219768F7812FDF91CF911F910F91FF9096
:1004F0000895CF92DF92EF92FF9260E080918A0799
:100500000E949D0561E080918A070E949D0560918F
:10051000820770918307072E000C880B990B0E94AD
:100520001F0660E080918A070E949D0588E897E099
:100530000E940807C0908D07D0908E07E0908F072B
:10054000F09090076C197D098E099F090E9424196B
:100550002091910730919207409193075091940711
:100560000E94D9132DEC3CEC4CEC5DE30E94831906
:100570006B017C012AE037ED43E25CE30E941D1928
:1005800087FF0DC02AE037ED43E25CEBC701B601FF
:100590000E94811418161CF4C12CD12C7601C09233
:1005A0008407D0928507E0928607F0928707C701FB
:1005B000B601FF90EF90DF90CF900895CF92DF9239
:1005C000EF92FF92CF93DF936C01990FEE08FF0833
:1005D000F7FE16C06DE28BE996E00E94F908EC0187
:1005E00044275527BA014C195D096E097F092AE095
:1005F0008BE996E00E9415097C01EC0EFD1E08C0F7
:100600002AE0B701A6018BE996E00E9415097C015A
:100610006AE774E08BE996E00E9400098E0D9F1D49
:10062000DF91CF91FF90EF90DF90CF9008958F9260
:100630009F92AF92BF92CF92DF92EF92FF920F9371
:100640001F93CF93DF934B015C01CA01B901A50150
:1006500094010E94711A28EE33E040E050E00E94BD
:10066000A31A69017A0160E271EA87E090E0A501CE
:1006700094010E94A31A8901C901880F991F880F4C
:10068000991FEC012597812C912C54018C149D0409
:10069000AE04BF04D4F461E083E10E949D05023002
:1006A000110518F0CE010197F1F760E083E10E9497
:1006B0009D050230110518F0CE010197F1F78FEF7B
:1006C000881A980AA80AB80AE1CFDF91CF911F9142
:1006D0000F91FF90EF90DF90CF90BF90AF909F90E1
:1006E0008F900895EF92FF920F931F93CF93DF9314
:1006F000EC017B018A0188819981009729F02A8188
:100700003B8124173507F8F4B8016F5F7F4F0E94D3
:10071000B815009759F0998388831B830A832C812D
:100720003D81232B81F4FC0110820DC088819981C9
:10073000009711F00E942015198218821D821C82D8
:100740001B821A8207C01D830C83B701888199819F
:100750000E949016CE01DF91CF911F910F91FF90D3
:10076000EF900895FC01808191810C942015EF9207
:10077000FF920F931F93CF93DF93CDB7DEB7A1976F
:100780000FB6F894DEBF0FBECDBF7C01CB01BA011E
:10079000F70111821082138212821582148242E0C4
:1007A000420F8E010F5F1F4F0E949716009769F04E
:1007B000FC0101900020E9F73197AF01481B590B6C
:1007C000BC01C7010E9472030EC0F70180819181B4
:1007D000009711F00E942015F701118210821582F6
:1007E000148213821282A1960FB6F894DEBF0FBE58
:1007F000CDBFDF91CF911F910F91FF90EF900895A2
:10080000FC01918D828D981761F0828DDF01A80F18
:10081000B11D5D968C91928D9F5F9F73928F90E03A
:1008200008958FEF9FEF0895FC01918D828D9817A9
:1008300031F0828DE80FF11D858D90E008958FEFE6
:100840009FEF0895FC01918D228D892F90E0805CAF
:100850009F4F821B91098F73992708958BE996E02A
:100860000E94220421E0892B09F420E0822F0895C0
:10087000FC01848DDF01A80FB11DA35ABF4F2C913D
:10088000848D90E001968F739927848FA689B7890C
:100890002C93A089B1898C9180648C93938D848DE5
:1008A000981306C00288F389E02D80818F7D8083B4
:1008B0000895EF92FF920F931F93CF93DF93EC0174
:1008C00081E0888F9B8D8C8D981305C0E889F9890C
:1008D000808185FD24C0F62E0B8D10E00F5F1F4F29
:1008E0000F731127E02E8C8DE8120CC00FB607FC99
:1008F000FACFE889F989808185FFF5CFCE010E9482
:100900003804F1CF8B8DFE01E80FF11DE35AFF4F44
:10091000F0820B8FEA89FB898081806207C0EE89B3
:10092000FF896083E889F98980818064808381E020
:1009300090E0DF91CF911F910F91FF90EF9008957C
:10094000CF93DF93EC01888D8823C9F0EA89FB8976
:10095000808185FD05C0A889B9898C9186FD0FC06D
:100960000FB607FCF5CF808185FFF2CFA889B98942
:100970008C9185FFEDCFCE010E943804E7CFDF9147
:10098000CF91089580E090E0892B29F00E942E04F9
:1009900081110C9400000895833081F028F4813097
:1009A00099F08230A1F008958730A9F08830B9F02D
:1009B0008430D1F4809180008F7D03C080918000CD
:1009C0008F7780938000089584B58F7702C084B5B7
:1009D0008F7D84BD08958091B0008F7703C0809192
:1009E000B0008F7D8093B00008953FB7F894809158
:1009F000B8079091B907A091BA07B091BB0726B587
:100A0000A89B05C02F3F19F00196A11DB11D3FBF46
:100A1000BA2FA92F982F8827820F911DA11DB11DD4
:100A2000BC01CD0142E0660F771F881F991F4A95D0
:100A3000D1F708950C9420151F920F920FB60F92C4
:100A400011242F933F934F935F936F937F938F93D3
:100A50009F93AF93BF93EF93FF938BE996E00E9430
:100A60003804FF91EF91BF91AF919F918F917F914A
:100A70006F915F914F913F912F910F900FBE0F900B
:100A80001F9018951F920F920FB60F9211242F935B
:100A90008F939F93EF93FF93E091AB06F091AC0699
:100AA0008081E091B106F091B20682FD12C0908182
:100AB0008091B4068F5F8F732091B506821751F035
:100AC000E091B406F0E0E556F94F958F8093B406B7
:100AD00001C08081FF91EF919F918F912F910F9095
:100AE0000FBE0F901F901895CF93DF93282F30E003
:100AF000F901E255FF4F8491F901E656FF4FD49179
:100B0000F901EA57FF4FC491CC2391F081110E9463
:100B1000CC04EC2FF0E0EE0FFF1FE458FF4FA5913F
:100B2000B491EC91ED2381E090E021F480E002C0EB
:100B300080E090E0DF91CF9108951F93CF93DF93F2
:100B4000282F30E0F901E255FF4F8491F901E65674
:100B5000FF4FD491F901EA57FF4FC491CC23C9F05C
:100B6000162F81110E94CC04EC2FF0E0EE0FFF1F36
:100B7000EE58FF4FA591B4918FB7F894111105C0AD
:100B80009C91ED2FE095E92302C0EC91ED2BEC93C5
:100B90008FBFDF91CF911F910895CF93DF93EC0129
:100BA00060E08E810E949D0561E08E810E949D051E
:100BB00060E08E810E949D058BE891E00197F1F73E
:100BC000DF91CF910895CF93DF9390E0FC01E6563B
:100BD000FF4F2491FC01EA57FF4F8491882361F174
:100BE00090E0880F991FFC01E859FF4FC591D491FF
:100BF000FC01EE58FF4FA591B491611109C09FB758
:100C0000F8948881209582238883EC912E230BC051
:100C1000623061F49FB7F8943881822F80958323E6
:100C20008883EC912E2B2C939FBF06C08FB7F8942E
:100C3000E8812E2B28838FBFDF91CF9108958F926B
:100C40009F92AF92BF92CF92DF92EF92FF926B0191
:100C50007C010E94F5044B015C01C114D104E10444
:100C6000F104F1F00E94F504DC01CB018819990927
:100C7000AA09BB09883E9340A105B10570F321E0A4
:100C8000C21AD108E108F10888EE880E83E0981EA8
:100C9000A11CB11CC114D104E104F10419F7DDCF8A
:100CA000FF90EF90DF90CF90BF90AF909F908F908C
:100CB00008952FB7F8946091B4077091B5078091AB
:100CC000B6079091B7072FBF08951F920F920FB6E6
:100CD0000F9211242F933F938F939F93AF93BF93C2
:100CE0008091B4079091B507A091B607B091B7076E
:100CF0003091B30723E0230F2D3720F40196A11D77
:100D0000B11D05C026E8230F0296A11DB11D209339
:100D1000B3078093B4079093B507A093B607B09339
:100D2000B7078091B8079091B907A091BA07B09121
:100D3000BB070196A11DB11D8093B8079093B90719
:100D4000A093BA07B093BB07BF91AF919F918F91CA
:100D50003F912F910F900FBE0F901F9018950F93FA
:100D60001F93CF93DF938C01CB01BA0120E030E0D9
:100D70004AE754E40E9483190E944B14D62FC72FD0
:100D8000C8010E94631A6C2FC80101960E94631A61
:100D900063E176E08BE996E00E94400A8D2F9C2F5C
:100DA0000E94DE0281E0DF91CF911F910F910895A3
:100DB000CF92DF92EF92FF92CF937C010E94511A63
:100DC000C82FC70101960E94511A6C2F70E0782B32
:100DD000072E000C880B990B0E94241920E030E0AC
:100DE0004AE754E40E94D9136B017C0165E076E088
:100DF0008BE996E00E94400AC701B6010E944002BA
:100E0000C701B601CF91FF90EF90DF90CF9008958A
:100E1000DF92EF92FF920F931F93CF93DF93EC013A
:100E20008B810E947405892BD9F76A818B810E947E
:100E30005502082F6A818B810E945502182F6A8102
:100E40008B810E945502D82EE12CF12C2C8130E0B0
:100E5000E216F30660F461E08A810E949D0560E07D
:100E60008A810E949D052FEFE21AF20AEFCF812FAF
:100E700090E0A0E0B0E0BA2FA92F982F8827A02BF0
:100E8000AC01BD014D29802F880F880B90E0A0E0B8
:100E9000B0E0B82FAA27992788278A019B01082B41
:100EA000192B2A2B3B2BC901B801DF91CF911F9140
:100EB0000F91FF90EF90DF90089508954F925F9209
:100EC0006F927F928F929F92AF92BF92CF92DF925A
:100ED000EF92FF920F931F93CF93DF9300D0CDB784
:100EE000DEB7B62EA72E690149835A830E942902D4
:100EF00064E276E08BE996E00E94400AC6010E9417
:100F0000DE024981E42E5A81F52E0B2D1A2D812CFB
:100F1000912C88EEA82E83E0B82E8C149D040CF042
:100F200049C087E0881691048CF086E00E94740521
:100F30002C018AE00E9474053C0189E00E9474053E
:100F40004528C1F16728B1F1892BA1F1F701619121
:100F500071917F01C5010E9437132B01770F66083D
:100F60007708F801619171918F01072E000C880BB1
:100F7000990BA30192010E941703C301B2010E94C1
:100F8000241926E636E646EA5FE30E9483190E94AA
:100F90004B14072E000C880B990B0E941F06A3010F
:100FA000920160E070E0CB010E941703FFEF8F1AFF
:100FB0009F0AB3CF0F900F90DF91CF911F910F91A8
:100FC000FF90EF90DF90CF90BF90AF909F908F9069
:100FD0007F906F905F904F900895CF92DF92EF9245
:100FE000FF920F931F93CF93DF937C016C0187E0F7
:100FF000C80ED11CC0E0D0E0062F10E0B8010C2EC6
:1010000002C0759567950A94E2F76170F6018191C7
:101010006F010E949D052196C430D10579F7C70163
:10102000DF91CF911F910F91FF90EF90DF90CF90C4
:101030000C94CD05CF92DF92EF92FF920F931F9306
:10104000CF93DF93EC01F62E642F8C810E949D05D7
:101050008D818F3F19F060E00E949D058F850F2DD7
:1010600010E084FF25C06E0187E0C80ED11CE12C82
:10107000F12CB8010E2C02C0759567950A94E2F721
:101080006170F60181916F010E949D05FFEFEF1ADB
:10109000FF0A88E0E816F10461F7CE01DF91CF91F5
:1010A0001F910F91FF90EF90DF90CF900C94CD05A2
:1010B000B80184E0759567958A95E1F7CE010E94A5
:1010C000ED076F2DCE01DF91CF911F910F91FF9012
:1010D000EF90DF90CF900C94ED0741E00E941A084A
:1010E00081E090E0089540E00C941A0861E00E94CD
:1010F00073088BE39FE10197F1F708950F931F9316
:10110000CF93DF931F92CDB7DEB78C01442331F02C
:101110008EE596E069830E947608698180E00E94EE
:101120003401F80144815581608171818EE596E03A
:101130000F90DF91CF911F910F910C949F08CF9248
:10114000DF92EF92FF920F931F93CF93DF936C0187
:101150007A018B01C0E0D0E0CE15DF0589F0D8011F
:101160006D918D01D601ED91FC910190F081E02D02
:10117000C6010995892B11F47E0102C02196ECCF9E
:10118000C701DF91CF911F910F91FF90EF90DF90FA
:10119000CF900895FB01DC0111961C921E921396CC
:1011A0001C921E92129715961C921E9214978617E7
:1011B000970749F0608171816115710521F04481C3
:1011C00055810C9472030895FC01118210821382E0
:1011D0001282158214826115710551F0FB01019094
:1011E0000020E9F73197AF01461B570B0C947203AF
:1011F0000895DC01ED91FC910190F081E02D0994BE
:101200006115710579F0FB0101900020E9F7319734
:10121000AF01461B570BDC01ED91FC910280F3817D
:10122000E02D099480E090E008954F925F926F92D4
:101230007F92EF92FF920F931F93CF93DF93CDB7DF
:10124000DEB7A1970FB6F894DEBF0FBECDBF7C010D
:10125000FA01CB0119A2223008F42AE08E010F5DB9
:101260001F4F422E512C612C712CBF01A301920102
:101270000E94811AF901CA01015011096A3014F45F
:10128000605D01C0695CD8016C93232B242B252B56
:1012900061F7B801C7010E940009A1960FB6F89442
:1012A000DEBF0FBECDBFDF91CF911F910F91FF9099
:1012B000EF907F906F905F904F9008954F925F9264
:1012C0006F927F928F929F92AF92BF92CF92DF9256
:1012D000EF92FF92CF93DF93EC016A017B01B22E74
:1012E0009A01AB01C701B6010E948614882319F048
:1012F00064E376E027C026013701E89477F82FEF02
:101300003FEF4FE75FE7C301B2010E9486148111EE
:101310000DC02FEF3FEF4FE75FE7C301B2010E941F
:101320001D1918161CF468E376E00CC02FEF3FEF90
:101330004FE75FE4C701B6010E94811418169CF4C0
:101340006CE376E0CE01DF91CF91FF90EF90DF90DC
:10135000CF90BF90AF909F908F907F906F905F9055
:101360004F900C9400092FEF3FEF4FE75FECC70160
:10137000B6010E941D1987FDE3CF20E030E0A901EE
:10138000C701B6010E941D1987FF0AC06DE2CE0198
:101390000E94F9084C01F7FAF094F7F8F09402C0B3
:1013A000812C912CA12C60E070E080E09FE3AB14D5
:1013B00041F020E030E040E251E40E94D913A394D0
:1013C000F6CF9B01AC01C701B6010E946D132B0142
:1013D0003C010E9452146B017C010E9422199B0166
:1013E000AC01C301B2010E946C132B013C012AE045
:1013F000B701A601CE010E9415097C01E80CF91C79
:10140000BB2031F06EE2CE010E94F908E80EF91E11
:10141000DB2CDD2029F120E030E040E251E4C30183
:10142000B2010E9483192B013C010E9452144B010E
:10143000A12CB12C2AE0B501A401CE010E9415090E
:10144000E80EF91EC501B4010E9422199B01AC01EE
:10145000C301B2010E946C132B013C01DA94D9CF75
:10146000C701DF91CF91FF90EF90DF90CF90BF90B9
:10147000AF909F908F907F906F905F904F90089566
:101480000C940009CF93DF93CDB7DEB72C970FB63E
:10149000F894DEBF0FBECDBF789484B5826084BD62
:1014A00084B5816084BD85B5826085BD85B5816068
:1014B00085BD80916E00816080936E0010928100E6
:1014C00080918100826080938100809181008160A1
:1014D0008093810080918000816080938000809162
:1014E000B10084608093B1008091B00081608093EE
:1014F000B00080917A00846080937A0080917A00B5
:10150000826080937A0080917A00816080937A0073
:1015100080917A00806880937A001092C1001092C6
:101520007C0710927D0710927E0710927F07109221
:101530003A0710923B0710923C0710923D0760ED6E
:1015400077E080E090E00E941F068BE996E09093A0
:101550007B0780937A070E940C010E9459066093D2
:101560003A0770933B0780933C0790933D076BE6E7
:1015700074E080917A0790917B070E94400A6AE0AC
:1015800070E080E090E00E941F0681E080934E07AB
:101590000E940C018DE794E00E94E80144E064E1C0
:1015A0008EE596E00E94490160E080E00E943401EF
:1015B00061E082E10E94E30568E874E08EE596E070
:1015C0000E94400A0BE010E064E670E080E090E0EA
:1015D0000E941F0662E974E08EE596E00E94400AD0
:1015E0000150110989F734E6432E512C612C712CDE
:1015F00086E00E9474057C018AE00E9474056C01FB
:1016000089E00E9474058C01CD2809F06FC2892BF6
:1016100009F06CC28EE596E00E947608D12C60E15C
:1016200074E081E00E94FB0168E074E082E00E94C7
:10163000FB0160E074E083E00E94FB0168EF73E06F
:1016400084E00E94FB0160EF73E085E00E94FB01F3
:1016500068EE73E086E00E94FB0160E576E087E0DB
:101660000E94FB0162E08D2D0E94340161E08EE555
:1016700096E00E946D0863E08D2D0E94340162E0C7
:101680008EE596E00E946D08CC24C394CD0C62E0F8
:101690008C2D0E94340163E08EE596E00E946D0877
:1016A00063E08C2D0E94340164E08EE596E00E9498
:1016B0006D0822E0B22EBD0C62E08B2D0E94340139
:1016C00065E08EE596E00E946D0863E08B2D0E9438
:1016D000340166E08EE596E00E946D0861E270E0FC
:1016E00080E090E00E941F0668E476E081E00E94BE
:1016F000FB0160EE73E082E00E94FB0168ED73E0A5
:1017000083E00E94FB0160ED73E084E00E94FB0136
:1017100068EC73E085E00E94FB0160EC73E086E01A
:101720000E94FB0162E08D2D0E94340161E08EE594
:1017300096E00E946D0863E08D2D0E94340162E006
:101740008EE596E00E946D0862E08C2D0E943401C7
:1017500063E08EE596E00E946D0863E08C2D0E94A8
:10176000340164E08EE596E00E946D0862E08B2D06
:101770000E94340165E08EE596E00E946D0863E00A
:101780008B2D0E94340166E08EE596E00E946D0884
:1017900061E270E080E090E00E941F0660E476E085
:1017A00081E00E94FB0168EB73E082E00E94FB0194
:1017B00060EB73E083E00E94FB0168EA73E084E081
:1017C0000E94FB0160EA73E085E00E94FB0168E98A
:1017D00073E086E00E94FB0162E08D2D0E943401DF
:1017E00061E08EE596E00E946D0863E08D2D0E9419
:1017F000340162E08EE596E00E946D0862E08C2D77
:101800000E94340163E08EE596E00E946D0863E07B
:101810008C2D0E94340164E08EE596E00E946D08F4
:1018200062E08B2D0E94340165E08EE596E00E9417
:101830006D0863E08B2D0E94340166E08EE596E032
:101840000E946D0861E270E080E090E00E941F0657
:1018500060E973E081E00E94FB0168E873E082E0E8
:101860000E94FB0160E873E083E00E94FB0168E7EF
:1018700073E084E00E94FB0160E576E087E00E946F
:10188000FB0162E08D2D0E94340167E08EE596E059
:101890000E946D0863E08D2D0E94340167E08EE5A3
:1018A00096E00E946D0862E08C2D0E94340161E098
:1018B0008EE596E00E946D0863E08C2D0E94340155
:1018C00062E08EE596E00E946D0862E08B2D0E943A
:1018D000340163E08EE596E00E946D0863E08B2D95
:1018E0000E94340164E08EE596E00E946D0861E29A
:1018F00070E080E090E00E941F0660E773E081E006
:101900000E94FB0168E673E082E00E94FB0160E652
:1019100073E083E00E94FB0168E573E084E00E94CD
:10192000FB0160E573E085E00E94FB0168E473E081
:1019300086E00E94FB0160E576E087E00E94FB0103
:1019400062E08D2D0E94340167E08EE596E00E94F2
:101950006D0863E08D2D0E94340167E08EE596E00E
:101960000E946D0862E08C2D0E94340161E08EE5DA
:1019700096E00E946D0863E08C2D0E94340162E0C5
:101980008EE596E00E946D0862E08B2D0E94340186
:1019900063E08EE596E00E946D0863E08B2D0E9467
:1019A000340164E08EE596E00E946D0823E0D20EDB
:1019B00062E08D2D0E94340165E08EE596E00E9484
:1019C0006D0863E08D2D0E94340166E08EE596E09F
:1019D0000E946D0861E270E080E090E00E941F06C6
:1019E00060E473E081E00E94FB0168E373E082E061
:1019F0000E94FB0160E373E083E00E94FB0168E268
:101A000073E084E00E94FB0160E273E085E00E94E5
:101A1000FB0168E173E086E00E94FB0162E08C2D2F
:101A20000E94340161E08EE596E00E946D0863E05B
:101A30008C2D0E94340162E08EE596E00E946D08D4
:101A400062E08B2D0E94340163E08EE596E00E94F7
:101A50006D0863E08B2D0E94340164E08EE596E012
:101A60000E946D0862E08D2D0E94340165E08EE5D4
:101A700096E00E946D0863E08D2D0E94340166E0BF
:101A80008EE596E00E946D0861E270E080E090E0F3
:101A90000E941F06DC2C31E1C312C1CD64E974E061
:101AA000CE0101960E94E4082EE430E040EE51E0C1
:101AB0006CE772E0CE0101960E945E07CE010196AE
:101AC0000E94B2036CEA74E0CE0101960E94E40821
:101AD00028E330E040E051E060E771E0CE0101969C
:101AE0000E945E07CE0101960E94B20380917A06A1
:101AF000882309F417C165EC74E0CE0101960E94B9
:101B0000E40841E060E070E0CE0101960E947E08AA
:101B1000CE0101960E94B20380917A06882309F4CF
:101B200008C186E00E9474056C018AE00E94740579
:101B30007C0189E00E9474058C01CD2809F04DC01C
:101B40009AE0D92E812C912C540188E897E00E94CC
:101B50000807860E971EA81EB91EDA94D110F5CF7D
:101B6000C501B4012AE030E040E050E00E94A31A31
:101B7000CA01B9010E9424194B015C0169837A836F
:101B80008B839C8344E050E064E070E0CE010196DA
:101B90000E94591AC501B4010E944B1460938D072D
:101BA00070938E0780938F079093900765ED74E094
:101BB000CE0101960E94E40841E060E070E0CE01B1
:101BC00001960E947E08CE0101960E94B20385ED27
:101BD00094E00E94E80110927A06EF2809F04FC0C5
:101BE0000E947902AB01BC0180E090E00E94AF0648
:101BF00080E090E00E94D80660939306709394066C
:101C0000809395069093960667EE74E0CE01019658
:101C10000E94E40841E060E070E0CE0101960E947D
:101C20007E08CE0101960E94B20340919306509126
:101C30009406609195067091960622E0CE01019679
:101C40000E94B70340E061E070E0CE0101960E947F
:101C50007E08CE0101960E94B20365EF74E08BE925
:101C600096E00E94400A60919306709194068091DC
:101C70009506909196060E94400210927A06012BDA
:101C800009F04ACF0E947902AB01BC0182E090E0EA
:101C90000E94AF0682E090E00E94D806609397060B
:101CA000709398068093990690939A0665E075E084
:101CB000CE0101960E94E40841E060E070E0CE01B0
:101CC00001960E947E08CE0101960E94B2034091C7
:101CD0009706509198066091990670919A0622E0B5
:101CE000CE0101960E94B70340E061E070E0CE01B2
:101CF00001960E947E08CE0101960E94B20363E124
:101D000075E08BE996E00E94400A60919706709119
:101D100098068091990690919A060E94400210922E
:101D20007A06FACEEF2829F4012B19F481E080938A
:101D30007A06209193063091940640919506509131
:101D400096066091970670919806809199069091F9
:101D50009A060E946C1360937606709377068093C0
:101D60007806909379060E9479022091930630912B
:101D7000940640919506509196060E946C136093CC
:101D80008F0670939006809391069093920620910F
:101D900076063091770640917806509179060E9438
:101DA000D9136B017C0160938B0670938C06809332
:101DB0008D0690938E068090870690908806A0905E
:101DC0008906B0908A06A501940160E070E0CB011D
:101DD0000E946C139B01AC01C701B6010E941D1942
:101DE00018167CF520917B0630917C0640917D068B
:101DF00050917E06C701B6010E941D1987FD24C0BF
:101E000020917F0630918006409181065091820694
:101E1000C701B6010E941D1987FD19C020E030E0FE
:101E200040E85FE3C501B4010E946D139B01AC0162
:101E3000C701B6010E941D19181664F404E010E0F1
:101E40000BC000E010E008C001E010E005C002E0B7
:101E500010E002C003E010E026E0209FC001219FB7
:101E6000900D1124AC014B56584F1A01BA01CE0106
:101E700007960E94CA0820919306309194064091DB
:101E800095065091960660919706709198068091FC
:101E9000990690919A060E946C136093760670934F
:101EA000770680937806909379060E9479022091B4
:101EB00093063091940640919506509196060E94A3
:101EC0006C134B015C0160938F06709390068093B6
:101ED0009106909392062091760630917706409174
:101EE0007806509179060E94D9136B017C016093AA
:101EF0008B0670938C0680938D0690938E062091AE
:101F00008306309184064091850650918606C5016E
:101F1000B4010E9483194B015C0120E030E0A9016B
:101F20000E941D1987FF03C0812C912C540163E28C
:101F300075E08BE996E00E94400A609184077091F9
:101F4000850780918607909187070E94400265EF80
:101F500074E08BE996E00E94400A609193067091CC
:101F6000940680919506909196060E94400263E146
:101F700075E08BE996E00E94400A609197067091A7
:101F800098068091990690919A060E94400265E316
:101F900075E08BE996E00E94400AC501B4010E94F9
:101FA00040026CE475E08BE996E00E94400ACE01A5
:101FB00007960E94290282E695E00E94E80120E04F
:101FC00030E040E85FE3C701B6010E9481141816B3
:101FD0006CF020E030E0A901C701B6010E941D1994
:101FE00087FF0AC0C12CD12C760106C0C12CD12C90
:101FF00080E8E82E8FE3F82E8EE596E00E947608C2
:1020000060E080E00E943401B101CE0101960E949F
:10201000CA0869817A818EE596E00E94400A023002
:10202000110551F43324339480915C0690915D0640
:10203000059771F0312C0CC00130110599F4809195
:102040005C0690915D0662E070E00E943713382EC6
:10205000632D82E10E949D0580914004811117C08B
:10206000632D12C00115110551F461E082E10E9457
:102070009D058091400481110AC061E005C060E0C7
:1020800082E10E949D0560E083E10E949D058091B0
:102090004004882309F447C060E083E10E949D0565
:1020A00062E080E00E943401C0905806D09059064A
:1020B000E0905A06F0905B060E945906A70196012F
:1020C000261B370B480B590B121613061406150660
:1020D0009CF40E945906A7019601261B370B480B5A
:1020E000590BCA01B90128EE33E040E050E00E94EC
:1020F000811A69017A0103C0C12CD12C76016AE8EA
:1021000075E08EE596E00E94400A2AE0B701A6013C
:102110008EE596E00E94150960EA75E08EE596E08E
:102120000E94400AAFC00B7F012B09F4ABC062E0F4
:1021300080E00E94340120E030E040E85FE3C50128
:10214000B4010E94811487FD0AC022E0B501A401F8
:102150008EE596E00E945E0967E975E011C020E017
:1021600030E04AE754E4C501B4010E948319AB0191
:10217000BC0120E08EE596E00E945E096AE975E008
:102180008EE596E00E94400A64E975E08EE596E0EF
:102190000E94400A20E030E048EC52E4C701B6015A
:1021A0000E9483196B017C0120E0AB01BC018EE52C
:1021B00096E00E945E096EE975E08EE596E00E9469
:1021C000400A68E374E081E00E94FB0160E374E090
:1021D00082E00E94FB0168E274E083E00E94FB0160
:1021E00060E274E084E00E94FB0168E174E085E055
:1021F0000E94FB01C701B6010E944B144B015C0118
:10220000DB0124E130E00E944B13A30192010E9404
:10221000A31A69017A011901D40120E530E00E9476
:102220004B13A30192010E94A31A1BEFB6011603E0
:102230005001179FB00C1124A20EB31E1C141D04D4
:102240001E041F046CF063E08C2D0E9434011A14EC
:102250001B04C4F46A2D8EE596E00E946D0812C03E
:10226000812C912C63E0882D0E94340165E08EE57D
:1022700096E00E946D082FEF821A920A821493044E
:102280008CF3E1CF80915C0690915D0687309105DB
:102290002CF010925D0610925C0605C0019690939A
:1022A0005D0680935C0686E00E9474057C018AE0EE
:1022B0000E9474058C0189E00E947405EF2809F4DE
:1022C0004EC0012B09F44BC0892B09F448C00E9471
:1022D0005906009158061091590620915A063091DE
:1022E0005B06061717072807390710F410924004F9
:1022F00080914004882341F162EA75E08BE996E021
:102300000E94400A0E945906AB01BC012AE08BE9F9
:1023100096E00E9415096BEA75E08BE996E00E9451
:10232000400A409158065091590660915A067091A2
:102330005B062AE08BE996E00E9415096AE774E0E3
:102340008BE996E00E940009CE0101960E94B2033B
:10235000CE0107960E94B2030E94C20449C90E949E
:102360005906DC01CB01805D9A48AF4FBF4F809387
:10237000580690935906A0935A06B0935B0681E0E5
:10238000809340046FEA75E08BE996E00E94400A72
:10239000409158065091590660915A0670915B061B
:1023A0002AE08BE996E00E9415096AE774E08BE960
:1023B00096E00E9400098BCFCF93DF93C3EBD7E069
:1023C0002697CE010E94B20387E0C539D807C1F72E
:1023D000DF91CF910895CF92DF92EF92FF920F930A
:1023E0001F93CF93DF93CDB7DEB761970FB6F89405
:1023F000DEBF0FBECDBFEBE9F6E01382128288EE9E
:1024000093E0A0E0B0E084839583A683B7838FE454
:1024100094E09183808385EC90E09587848784ECB9
:1024200090E09787868780EC90E0918B808B81ECA1
:1024300090E0938B828B82EC90E0958B848B86EC82
:1024400090E0978B868B118E128E138E148E67EC14
:1024500075E085E997E00E94E40863ED75E08BE99B
:1024600097E00E94E40861EE75E081EA97E00E943F
:10247000E4086FEE75E087EA97E00E94E40868EFF1
:1024800075E08DEA97E00E94E408EEE5F6E013823D
:1024900012828FE594E0918380838CE084838FEFB8
:1024A00085838BE0868385E0878384E0808783E073
:1024B000818782E0828713861486158616861786A2
:1024C00041E060E1CF010E94490106E716E0F80112
:1024D00014828DEC9CECACECBDE385839683A783E2
:1024E000B0874AE959E969E97EE341875287638702
:1024F0007487C12CD12C20E8E22E2FE3F22EC58662
:10250000D686E786F08A818B928BA38BB48B80E092
:1025100090E00E94D806F801658F768F878F90A390
:1025200082E090E00E94D806F80161A372A383A321
:1025300094A3C58AD68AE78AF08E62E086E00E947C
:10254000E30562E08AE00E94E30562E089E00E9420
:10255000E30561E083E10E94E30508E817E087E610
:1025600094E0F80191838083158216821782108689
:10257000C186D286E386F4869A8389831E821F826F
:1025800018861986CA86DB86EC86FD8688E08B83F2
:1025900087E08C8361E088E00E94E30560E08C8145
:1025A0000E94E30581E08D8360E08B810E949D05A0
:1025B000CE0101960E94080744E050E064E070E01C
:1025C000CE010E960E94411ACE84DF84E888F988F5
:1025D00065E076E08BE996E00E94400AC701B6010B
:1025E0000E9440028B81F80182838C8183838D81DC
:1025F0008483C701B6010E944B14F801658376837A
:102600008783908780E090EFA2EDB6E48187928780
:10261000A387B48782E390E0909383078093820737
:10262000E8E3F7E016821782108611861286138679
:102630001486158616861786108A118A128A138ABE
:10264000148A158A84E690E090938107809380072E
:1026500061960FB6F894DEBF0FBECDBFDF91CF916C
:102660001F910F91FF90EF90DF90CF90089597FB0F
:10267000072E16F4009407D077FD09D00E9452135C
:1026800007FC05D03EF4909581959F4F0895709575
:1026900061957F4F08950E94041BB7FF0895821B28
:1026A000930B0895AA1BBB1B51E107C0AA1FBB1FB8
:1026B000A617B70710F0A61BB70B881F991F5A95CE
:1026C000A9F780959095BC01CD010895EE0FFF1FED
:1026D0000590F491E02D09945058BB27AA270E9439
:1026E00084130C94071A0E94F91938F00E94001AFA
:1026F00020F039F49F3F19F426F40C94F6190EF4E7
:10270000E095E7FB0C94F019E92F0E94181A58F392
:10271000BA17620773078407950720F079F4A6F5C6
:102720000C943A1A0EF4E0950B2EBA2FA02D0B0143
:10273000B90190010C01CA01A0011124FF27591B06
:1027400099F0593F50F4503E68F11A16F040A22F0C
:10275000232F342F4427585FF3CF4695379527957D
:10276000A795F0405395C9F77EF41F16BA0B620B7C
:10277000730B840BBAF09150A1F0FF0FBB1F661FC3
:10278000771F881FC2F70EC0BA0F621F731F841F06
:1027900048F4879577956795B795F7959E3F08F02C
:1027A000B0CF9395880F08F09927EE0F97958795EE
:1027B00008950E94ED130C94071A0E94001A58F015
:1027C0000E94F91940F029F45F3F29F00C94F019A8
:1027D00051110C943B1A0C94F6190E94181A68F3C4
:1027E0009923B1F3552391F3951B550BBB27AA27CA
:1027F00062177307840738F09F5F5F4F220F331F04
:10280000441FAA1FA9F335D00E2E3AF0E0E832D0CB
:1028100091505040E695001CCAF72BD0FE2F29D0CE
:10282000660F771F881FBB1F261737074807AB07A0
:10283000B0E809F0BB0B802DBF01FF2793585F4F15
:102840003AF09E3F510578F00C94F0190C943B1A25
:102850005F3FE4F3983ED4F3869577956795B795F7
:10286000F7959F5FC9F7880F911D9695879597F902
:102870000895E1E0660F771F881FBB1F621773077B
:102880008407BA0720F0621B730B840BBA0BEE1F90
:1028900088F7E09508950E9452146894B1110C9441
:1028A0003B1A08950E94201A88F09F5798F0B92F7C
:1028B0009927B751B0F0E1F0660F771F881F991F75
:1028C0001AF0BA95C9F714C0B13091F00E943A1AC3
:1028D000B1E008950C943A1A672F782F8827B85FD3
:1028E00039F0B93FCCF3869577956795B395D9F7CD
:1028F0003EF490958095709561957F4F8F4F9F4FD7
:1029000008950E945F1908F48FEF08950E945F19DF
:10291000880B990B0895CF93DF938230910510F4C3
:1029200082E090E0E091BE07F091BF0720E030E048
:10293000C0E0D0E0309711F140815181481759072C
:10294000C0F04817590761F482819381209719F0EC
:102950009B838A832BC09093BF078093BE0726C0BA
:102960002115310519F04217530718F49A01BE01D9
:10297000DF01EF010280F381E02DDCCF211531056D
:1029800009F1281B390B2430310590F412968D91F2
:102990009C9113976115710521F0FB01938382834C
:1029A00004C09093BF078093BE07FD01329644C0D8
:1029B000FD01E20FF31F81939193225031092D9372
:1029C0003C933AC02091BC073091BD07232B41F4C2
:1029D00020914304309144043093BD072093BC07F9
:1029E00020914104309142042115310541F42DB765
:1029F0003EB74091450450914604241B350BE091AD
:102A0000BC07F091BD07E217F307A0F42E1B3F0BA4
:102A10002817390778F0AC014E5F5F4F2417350750
:102A200048F04E0F5F1F5093BD074093BC07819342
:102A3000919302C0E0E0F0E0CF01DF91CF910895E3
:102A40000F931F93CF93DF93009709F48CC0FC0181
:102A50003297138212820091BE071091BF070115B1
:102A6000110581F420813181820F931F2091BC07D1
:102A70003091BD072817390779F5F093BD07E0932A
:102A8000BC0771C0D80140E050E0AE17BF0750F45A
:102A900012962D913C911397AD012115310509F145
:102AA000D901F3CF9D01DA013383228360817181E3
:102AB000860F971F8217930769F4EC0128813981EB
:102AC000260F371F2E5F3F4F318320838A819B81E2
:102AD00093838283452B29F4F093BF07E093BE07CD
:102AE00042C01396FC93EE931297ED0149915991D0
:102AF0009E01240F351FE217F30771F48081918145
:102B0000840F951F029611969C938E9382819381D8
:102B100013969C938E931297E0E0F0E0D801129602
:102B20008D919C911397009719F0F8018C01F6CFC5
:102B30008D919C9198012E5F3F4F820F931F2091A2
:102B4000BC073091BD072817390769F4309729F47D
:102B50001092BF071092BE0702C013821282109318
:102B6000BD070093BC07DF91CF911F910F9108958E
:102B7000A0E0B0E0EEEBF5E10C94D11AEC01009787
:102B800021F4CB010E948B14B8C0FC01E60FF71FA3
:102B90009C0122503109E217F30708F4ACC0D901B7
:102BA0000D911C91119706171707B0F0053011050C
:102BB00008F49FC0C80104978617970708F499C0C6
:102BC00002501109061B170B019311936D937C930F
:102BD000CF010E9420158DC05B01A01AB10A4C01E3
:102BE000800E911EA091BE07B091BF0740E050E05B
:102BF000E12CF12C109709F44AC0A815B905D1F5BC
:102C00006D907C901197630182E0C80ED11CCA14AC
:102C1000DB0480F1A3014A195B096A0182E0C80E56
:102C2000D11C1296BC9012971396AC91B5E0CB16BE
:102C3000D10440F0B282A38351834083D9016D93C4
:102C40007C930AC00E5F1F4FC301800F911FF901D3
:102C500091838083EB2DFA2FE114F10431F0D70139
:102C60001396FC93EE93129744C0F093BF07E09342
:102C7000BE073FC08D919C9111974817590708F4E2
:102C8000AC017D0112960D90BC91A02DB3CF809127
:102C9000BC079091BD0788159905E1F446175707C1
:102CA000C8F48091410490914204009741F48DB79B
:102CB0009EB74091450450914604841B950BE8173C
:102CC000F907C8F4F093BD07E093BC07F9017183DD
:102CD00060830FC0CB010E948B147C01009759F0D8
:102CE000A801BE010E948716CE010E942015C701CF
:102CF00004C0CE0102C080E090E0CDB7DEB7EEE0C8
:102D00000C94ED1A81E090E0F8940C94131BFB01F5
:102D1000DC0102C001900D9241505040D8F7089557
:102D2000FB01DC0101900D920020E1F70895EF9284
:102D30000F931F93CF93DF93E80147FD02C034E068
:102D400001C034E1E42F440FFF0BF7FF03C0F195FE
:102D5000E195F109E32E022F2E2FAE010E94B71646
:102D6000CE01DF91CF911F910F91EF9008954F9277
:102D70005F926F927F929F92AF92BF92CF92DF92BB
:102D8000EF92FF920F931F93CF93DF93CDB7DEB7F0
:102D900029970FB6F894DEBF0FBECDBF6A01122F80
:102DA000B02E2BE3201720F0FF24F394F00E02C086
:102DB000BCE3FB2E0F2D27E0AE014F5F5F4F0E945B
:102DC0004518AC018981982F9970913031F0E1FC60
:102DD00006C0E0FE06C090E205C09DE203C09BE293
:102DE00001C090E0EE2DE07183FF3CC0911102C064
:102DF00083E001C084E0811718F4212F281B01C053
:102E000020E0E1110BC0F601822F30E2882319F097
:102E100031938150FBCFC20ED11C20E0992329F0C1
:102E2000D6019C93F60131966F01C6010396E2FE2E
:102E30000AC03EE4D6013C9341E411964C931197AD
:102E400012963C9306C03EE6F601308341E641838C
:102E50003283FC01322F40E2332309F442C0419314
:102E60003150FACF82FF44C0911102C083E001C00B
:102E700084E0811718F4212F281B01C020E0E11104
:102E80000BC0F601822F30E2882319F03193815074
:102E9000FBCFC20ED11C20E0992329F0D6019C93D0
:102EA000F60131966F01C6010396E2FE0BC039E4CC
:102EB000D6013C933EE411963C93119736E412966A
:102EC0003C9307C039E6F60130833EE6318336E6AF
:102ED0003283FC01322F40E2332319F04193315009
:102EE000FBCFFC01E20FF11D10828EEF9FEFB7C008
:102EF000F1E0911101C0F0E06F2F70E0141615069B
:102F000024F49A012F5F3F4F02C021E030E0260FEA
:102F1000371FBB2029F06B2D70E06F5F7F4F02C021
:102F200060E070E0260F371F612F70E0261737072B
:102F30001CF4121B212F01C020E03E2D387159F4E2
:102F4000D601322F60E2332319F06D933150FBCF5D
:102F5000C20ED11C20E0FF2331F0D6019C93B601B4
:102F60006F5F7F4F6B01E1110BC0F601922F30E3D1
:102F7000992319F031939150FBCFC20ED11C20E060
:102F80009F2D940F3A81782F7071A72E84FF03C074
:102F9000313309F49150191624F4993018F098E05F
:102FA00001C091E0E42F852F57FF02C0E0E080E0F0
:102FB0006E2F782FE0E0F0E0AEE29A2E3A01691A27
:102FC00071082A01461A570A0B2D10E01195019538
:102FD00011096F3F8FEF780729F4D6019C92C60143
:102FE00001966C014617570784F0661677066CF455
:102FF0007F01E40CF51CA1E0B0E0AC0FBD1FEA0EB0
:10300000FB1ED7011196BC9002C090E3B92E61500F
:1030100071093196C60101967C016017710724F091
:10302000D601BC926C01D5CF6417750741F43633D5
:1030300020F4353321F4A11002C081E3B82EF6014B
:10304000B082F701822F90E2882319F0919381508A
:10305000FBCFF701E20FF11D108280E090E029968E
:103060000FB6F894DEBF0FBECDBFDF91CF911F9199
:103070000F91FF90EF90DF90CF90BF90AF909F9017
:103080007F906F905F904F900895283008F027E070
:103090003327DA01990F311D87FD91600096610594
:1030A000710539F432602E5F3D9330E32A95E1F7E4
:1030B00008959F3F30F080387105610509F03C5F4D
:1030C0003C5F3D93913008F08068911DDF93CF9372
:1030D0001F930F93FF92EF92192F987F9695E92FE8
:1030E00096959695E90FFF27E45EFE4F99273327C3
:1030F000EE24FF24A701E70105900894079428F423
:10310000360FE71EF81E491F511D660F771F881FD7
:10311000991F0694A1F70590079428F4E70EF81E6E
:10312000491F561FC11D770F881F991F661F0694E0
:10313000A1F70590079428F4F80E491F561FC71FE2
:10314000D11D880F991F661F771F0694A1F7059060
:10315000079420F4490F561FC71FD81F990F661FE9
:10316000771F881F0694A9F784911095177041F076
:10317000D695C79557954795F794E7941A95C1F753
:10318000E2ECF0E068941590159135916591959178
:1031900005907FE27395E118F10A430B560BC90BBA
:1031A000D009C0F7E10CF11E431F561FC91FD01DE7
:1031B0007EF4703311F48A95E6CFE894015030F034
:1031C000080F0AF40027021708F4202F2395022F76
:1031D0007A3328F079E37D932A95E9F710C07D933F
:1031E0002A9589F6069497956795379517951794BC
:1031F000E118F10A430B560BC90BD00998F023953F
:103200007E9173957A3308F070E37C932013B8F7BE
:103210007E9170617D9330F0839571E37D9370E3CF
:103220002A95E1F71124EF90FF900F911F91CF9114
:10323000DF91992787FD909508950E945F1908F402
:1032400081E00895E89409C097FB3EF4909580953D
:10325000709561957F4F8F4F9F4F9923A9F0F92F5C
:1032600096E9BB279395F695879577956795B795DA
:10327000F111F8CFFAF4BB0F11F460FF1BC06F5FC0
:103280007F4F8F4F9F4F16C0882311F096E911C0D2
:10329000772321F09EE8872F762F05C0662371F0F3
:1032A00096E8862F70E060E02AF09A95660F771F07
:1032B000881FDAF7880F9695879597F90895990FE3
:1032C0000008550FAA0BE0E8FEEF16161706E807F0
:1032D000F907C0F012161306E407F50798F0621B11
:1032E000730B840B950B39F40A2661F0232B242BE6
:1032F000252B21F408950A2609F4A140A6958FEF05
:10330000811D811D08950E9496190C94071A0E9430
:10331000F91938F00E94001A20F0952311F00C944E
:10332000F0190C94F61911240C943B1A0E94181AE7
:1033300070F3959FC1F3950F50E0551F629FF00108
:10334000729FBB27F00DB11D639FAA27F00DB11D21
:10335000AA1F649F6627B00DA11D661F829F2227AA
:10336000B00DA11D621F739FB00DA11D621F839F31
:10337000A00D611D221F749F3327A00D611D231F07
:10338000849F600D211D822F762F6A2F11249F5755
:1033900050409AF0F1F088234AF0EE0FFF1FBB1F58
:1033A000661F771F881F91505040A9F79E3F510517
:1033B00080F00C94F0190C943B1A5F3FE4F3983EB4
:1033C000D4F3869577956795B795F795E7959F5FC1
:1033D000C1F7FE2B880F911D9695879597F9089553
:1033E00097F99F6780E870E060E008959FEF80ECB8
:1033F000089500240A94161617061806090608955B
:1034000000240A9412161306140605060895092EC0
:103410000394000C11F4882352F0BB0F40F4BF2B2F
:1034200011F460FF04C06F5F7F4F8F4F9F4F08956F
:1034300057FD9058440F551F59F05F3F71F0479565
:10344000880F97FB991F61F09F3F79F0879508954A
:10345000121613061406551FF2CF4695F1DF08C069
:10346000161617061806991FF1CF86957105610586
:1034700008940895E894BB2766277727CB0197F92E
:103480000895DC01CB01FC01F999FECF06C0F2BD25
:10349000E1BDF89A319600B40D9241505040B8F712
:1034A0000895F999FECF92BD81BDF89A992780B50C
:1034B0000895DC01CB0103C02D910E94641A415094
:1034C0005040D0F70895262FF999FECF1FBA92BD2C
:1034D00081BD20BD0FB6F894FA9AF99A0FBE0196F5
:1034E0000895DB018F939F930E94C21ABF91AF9101
:1034F000A29F800D911DA39F900DB29F900D11244E
:103500000895A1E21A2EAA1BBB1BFD010DC0AA1F24
:10351000BB1FEE1FFF1FA217B307E407F50720F03C
:10352000A21BB30BE40BF50B661F771F881F991FB7
:103530001A9469F760957095809590959B01AC0100
:10354000BD01CF010895052E97FB1EF400940E9443
:10355000BA1A57FD07D00E94811A07FC03D04EF417
:103560000C94BA1A50954095309521953F4F4F4F86
:103570005F4F089590958095709561957F4F8F4F1F
:103580009F4F08950E94041BA59F900DB49F900D1E
:10359000A49F800D911D112408952F923F924F9268
:1035A0005F926F927F928F929F92AF92BF92CF92D3
:1035B000DF92EF92FF920F931F93CF93DF93CDB7DC
:1035C000DEB7CA1BDB0B0FB6F894DEBF0FBECDBF54
:1035D00009942A88398848885F846E847D848C8425
:1035E0009B84AA84B984C884DF80EE80FD800C812E
:1035F0001B81AA81B981CE0FD11D0FB6F894DEBF11
:103600000FBECDBFED010895A29FB001B39FC001D1
:10361000A39F700D811D1124911DB29F700D811DFE
:103620001124911D089510E0CFEDD0E004C0FE01FB
:103630000E9466132196C03ED107C9F7F894FFCFC8
:103640000C000C000C000C000C000C000600030029
:103650000C000C000C000C000C000C000600030019
:103660000C000C000C000C000C000C000600030009
:103670000C000C000C000C000C000C0006000600F6
:1036800012001200120006000600060006000600E6
:1036900006001200120012001200120012000A00AE
:1036A0000A000A000A000A000A00030003000300DF
:1036B00006010B02DC00B801E900D20100000000A5
:1036C00006010B02DC00B801E900D2010000000095
:1036D000AF005D01930026019C003701000000004F
:1036E000AF005D01930026019C003701000000003F
:1036F000370115012601150137013701D000C4003B
:103700001501060172015D01A500D201B8019F01FA
:103710003701F700E900DC00D000000000000000E5
:103720000C000C000C000C000C000C000C000C0039
:103730000C000C000C000C000C000C000C000C0029
:103740000C000C000C000C000C000C000C000C0019
:103750000C000C000C000C000C000C000C000C0009
:103760000900090009000C000C000C000C000C0002
:103770000C000C000C000C000C000C000C000C00E9
:103780000C000C000C000C000C000C000C000C00D9
:103790000C000C000C000C000C000C000C000900CC
:1037A000090009000C000C000C000C000C000C00BF
:1037B0000C000C000C000C000C000C004D0A4D0A13
:1037C00000004D0A00002D084D0A0000400C0000CA
:1037D0000000000020060000000000002D0800008E
:1037E0000000200600000000270500000000E006A1
:1037F0000000B80700004907E006000020064D0A57
:10380000400CC00D0000EA0A400C00004D0A000008
:103810002D082D09B807000000002D080000000049
:10382000200600000000270500000000E006000060
:10383000B80700004907E006000020064D0A400CCA
:10384000C00D0000EA0A400C00004D0A00002D08DF
:103850002D09B80700000000001000000000000063
:1038600000000010001018101F1F1F1F1F1E1C1E1D
:1038700000001E1F1F1F1F1F0103070F0F1F18002F
:1038800000000001010303031818101010100000BD
:1038900000001000001000001F1F1E1F1F0F00005F
:1038A000001C1F1E1F1F1F1F1F1F1B070F1F1C0E8B
:1038B00000010303070707011C1E1E1E1C1C1E100F
:1038C00000181F1C1F1F1F1E0F0F0F0F07030303DE
:1038D000000307070F0F0F031C1E1C181810001001
:1038E0000000101E181E1F1E0F1F1F1F1F1F07077F
:1038F0000000070F0F1F1F1F000000000303070039
:103900001F1F161E1E1E000000001C101C1E1C186F
:103910001F1F1F1F1F190010000F1F1F1F1F1F0F2A
:10392000070707000103030100101010000010003A
:1039300000001800181C18101F1F1F1F1F1F1F1E1C
:10394000001F1F1F1F1F1F1F01010101000000009A
:1039500000000000010101001F1F1F1F1F1F1F1F6C
:103960001E1E1E1E1E1E1E1E1C1C1C1C1C1C1C1C87
:103970001818181818181818101010101010101007
:10398000010000C007800001000000000000005995
:10399000049F08220400041404A004000000006D29
:1039A000089F08000000005D071A05564D44505658
:1039B0005F317C315F564D4450560D0A005365729D
:1039C00069616C204F4B2100494E494349414E44A7
:1039D0004F002E00202754656D61205072696E6380
:1039E0006970616C204D6172696F270020275465F2
:1039F0006D61204D6172696F20556E646572776FDD
:103A0000726C6427004D4F444F2043414C49425251
:103A10004143414F0042414C414E43412043414CC0
:103A20004942524144410047415252414641205689
:103A3000415A494100476172726166612076617A3C
:103A400069613A200047415252414641204348456E
:103A5000494100476172726166612063686569610E
:103A60003A20005065736F206E612062616C616E58
:103A700063613A20005175616E7469646164652008
:103A80006361666520286C74293A20005369747557
:103A90006163616F20646120676172726166613A7F
:103AA00020002D2D2D2D2D2D2D2D2D2D2D2D2D2D80
:103AB0002D2D2D2D2D2D2D2D2D2D2D2D2D2D2D2D36
:103AC0002D2D2D2D2D2D2D2D2D0053494C454E43A3
:103AD0004941444F202800204C00206D4C002025F7
:103AE00029006D696C6C69733A2000202F20004119
:103AF0006C61726D652073696C656E636961646F7A
:103B0000206174653A200053454D2047415252418F
:103B10004641004E4956454C204352495449434F73
:103B200000434146452041434142414E444F0054E9
:103B3000454D204341464500504547414E444F20A6
:103B40004341464500454550524F4D206C69646FD6
:103B50003A2000454550524F4D20477261766164CE
:103B60006F3A200054616D616E686F206D757369E6
:103B700063613A006E616E00696E66006F76660082
:00000001FF
