:100000000C94E0000C9408010C9408010C94080175
:100010000C9408010C9408010C9408010C9408013C
:100020000C9408010C9408010C9408010C9408012C
:100030000C9408010C9408010C9408010C9408011C
:100040000C94AA030C9408010C9493020C946D0276
:100050000C9408010C9408010C9408010C940801FC
:100060000C9408010C9408010000000024002700F3
:100070002A0000000000250028002B0000000000DE
:1000800023002600290004040404040404040202DA
:100090000202020203030303030301020408102007
:1000A0004080010204081020010204081020000012
:1000B0000008000201000003040700000000000027
:1000C000000000407A10F35A00A0724E1809001088
:1000D000A5D4E80000E87648170000E40B540200BD
:1000E00000CA9A3B000000E1F505000080969800E8
:1000F000000040420F000000A08601000000102711
:1001000000000000E80300000000640000000000A0
:100110000A00000000000100000000002C76D888D2
:10012000DC674F0823DFC1DFAE59E1B1B796E5E3E5
:10013000E453C63AE651997696E8E6C28426EB89FE
:100140008C9B62ED407C6FFCEFBC9C9F40F2BAA59B
:100150006FA5F490055A2AF75C936B6CF9676DC133
:100160001BFCE0E40D47FEF520E6B500D0ED902E37
:100170000300943577050080841E080000204E0A95
:10018000000000C80C333333330F986E12831141D3
:10019000EF8D2114893BE65516CFFEE6DB18D1849E
:1001A0004B381BF77C1D901DA4BBE42420328472C5
:1001B0005E228100C9F124ECA1E53D27450D360DF5
:1001C00011241FBECFEFD8E0DEBFCDBF12E0A0E00C
:1001D000B1E0E4E8FCE202C005900D92AE3BB1074D
:1001E000D9F724E0AEEBB2E001C01D92A732B2070E
:1001F000E1F710E0CFEDD0E004C02197FE010E94AE
:10020000A30ECE3DD107C9F70E941D090C943516E7
:100210000C940000DC01ED91FC910190F081E02D47
:100220000994CF92DF92EF92FF920F931F93CF9397
:10023000DF936C017A018B01C0E0D0E0CE15DF05C1
:1002400089F0D8016D918D01D601ED91FC9101905D
:10025000F081E02DC6010995892B11F47E0102C0C1
:100260002196ECCFC701DF91CF911F910F91FF90A5
:10027000EF90DF90CF900895FC01918D828D9817BB
:1002800061F0828DDF01A80FB11D5D968C91928D7A
:100290009F5F9F73928F90E008958FEF9FEF089577
:1002A000FC01918D828D981731F0828DE80FF11D40
:1002B000858D90E008958FEF9FEF0895FC01918D5B
:1002C000228D892F90E0805C9F4F821B91098F7354
:1002D000992708958BE093E00E945E0121E0892B2D
:1002E00009F420E0822F0895FC01848DDF01A80F1E
:1002F000B11DA35ABF4F2C91848D90E001968F734E
:100300009927848FA689B7892C93A089B1898C916C
:1003100080648C93938D848D981306C00288F38932
:10032000E02D80818F7D80830895EF92FF920F935F
:100330001F93CF93DF93EC0181E0888F9B8D8C8D91
:10034000981305C0E889F989808185FD24C0F62EBF
:100350000B8D10E00F5F1F4F0F731127E02E8C8D58
:10036000E8120CC00FB607FCFACFE889F989808142
:1003700085FFF5CFCE010E947401F1CF8B8DFE0178
:10038000E80FF11DE35AFF4FF0820B8FEA89FB89DA
:100390008081806207C0EE89FF896083E889F989DE
:1003A00080818064808381E090E0DF91CF911F9114
:1003B0000F91FF90EF900895CF93DF93EC01888D1C
:1003C0008823C9F0EA89FB89808185FD05C0A88959
:1003D000B9898C9186FD0FC00FB607FCF5CF8081DF
:1003E00085FFF2CFA889B9898C9185FFEDCFCE0129
:1003F0000E947401E7CFDF91CF91089580E090E0F3
:10040000892B29F00E946A0181110C940000089543
:10041000833081F028F4813099F08230A1F0089582
:100420008730A9F08830B9F08430D1F48091800011
:100430008F7D03C0809180008F7780938000089526
:1004400084B58F7702C084B58F7D84BD0895809177
:10045000B0008F7703C08091B0008F7D8093B00093
:1004600008953FB7F8948091BF029091C002A09187
:10047000C102B091C20226B5A89B05C02F3F19F05A
:100480000196A11DB11D3FBFBA2FA92F982F882714
:10049000820F911DA11DB11DBC01CD0142E0660F6F
:1004A000771F881F991F4A95D1F708950C945D1006
:1004B000FC0111821082138212821582148261154E
:1004C000710551F0FB0101900020E9F73197AF0170
:1004D000461B570B0C94750808951F920F920FB688
:1004E0000F9211242F933F934F935F936F937F93BA
:1004F0008F939F93AF93BF93EF93FF938BE093E022
:100500000E947401FF91EF91BF91AF919F918F91E4
:100510007F916F915F914F913F912F910F900FBEFF
:100520000F901F9018951F920F920FB60F921124E3
:100530002F938F939F93EF93FF93E0911B03F09181
:100540001C038081E0912103F091220382FD12C0FF
:100550009081809124038F5F8F73209125038217F0
:1005600051F0E0912403F0E0E55FFC4F958F80931C
:10057000240301C08081FF91EF919F918F912F9172
:100580000F900FBE0F901F901895CF93DF93282FD9
:1005900030E0F901E255FF4F8491F901E656FF4F33
:1005A000D491F901EA57FF4FC491CC2391F0811106
:1005B0000E940802EC2FF0E0EE0FFF1FE458FF4FFF
:1005C000A591B491EC91ED2381E090E021F480E0DD
:1005D00002C080E090E0DF91CF9108951F93CF9308
:1005E000DF93282F30E0F901E255FF4F8491F901A4
:1005F000E656FF4FD491F901EA57FF4FC491CC233F
:10060000C9F0162F81110E940802EC2FF0E0EE0FC6
:10061000FF1FEE58FF4FA591B4918FB7F8941111B9
:1006200005C09C91ED2FE095E92302C0EC91ED2BE4
:10063000EC938FBFDF91CF911F910895CF93DF93FC
:10064000EC0160E08E810E94EE0261E08E810E94EA
:10065000EE0260E08E810E94EE028BE891E001974D
:10066000F1F7DF91CF910895CF93DF9390E0FC01F4
:10067000E656FF4F2491FC01EA57FF4F84918823EF
:1006800061F190E0880F991FFC01E859FF4FC59177
:10069000D491FC01EE58FF4FA591B491611109C0AE
:1006A0009FB7F8948881209582238883EC912E232C
:1006B0000BC0623061F49FB7F8943881822F809527
:1006C00083238883EC912E2B2C939FBF06C08FB77A
:1006D000F894E8812E2B28838FBFDF91CF91089566
:1006E0008F929F92AF92BF92CF92DF92EF92FF9242
:1006F0006B017C010E9431024B015C01C114D104E9
:10070000E104F104F1F00E943102DC01CB0188190F
:100710009909AA09BB09883E9340A105B10570F368
:1007200021E0C21AD108E108F10888EE880E83E0C2
:10073000981EA11CB11CC114D104E104F10419F7E5
:10074000DDCFFF90EF90DF90CF90BF90AF909F9064
:100750008F9008951F920F920FB60F9211242F932E
:100760003F938F939F93AF93BF938091C3029091D8
:10077000C402A091C502B091C6023091BE0223E02E
:10078000230F2D3720F40196A11DB11D05C026E8C9
:10079000230F0296A11DB11D2093BE028093C302B8
:1007A0009093C402A093C502B093C6028091BF0289
:1007B0009091C002A091C102B091C2020196A11D08
:1007C000B11D8093BF029093C002A093C102B09369
:1007D000C202BF91AF919F918F913F912F910F9046
:1007E0000FBE0F901F9018956115710579F0FB01F0
:1007F00001900020E9F73197AF01461B570BDC0150
:10080000ED91FC910280F381E02D099480E090E06D
:1008100008954F925F926F927F92EF92FF920F93A3
:100820001F93CF93DF93CDB7DEB7A1970FB6F894A0
:10083000DEBF0FBECDBF7C01FA01CB0119A2223071
:1008400008F42AE08E010F5D1F4F422E512C612CBF
:10085000712CBF01A30192010E94AE15F901CA01DA
:10086000015011096A3014F4605D01C0695CD8015F
:100870006C93232B242B252B61F7B801C7010E9411
:10088000F403A1960FB6F894DEBF0FBECDBFDF9183
:10089000CF911F910F91FF90EF907F906F905F909D
:1008A0004F9008954F925F926F927F928F929F9296
:1008B000AF92BF92CF92DF92EF92FF92CF93DF93EE
:1008C000EC016A017B01B22E9A01AB01C701B601AE
:1008D0000E94C30F882319F062E571E027C026014A
:1008E0003701E89477F82FEF3FEF4FE75FE7C30159
:1008F000B2010E94C30F81110DC02FEF3FEF4FE7F0
:100900005FE7C301B2010E945A1418161CF466E591
:1009100071E00CC02FEF3FEF4FE75FE4C701B60176
:100920000E94BE0F18169CF46AE571E0CE01DF91BB
:10093000CF91FF90EF90DF90CF90BF90AF909F90BE
:100940008F907F906F905F904F900C94F4032FEFF7
:100950003FEF4FE75FECC701B6010E945A1487FDD5
:10096000E3CF20E030E0A901C701B6010E945A148C
:1009700087FF0AC06DE2CE010E940A014C01F7FA1E
:10098000F094F7F8F09402C0812C912CA12C60E037
:1009900070E080E09FE3AB1441F020E030E040E203
:1009A00051E40E94160FA394F6CF9B01AC01C7013E
:1009B000B6010E94AA0E2B013C010E948F0F6B0111
:1009C0007C010E945F149B01AC01C301B2010E9433
:1009D000A90E2B013C012AE0B701A601CE010E941D
:1009E00009047C01E80CF91CBB2031F06EE2CE0159
:1009F0000E940A01E80EF91EDB2CDD2029F120E01F
:100A000030E040E251E4C301B2010E94C0142B0166
:100A10003C010E948F0F4B01A12CB12C2AE0B501A3
:100A2000A401CE010E940904E80EF91EC501B4011B
:100A30000E945F149B01AC01C301B2010E94A90E88
:100A40002B013C01DA94D9CFC701DF91CF91FF9000
:100A5000EF90DF90CF90BF90AF909F908F907F905E
:100A60006F905F904F9008950C94F403CF92DF92B3
:100A7000EF92FF92CF937C010E948E15C82FC70181
:100A800001960E948E156C2F70E0782B072E000CBB
:100A9000880B990B0E94611420E030E04AE754E48F
:100AA0000E94160F6B017C016EE571E08BE093E014
:100AB0000E943405C701B6010E94D707C701B601DD
:100AC000CF91FF90EF90DF90CF900895CF92DF927B
:100AD000EF92FF92CF93DF93EC01CB01BA0120E0BC
:100AE00030E04AE754E40E94C0140E94880F6B0172
:100AF0007C01CE010E94A0156D2DCE0101960E94B1
:100B0000A0156CE671E08BE093E00E9434050D2C9B
:100B1000000CEE08FF08F7FE0EC06DE28BE093E0DC
:100B20000E940A0144275527BA014C195D096E0934
:100B30007F092AE003C02AE0B701A6018BE093E019
:100B40000E9409046CE871E08BE093E00E94F403DA
:100B500081E0DF91CF91FF90EF90DF90CF900895EB
:100B6000DF92EF92FF920F931F93CF93DF93EC01ED
:100B70008B810E94C502892BD9F76A818B810E94E3
:100B8000EC07082F6A818B810E94EC07182F6A817D
:100B90008B810E94EC07D82EE12CF12C2C8130E0C7
:100BA000E216F30660F461E08A810E94EE0260E0E2
:100BB0008A810E94EE022FEFE21AF20AEFCF812F14
:100BC00090E0A0E0B0E0BA2FA92F982F8827A02BA3
:100BD000AC01BD014D29802F880F880B90E0A0E06B
:100BE000B0E0B82FAA27992788278A019B01082BF4
:100BF000192B2A2B3B2BC901B801DF91CF911F91F3
:100C00000F91FF90EF90DF9008950895CF92DF92BB
:100C1000EF92FF920F931F93CF93DF937C016C01B0
:100C200087E0C80ED11CC0E0D0E0062F10E0B8016C
:100C30000C2E02C0759567950A94E2F76170F60173
:100C400081916F010E94EE022196C430D10579F79F
:100C5000C701DF91CF911F910F91FF90EF90DF902F
:100C6000CF900C941E03CF92DF92EF92FF920F93DE
:100C70001F93CF93DF93EC01F62E642F8C810E949B
:100C8000EE028D818F3F19F060E00E94EE028F85A9
:100C90000F2D10E084FF25C06E0187E0C80ED11C27
:100CA000E12CF12CB8010E2C02C0759567950A94C1
:100CB000E2F76170F60181916F010E94EE02FFEF91
:100CC000EF1AFF0A88E0E816F10461F7CE01DF9120
:100CD000CF911F910F91FF90EF90DF90CF900C94E8
:100CE0001E03B80184E0759567958A95E1F7CE01FA
:100CF0000E9406066F2DCE01DF91CF911F910F91BB
:100D0000FF90EF90DF90CF900C94060641E00E9498
:100D1000330681E090E0089540E00C94330661E0F2
:100D20000E948C068BE39FE10197F1F708950F93E2
:100D30001F93CF93DF931F92CDB7DEB78C0144236F
:100D400031F087EC92E069830E948F06698180E030
:100D50000E94E206F801448155816081718187EC2F
:100D600092E00F90DF91CF911F910F910C941101A0
:100D70000E94BF11EBE0F3E0A089B18982E08C937F
:100D8000A485B5851C92A685B78580E18C93108ECD
:100D9000A489B58986E08C93A289B3898C918061FE
:100DA0008C93A289B3898C9188608C93A289B38932
:100DB0008C9180688C930288F389E02D80818F7DEF
:100DC00080830895643008F063E09091DA02691737
:100DD00010F06FEF690FE62FF0E0E953FD4F9489B3
:100DE000682F690F606887EC92E00C948C06EF9294
:100DF000FF920F931F93CF93DF93EC01423018F0D3
:100E00008F8588608F874B8B1C8A80E48D8B6E8BDF
:100E100070E0605C7F4F6F8B61E08C810E943403D7
:100E20008D818F3F19F061E00E94340361E08E8173
:100E30000E9434037E0187E0E80EF11C00E010E020
:100E40008F8584FD03C084E090E002C088E090E0DC
:100E5000081719074CF461E0F70181917F010E94A6
:100E600034030F5F1F4FECCF8BE39DE00197F1F749
:100E700060E08C810E94EE0260E08E810E94EE02B2
:100E80008D818F3F19F060E00E94EE026F8564FD56
:100E90001DC063E0CE010E9406060BE416E4C80103
:100EA0000197F1F763E0CE010E940606C8010197A1
:100EB000F1F763E0CE010E94060683E592E0019718
:100EC000F1F762E0CE010E94060616C06062CE0114
:100ED0000E948C068BE496E40197F1F76F856062BF
:100EE000CE010E948C0683E592E00197F1F76F85B1
:100EF0006062CE010E948C066F856062CE010E9406
:100F00008C0684E0888B6CE0CE010E948C06CE01BA
:100F10000E948F0682E0898B66E0CE01DF91CF913F
:100F20001F910F91FF90EF900C948C06CF93DF935D
:100F3000BC018BE093E00E94F403EC016CE871E0EB
:100F40008BE093E00E94F4038C0F9D1FDF91CF9103
:100F50000895EF92FF920F931F93CF93DF931F9209
:100F6000CDB7DEB7162F877028E0829FC00111240D
:100F7000682F606487EC92E079830E948C06E12EF2
:100F80007981F72E8701085F1F4FF70161917F017B
:100F900087EC92E00E948606E016F106B1F70F900A
:100FA000DF91CF911F910F91FF90EF900895CF9314
:100FB000DF93AB01BC0122E08BE093E00E9452047E
:100FC000EC016CE871E08BE093E00E94F4038C0F7D
:100FD0009D1FDF91CF910895FF920F931F93CF93A1
:100FE000DF93F82E062FC7E0D0E010E061E0802FFD
:100FF0000E94EE028F2D0E94C5020C2E01C0880FA8
:101000000A94EAF7182B60E0802F0E94EE022197E5
:1010100068F7812FDF91CF911F910F91FF90089575
:10102000CF92DF92EF92FF9260E08091FA030E94EC
:10103000EE0261E08091FA030E94EE026091F203F9
:101040007091F303072E000C880B990B0E9470031C
:1010500060E08091FA030E94EE0288EF93E00E9424
:10106000B005C090FD03D090FE03E090FF03F09028
:1010700000046C197D098E099F090E94611420915A
:1010800001043091020440910304509104040E9431
:10109000160F2DEC3CEC4CEC5DE30E94C0146B0190
:1010A0007C012AE037ED43E25CE30E945A1487FF9B
:1010B0000DC02AE037ED43E25CEBC701B6010E94A8
:1010C000BE0F18161CF4C12CD12C7601C092F4036B
:1010D000D092F503E092F603F092F703C701B60150
:1010E000FF90EF90DF90CF900895EF92FF920F93D3
:1010F0001F93CF93DF93EC017B018A018881998153
:10110000009729F02A813B8124173507F8F4B801AC
:101110006F5F7F4F0E94F510009759F09983888385
:101120001B830A832C813D81232B81F4FC011082D7
:101130000DC088819981009711F00E945D1019827D
:1011400018821D821C821B821A8207C01D830C8399
:10115000B701888199810E94CD11CE01DF91CF9195
:101160001F910F91FF90EF900895FC018081918174
:101170000C945D10EF92FF920F931F93CF93DF9328
:10118000CDB7DEB7A1970FB6F894DEBF0FBECDBFC7
:101190007C01CB01BA01F701118210821382128205
:1011A0001582148242E0420F8E010F5F1F4F0E9492
:1011B000D411009769F0FC0101900020E9F7319704
:1011C000AF01481B590BBC01C7010E9475080EC036
:1011D000F70180819181009711F00E945D10F70165
:1011E000118210821582148213821282A1960FB688
:1011F000F894DEBF0FBECDBFDF91CF911F910F914D
:10120000FF90EF900895FB01DC0111961C921E9255
:1012100013961C921E92129715961C921E9214976A
:101220008617970749F0608171816115710521F07A
:10123000448155810C9475080895CF93DF93CDB701
:10124000DEB72C970FB6F894DEBF0FBECDBF7894F3
:1012500084B5826084BD84B5816084BD85B58260BB
:1012600085BD85B5816085BD80916E00816080936C
:101270006E001092810080918100826080938100D5
:1012800080918100816080938100809180008160E5
:10129000809380008091B10084608093B100809140
:1012A000B00081608093B00080917A008460809368
:1012B0007A0080917A00826080937A0080917A002F
:1012C000816080937A0080917A00806880937A00B0
:1012D0001092C1001092EC031092ED031092EE03F5
:1012E0001092EF031092AA031092AB031092AC037A
:1012F0001092AD0360ED77E080E090E00E94700313
:101300008BE093E09093EB038093EA030E94BA068C
:101310002FB7F8948091C3029091C402A091C502A6
:10132000B091C6022FBF8093AA039093AB03A09302
:10133000AC03B093AD036DE771E08091EA03909147
:10134000EB030E9434056AE070E080E090E00E94C8
:10135000700381E08093BE030E94BA068FE891E09B
:101360000E94960744E064E187EC92E00E94F70651
:1013700060E080E00E94E2066AE971E087EC92E0BA
:101380000E94F40324E6422E512C612C712C809192
:10139000E8020E94C5028C018091EA020E94C50207
:1013A0008091EC020E94C5022091E702222309F4F9
:1013B00026C167EA71E0CE0101960E94580241E021
:1013C00060E070E0CE0101960E949706CE01019682
:1013D0000E94B5088091E702882309F41CC180911E
:1013E000E8020E94C5026C018091EA020E94C502D7
:1013F0008C018091EC020E94C5027C018091FE026A
:1014000090E0C816D90609F04DC09AE0D92E812C7B
:10141000912C540188EF93E00E94B005860E971E30
:10142000A81EB91EDA94D110F5CFC501B4012AE087
:1014300030E040E050E00E94D015CA01B9010E949E
:1014400061144B015C0169837A838B839C8344E044
:1014500050E064E070E0CE0101960E949615C5014F
:10146000B4010E94880F6093FD037093FE03809384
:10147000FF039093000467EB71E0CE0101960E9498
:10148000580241E060E070E0CE0101960E949706AC
:10149000CE0101960E94B50887EB91E00E94960765
:1014A0001092E7028091FE0290E00817190709F0F8
:1014B0004FC00E941008AB01BC0180E090E00E9488
:1014C000660580E090E00E94360560930703709304
:1014D00008038093090390930A0369EC71E0CE013D
:1014E00001960E94580241E060E070E0CE01019652
:1014F0000E949706CE0101960E94B508409107030D
:10150000509108036091090370910A0322E0CE0113
:1015100001960E94BA0840E061E070E0CE010196B9
:101520000E949706CE0101960E94B50867ED71E012
:101530008BE093E00E9434056091070370910803EB
:101540008091090390910A030E94D7071092E70245
:101550008091FE0290E0E816F90609F03BCF0E9468
:101560001008AB01BC0182E090E00E94660582E0B9
:1015700090E00E9436056093DF027093E002809352
:10158000E1029093E20267EE71E0CE0101960E94C3
:10159000580241E060E070E0CE0101960E9497069B
:1015A000CE0101960E94B5084091DF025091E00201
:1015B0006091E1027091E20222E0CE0101960E9468
:1015C000BA0840E061E070E0CE0101960E94970603
:1015D000CE0101960E94B50865EF71E08BE093E0C3
:1015E0000E9434056091DF027091E0028091E10277
:1015F0009091E2020E94D7071092E702EBCE209171
:10160000FE0230E00217130731F48017910719F436
:1016100081E08093E7022091070330910803409115
:10162000090350910A036091DF027091E0028091FA
:10163000E1029091E2020E94A90E6093E30270938E
:10164000E4028093E5029093E6020E941008209144
:101650000703309108034091090350910A030E9447
:10166000A90E609303037093040380930503909382
:1016700006032091E3023091E4024091E50250918B
:10168000E6020E94160F6B017C016093FF027093CB
:10169000000380930103909302038090FA029090DC
:1016A000FB02A090FC02B090FD02A501940160E055
:1016B00070E0CB010E94A90E9B01AC01C701B601ED
:1016C0000E945A1418167CF52091EE023091EF0218
:1016D0004091F0025091F102C701B6010E945A14E4
:1016E00087FD24C02091F2023091F3024091F40270
:1016F0005091F502C701B6010E945A1487FD19C026
:1017000020E030E040E85FE3C501B4010E94AA0E8A
:101710009B01AC01C701B6010E945A14181664F46B
:1017200001E010E00BC000E010E008C002E010E0B3
:1017300005C003E010E002C004E010E026E0209FB6
:10174000C001219F900D11249C012B5F3B4F19017B
:10175000B901CE0107960E94030920910703309139
:1017600008034091090350910A036091DF027091D0
:10177000E0028091E1029091E2020E94A90E609342
:10178000E3027093E4028093E5029093E6020E94E4
:1017900010082091070330910803409109035091EC
:1017A0000A030E94A90E4B015C016093030370932E
:1017B000040380930503909306032091E302309184
:1017C000E4024091E5025091E6020E94160F6B017F
:1017D0007C016093FF027093000380930103909358
:1017E00002032091F6023091F7024091F8025091E5
:1017F000F902C501B4010E94C0144B015C0120E054
:1018000030E0A9010E945A1487FF03C0812C912C5B
:10181000540167ED71E08BE093E00E943405609124
:101820000703709108038091090390910A030E94B5
:10183000D70765E072E08BE093E00E943405609189
:10184000F4037091F5038091F6039091F7030E94E1
:10185000D70767E172E08BE093E00E943405C50191
:10186000B4010E94D7076EE272E08BE093E00E9421
:1018700034054B855C856F8178858BE093E00E9411
:1018800011016CE871E08BE093E00E94F40384E4C2
:1018900092E00E94960720E030E040E85FE3C70155
:1018A000B6010E94BE0F18166CF020E030E0A901CE
:1018B000C701B6010E945A1487FF0AC0C12CD12C5F
:1018C000760106C0C12CD12C80E8E82E8FE3F82EDB
:1018D00087EC92E00E948F0660E080E00E94E206C2
:1018E000B101CE0101960E94030969817A8187ECDA
:1018F00092E00E9434050230110508F4ACC062E0A9
:1019000080E00E94E20620E030E040E85FE3C501AD
:10191000B4010E94BE0F87FD0AC022E0B501A401F8
:1019200087EC92E00E9452046CE672E011C020E065
:1019300030E04AE754E4C501B4010E94C014AB0191
:10194000BC0120E087EC92E00E94520464E772E060
:1019500087EC92E00E94340568E772E087EC92E041
:101960000E94340520E030E048EC52E4C701B601A3
:101970000E94C0146B017C0120E0AB01BC0187EC2C
:1019800092E00E9452046BE772E087EC92E00E94C2
:10199000340560E271E081E00E94A90768E171E02E
:1019A00082E00E94A90760E171E083E00E94A9073C
:1019B00068E071E084E00E94A90760E071E085E0E2
:1019C0000E94A907C701B6010E94880F4B015C0164
:1019D000DB0124E130E00E949C0EA30192010E94F1
:1019E000D01569017A011901D40120E530E00E9487
:1019F0009C0EA30192010E94D0158BEF182FB60107
:101A000016035001179FB00C1124A20EB31E1C1414
:101A10001D041E041F046CF063E08C2D0E94E2067E
:101A20001A141B04C4F46A2D87EC92E00E94860607
:101A300012C0812C912C63E0882D0E94E20665E0A3
:101A400087EC92E00E9486062FEF821A920A821497
:101A500093048CF3E1CFCE0101960E94B508CE012C
:101A600007960E94B5080E94FE0191CCCF93DF93A8
:101A7000C3E2D4E02697CE010E94B50884E0C530C9
:101A8000D807C1F7DF91CF910895CF92DF92EF92FF
:101A9000FF920F931F93CF93DF93CDB7DEB761977C
:101AA0000FB6F894DEBF0FBECDBFEBE0F3E01382BC
:101AB000128288EE93E0A0E0B0E084839583A68351
:101AC000B78386E391E09183808385EC90E09587EE
:101AD000848784EC90E09787868780EC90E0918BF8
:101AE000808B81EC90E0938B828B82EC90E0958BE5
:101AF000848B86EC90E0978B868B118E128E138EE2
:101B0000148E6FE772E085E094E00E9458026BE863
:101B100072E08BE094E00E94580268E972E081E193
:101B200094E00E94580266EA72E087E194E00E9425
:101B3000580264EB72E08DE194E00E945802E7ECF9
:101B4000F2E01382128286E491E0918380838CE03C
:101B500084838FEF85838BE0868385E0878384E0B1
:101B6000808783E0818782E08287138614861586CA
:101B70001686178641E060E1CF010E94F7060FED5F
:101B800012E0F801108686E090E0928781878AE073
:101B900090E09487838789E090E0968785878DEC35
:101BA0009CECACECBDE38787908BA18BB28B4AE9B0
:101BB00059E969E97EE3438B548B658B768BC12CA5
:101BC000D12C20E8E22E2FE3F22EC78AD08EE18EB0
:101BD000F28E838F948FA58FB68F178E80E090E062
:101BE0000E943605F80160A771A782A793A782E03B
:101BF00090E00E943605F8016083718382839383AD
:101C0000C0A2D1A2E2A2F3A262E081850E943403C5
:101C100062E0F80183850E94340362E0F801858563
:101C20000E94340308EF13E08EE491E0F801918301
:101C300080831582168217821086C186D286E3863B
:101C4000F4869A8389831E821F8218861986CA8623
:101C5000DB86EC86FD8688E08B8387E08C8361E001
:101C600088E00E94340360E08C810E94340381E0AC
:101C70008D8360E08B810E94EE02CE0101960E946E
:101C8000B00544E050E064E070E0CE010E960E94A2
:101C90007E15CE84DF84E888F9886EE571E08BE0FC
:101CA00093E00E943405C701B6010E94D7078B81DB
:101CB000F80182838C8183838D818483C701B6017F
:101CC0000E94880FF801658376838783908780E080
:101CD00090EFA2EDB6E481879287A387B48784EF63
:101CE00091E09093F3038093F203E8EAF3E0168225
:101CF000178210861186128613861486158616861C
:101D00001786108A118A128A138A148A158A84E621
:101D100090E09093F1038093F00361960FB6F894EE
:101D2000DEBF0FBECDBFDF91CF911F910F91FF900E
:101D3000EF90DF90CF9008950E942616B7FF089588
:101D4000821B930B0895EE0FFF1F0590F491E02D79
:101D500009945058BB27AA270E94C10E0C94441521
:101D60000E94361538F00E943D1520F039F49F3F4F
:101D700019F426F40C9433150EF4E095E7FB0C945B
:101D80002D15E92F0E94551558F3BA1762077307EE
:101D90008407950720F079F4A6F50C9477150EF4D6
:101DA000E0950B2EBA2FA02D0B01B90190010C016B
:101DB000CA01A0011124FF27591B99F0593F50F483
:101DC000503E68F11A16F040A22F232F342F4427DB
:101DD000585FF3CF469537952795A795F0405395D3
:101DE000C9F77EF41F16BA0B620B730B840BBAF0A3
:101DF0009150A1F0FF0FBB1F661F771F881FC2F70E
:101E00000EC0BA0F621F731F841F48F48795779521
:101E10006795B795F7959E3F08F0B0CF9395880FDB
:101E200008F09927EE0F9795879508950E942A0F3D
:101E30000C9444150E943D1558F00E94361540F050
:101E400029F45F3F29F00C942D1551110C9478154D
:101E50000C9433150E94551568F39923B1F355235B
:101E600091F3951B550BBB27AA27621773078407AD
:101E700038F09F5F5F4F220F331F441FAA1FA9F343
:101E800035D00E2E3AF0E0E832D091505040E69531
:101E9000001CCAF72BD0FE2F29D0660F771F881F92
:101EA000BB1F261737074807AB07B0E809F0BB0B85
:101EB000802DBF01FF2793585F4F3AF09E3F510599
:101EC00078F00C942D150C9478155F3FE4F3983E50
:101ED000D4F3869577956795B795F7959F5FC9F782
:101EE000880F911D9695879597F90895E1E0660F03
:101EF000771F881FBB1F621773078407BA0720F07C
:101F0000621B730B840BBA0BEE1F88F7E0950895E4
:101F10000E948F0F6894B1110C94781508950E9457
:101F20005D1588F09F5798F0B92F9927B751B0F0F9
:101F3000E1F0660F771F881F991F1AF0BA95C9F74D
:101F400014C0B13091F00E947715B1E008950C945F
:101F50007715672F782F8827B85F39F0B93FCCF312
:101F6000869577956795B395D9F73EF490958095CA
:101F7000709561957F4F8F4F9F4F08950E949C14DD
:101F800008F48FEF08950E949C14880B990B089514
:101F9000CF93DF938230910510F482E090E0E091DE
:101FA0002504F091260420E030E0C0E0D0E0309736
:101FB00011F14081518148175907C0F0481759075E
:101FC00061F482819381209719F09B838A832BC0CF
:101FD000909326048093250426C02115310519F01D
:101FE0004217530718F49A01BE01DF01EF01028086
:101FF000F381E02DDCCF2115310509F1281B390BC8
:102000002430310590F412968D919C9113976115AF
:10201000710521F0FB019383828304C09093260411
:1020200080932504FD01329644C0FD01E20FF31FA9
:1020300081939193225031092D933C933AC0209182
:10204000230430912404232B41F420912A01309160
:102050002B013093240420932304209128013091F4
:1020600029012115310541F42DB73EB740912C01CE
:1020700050912D01241B350BE0912304F091240491
:10208000E217F307A0F42E1B3F0B2817390778F04F
:10209000AC014E5F5F4F2417350748F04E0F5F1FAE
:1020A00050932404409323048193919302C0E0E071
:1020B000F0E0CF01DF91CF9108950F931F93CF935D
:1020C000DF93009709F48CC0FC01329713821282CF
:1020D00000912504109126040115110581F4208139
:1020E0003181820F931F20912304309124042817FB
:1020F000390779F5F0932404E093230471C0D801E3
:1021000040E050E0AE17BF0750F412962D913C917D
:102110001397AD012115310509F1D901F3CF9D01C7
:10212000DA013383228360817181860F971F8217C2
:10213000930769F4EC0128813981260F371F2E5F40
:102140003F4F318320838A819B8193838283452BF8
:1021500029F4F0932604E093250442C01396FC93DF
:10216000EE931297ED01499159919E01240F351F6D
:10217000E217F30771F480819181840F951F029615
:1021800011969C938E938281938113969C938E9348
:102190001297E0E0F0E0D80112968D919C91139790
:1021A000009719F0F8018C01F6CF8D919C91980160
:1021B0002E5F3F4F820F931F209123043091240400
:1021C0002817390769F4309729F4109226041092E1
:1021D000250402C013821282109324040093230466
:1021E000DF91CF911F910F910895A0E0B0E0EBEF48
:1021F000F0E10C94F315EC01009721F4CB010E945F
:10220000C80FB8C0FC01E60FF71F9C01225031092E
:10221000E217F30708F4ACC0D9010D911C91119796
:1022200006171707B0F00530110508F49FC0C80164
:1022300004978617970708F499C002501109061BE6
:10224000170B019311936D937C93CF010E945D1046
:102250008DC05B01A01AB10A4C01800E911EA091A5
:102260002504B091260440E050E0E12CF12C1097B9
:1022700009F44AC0A815B905D1F56D907C90119765
:10228000630182E0C80ED11CCA14DB0480F1A301F3
:102290004A195B096A0182E0C80ED11C1296BC90F3
:1022A00012971396AC91B5E0CB16D10440F0B282F0
:1022B000A38351834083D9016D937C930AC00E5F41
:1022C0001F4FC301800F911FF90191838083EB2D74
:1022D000FA2FE114F10431F0D7011396FC93EE9339
:1022E000129744C0F0932604E09325043FC08D91DB
:1022F0009C9111974817590708F4AC017D0112967B
:102300000D90BC91A02DB3CF809123049091240413
:1023100088159905E1F446175707C8F480912801FC
:1023200090912901009741F48DB79EB740912C01FF
:1023300050912D01841B950BE817F907C8F4F09311
:102340002404E0932304F901718360830FC0CB015F
:102350000E94C80F7C01009759F0A801BE010E949D
:10236000C411CE010E945D10C70104C0CE0102C09D
:1023700080E090E0CDB7DEB7EEE00C940F1681E080
:1023800090E0F8940C943516FB01DC0102C001903A
:102390000D9241505040D8F70895FB01DC010190A7
:1023A0000D920020E1F70895EF920F931F93CF93C2
:1023B000DF93E80147FD02C034E001C034E1E42FBF
:1023C000440FFF0BF7FF03C0F195E195F109E32EF0
:1023D000022F2E2FAE010E94F411CE01DF91CF917A
:1023E0001F910F91EF9008954F925F926F927F929D
:1023F0009F92AF92BF92CF92DF92EF92FF920F9394
:102400001F93CF93DF93CDB7DEB729970FB6F8941C
:10241000DEBF0FBECDBF6A01122FB02E2BE32017F7
:1024200020F0FF24F394F00E02C0BCE3FB2E0F2D2E
:1024300027E0AE014F5F5F4F0E948213AC0189819C
:10244000982F9970913031F0E1FC06C0E0FE06C093
:1024500090E205C09DE203C09BE201C090E0EE2D3A
:10246000E07183FF3CC0911102C083E001C084E0B1
:10247000811718F4212F281B01C020E0E1110BC0A7
:10248000F601822F30E2882319F031938150FBCF7F
:10249000C20ED11C20E0992329F0D6019C93F601AD
:1024A00031966F01C6010396E2FE0AC03EE4D601F2
:1024B0003C9341E411964C93119712963C9306C0BD
:1024C0003EE6F601308341E641833283FC01322F40
:1024D00040E2332309F442C041933150FACF82FFE6
:1024E00044C0911102C083E001C084E0811718F458
:1024F000212F281B01C020E0E1110BC0F601822F23
:1025000030E2882319F031938150FBCFC20ED11CE9
:1025100020E0992329F0D6019C93F60131966F01B2
:10252000C6010396E2FE0BC039E4D6013C933EE4BB
:1025300011963C93119736E412963C9307C039E606
:10254000F60130833EE6318336E63283FC01322FDA
:1025500040E2332319F041933150FBCFFC01E20FED
:10256000F11D10828EEF9FEFB7C0F1E0911101C015
:10257000F0E06F2F70E01416150624F49A012F5F17
:102580003F4F02C021E030E0260F371FBB2029F06B
:102590006B2D70E06F5F7F4F02C060E070E0260F30
:1025A000371F612F70E0261737071CF4121B212FED
:1025B00001C020E03E2D387159F4D601322F60E27F
:1025C000332319F06D933150FBCFC20ED11C20E0A4
:1025D000FF2331F0D6019C93B6016F5F7F4F6B01F3
:1025E000E1110BC0F601922F30E3992319F03193DA
:1025F0009150FBCFC20ED11C20E09F2D940F3A8149
:10260000782F7071A72E84FF03C0313309F49150E5
:10261000191624F4993018F098E001C091E0E42FE5
:10262000852F57FF02C0E0E080E06E2F782FE0E0BA
:10263000F0E0AEE29A2E3A01691A71082A01461AB0
:10264000570A0B2D10E01195019511096F3F8FEF7F
:10265000780729F4D6019C92C60101966C014617B1
:10266000570784F0661677066CF47F01E40CF51CBE
:10267000A1E0B0E0AC0FBD1FEA0EFB1ED701119622
:10268000BC9002C090E3B92E615071093196C60129
:1026900001967C016017710724F0D601BC926C0191
:1026A000D5CF6417750741F4363320F4353321F460
:1026B000A11002C081E3B82EF601B082F701822F8B
:1026C00090E2882319F091938150FBCFF701E20F3C
:1026D000F11D108280E090E029960FB6F894DEBFDD
:1026E0000FBECDBFDF91CF911F910F91FF90EF9063
:1026F000DF90CF90BF90AF909F907F906F905F9052
:102700004F900895283008F027E03327DA01990F19
:10271000311D87FD916000966105710539F43260C5
:102720002E5F3D9330E32A95E1F708959F3F30F007
:1027300080387105610509F03C5F3C5F3D93913045
:1027400008F08068911DDF93CF931F930F93FF9242
:10275000EF92192F987F9695E92F96959695E90F08
:10276000FF27E45EFE4F99273327EE24FF24A701BD
:10277000E70105900894079428F4360FE71EF81E29
:10278000491F511D660F771F881F991F0694A1F7D7
:102790000590079428F4E70EF81E491F561FC11D27
:1027A000770F881F991F661F0694A1F7059007945D
:1027B00028F4F80E491F561FC71FD11D880F991FF7
:1027C000661F771F0694A1F70590079420F4490F20
:1027D000561FC71FD81F990F661F771F881F0694A3
:1027E000A9F784911095177041F0D695C795579524
:1027F0004795F794E7941A95C1F7E2ECF0E06894F6
:102800001590159135916591959105907FE273959D
:10281000E118F10A430B560BC90BD009C0F7E10CC4
:10282000F11E431F561FC91FD01D7EF4703311F4D3
:102830008A95E6CFE894015030F0080F0AF400279B
:10284000021708F4202F2395022F7A3328F079E31A
:102850007D932A95E9F710C07D932A9589F6069411
:1028600097956795379517951794E118F10A430BDB
:10287000560BC90BD00998F023957E9173957A3346
:1028800008F070E37C932013B8F77E9170617D931C
:1028900030F0839571E37D9370E32A95E1F711247D
:1028A000EF90FF900F911F91CF91DF91992787FDB6
:1028B000909508950E949C1408F481E00895E8948E
:1028C00009C097FB3EF490958095709561957F4F78
:1028D0008F4F9F4F9923A9F0F92F96E9BB27939526
:1028E000F695879577956795B795F111F8CFFAF436
:1028F000BB0F11F460FF1BC06F5F7F4F8F4F9F4F67
:1029000016C0882311F096E911C0772321F09EE8C4
:10291000872F762F05C0662371F096E8862F70E02A
:1029200060E02AF09A95660F771F881FDAF7880F04
:102930009695879597F90895990F0008550FAA0B5A
:10294000E0E8FEEF16161706E807F907C0F01216C2
:102950001306E407F50798F0621B730B840B950BC5
:1029600039F40A2661F0232B242B252B21F408951A
:102970000A2609F4A140A6958FEF811D811D0895B7
:102980000E94D3140C9444150E94361538F00E940E
:102990003D1520F0952311F00C942D150C94331552
:1029A00011240C9478150E94551570F3959FC1F36E
:1029B000950F50E0551F629FF001729FBB27F00DED
:1029C000B11D639FAA27F00DB11DAA1F649F662742
:1029D000B00DA11D661F829F2227B00DA11D621F91
:1029E000739FB00DA11D621F839FA00D611D221F4B
:1029F000749F3327A00D611D231F849F600D211D2F
:102A0000822F762F6A2F11249F5750409AF0F1F0B1
:102A100088234AF0EE0FFF1FBB1F661F771F881F1A
:102A200091505040A9F79E3F510580F00C942D1510
:102A30000C9478155F3FE4F3983ED4F38695779530
:102A40006795B795F795E7959F5FC1F7FE2B880FC0
:102A5000911D9695879597F9089597F99F6780E856
:102A600070E060E008959FEF80EC089500240A94E0
:102A70001616170618060906089500240A94121659
:102A80001306140605060895092E0394000C11F48C
:102A9000882352F0BB0F40F4BF2B11F460FF04C039
:102AA0006F5F7F4F8F4F9F4F089557FD9058440F92
:102AB000551F59F05F3F71F04795880F97FB991F9D
:102AC00061F09F3F79F0879508951216130614065A
:102AD000551FF2CF4695F1DF08C0161617061806E7
:102AE000991FF1CF86957105610508940895E894C2
:102AF000BB2766277727CB0197F90895DC01CB0127
:102B0000FC01F999FECF06C0F2BDE1BDF89A3196FD
:102B100000B40D9241505040B8F70895F999FECF96
:102B200092BD81BDF89A992780B50895DC01CB014B
:102B300003C02D910E94A11541505040D0F7089537
:102B4000262FF999FECF1FBA92BD81BD20BD0FB6C9
:102B5000F894FA9AF99A0FBE01960895A1E21A2EF6
:102B6000AA1BBB1BFD010DC0AA1FBB1FEE1FFF1F31
:102B7000A217B307E407F50720F0A21BB30BE40B81
:102B8000F50B661F771F881F991F1A9469F76095C8
:102B90007095809590959B01AC01BD01CF01089582
:102BA000052E97FB1EF400940E94E71557FD07D0F1
:102BB0000E94AE1507FC03D04EF40C94E715509517
:102BC0004095309521953F4F4F4F5F4F0895909519
:102BD0008095709561957F4F8F4F9F4F08952F92ED
:102BE0003F924F925F926F927F928F929F92AF929D
:102BF000BF92CF92DF92EF92FF920F931F93CF93EA
:102C0000DF93CDB7DEB7CA1BDB0B0FB6F894DEBF80
:102C10000FBECDBF09942A88398848885F846E84A6
:102C20007D848C849B84AA84B984C884DF80EE80F0
:102C3000FD800C811B81AA81B981CE0FD11D0FB6F9
:102C4000F894DEBF0FBECDBFED010895A29FB00185
:102C5000B39FC001A39F700D811D1124911DB29FD0
:102C6000700D811D1124911D089510E0CFEDD0E06D
:102C700004C0FE010E94A30E2196C03ED107C9F7F1
:042C8000F894FFCFF6
:102C84001F1F1F1F1F1F1F1F1E1E1E1E1E1E1E1E58
:102C94001C1C1C1C1C1C1C1C181818181818181890
:102CA40010101010101010100000270480000100F4
:102CB400000000000000950111015E013C0150017B
:102CC400DC0100000000860611010000000005067A
:102CD40056026E616E00696E66006F766600454549
:102CE40050524F4D206C69646F3A20004545505254
:102CF4004F4D204772617661646F3A2000564D440F
:102D040050565F317C315F564D4450560D0A005386
:102D1400657269616C204F4B2100496E696369617A
:102D24006E646F2E2E2E004D4F444F2043414C496C
:102D340042524143414F0042414C414E43412043A2
:102D4400414C49425241444100474152524146415B
:102D54002056415A4941004761727261666120768A
:102D6400617A69613A200047415252414641204309
:102D74004845494100476172726166612063686534
:102D840069613A20005065736F206E612062616C46
:102D9400616E63613A20005175616E7469646164A7
:102DA40065206361666520286C74293A20005369A4
:102DB40074756163616F206461206761727261661A
:102DC400613A20002D2D2D2D2D2D2D2D2D2D2D2D28
:102DD4002D2D2D2D2D2D2D2D2D2D2D2D2D2D2D2D1F
:102DE4002D2D2D2D2D2D2D2D2D2D2D00206C697487
:102DF400726F7300206D4C00202800202529005399
:102E0400656D204761727261666100506567616E2D
:102E1400646F2063616665004E6976656C20437259
:102E2400697469636F00436166652061636162610F
:0E2E34006E646F0054656D206361666500007A
:00000001FF
