:100000000C94E0000C9408010C9408010C94080175
:100010000C9408010C9408010C9408010C9408013C
:100020000C9408010C9408010C9408010C9408012C
:100030000C9408010C9408010C9408010C9408011C
:100040000C941D080C9408010C940A030C94E4020F
:100050000C9408010C9408010C9408010C940801FC
:100060000C9408010C9408010000000024002700F3
:100070002A0000000000250028002B0000000000DE
:1000800023002600290004040404040404040202DA
:100090000202020203030303030301020408102007
:1000A0004080010204081020010204081020000012
:1000B0000008000201000003040700000000000027
:1000C000000000407A10F35A00A0724E1809001088
:1000D000A5D4E80000E87648170000E40B540200BD
:1000E00000CA9A3B000000E1F505000080969800E8
:1000F000000040420F000000A08601000000102711
:1001000000000000E80300000000640000000000A0
:100110000A00000000000100000000002C76D888D2
:10012000DC674F0823DFC1DFAE59E1B1B796E5E3E5
:10013000E453C63AE651997696E8E6C28426EB89FE
:100140008C9B62ED407C6FFCEFBC9C9F40F2BAA59B
:100150006FA5F490055A2AF75C936B6CF9676DC133
:100160001BFCE0E40D47FEF520E6B500D0ED902E37
:100170000300943577050080841E080000204E0A95
:10018000000000C80C333333330F986E12831141D3
:10019000EF8D2114893BE65516CFFEE6DB18D1849E
:1001A0004B381BF77C1D901DA4BBE42420328472C5
:1001B0005E228100C9F124ECA1E53D273E102F10FD
:1001C00011241FBECFEFD8E0DEBFCDBF15E0A0E009
:1001D000B1E0E6EEF2E302C005900D92AC35B10756
:1001E000D9F726E0ACE5B5E001C01D92A83CB20706
:1001F000E1F710E0CFEDD0E004C02197FE010E94AE
:10020000B911CE3DD107C9F70E94EC0A0C946619CA
:100210000C940000CF92DF92EF92FF920F931F9306
:10022000CF93DF936C017A018B01C0E0D0E0CE1553
:10023000DF0589F0D8016D918D01D601ED91FC911A
:100240000190F081E02DC6010995892B11F47E0102
:1002500002C02196ECCFC701DF91CF911F910F9182
:10026000FF90EF90DF90CF90089583EA95E00E9491
:10027000830621E0892B09F420E0822F0895EF9274
:10028000FF920F931F93CF93DF93EC0181E0888F50
:100290009B8D8C8D981305C0E889F989808185FD37
:1002A00024C0F62E0B8D10E00F5F1F4F0F73112728
:1002B000E02E8C8DE8120CC00FB607FCFACFE8894F
:1002C000F989808185FFF5CFCE010E94E906F1CF43
:1002D0008B8DFE01E80FF11DE35AFF4FF0820B8F6B
:1002E000EA89FB898081806207C0EE89FF8960838B
:1002F000E889F98980818064808381E090E0DF91E2
:10030000CF911F910F91FF90EF900895FC01118202
:10031000108213821282158214826115710551F0C8
:10032000FB0101900020E9F73197AF01461B570B05
:100330000C94B9050895DC01ED91FC910190F081D8
:10034000E02D09946115710579F0FB010190002001
:10035000E9F73197AF01461B570BDC01ED91FC919A
:100360000280F381E02D099480E090E008954F929F
:100370005F926F927F92EF92FF920F931F93CF93B2
:10038000DF93CDB7DEB7A1970FB6F894DEBF0FBEEF
:10039000CDBF7C01FA01CB0119A2223008F42AE07A
:1003A0008E010F5D1F4F422E512C612C712CBF010D
:1003B000A30192010E94D418F901CA010150110948
:1003C0006A3014F4605D01C0695CD8016C93232B22
:1003D000242B252B61F7B801C7010E94A201A19629
:1003E0000FB6F894DEBF0FBECDBFDF91CF911F9146
:1003F0000F91FF90EF907F906F905F904F900895D6
:100400004F925F926F927F928F929F92AF92BF9224
:10041000CF92DF92EF92FF92CF93DF93EC016A01CC
:100420007B01B22E9A01AB01C701B6010E94D9121D
:10043000882319F06BE673E027C026013701E894A2
:1004400077F82FEF3FEF4FE75FE7C301B2010E945C
:10045000D91281110DC02FEF3FEF4FE75FE7C301C6
:10046000B2010E94701718161CF46FE673E00CC0FE
:100470002FEF3FEF4FE75FE4C701B6010E94D412B0
:1004800018169CF463E773E0CE01DF91CF91FF90E3
:10049000EF90DF90CF90BF90AF909F908F907F9024
:1004A0006F905F904F900C94A2012FEF3FEF4FE7BA
:1004B0005FECC701B6010E94701787FDE3CF20E013
:1004C00030E0A901C701B6010E94701787FF0AC07A
:1004D0006DE2CE010E949B014C01F7FAF094F7F80F
:1004E000F09402C0812C912CA12C60E070E080E09F
:1004F0009FE3AB1441F020E030E040E251E40E9481
:100500002C12A394F6CF9B01AC01C701B6010E9447
:10051000C0112B013C010E94A5126B017C010E94BD
:1005200075179B01AC01C301B2010E94BF112B01E1
:100530003C012AE0B701A601CE010E94B7017C016F
:10054000E80CF91CBB2031F06EE2CE010E949B0149
:10055000E80EF91EDB2CDD2029F120E030E040E23E
:1005600051E4C301B2010E94D6172B013C010E9445
:10057000A5124B01A12CB12C2AE0B501A401CE019A
:100580000E94B701E80EF91EC501B4010E9475175B
:100590009B01AC01C301B2010E94BF112B013C01C0
:1005A000DA94D9CFC701DF91CF91FF90EF90DF9020
:1005B000CF90BF90AF909F908F907F906F905F9003
:1005C0004F9008950C94A2011F920F920FB60F92B4
:1005D00011242F933F934F935F936F937F938F9348
:1005E0009F93AF93BF93EF93FF9383EA95E00E94AD
:1005F000E906FF91EF91BF91AF919F918F917F910C
:100600006F915F914F913F912F910F900FBE0F907F
:100610001F9018951F920F920FB60F9211242F93CF
:100620008F939F93EF93FF93E091B305F091B405FF
:100630008081E091B905F091BA0582FD12C09081E8
:100640008091BC058F5F8F732091BD05821751F09B
:10065000E091BC05F0E0ED55FA4F958F8093BC0515
:1006600001C08081FF91EF919F918F912F910F9009
:100670000FBE0F901F9018950E94D514E3EAF5E085
:10068000A089B18982E08C93A485B5851C92A6854A
:10069000B78580E18C93108EA489B58986E08C9310
:1006A000A289B3898C9180618C93A289B3898C9142
:1006B00088608C93A289B3898C9180688C9302881E
:1006C000F389E02D80818F7D80830895643008F068
:1006D00063E090917905691710F06FEF690FE62FCD
:1006E000F0E0EA59FA4F9489682F690F606886E64E
:1006F00095E00C94C00AEF92FF920F931F93CF9353
:10070000DF93EC01423018F08F8588608F874B8B28
:100710001C8A80E48D8B6E8B70E0605C7F4F6F8BEA
:1007200061E08C810E949B078D818F3F19F061E011
:100730000E949B0761E08E810E949B077E0187E0FB
:10074000E80EF11C00E010E08F8584FD03C084E01A
:1007500090E002C088E090E0081719074CF461E0CF
:10076000F70181917F010E949B070F5F1F4FECCF24
:100770008BE39DE00197F1F760E08C810E945507C3
:1007800060E08E810E9455078D818F3F19F060E0F7
:100790000E9455076F8564FD1DC063E0CE010E9475
:1007A0003A0A0BE416E4C8010197F1F763E0CE01C1
:1007B0000E943A0AC8010197F1F763E0CE010E9456
:1007C0003A0A83E592E00197F1F762E0CE010E94D8
:1007D0003A0A16C06062CE010E94C00A8BE496E419
:1007E0000197F1F76F856062CE010E94C00A83E530
:1007F00092E00197F1F76F856062CE010E94C00A16
:100800006F856062CE010E94C00A84E0888B6CE034
:10081000CE010E94C00ACE010E94C30A82E0898BE9
:1008200066E0CE01DF91CF911F910F91FF90EF9085
:100830000C94C00ACF93DF93BC0183EA95E00E9439
:10084000A201EC0166E873E083EA95E00E94A20150
:100850008C0F9D1FDF91CF910895EF92FF920F9320
:100860001F93CF93DF931F92CDB7DEB7162F8770FC
:1008700028E0829FC0011124682F606486E695E01D
:1008800079830E94C00AE12E7981F72E8701085FE3
:100890001F4FF70161917F0186E695E00E94BA0A39
:1008A000E016F106B1F70F90DF91CF911F910F91F4
:1008B000FF90EF900895CF93DF93AB01BC012AE046
:1008C00083EA95E00E94B701EC0166E873E083EAF1
:1008D00095E00E94A2018C0F9D1FDF91CF9108959A
:1008E000CF93DF93FC01448155816081718183EA5C
:1008F00095E00E940A01EC0166E873E083EA95E066
:100900000E94A2018C0F9D1FDF91CF910895CF937C
:10091000DF93AB01BC0122E083EA95E00E94000274
:10092000EC0166E873E083EA95E00E94A2018C0F77
:100930009D1FDF91CF910895FF920F931F93CF9347
:10094000DF93F82E062FC7E0D0E010E061E0802FA3
:100950000E9455078F2D0E942C070C2E01C0880F76
:100960000A94EAF7182B60E0802F0E945507219720
:1009700068F7812FDF91CF911F910F91FF9008951C
:10098000CF92DF92EF92FF9260E0809192060E94F8
:10099000550761E0809192060E94550760918A0692
:1009A00070918B06072E000C880B990B0E94D707BD
:1009B00060E0809192060E94550780E996E00E94CF
:1009C0005509C0909506D0909606E0909706F09055
:1009D00098066C197D098E099F090E94771720914E
:1009E000990630919A0640919B0650919C060E9470
:1009F0002C122DEC3CEC4CEC5DE30E94D6176B0105
:100A00007C012AE037ED43E25CE30E94701787FF28
:100A10000DC02AE037ED43E25CEBC701B6010E944E
:100A2000D41218161CF4C12CD12C7601C0928C065D
:100A3000D0928D06E0928E06F0928F06C701B60125
:100A4000FF90EF90DF90CF900895CF92DF92EF92DA
:100A5000FF92CF93DF936C01990FEE08FF08F7FE2A
:100A600016C06DE283EA95E00E949B01EC014427E9
:100A70005527BA014C195D096E097F092AE083EAFE
:100A800095E00E94B7017C01EC0EFD1E08C02AE033
:100A9000B701A60183EA95E00E94B7017C0166E8F0
:100AA00073E083EA95E00E94A2018E0D9F1DDF9105
:100AB000CF91FF90EF90DF90CF9008958F929F920B
:100AC000AF92BF92CF92DF92EF92FF920F931F935C
:100AD000CF93DF934B015C01CA01B901A5019401D9
:100AE0000E94C41828EE33E040E050E00E94F6185F
:100AF00069017A0160E271EA87E090E0A501940162
:100B00000E94F6188901C901880F991F880F991F43
:100B1000EC012597812C912C54018C149D04AE047A
:100B2000BF04D4F461E083E10E945507023011054F
:100B300018F0CE010197F1F760E083E10E945507BC
:100B40000230110518F0CE010197F1F78FEF881AE6
:100B5000980AA80AB80AE1CFDF91CF911F910F91AF
:100B6000FF90EF90DF90CF90BF90AF909F908F90CD
:100B70000895EF92FF920F931F93CF93DF93EC01B1
:100B80007B018A0188819981009729F02A813B8124
:100B900024173507F8F4B8016F5F7F4F0E940B14DC
:100BA000009759F0998388831B830A832C813D81A8
:100BB000232B81F4FC0110820DC08881998100975C
:100BC00011F00E947313198218821D821C821B82ED
:100BD0001A8207C01D830C83B701888199810E9406
:100BE000E314CE01DF91CF911F910F91FF90EF9011
:100BF0000895FC01808191810C947313EF92FF9210
:100C00000F931F93CF93DF93CDB7DEB7A1970FB6A6
:100C1000F894DEBF0FBECDBF7C01CB01BA01F70156
:100C200011821082138212821582148242E0420FD6
:100C30008E010F5F1F4F0E94EA14009769F0FC01BC
:100C400001900020E9F73197AF01481B590BBC0117
:100C5000C7010E94B9050EC0F701808191810097FC
:100C600011F00E947313F701118210821582148211
:100C700013821282A1960FB6F894DEBF0FBECDBFCD
:100C8000DF91CF911F910F91FF90EF900895FB019D
:100C9000DC0111961C921E9213961C921E921297C2
:100CA00015961C921E9214978617970749F060813B
:100CB00071816115710521F0448155810C94B9054C
:100CC0000895FC01918D828D981761F0828DDF016E
:100CD000A80FB11D5D968C91928D9F5F9F73928F2F
:100CE00090E008958FEF9FEF0895FC01918D828D24
:100CF000981731F0828DE80FF11D858D90E00895F1
:100D00008FEF9FEF0895FC01918D228D892F90E048
:100D1000805C9F4F821B91098F739927089580E013
:100D200090E0892B29F00E94350181110C9400007C
:100D30000895833081F028F4813099F08230A1F059
:100D400008958730A9F08830B9F08430D1F48091CB
:100D500080008F7D03C0809180008F77809380001A
:100D6000089584B58F7702C084B58F7D84BD0895C2
:100D70008091B0008F7703C08091B0008F7D809309
:100D8000B00008953FB7F8948091C0069091C106D5
:100D9000A091C206B091C30626B5A89B05C02F3FFF
:100DA00019F00196A11DB11D3FBFBA2FA92F982F91
:100DB0008827820F911DA11DB11DBC01CD0142E00C
:100DC000660F771F881F991F4A95D1F708950C94D5
:100DD0007313FC01848DDF01A80FB11DA35ABF4F0F
:100DE0002C91848D90E001968F739927848FA6892A
:100DF000B7892C93A089B1898C9180648C93938D51
:100E0000848D981306C00288F389E02D80818F7D40
:100E100080830895CF93DF93EC01888D8823C9F0F8
:100E2000EA89FB89808185FD05C0A889B9898C91F3
:100E300086FD0FC00FB607FCF5CF808185FFF2CF8E
:100E4000A889B9898C9185FFEDCFCE010E94E90672
:100E5000E7CFDF91CF910895CF93DF93282F30E034
:100E6000F901E255FF4F8491F901E656FF4FD49105
:100E7000F901EA57FF4FC491CC2391F081110E94F0
:100E80009906EC2FF0E0EE0FFF1FE458FF4FA591FD
:100E9000B491EC91ED2381E090E021F480E002C078
:100EA00080E090E0DF91CF9108951F93CF93DF937F
:100EB000282F30E0F901E255FF4F8491F901E65601
:100EC000FF4FD491F901EA57FF4FC491CC23C9F0E9
:100ED000162F81110E949906EC2FF0E0EE0FFF1FF4
:100EE000EE58FF4FA591B4918FB7F894111105C03A
:100EF0009C91ED2FE095E92302C0EC91ED2BEC9352
:100F00008FBFDF91CF911F910895CF93DF93EC01B5
:100F100060E08E810E94550761E08E810E94550736
:100F200060E08E810E9455078BE891E00197F1F710
:100F3000DF91CF910895CF93DF9390E0FC01E656C7
:100F4000FF4F2491FC01EA57FF4F8491882361F100
:100F500090E0880F991FFC01E859FF4FC591D4918B
:100F6000FC01EE58FF4FA591B491611109C09FB7E4
:100F7000F8948881209582238883EC912E230BC0DE
:100F8000623061F49FB7F8943881822F8095832373
:100F90008883EC912E2B2C939FBF06C08FB7F894BB
:100FA000E8812E2B28838FBFDF91CF9108958F92F8
:100FB0009F92AF92BF92CF92DF92EF92FF926B011E
:100FC0007C010E94C2064B015C01C114D104E10402
:100FD000F104F1F00E94C206DC01CB0188199909E5
:100FE000AA09BB09883E9340A105B10570F321E031
:100FF000C21AD108E108F10888EE880E83E0981E35
:10100000A11CB11CC114D104E104F10419F7DDCF16
:10101000FF90EF90DF90CF90BF90AF909F908F9018
:1010200008952FB7F8946091BC067091BD06809129
:10103000BE069091BF062FBF08951F920F920FB664
:101040000F9211242F933F938F939F93AF93BF934E
:101050008091BC069091BD06A091BE06B091BF06DE
:101060003091BB0623E0230F2D3720F40196A11DFC
:10107000B11D05C026E8230F0296A11DB11D2093C6
:10108000BB068093BC069093BD06A093BE06B093AA
:10109000BF068091C0069091C106A091C206B09192
:1010A000C3060196A11DB11D8093C0069093C10691
:1010B000A093C206B093C306BF91AF919F918F9149
:1010C0003F912F910F900FBE0F901F9018950F9387
:1010D0001F93CF93DF938C01CB01BA0120E030E066
:1010E0004AE754E40E94D6170E949E12D62FC72FBB
:1010F000C8010E94B6186C2FC80101960E94B6184C
:101100006EE075E083EA95E00E94E2028D2F9C2F4D
:101110000E94250581E0DF91CF911F910F910895E5
:10112000CF92DF92EF92FF92CF937C010E94A4189E
:10113000C82FC70101960E94A4186C2F70E0782B6D
:10114000072E000C880B990B0E94771720E030E0E7
:101150004AE754E40E942C126B017C0160E075E0C8
:1011600083EA95E00E94E202C701B6010E9487046B
:10117000C701B601CF91FF90EF90DF90CF90089517
:101180000F931F93CF93DF9386E00E942C078C016F
:101190008AE00E942C07EC0189E00E942C07012BB9
:1011A000E9F1CD2BD9F1892BC9F10E9411080091E9
:1011B0005C0510915D0520915E0530915F05061775
:1011C00017072807390710F4109240038091400355
:1011D000882309F465C06FE175E083EA95E00E9419
:1011E000E2020E941108AB01BC012AE083EA95E00B
:1011F0000E94B70168E275E083EA95E00E94E2028E
:1012000060915C0570915D0580915E0590915F0530
:10121000DF91CF911F910F910C945B040E941108F4
:1012200060935C0570935D0580935E0590935F0508
:101230006CE275E083EA95E00E94E20260915C0551
:1012400070915D0580915E0590915F050E945B0441
:1012500080915C0590915D05A0915E05B0915F0560
:10126000805E9044AD4FBF4F80935C0590935D05C9
:10127000A0935E05B0935F0564E375E083EA95E0B3
:101280000E94E20260915C0570915D0580915E05AF
:1012900090915F050E945B0481E08093400385CFBD
:1012A000DF91CF911F910F910895DF92EF92FF92FE
:1012B0000F931F93CF93DF93EC018B810E942C0738
:1012C000892BD9F76A818B810E949C04082F6A813F
:1012D0008B810E949C04182F6A818B810E949C0440
:1012E000D82EE12CF12C2C8130E0E216F30660F4CC
:1012F00061E08A810E94550760E08A810E9455075B
:101300002FEFE21AF20AEFCF812F90E0A0E0B0E0D9
:10131000BA2FA92F982F8827A02BAC01BD014D29EA
:10132000802F880F880B90E0A0E0B0E0B82FAA27AC
:10133000992788278A019B01082B192B2A2B3B2BE5
:10134000C901B801DF91CF911F910F91FF90EF90EC
:10135000DF90089508954F925F926F927F928F92DF
:101360009F92AF92BF92CF92DF92EF92FF920F9334
:101370001F93CF93DF9300D0CDB7DEB7B62EA72E45
:10138000690149835A830E9470046CE475E083EA22
:1013900095E00E94E202C6010E9425054981E42EE3
:1013A0005A81F52E0B2D1A2D812C912C88EEA82E0A
:1013B00083E0B82E8C149D040CF049C087E0881699
:1013C00091048CF086E00E942C072C018AE00E9498
:1013D0002C073C0189E00E942C074528C1F16728B1
:1013E000B1F1892BA1F1F701619171917F01C501E3
:1013F0000E948A112B01770F66087708F801619126
:1014000071918F01072E000C880B990BA30192019B
:101410000E945E05C301B2010E94771726E636E6F8
:1014200046EA5FE30E94D6170E949E12072E000C28
:10143000880B990B0E94D707A301920160E070E02E
:10144000CB010E945E05FFEF8F1A9F0AB3CF0F906A
:101450000F90DF91CF911F910F91FF90EF90DF9050
:10146000CF90BF90AF909F908F907F906F905F9044
:101470004F900895CF92DF92EF92FF920F931F93B8
:10148000CF93DF937C016C0187E0C80ED11CC0E0D4
:10149000D0E0062F10E0B8010C2E02C075956795BC
:1014A0000A94E2F76170F60181916F010E9455077D
:1014B0002196C430D10579F7C701DF91CF911F91F3
:1014C0000F91FF90EF90DF90CF900C948507CF9213
:1014D000DF92EF92FF920F931F93CF93DF93EC0174
:1014E000F62E642F8C810E9455078D818F3F19F055
:1014F00060E00E9455078F850F2D10E084FF25C006
:101500006E0187E0C80ED11CE12CF12CB8010E2C25
:1015100002C0759567950A94E2F76170F6018191B2
:101520006F010E945507FFEFEF1AFF0A88E0E816E7
:10153000F10461F7CE01DF91CF911F910F91FF90E0
:10154000EF90DF90CF900C948507B80184E07595FB
:1015500067958A95E1F7CE010E943A0A6F2DCE0178
:10156000DF91CF911F910F91FF90EF90DF90CF907F
:101570000C943A0A41E00E94670A81E090E00895E5
:1015800040E00C94670A61E00E94C00A8BE39FE18F
:101590000197F1F708950F931F93CF93DF931F9255
:1015A000CDB7DEB78C01442331F086E695E0698340
:1015B0000E94C30A698180E00E946603F8014481A9
:1015C00055816081718186E695E00F90DF91CF9122
:1015D0001F910F910C940A01CF93DF93CDB7DEB723
:1015E0002C970FB6F894DEBF0FBECDBF789484B5AC
:1015F000826084BD84B5816084BD85B5826085BD0F
:1016000085B5816085BD80916E00816080936E009C
:10161000109281008091810082608093810080918E
:10162000810081608093810080918000816080933F
:1016300080008091B10084608093B1008091B000FF
:1016400081608093B00080917A00846080937A00FA
:1016500080917A00826080937A0080917A00816024
:1016600080937A0080917A00806880937A0010924B
:10167000C100109284061092850610928606109280
:10168000870610924206109243061092440610926A
:10169000450660ED77E080E090E00E94D70783EA9E
:1016A00095E090938306809382060E943E030E94F9
:1016B000110860934206709343068093440690930A
:1016C000450667E773E080918206909183060E9449
:1016D000E2026AE070E080E090E00E94D70781E0DB
:1016E000809356060E943E0389E893E00E941A0404
:1016F00044E064E186E695E00E947B0360E080E0E0
:101700000E94660361E082E10E949B0764E973E046
:1017100086E695E00E94E2020BE010E064E670E0ED
:1017200080E090E00E94D7076EE973E086E695E0DE
:101730000E94E2020150110989F724E6422E512C41
:10174000612C712C86E00E942C077C018AE00E94AB
:101750002C076C0189E00E942C078C01CD2851F5E3
:10176000892B41F560EA73E0CE0101960E94860163
:101770002EE430E040EE51E06CE772E0CE010196DD
:101780000E94AB09CE0101960E94F90568EB73E057
:10179000CE0101960E94860128E330E040E051E04E
:1017A00060E771E0CE0101960E94AB09CE0101967F
:1017B0000E94F90580918205882309F41DC180915A
:1017C000600590916105A0916205B0916305892B38
:1017D0008A2B8B2B09F410C161ED73E0CE010196C9
:1017E0000E94860141E060E070E0CE0101960E9417
:1017F000CB0ACE0101960E94F9050E941108809043
:10180000600590906105A0906205B0906305861612
:101810009706A806B90608F0EFC061EE73E0CE01A6
:1018200001960E94860140E061E070E0CE010196E1
:101830000E94CB0ACE0101960E94F90561EF73E088
:10184000CE0101960E94860140E062E070E0CE0188
:1018500001960E94CB0ACE0101960E94F90561E033
:1018600074E0CE0101960E94860140E063E070E0E2
:10187000CE0101960E94CB0ACE0101960E94F90585
:1018800080918205882309F4B7C086E00E942C0766
:101890007C018AE00E942C076C0189E00E942C07E1
:1018A0008C01E114F10409F050C0CD2849F3892BD3
:1018B00039F39AE0D92E812C912C540180E996E0DD
:1018C0000E945509860E971EA81EB91EDA94D110E3
:1018D000F5CFC501B4012AE030E040E050E00E94BD
:1018E000F618CA01B9010E9477174B015C016983A0
:1018F0007A838B839C8344E050E064E070E0CE0107
:1019000001960E94AC18C501B4010E949E1260931A
:10191000950670939606809397069093980661E1DA
:1019200074E0CE0101960E94860141E060E070E023
:10193000CE0101960E94CB0ACE0101960E94F905C4
:1019400081E194E00E941A0454C0CD2809F038C304
:101950000115110509F494CF0E94C004AB01BC012C
:1019600080E090E00E94670880E090E00E9490088C
:1019700060939B0570939C0580939D0590939E05B5
:1019800063EF73E0CE0101960E94860141E060E0C2
:1019900070E0CE0101960E94CB0ACE0101960E9412
:1019A000F90540919B0550919C0560919D057091B2
:1019B0009E0522E0CE0101960E94FE0540E061E016
:1019C00070E0CE0101960E94CB0ACE0101960E94E2
:1019D000F90563E274E083EA95E00E94E202609117
:1019E0009B0570919C0580919D0590919E050E949C
:1019F00087041092820544CFEF28A9F4012B99F4B3
:101A00000E941108DC01CB0188519C4FAF4FBF4FA2
:101A10008093600590936105A0936205B093630580
:101A200081E08093820520919B0530919C05409137
:101A30009D0550919E0560919F057091A005809134
:101A4000A1059091A2050E94BF1160937E0570933D
:101A50007F0580938005909381050E94C0042091AA
:101A60009B0530919C0540919D0550919E050E94DB
:101A7000BF11609397057093980580939905909393
:101A80009A0520917E0530917F0540918005509107
:101A900081050E942C126B017C0160939305709369
:101AA0009405809395059093960580908F0590906E
:101AB0009005A0909105B0909205A501940160E079
:101AC00070E0CB010E94BF119B01AC01C701B601C0
:101AD0000E94701718167CF52091830530918405BB
:101AE0004091850550918605C701B6010E94701787
:101AF00087FD24C020918705309188054091890594
:101B000050918A05C701B6010E94701787FD19C060
:101B100020E030E040E85FE3C501B4010E94C0115D
:101B20009B01AC01C701B6010E947017181664F43E
:101B300004E010E00BC000E010E008C001E010E09D
:101B400005C002E010E002C003E010E026E0209FA4
:101B5000C001219F900D11249C012356394F19017A
:101B6000B901CE0107960E94470620919B0530914E
:101B70009C0540919D0550919E0560919F05709137
:101B8000A0058091A1059091A2050E94BF116093CC
:101B90007E0570937F0580938005909381050E9458
:101BA000C00420919B0530919C0540919D0550916A
:101BB0009E050E94BF114B015C01609397057093D5
:101BC00098058093990590939A0520917E05309110
:101BD0007F0540918005509181050E942C126B0178
:101BE0007C01609393057093940580939505909381
:101BF000960520918B0530918C0540918D05509173
:101C00008E05C501B4010E94D6174B015C0120E08E
:101C100030E0A9010E94701787FF03C0812C912C2E
:101C2000540163E474E083EA95E00E94E20260916B
:101C30008C0670918D0680918E0690918F060E9481
:101C4000870463E274E083EA95E00E94E202609117
:101C50009B0570919C0580919D0590919E050E9429
:101C6000870463E374E083EA95E00E94E2026091F6
:101C70009F057091A0058091A1059091A2050E94F9
:101C8000870465E574E083EA95E00E94E202C501FD
:101C9000B4010E9487046CE674E083EA95E00E9438
:101CA000E202CE0107960E94700482E894E00E944E
:101CB0001A0420E030E040E85FE3C701B6010E946B
:101CC000D41218166CF020E030E0A901C701B6016B
:101CD0000E94701787FF0AC0C12CD12C760106C064
:101CE000C12CD12C80E8E82E8FE3F82E86E695E013
:101CF0000E94C30A60E080E00E946603B101CE0149
:101D000001960E94470669817A8186E695E00E94E5
:101D1000E2020230110561F40E94C00833243394BA
:101D20008091640590916505059781F0312C0EC076
:101D300001301105A9F40E94C008809164059091BA
:101D4000650562E070E00E948A11382E632D82E101
:101D50000E9455078091400381111BC0632D16C05E
:101D60000115110561F40E94C00861E082E10E9442
:101D700055078091400381110CC061E007C01092AB
:101D8000400360E082E10E94550760E083E10E9429
:101D9000550780914003882309F447C060E083E140
:101DA0000E94550762E080E00E946603C0905C05D7
:101DB000D0905D05E0905E05F0905F050E941108EF
:101DC000A7019601261B370B480B590B1216130659
:101DD000140615069CF40E941108A7019601261B03
:101DE000370B480B590BCA01B90128EE33E040E02C
:101DF00050E00E94D41869017A0103C0C12CD12C93
:101E000076016AEA74E086E695E00E94E2022AE042
:101E1000B701A60186E695E00E94B70160EC74E088
:101E200086E695E00E94E202AFC00B7F012B09F429
:101E3000ABC062E080E00E94660320E030E040E852
:101E40005FE3C501B4010E94D41287FD0AC022E0FD
:101E5000B501A40186E695E00E94000267EB74E0FC
:101E600011C020E030E04AE754E4C501B4010E940B
:101E7000D617AB01BC0120E086E695E00E94000287
:101E80006AEB74E086E695E00E94E20264EB74E09F
:101E900086E695E00E94E20220E030E048EC52E461
:101EA000C701B6010E94D6176B017C0120E0AB018F
:101EB000BC0186E695E00E9400026EEB74E086E6C7
:101EC00095E00E94E20268E373E081E00E942D0445
:101ED00060E373E082E00E942D0468E273E083E037
:101EE0000E942D0460E273E084E00E942D0468E10A
:101EF00073E085E00E942D04C701B6010E949E1286
:101F00004B015C01DB0124E130E00E949E11A30142
:101F100092010E94F61869017A011901D40120E5A5
:101F200030E00E949E11A30192010E94F6181BEF5F
:101F3000B60116035001179FB00C1124A20EB31E58
:101F40001C141D041E041F046CF063E08C2D0E9401
:101F500066031A141B04C4F46A2D86E695E00E94F9
:101F6000BA0A12C0812C912C63E0882D0E9466036E
:101F700065E086E695E00E94BA0A2FEF821A920A7F
:101F8000821493048CF3E1CF8091640590916505F0
:101F9000873091052CF0109265051092640505C0FC
:101FA00001969093650580936405CE0101960E9489
:101FB000F905CE0107960E94F9050E948F06C2CB53
:101FC000892B09F05DCC0E94C004AB01BC0182E00A
:101FD00090E00E94670882E090E00E949008609381
:101FE0009F057093A0058093A1059093A20563EED1
:101FF00073E0CE0101960E94860141E060E070E04E
:10200000CE0101960E94CB0ACE0101960E94F905ED
:1020100040919F055091A0056091A1057091A20586
:1020200022E0CE0101960E94FE0540E061E070E0F2
:10203000CE0101960E94CB0ACE0101960E94F905BD
:1020400063E374E083EA95E00E94E20260919F05F9
:102050007091A0058091A1059091A205C8CCCF9365
:10206000DF93CBEBD6E02697CE010E94F90586E000
:10207000CD39D807C1F7DF91CF910895CF92DF9284
:10208000EF92FF920F931F93CF93DF93CDB7DEB7FD
:1020900061970FB6F894DEBF0FBECDBFE3EAF5E05F
:1020A0001382128288EE93E0A0E0B0E084839583EF
:1020B000A683B7838FE493E09183808385EC90E0DF
:1020C0009587848784EC90E09787868780EC90E002
:1020D000918B808B81EC90E0938B828B82EC90E0F3
:1020E000958B848B86EC90E0978B868B118E128E6D
:1020F000138E148E62EC74E08DE996E00E948601E6
:102100006EEC74E083EA96E00E9486016CED74E068
:1021100089EA96E00E9486016AEE74E08FEA96E012
:102120000E94860163EF74E085EB96E00E948601D1
:10213000E6E6F5E0138212828FE593E091838083D7
:102140008CE084838FEF85838BE0868385E08783B3
:1021500084E0808783E0818782E08287138614860B
:1021600015861686178641E060E1CF010E947B0349
:102170000EE715E0F80114828DEC9CECACECBDE3AD
:1021800085839683A783B0874AE959E969E97EE3A5
:102190004187528763877487C12CD12C20E8E22EB7
:1021A0002FE3F22EC586D686E786F08A818B928B46
:1021B000A38BB48B80E090E00E949008F801658FBB
:1021C000768F878F90A382E090E00E949008F801BC
:1021D00061A372A383A394A3C58AD68AE78AF08EEB
:1021E00062E086E00E949B0762E08AE00E949B0713
:1021F00062E089E00E949B0761E083E10E949B0707
:1022000000E916E087E693E0F80191838083158268
:10221000168217821086C186D286E386F4869A8358
:1022200089831E821F8218861986CA86DB86EC8601
:10223000FD8688E08B8387E08C8361E088E00E94E4
:102240009B0760E08C810E949B0781E08D8360E0AA
:102250008B810E945507CE0101960E94550944E0EA
:1022600050E064E070E0CE010E960E949418CE8497
:10227000DF84E888F98860E075E083EA95E00E94F1
:10228000E202C701B6010E9487048B81F8018283B4
:102290008C8183838D818483C701B6010E949E1245
:1022A000F801658376838783908780E090EFA2EDC5
:1022B000B6E481879287A387B48782E390E0909306
:1022C0008B0680938A06E0E4F6E016821782108679
:1022D0001186128613861486158616861786108A2E
:1022E000118A128A138A148A158A84E690E09093E0
:1022F00089068093880661960FB6F894DEBF0FBEFC
:10230000CDBFDF91CF911F910F91FF90EF90DF90A4
:10231000CF90089597FB072E16F4009407D077FD11
:1023200009D00E94A51107FC05D03EF49095819537
:102330009F4F0895709561957F4F08950E9457199A
:10234000B7FF0895821B930B0895AA1BBB1B51E195
:1023500007C0AA1FBB1FA617B70710F0A61BB70B15
:10236000881F991F5A95A9F780959095BC01CD01BA
:102370000895EE0FFF1F0590F491E02D0994505839
:10238000BB27AA270E94D7110C945A180E944C18F8
:1023900038F00E94531820F039F49F3F19F426F4C6
:1023A0000C9449180EF4E095E7FB0C944318E92FC0
:1023B0000E946B1858F3BA176207730784079507D2
:1023C00020F079F4A6F50C948D180EF4E0950B2E00
:1023D000BA2FA02D0B01B90190010C01CA01A00177
:1023E0001124FF27591B99F0593F50F4503E68F1D2
:1023F0001A16F040A22F232F342F4427585FF3CF13
:10240000469537952795A795F0405395C9F77EF4E3
:102410001F16BA0B620B730B840BBAF09150A1F02C
:10242000FF0FBB1F661F771F881FC2F70EC0BA0FB2
:10243000621F731F841F48F4879577956795B7953A
:10244000F7959E3F08F0B0CF9395880F08F0992735
:10245000EE0F9795879508950E9440120C945A1894
:102460000E94531858F00E944C1840F029F45F3F26
:1024700029F00C94431851110C948E180C9449189F
:102480000E946B1868F39923B1F3552391F3951BC0
:10249000550BBB27AA2762177307840738F09F5F85
:1024A0005F4F220F331F441FAA1FA9F335D00E2EF2
:1024B0003AF0E0E832D091505040E695001CCAF75F
:1024C0002BD0FE2F29D0660F771F881FBB1F261722
:1024D00037074807AB07B0E809F0BB0B802DBF01F9
:1024E000FF2793585F4F3AF09E3F510578F00C94C8
:1024F00043180C948E185F3FE4F3983ED4F386950E
:1025000077956795B795F7959F5FC9F7880F911DE8
:102510009695879597F90895E1E0660F771F881FD4
:10252000BB1F621773078407BA0720F0621B730B87
:10253000840BBA0BEE1F88F7E09508950E94A51250
:102540006894B1110C948E1808950E94731888F045
:102550009F5798F0B92F9927B751B0F0E1F0660F67
:10256000771F881F991F1AF0BA95C9F714C0B130A8
:1025700091F00E948D18B1E008950C948D18672F8A
:10258000782F8827B85F39F0B93FCCF386957795D7
:102590006795B395D9F73EF49095809570956195C0
:1025A0007F4F8F4F9F4F08950E94B21708F48FEF0F
:1025B00008950E94B217880B990B0895CF93DF936B
:1025C0008230910510F482E090E0E091C606F0912F
:1025D000C70620E030E0C0E0D0E0309711F1408144
:1025E000518148175907C0F04817590761F4828193
:1025F0009381209719F09B838A832BC09093C70601
:102600008093C60626C02115310519F042175307DD
:1026100018F49A01BE01DF01EF010280F381E02D81
:10262000DCCF2115310509F1281B390B2430310588
:1026300090F412968D919C9113976115710521F07C
:10264000FB019383828304C09093C7068093C606E0
:10265000FD01329644C0FD01E20FF31F8193919377
:10266000225031092D933C933AC02091C4063091F9
:10267000C506232B41F4209143033091440330934A
:10268000C5062093C40620914103309142032115D1
:10269000310541F42DB73EB74091450350914603B3
:1026A000241B350BE091C406F091C506E217F30731
:1026B000A0F42E1B3F0B2817390778F0AC014E5FB2
:1026C0005F4F2417350748F04E0F5F1F5093C50624
:1026D0004093C4068193919302C0E0E0F0E0CF0103
:1026E000DF91CF9108950F931F93CF93DF930097BE
:1026F00009F48CC0FC013297138212820091C60645
:102700001091C7060115110581F420813181820FD6
:10271000931F2091C4063091C5062817390779F513
:10272000F093C506E093C40671C0D80140E050E0C4
:10273000AE17BF0750F412962D913C911397AD013F
:102740002115310509F1D901F3CF9D01DA01338358
:10275000228360817181860F971F8217930769F426
:10276000EC0128813981260F371F2E5F3F4F3183BF
:1027700020838A819B8193838283452B29F4F09364
:10278000C706E093C60642C01396FC93EE931297D9
:10279000ED01499159919E01240F351FE217F3076E
:1027A00071F480819181840F951F029611969C93FC
:1027B0008E938281938113969C938E931297E0E07F
:1027C000F0E0D80112968D919C911397009719F023
:1027D000F8018C01F6CF8D919C9198012E5F3F4FAF
:1027E000820F931F2091C4063091C5062817390720
:1027F00069F4309729F41092C7061092C60602C0F9
:10280000138212821093C5060093C406DF91CF9104
:102810001F910F910895A0E0B0E0E1E1F4E10C9484
:102820002419EC01009721F4CB010E94DE12B8C0FC
:10283000FC01E60FF71F9C0122503109E217F30754
:1028400008F4ACC0D9010D911C9111970617170718
:10285000B0F00530110508F49FC0C8010497861731
:10286000970708F499C002501109061B170B019332
:1028700011936D937C93CF010E9473138DC05B0104
:10288000A01AB10A4C01800E911EA091C606B0910B
:10289000C70640E050E0E12CF12C109709F44AC043
:1028A000A815B905D1F56D907C901197630182E070
:1028B000C80ED11CCA14DB0480F1A3014A195B09BC
:1028C0006A0182E0C80ED11C1296BC901297139632
:1028D000AC91B5E0CB16D10440F0B282A383518312
:1028E0004083D9016D937C930AC00E5F1F4FC301D3
:1028F000800F911FF90191838083EB2DFA2FE11452
:10290000F10431F0D7011396FC93EE93129744C073
:10291000F093C706E093C6063FC08D919C91119736
:102920004817590708F4AC017D0112960D90BC912F
:10293000A02DB3CF8091C4069091C5068815990546
:10294000E1F446175707C8F4809141039091420380
:10295000009741F48DB79EB74091450350914603CF
:10296000841B950BE817F907C8F4F093C506E093AC
:10297000C406F901718360830FC0CB010E94DE128F
:102980007C01009759F0A801BE010E94DA14CE0123
:102990000E947313C70104C0CE0102C080E090E022
:1029A000CDB7DEB7EEE00C94401981E090E0F894EA
:1029B0000C946619FB01DC0102C001900D9241509C
:1029C0005040D8F70895FB01DC0101900D920020E2
:1029D000E1F70895EF920F931F93CF93DF93E801F0
:1029E00047FD02C034E001C034E1E42F440FFF0B87
:1029F000F7FF03C0F195E195F109E32E022F2E2F89
:102A0000AE010E940A15CE01DF91CF911F910F9167
:102A1000EF9008954F925F926F927F929F92AF9244
:102A2000BF92CF92DF92EF92FF920F931F93CF93BB
:102A3000DF93CDB7DEB729970FB6F894DEBF0FBE90
:102A4000CDBF6A01122FB02E2BE3201720F0FF24F8
:102A5000F394F00E02C0BCE3FB2E0F2D27E0AE0175
:102A60004F5F5F4F0E949816AC018981982F997033
:102A7000913031F0E1FC06C0E0FE06C090E205C0F6
:102A80009DE203C09BE201C090E0EE2DE07183FF68
:102A90003CC0911102C083E001C084E0811718F4AA
:102AA000212F281B01C020E0E1110BC0F601822F6D
:102AB00030E2882319F031938150FBCFC20ED11C34
:102AC00020E0992329F0D6019C93F60131966F01FD
:102AD000C6010396E2FE0AC03EE4D6013C9341E4FF
:102AE00011964C93119712963C9306C03EE6F60160
:102AF000308341E641833283FC01322F40E23323AD
:102B000009F442C041933150FACF82FF44C0911181
:102B100002C083E001C084E0811718F4212F281B34
:102B200001C020E0E1110BC0F601822F30E28823C2
:102B300019F031938150FBCFC20ED11C20E09923B4
:102B400029F0D6019C93F60131966F01C6010396D8
:102B5000E2FE0BC039E4D6013C933EE411963C936F
:102B6000119736E412963C9307C039E6F60130839C
:102B70003EE6318336E63283FC01322F40E23323D6
:102B800019F041933150FBCFFC01E20FF11D10828F
:102B90008EEF9FEFB7C0F1E0911101C0F0E06F2F11
:102BA00070E01416150624F49A012F5F3F4F02C0FF
:102BB00021E030E0260F371FBB2029F06B2D70E09D
:102BC0006F5F7F4F02C060E070E0260F371F612FFC
:102BD00070E0261737071CF4121B212F01C020E0DC
:102BE0003E2D387159F4D601322F60E2332319F0AB
:102BF0006D933150FBCFC20ED11C20E0FF2331F08A
:102C0000D6019C93B6016F5F7F4F6B01E1110BC042
:102C1000F601922F30E3992319F031939150FBCFB5
:102C2000C20ED11C20E09F2D940F3A81782F707135
:102C3000A72E84FF03C0313309F49150191624F4F0
:102C4000993018F098E001C091E0E42F852F57FFEC
:102C500002C0E0E080E06E2F782FE0E0F0E0AEE22E
:102C60009A2E3A01691A71082A01461A570A0B2D41
:102C700010E01195019511096F3F8FEF780729F446
:102C8000D6019C92C60101966C014617570784F045
:102C9000661677066CF47F01E40CF51CA1E0B0E049
:102CA000AC0FBD1FEA0EFB1ED7011196BC9002C0EF
:102CB00090E3B92E615071093196C60101967C01ED
:102CC0006017710724F0D601BC926C01D5CF641750
:102CD000750741F4363320F4353321F4A11002C0D6
:102CE00081E3B82EF601B082F701822F90E28823AB
:102CF00019F091938150FBCFF701E20FF11D108283
:102D000080E090E029960FB6F894DEBF0FBECDBFED
:102D1000DF91CF911F910F91FF90EF90DF90CF90B7
:102D2000BF90AF909F907F906F905F904F9008956D
:102D3000283008F027E03327DA01990F311D87FD8D
:102D4000916000966105710539F432602E5F3D9304
:102D500030E32A95E1F708959F3F30F08038710500
:102D6000610509F03C5F3C5F3D93913008F080685D
:102D7000911DDF93CF931F930F93FF92EF92192F23
:102D8000987F9695E92F96959695E90FFF27E45E33
:102D9000FE4F99273327EE24FF24A701E701059072
:102DA0000894079428F4360FE71EF81E491F511D9A
:102DB000660F771F881F991F0694A1F70590079447
:102DC00028F4E70EF81E491F561FC11D770F881FF4
:102DD000991F661F0694A1F70590079428F4F80E32
:102DE000491F561FC71FD11D880F991F661F771FC8
:102DF0000694A1F70590079420F4490F561FC71FAA
:102E0000D81F990F661F771F881F0694A9F7849112
:102E10001095177041F0D695C79557954795F7943B
:102E2000E7941A95C1F7E2ECF0E0689415901591DB
:102E300035916591959105907FE27395E118F10ABE
:102E4000430B560BC90BD009C0F7E10CF11E431F11
:102E5000561FC91FD01D7EF4703311F48A95E6CF3A
:102E6000E894015030F0080F0AF40027021708F424
:102E7000202F2395022F7A3328F079E37D932A952A
:102E8000E9F710C07D932A9589F606949795679582
:102E9000379517951794E118F10A430B560BC90B98
:102EA000D00998F023957E9173957A3308F070E3FA
:102EB0007C932013B8F77E9170617D9330F08395F9
:102EC00071E37D9370E32A95E1F71124EF90FF9071
:102ED0000F911F91CF91DF91992787FD90950895CC
:102EE0000E94B21708F481E00895E89409C097FBA6
:102EF0003EF490958095709561957F4F8F4F9F4FD1
:102F00009923A9F0F92F96E9BB279395F695879514
:102F100077956795B795F111F8CFFAF4BB0F11F4D7
:102F200060FF1BC06F5F7F4F8F4F9F4F16C088237E
:102F300011F096E911C0772321F09EE8872F762FB4
:102F400005C0662371F096E8862F70E060E02AF0F5
:102F50009A95660F771F881FDAF7880F96958795E1
:102F600097F90895990F0008550FAA0BE0E8FEEFB6
:102F700016161706E807F907C0F012161306E4073D
:102F8000F50798F0621B730B840B950B39F40A2636
:102F900061F0232B242B252B21F408950A2609F414
:102FA000A140A6958FEF811D811D08950E94E9170C
:102FB0000C945A180E944C1838F00E94531820F0B4
:102FC000952311F00C9443180C94491811240C9477
:102FD0008E180E946B1870F3959FC1F3950F50E007
:102FE000551F629FF001729FBB27F00DB11D639FBB
:102FF000AA27F00DB11DAA1F649F6627B00DA11D61
:10300000661F829F2227B00DA11D621F739FB00D06
:10301000A11D621F839FA00D611D221F749F332776
:10302000A00D611D231F849F600D211D822F762F0F
:103030006A2F11249F5750409AF0F1F088234AF0EC
:10304000EE0FFF1FBB1F661F771F881F9150504058
:10305000A9F79E3F510580F00C9443180C948E18EC
:103060005F3FE4F3983ED4F3869577956795B795DF
:10307000F795E7959F5FC1F7FE2B880F911D9695F9
:10308000879597F9089597F99F6780E870E060E069
:1030900008959FEF80EC089500240A9416161706F1
:1030A00018060906089500240A9412161306140639
:1030B00005060895092E0394000C11F4882352F09C
:1030C000BB0F40F4BF2B11F460FF04C06F5F7F4F54
:1030D0008F4F9F4F089557FD9058440F551F59F03B
:1030E0005F3F71F04795880F97FB991F61F09F3FF5
:1030F00079F087950895121613061406551FF2CF1E
:103100004695F1DF08C0161617061806991FF1CF6D
:1031100086957105610508940895E894BB27662794
:103120007727CB0197F90895DC01CB01FC01F999D0
:10313000FECF06C0F2BDE1BDF89A319600B40D9203
:1031400041505040B8F70895F999FECF92BD81BD26
:10315000F89A992780B50895DC01CB0103C02D9121
:103160000E94B71841505040D0F70895262FF99982
:10317000FECF1FBA92BD81BD20BD0FB6F894FA9A5A
:10318000F99A0FBE01960895DB018F939F930E94D9
:103190001519BF91AF91A29F800D911DA39F900D16
:1031A000B29F900D11240895A1E21A2EAA1BBB1BF9
:1031B000FD010DC0AA1FBB1FEE1FFF1FA217B30703
:1031C000E407F50720F0A21BB30BE40BF50B661F19
:1031D000771F881F991F1A9469F7609570958095DD
:1031E00090959B01AC01BD01CF010895052E97FB81
:1031F0001EF400940E940D1957FD07D00E94D418A8
:1032000007FC03D04EF40C940D1950954095309561
:1032100021953F4F4F4F5F4F089590958095709542
:1032200061957F4F8F4F9F4F08950E945719A59F1B
:10323000900DB49F900DA49F800D911D11240895B1
:103240002F923F924F925F926F927F928F929F92B6
:10325000AF92BF92CF92DF92EF92FF920F931F93A4
:10326000CF93DF93CDB7DEB7CA1BDB0B0FB6F89455
:10327000DEBF0FBECDBF09942A88398848885F8495
:103280006E847D848C849B84AA84B984C884DF8006
:10329000EE80FD800C811B81AA81B981CE0FD11DEA
:1032A0000FB6F894DEBF0FBECDBFED010895A29F0B
:1032B000B001B39FC001A39F700D811D1124911D0A
:1032C000B29F700D811D1124911D089510E0CFED66
:1032D000D0E004C0FE010E94B9112196C03ED10782
:0632E000C9F7F894FFCFCE
:1032E6000C000C000C000C000C000C000600030087
:1032F6000C000C000C000C000C000C000600030077
:103306000C000C000C000C000C000C000600030066
:103316000C000C000C000C000C000C000600060053
:103326001200120012000600060006000600060043
:1033360006001200120012001200120012000A000B
:103346000A000A000A000A000A000300030003003C
:1033560006010B02DC00B801E900D2010000000002
:1033660006010B02DC00B801E900D20100000000F2
:10337600AF005D01930026019C00370100000000AC
:10338600AF005D01930026019C003701000000009C
:10339600370115012601150137013701D000C40098
:1033A6001501060172015D01A500D201B8019F0158
:1033B6003701F700E900DC00D00000000000000043
:1033C6000C000C000C000C000C000C000C000C0097
:1033D6000C000C000C000C000C000C000C000C0087
:1033E6000C000C000C000C000C000C000C000C0077
:1033F6000C000C000C000C000C000C000C000C0067
:103406000900090009000C000C000C000C000C005F
:103416000C000C000C000C000C000C000C000C0046
:103426000C000C000C000C000C000C000C000C0036
:103436000C000C000C000C000C000C000C00090029
:10344600090009000C000C000C000C000C000C001C
:103456000C000C000C000C000C000C004D0A4D0A70
:1034660000004D0A00002D084D0A0000400C000027
:103476000000000020060000000000002D080000EB
:103486000000200600000000270500000000E006FE
:103496000000B80700004907E006000020064D0AB4
:1034A600400CC00D0000EA0A400C00004D0A000066
:1034B6002D082D09B807000000002D0800000000A7
:1034C600200600000000270500000000E0060000BE
:1034D600B80700004907E006000020064D0A400C28
:1034E600C00D0000EA0A400C00004D0A00002D083D
:1034F6002D09B807000000001F1F1F1F1F1F1F1FD9
:103506001E1E1E1E1E1E1E1E1C1C1C1C1C1C1C1CE5
:103516001818181818181818101010101010101065
:10352600010000C806800001000000000000003F06
:10353600010A018306610675060A0700000000BA43
:103546000A0A0100000000AA09E7066E616E00691A
:103556006E66006F766600564D4450565F317C317C
:103566005F564D4450560D0A0053657269616C20D2
:103576004F4B2100494E494349414E444F002E00CE
:10358600202754656D61205072696E636970616CA5
:10359600204D6172696F2700202754656D61204DAB
:1035A6006172696F20556E646572776F726C6427FD
:1035B600004D4F444F2043414C4942524143414FF5
:1035C600002D3E474152524146412043484549411C
:1035D600002D3E474152524146412056415A4941EB
:1035E600002D3E42414C414E43412056415A4941ED
:1035F6000042414C414E43412043414C49425241D5
:10360600444100476172726166612076617A696140
:103616003A2000476172726166612063686569617C
:103626003A20005065736F206E612062616C616E96
:1036360063613A20005175616E7469646164652046
:103646006361666520286C74293A20005369747595
:103656006163616F20646120676172726166613ABD
:1036660020002D2D2D2D2D2D2D2D2D2D2D2D2D2DBE
:103676002D2D2D2D2D2D2D2D2D2D2D2D2D2D2D2D74
:103686002D2D2D2D2D2D2D2D2D0053494C454E43E1
:103696004941444F202800204C00206D4C00202535
:1036A600290053454D2047415252414641004E495B
:1036B60056454C204352495449434F0043414645E1
:1036C6002041434142414E444F0054454D20434121
:1036D600464500504547414E444F2043414645002C
:1036E600454550524F4D206C69646F3A2000454560
:1036F60050524F4D204772617661646F3A20006DDB
:10370600696C6C69733A2000202F200041676F7244
:10371600613A2000416C61726D652073696C656E5B
:10372600636961646F206174653A200054616D615C
:0C3736006E686F206D75736963613A0066
:107E0000112484B714BE81FFF0D085E080938100F7
:107E100082E08093C00088E18093C10086E0809377
:107E2000C20080E18093C4008EE0C9D0259A86E02C
:107E300020E33CEF91E0309385002093840096BBD3
:107E4000B09BFECF1D9AA8958150A9F7CC24DD24C4
:107E500088248394B5E0AB2EA1E19A2EF3E0BF2EE7
:107E6000A2D0813461F49FD0082FAFD0023811F036
:107E7000013811F484E001C083E08DD089C08234E0
:107E800011F484E103C0853419F485E0A6D080C0E4
:107E9000853579F488D0E82EFF2485D0082F10E0AE
:107EA000102F00270E291F29000F111F8ED06801E7
:107EB0006FC0863521F484E090D080E0DECF843638
:107EC00009F040C070D06FD0082F6DD080E0C81688
:107ED00080E7D80618F4F601B7BEE895C0E0D1E017
:107EE00062D089930C17E1F7F0E0CF16F0E7DF06D8
:107EF00018F0F601B7BEE89568D007B600FCFDCFD4
:107F0000A601A0E0B1E02C9130E011968C91119780
:107F100090E0982F8827822B932B1296FA010C0160
:107F200087BEE89511244E5F5F4FF1E0A038BF0790
:107F300051F7F601A7BEE89507B600FCFDCF97BE46
:107F4000E89526C08437B1F42ED02DD0F82E2BD052
:107F50003CD0F601EF2C8F010F5F1F4F84911BD097
:107F6000EA94F801C1F70894C11CD11CFA94CF0C13
:107F7000D11C0EC0853739F428D08EE10CD085E9AC
:107F80000AD08FE07ACF813511F488E018D01DD067
:107F900080E101D065CF982F8091C00085FFFCCF94
:107FA0009093C60008958091C00087FFFCCF809118
:107FB000C00084FD01C0A8958091C6000895E0E648
:107FC000F0E098E1908380830895EDDF803219F02E
:107FD00088E0F5DFFFCF84E1DECF1F93182FE3DFCA
:107FE0001150E9F7F2DF1F91089580E0E8DFEE27F6
:047FF000FF270994CA
:027FFE00040479
:0400000300007E007B
:00000001FF